Component: ARM Compiler 5.06 update 7 (build 960) Tool: armlink [4d3601]

==============================================================================

Section Cross References

    main.o(i.SysTick_Handler) refers to b_hal.o(i.bHalIncSysTick) for bHalIncSysTick
    main.o(i.USART1_IRQHandler) refers to stm32f10x_usart.o(i.USART_GetITStatus) for USART_GetITStatus
    main.o(i.USART1_IRQHandler) refers to stm32f10x_usart.o(i.USART_ClearITPendingBit) for USART_ClearITPendingBit
    main.o(i.USART1_IRQHandler) refers to stm32f10x_usart.o(i.USART_ReceiveData) for USART_ReceiveData
    main.o(i.main) refers to board.o(i.BoardInit) for BoardInit
    main.o(i.main) refers to main.o(i.NVIC_SetPriority) for NVIC_SetPriority
    main.o(i.main) refers to b_core.o(i.bInit) for bInit
    main.o(i.main) refers to b_core.o(i.bOpen) for bOpen
    main.o(i.main) refers to b_core.o(i.bLseek) for bLseek
    main.o(i.main) refers to b_core.o(i.bRead) for bRead
    main.o(i.main) refers to b_mod_log.o(i.bLogOut) for bLogOut
    main.o(i.main) refers to b_core.o(i.bCtl) for bCtl
    main.o(i.main) refers to b_core.o(i.bWrite) for bWrite
    main.o(i.main) refers to b_core.o(i.bClose) for bClose
    main.o(i.main) refers to b_core.o(i.bExec) for bExec
    main.o(i.main) refers to system_stm32f10x.o(.data) for SystemCoreClock
    main.o(i.main) refers to main.o(.constdata) for .constdata
    stm32f10x_adc.o(i.ADC_DeInit) refers to stm32f10x_rcc.o(i.RCC_APB2PeriphResetCmd) for RCC_APB2PeriphResetCmd
==============================================================================

Removing Unused input sections from the image.

    Removing misc.o(i.NVIC_SetVectorTable), (20 bytes).
    Removing misc.o(i.NVIC_SystemLPConfig), (24 bytes).
    Removing misc.o(i.SysTick_CLKSourceConfig), (24 bytes).
    Removing stm32f10x_adc.o(i.ADC_AnalogWatchdogCmd), (16 bytes).
    Removing stm32f10x_adc.o(i.ADC_AnalogWatchdogSingleChannelConfig), (12 bytes).
    Removing stm32f10x_adc.o(i.ADC_AnalogWatchdogThresholdsConfig), (6 bytes).
    Removing stm32f10x_adc.o(i.ADC_AutoInjectedConvCmd), (20 bytes).
    Removing stm32f10x_adc.o(i.ADC_ClearFlag), (6 bytes).
    Removing stm32f10x_adc.o(i.ADC_ClearITPendingBit), (8 bytes).
    Removing stm32f10x_adc.o(i.ADC_Cmd), (20 bytes).
    Removing stm32f10x_adc.o(i.ADC_DMACmd), (20 bytes).
    Removing stm32f10x_adc.o(i.ADC_DeInit), (68 bytes).
    Removing stm32f10x_adc.o(i.ADC_DiscModeChannelCountConfig), (16 bytes).
    Removing stm32f10x_adc.o(i.ADC_DiscModeCmd), (20 bytes).
    Removing stm32f10x_adc.o(i.ADC_ExternalTrigConvCmd), (20 bytes).
    Removing stm32f10x_adc.o(i.ADC_ExternalTrigInjectedConvCmd), (20 bytes).
    Removing stm32f10x_adc.o(i.ADC_ExternalTrigInjectedConvConfig), (12 bytes).
    Removing stm32f10x_adc.o(i.ADC_GetCalibrationStatus), (14 bytes).
==============================================================================

Image Symbol Table

    Local Symbols

    Symbol Name                              Value     Ov Type        Size  Object(Section)

    ../clib/microlib/division.c              0x00000000   Number         0  uldiv.o ABSOLUTE
    ../clib/microlib/division.c              0x00000000   Number         0  uidiv.o ABSOLUTE
    ../clib/microlib/init/entry.s            0x00000000   Number         0  entry10b.o ABSOLUTE
    ../clib/microlib/init/entry.s            0x00000000   Number         0  entry2.o ABSOLUTE
    ../clib/microlib/init/entry.s            0x00000000   Number         0  entry7a.o ABSOLUTE
    ../clib/microlib/init/entry.s            0x00000000   Number         0  entry5.o ABSOLUTE
    ../clib/microlib/init/entry.s            0x00000000   Number         0  entry12b.o ABSOLUTE
    ../clib/microlib/init/entry.s            0x00000000   Number         0  entry12a.o ABSOLUTE
    ../clib/microlib/init/entry.s            0x00000000   Number         0  entry11b.o ABSOLUTE
    ../clib/microlib/init/entry.s            0x00000000   Number         0  entry11a.o ABSOLUTE
    ../clib/microlib/init/entry.s            0x00000000   Number         0  entry10a.o ABSOLUTE
    ../clib/microlib/init/entry.s            0x00000000   Number         0  entry9b.o ABSOLUTE
    ../clib/microlib/init/entry.s            0x00000000   Number         0  entry.o ABSOLUTE
    ../clib/microlib/init/entry.s            0x00000000   Number         0  entry9a.o ABSOLUTE
    ../clib/microlib/init/entry.s            0x00000000   Number         0  entry8b.o ABSOLUTE
    ../clib/microlib/init/entry.s            0x00000000   Number         0  entry8a.o ABSOLUTE
    ../clib/microlib/init/entry.s            0x00000000   Number         0  entry7b.o ABSOLUTE
    ../clib/microlib/longlong.c              0x00000000   Number         0  llushr.o ABSOLUTE
    ../clib/microlib/longlong.c              0x00000000   Number         0  llsshr.o ABSOLUTE
    ../clib/microlib/longlong.c              0x00000000   Number         0  llshl.o ABSOLUTE
    ../clib/microlib/printf/printf.c         0x00000000   Number         0  printf3.o ABSOLUTE
    ../clib/microlib/printf/printf.c         0x00000000   Number         0  printf5.o ABSOLUTE
    ../clib/microlib/printf/printf.c         0x00000000   Number         0  printfb.o ABSOLUTE
    ../clib/microlib/printf/printf.c         0x00000000   Number         0  printf0.o ABSOLUTE
    ../clib/microlib/printf/printf.c         0x00000000   Number         0  printfa.o ABSOLUTE
    ../clib/microlib/printf/printf.c         0x00000000   Number         0  printf2.o ABSOLUTE
    ../clib/microlib/printf/printf.c         0x00000000   Number         0  printf8.o ABSOLUTE
    ../clib/microlib/printf/printf.c         0x00000000   Number         0  printf7.o ABSOLUTE
    ../clib/microlib/printf/printf.c         0x00000000   Number         0  printf6.o ABSOLUTE
    ../clib/microlib/printf/printf.c         0x00000000   Number         0  printf1.o ABSOLUTE
    ../clib/microlib/printf/printf.c         0x00000000   Number         0  printf4.o ABSOLUTE
    ../clib/microlib/printf/stubs.s          0x00000000   Number         0  stubs.o ABSOLUTE
    ../clib/microlib/stdio/streams.c         0x00000000   Number         0  stdout.o ABSOLUTE
    ../clib/microlib/string/memcpy.c         0x00000000   Number         0  memcpyb.o ABSOLUTE
    ../clib/microlib/string/memcpy.c         0x00000000   Number         0  memcpya.o ABSOLUTE
    ../clib/microlib/string/memset.c         0x00000000   Number         0  memseta.o ABSOLUTE
    ../clib/microlib/string/strcmp.c         0x00000000   Number         0  strcmp.o ABSOLUTE
    ../clib/microlib/string/strlen.c         0x00000000   Number         0  strlen.o ABSOLUTE
    ../clib/microlib/stubs.s                 0x00000000   Number         0  iusefp.o ABSOLUTE
    ../fplib/microlib/fpadd.c                0x00000000   Number         0  dadd.o ABSOLUTE
    ../fplib/microlib/fpdiv.c                0x00000000   Number         0  ddiv.o ABSOLUTE
    ../fplib/microlib/fpepilogue.c           0x00000000   Number         0  depilogue.o ABSOLUTE
    ../fplib/microlib/fpfix.c                0x00000000   Number         0  dfixui.o ABSOLUTE
    ../fplib/microlib/fpfix.c                0x00000000   Number         0  dfixul.o ABSOLUTE
    ../fplib/microlib/fpflt.c                0x00000000   Number         0  dfltui.o ABSOLUTE
    ../fplib/microlib/fpmul.c                0x00000000   Number         0  dmul.o ABSOLUTE
    ..\..\..\..\Libraries\CMSIS\CM3\CoreSupport\core_cm3.c 0x00000000   Number         0  core_cm3.o ABSOLUTE
    ..\..\..\..\Libraries\CMSIS\CM3\DeviceSupport\ST\STM32F10x\startup\arm\startup_stm32f10x_cl.s 0x00000000   Number         0  startup_stm32f10x_cl.o ABSOLUTE
    ..\..\..\..\Libraries\CMSIS\CM3\DeviceSupport\ST\STM32F10x\system_stm32f10x.c 0x00000000   Number         0  system_stm32f10x.o ABSOLUTE
    ..\..\..\..\Libraries\STM32F10x_StdPeriph_Driver\src\misc.c 0x00000000   Number         0  misc.o ABSOLUTE
    ..\..\..\..\Libraries\STM32F10x_StdPeriph_Driver\src\stm32f10x_adc.c 0x00000000   Number         0  stm32f10x_adc.o ABSOLUTE
    ..\..\..\..\Libraries\STM32F10x_StdPeriph_Driver\src\stm32f10x_bkp.c 0x00000000   Number         0  stm32f10x_bkp.o ABSOLUTE
    ..\..\..\..\Libraries\STM32F10x_StdPeriph_Driver\src\stm32f10x_can.c 0x00000000   Number         0  stm32f10x_can.o ABSOLUTE
    ..\..\..\..\Libraries\STM32F10x_StdPeriph_Driver\src\stm32f10x_cec.c 0x00000000   Number         0  stm32f10x_cec.o ABSOLUTE
    ..\..\..\..\Libraries\STM32F10x_StdPeriph_Driver\src\stm32f10x_crc.c 0x00000000   Number         0  stm32f10x_crc.o ABSOLUTE
    ..\..\..\..\Libraries\STM32F10x_StdPeriph_Driver\src\stm32f10x_dac.c 0x00000000   Number         0  stm32f10x_dac.o ABSOLUTE
    ..\..\..\..\Libraries\STM32F10x_StdPeriph_Driver\src\stm32f10x_dbgmcu.c 0x00000000   Number         0  stm32f10x_dbgmcu.o ABSOLUTE
    ..\..\..\..\Libraries\STM32F10x_StdPeriph_Driver\src\stm32f10x_dma.c 0x00000000   Number         0  stm32f10x_dma.o ABSOLUTE
    ..\..\..\..\Libraries\STM32F10x_StdPeriph_Driver\src\stm32f10x_exti.c 0x00000000   Number         0  stm32f10x_exti.o ABSOLUTE
    ..\..\..\..\Libraries\STM32F10x_StdPeriph_Driver\src\stm32f10x_flash.c 0x00000000   Number         0  stm32f10x_flash.o ABSOLUTE
    ..\..\..\..\Libraries\STM32F10x_StdPeriph_Driver\src\stm32f10x_fsmc.c 0x00000000   Number         0  stm32f10x_fsmc.o ABSOLUTE
    ..\..\..\..\Libraries\STM32F10x_StdPeriph_Driver\src\stm32f10x_gpio.c 0x00000000   Number         0  stm32f10x_gpio.o ABSOLUTE
    ..\..\..\..\Libraries\STM32F10x_StdPeriph_Driver\src\stm32f10x_i2c.c 0x00000000   Number         0  stm32f10x_i2c.o ABSOLUTE
    ..\..\..\..\Libraries\STM32F10x_StdPeriph_Driver\src\stm32f10x_iwdg.c 0x00000000   Number         0  stm32f10x_iwdg.o ABSOLUTE
    ..\..\..\..\Libraries\STM32F10x_StdPeriph_Driver\src\stm32f10x_pwr.c 0x00000000   Number         0  stm32f10x_pwr.o ABSOLUTE
    ..\..\..\..\Libraries\STM32F10x_StdPeriph_Driver\src\stm32f10x_rcc.c 0x00000000   Number         0  stm32f10x_rcc.o ABSOLUTE
    ..\..\..\..\Libraries\STM32F10x_StdPeriph_Driver\src\stm32f10x_rtc.c 0x00000000   Number         0  stm32f10x_rtc.o ABSOLUTE
    ..\..\..\..\Libraries\STM32F10x_StdPeriph_Driver\src\stm32f10x_sdio.c 0x00000000   Number         0  stm32f10x_sdio.o ABSOLUTE
    ..\..\..\..\Libraries\STM32F10x_StdPeriph_Driver\src\stm32f10x_spi.c 0x00000000   Number         0  stm32f10x_spi.o ABSOLUTE
    ..\..\..\..\Libraries\STM32F10x_StdPeriph_Driver\src\stm32f10x_tim.c 0x00000000   Number         0  stm32f10x_tim.o ABSOLUTE
    ..\..\..\..\Libraries\STM32F10x_StdPeriph_Driver\src\stm32f10x_usart.c 0x00000000   Number         0  stm32f10x_usart.o ABSOLUTE
    ..\..\..\..\Libraries\STM32F10x_StdPeriph_Driver\src\stm32f10x_wwdg.c 0x00000000   Number         0  stm32f10x_wwdg.o ABSOLUTE
    ..\..\..\..\babyos\bos\core\b_core.c     0x00000000   Number         0  b_core.o ABSOLUTE
    ..\..\..\..\babyos\bos\core\b_device.c   0x00000000   Number         0  b_device.o ABSOLUTE
    ..\..\..\..\babyos\bos\drivers\b_drv_spiflash.c 0x00000000   Number         0  b_drv_spiflash.o ABSOLUTE
    ..\..\..\..\babyos\bos\hal\b_hal.c       0x00000000   Number         0  b_hal.o ABSOLUTE
    ..\..\..\..\babyos\bos\mcu\st\stm32f10x\mcu_stm32f10x_flash.c 0x00000000   Number         0  mcu_stm32f10x_flash.o ABSOLUTE
    ..\..\..\..\babyos\bos\mcu\st\stm32f10x\mcu_stm32f10x_gpio.c 0x00000000   Number         0  mcu_stm32f10x_gpio.o ABSOLUTE
    ..\..\..\..\babyos\bos\mcu\st\stm32f10x\mcu_stm32f10x_i2c.c 0x00000000   Number         0  mcu_stm32f10x_i2c.o ABSOLUTE
    ..\..\..\..\babyos\bos\mcu\st\stm32f10x\mcu_stm32f10x_it.c 0x00000000   Number         0  mcu_stm32f10x_it.o ABSOLUTE
    ..\..\..\..\babyos\bos\mcu\st\stm32f10x\mcu_stm32f10x_spi.c 0x00000000   Number         0  mcu_stm32f10x_spi.o ABSOLUTE
    ..\..\..\..\babyos\bos\mcu\st\stm32f10x\mcu_stm32f10x_uart.c 0x00000000   Number         0  mcu_stm32f10x_uart.o ABSOLUTE
    ..\..\..\..\babyos\bos\modules\b_mod_adchub.c 0x00000000   Number         0  b_mod_adchub.o ABSOLUTE
    ..\..\..\..\babyos\bos\modules\b_mod_button.c 0x00000000   Number         0  b_mod_button.o ABSOLUTE
    ..\..\..\..\babyos\bos\modules\b_mod_error.c 0x00000000   Number         0  b_mod_error.o ABSOLUTE
    ..\..\..\..\babyos\bos\modules\b_mod_event.c 0x00000000   Number         0  b_mod_event.o ABSOLUTE
    ..\..\..\..\babyos\bos\modules\b_mod_fifo.c 0x00000000   Number         0  b_mod_fifo.o ABSOLUTE
    ..\..\..\..\babyos\bos\modules\b_mod_fs.c 0x00000000   Number         0  b_mod_fs.o ABSOLUTE
    ..\..\..\..\babyos\bos\modules\b_mod_gui.c 0x00000000   Number         0  b_mod_gui.o ABSOLUTE
    ..\..\..\..\babyos\bos\modules\b_mod_heap.c 0x00000000   Number         0  b_mod_heap.o ABSOLUTE
    ..\..\..\..\babyos\bos\modules\b_mod_kv.c 0x00000000   Number         0  b_mod_kv.o ABSOLUTE
    ..\..\..\..\babyos\bos\modules\b_mod_log.c 0x00000000   Number         0  b_mod_log.o ABSOLUTE
    ..\..\..\..\babyos\bos\modules\b_mod_lunar.c 0x00000000   Number         0  b_mod_lunar.o ABSOLUTE
    ..\..\..\..\babyos\bos\modules\b_mod_menu.c 0x00000000   Number         0  b_mod_menu.o ABSOLUTE
    ..\..\..\..\babyos\bos\modules\b_mod_modbus.c 0x00000000   Number         0  b_mod_modbus.o ABSOLUTE
    ..\..\..\..\babyos\bos\modules\b_mod_param.c 0x00000000   Number         0  b_mod_param.o ABSOLUTE
    ..\..\..\..\babyos\bos\modules\b_mod_protocol.c 0x00000000   Number         0  b_mod_protocol.o ABSOLUTE
    ..\..\..\..\babyos\bos\modules\b_mod_sda.c 0x00000000   Number         0  b_mod_sda.o ABSOLUTE
    ..\..\..\..\babyos\bos\modules\b_mod_sdb.c 0x00000000   Number         0  b_mod_sdb.o ABSOLUTE
    ..\..\..\..\babyos\bos\modules\b_mod_shell.c 0x00000000   Number         0  b_mod_shell.o ABSOLUTE
    ..\..\..\..\babyos\bos\modules\b_mod_timer.c 0x00000000   Number         0  b_mod_timer.o ABSOLUTE
    ..\..\..\..\babyos\bos\modules\b_mod_utc.c 0x00000000   Number         0  b_mod_utc.o ABSOLUTE
    ..\..\..\..\babyos\bos\modules\b_mod_xm128.c 0x00000000   Number         0  b_mod_xm128.o ABSOLUTE
    ..\..\..\..\babyos\bos\modules\b_mod_ymodem.c 0x00000000   Number         0  b_mod_ymodem.o ABSOLUTE
    ..\..\..\..\babyos\bos\thirdparty\SFUD\sfud.c 0x00000000   Number         0  sfud.o ABSOLUTE
    ..\..\..\..\babyos\bos\thirdparty\SFUD\sfud_sfdp.c 0x00000000   Number         0  sfud_sfdp.o ABSOLUTE
    ..\..\..\..\babyos\bos\utils\b_util_i2c.c 0x00000000   Number         0  b_util_i2c.o ABSOLUTE
    ..\..\..\..\babyos\bos\utils\b_util_spi.c 0x00000000   Number         0  b_util_spi.o ABSOLUTE
    ..\..\..\..\babyos\bos\utils\b_util_uart.c 0x00000000   Number         0  b_util_uart.o ABSOLUTE
    ..\..\..\..\board\board.c                0x00000000   Number         0  board.o ABSOLUTE
    ..\\..\\..\\..\\Libraries\\CMSIS\\CM3\\CoreSupport\\core_cm3.c 0x00000000   Number         0  core_cm3.o ABSOLUTE
    ..\main.c                                0x00000000   Number         0  main.o ABSOLUTE
    ..\stm32f10x_it.c                        0x00000000   Number         0  stm32f10x_it.o ABSOLUTE
    cdrcmple.s                               0x00000000   Number         0  cdrcmple.o ABSOLUTE
    dc.s                                     0x00000000   Number         0  dc.o ABSOLUTE
    handlers.s                               0x00000000   Number         0  handlers.o ABSOLUTE
    init.s                                   0x00000000   Number         0  init.o ABSOLUTE
    RESET                                    0x08000000   Section      336  startup_stm32f10x_cl.o(RESET)
    .ARM.Collect$$$$00000000                 0x08000150   Section        0  entry.o(.ARM.Collect$$$$00000000)
    .ARM.Collect$$$$00000001                 0x08000150   Section        4  entry2.o(.ARM.Collect$$$$00000001)
    .ARM.Collect$$$$00000004                 0x08000154   Section        4  entry5.o(.ARM.Collect$$$$00000004)
    .ARM.Collect$$$$00000008                 0x08000158   Section        0  entry7b.o(.ARM.Collect$$$$00000008)
    .ARM.Collect$$$$0000000A                 0x08000158   Section        0  entry8b.o(.ARM.Collect$$$$0000000A)
    .ARM.Collect$$$$0000000B                 0x08000158   Section        8  entry9a.o(.ARM.Collect$$$$0000000B)
    .ARM.Collect$$$$0000000E                 0x08000160   Section        4  entry12b.o(.ARM.Collect$$$$0000000E)
    .ARM.Collect$$$$0000000F                 0x08000164   Section        0  entry10a.o(.ARM.Collect$$$$0000000F)
    .ARM.Collect$$$$00000011                 0x08000164   Section        0  entry11a.o(.ARM.Collect$$$$00000011)
    .ARM.Collect$$$$00002712                 0x08000164   Section        4  entry2.o(.ARM.Collect$$$$00002712)
    __lit__00000000                          0x08000164   Data           4  entry2.o(.ARM.Collect$$$$00002712)
    .text                                    0x08000168   Section       36  startup_stm32f10x_cl.o(.text)
    .text                                    0x0800018c   Section        0  memcpya.o(.text)
    .text                                    0x080001b0   Section        0  memseta.o(.text)
    .text                                    0x080001d4   Section        0  strlen.o(.text)
    .text                                    0x080001e2   Section        0  strcmp.o(.text)
    .text                                    0x080001fe   Section        0  dmul.o(.text)
    .text                                    0x080002e2   Section        0  ddiv.o(.text)
    .text                                    0x080003c0   Section        0  dfltui.o(.text)
    .text                                    0x080003da   Section        0  dfixui.o(.text)
    .text                                    0x0800040c   Section        0  uidiv.o(.text)
    .text                                    0x08000438   Section        0  uldiv.o(.text)
    .text                                    0x0800049a   Section        0  llushr.o(.text)
    .text                                    0x080004ba   Section        0  iusefp.o(.text)
    .text                                    0x080004ba   Section        0  depilogue.o(.text)
    .text                                    0x08000574   Section        0  dadd.o(.text)
    .text                                    0x080006c2   Section        0  dfixul.o(.text)
    .text                                    0x080006f4   Section       48  cdrcmple.o(.text)
    .text                                    0x08000724   Section       36  init.o(.text)
    .text                                    0x08000748   Section        0  llshl.o(.text)
    .text                                    0x08000766   Section        0  llsshr.o(.text)
    i.BoardInit                              0x0800078c   Section        0  board.o(i.BoardInit)
    i.BusFault_Handler                       0x08000814   Section        0  stm32f10x_it.o(i.BusFault_Handler)
    i.DebugMon_Handler                       0x08000816   Section        0  stm32f10x_it.o(i.DebugMon_Handler)
    i.GPIO_Init                              0x08000818   Section        0  stm32f10x_gpio.o(i.GPIO_Init)
    i.GPIO_PinRemapConfig                    0x080008bc   Section        0  stm32f10x_gpio.o(i.GPIO_PinRemapConfig)
    i.GPIO_SetBits                           0x08000914   Section        0  stm32f10x_gpio.o(i.GPIO_SetBits)
    i.HardFault_Handler                      0x08000918   Section        0  stm32f10x_it.o(i.HardFault_Handler)
    i.MemManage_Handler                      0x0800091a   Section        0  stm32f10x_it.o(i.MemManage_Handler)
    i.NMI_Handler                            0x0800091c   Section        0  stm32f10x_it.o(i.NMI_Handler)
    i.NVIC_Init                              0x08000920   Section        0  misc.o(i.NVIC_Init)
    i.NVIC_PriorityGroupConfig               0x08000984   Section        0  misc.o(i.NVIC_PriorityGroupConfig)
    i.NVIC_SetPriority                       0x08000998   Section        0  main.o(i.NVIC_SetPriority)
    NVIC_SetPriority                         0x08000999   Thumb Code    32  main.o(i.NVIC_SetPriority)
    i.PendSV_Handler                         0x080009b8   Section        0  stm32f10x_it.o(i.PendSV_Handler)
    i.RCC_APB1PeriphClockCmd                 0x080009bc   Section        0  stm32f10x_rcc.o(i.RCC_APB1PeriphClockCmd)
    i.RCC_APB2PeriphClockCmd                 0x080009d4   Section        0  stm32f10x_rcc.o(i.RCC_APB2PeriphClockCmd)
    i.RCC_GetClocksFreq                      0x080009ec   Section        0  stm32f10x_rcc.o(i.RCC_GetClocksFreq)
    i.SPI_Cmd                                0x08000ab4   Section        0  stm32f10x_spi.o(i.SPI_Cmd)
    i.SPI_Init                               0x08000ac8   Section        0  stm32f10x_spi.o(i.SPI_Init)
    i.SVC_Handler                            0x08000b00   Section        0  stm32f10x_it.o(i.SVC_Handler)
    i.SetSysClockTo72                        0x08000b04   Section        0  system_stm32f10x.o(i.SetSysClockTo72)
    SetSysClockTo72                          0x08000b05   Thumb Code   190  system_stm32f10x.o(i.SetSysClockTo72)
    i.SysTick_Handler                        0x08000bd4   Section        0  main.o(i.SysTick_Handler)
    i.SystemInit                             0x08000bd8   Section        0  system_stm32f10x.o(i.SystemInit)
    i.USART1_IRQHandler                      0x08000c24   Section        0  main.o(i.USART1_IRQHandler)
    i.USART_ClearITPendingBit                0x08000c50   Section        0  stm32f10x_usart.o(i.USART_ClearITPendingBit)
    i.USART_Cmd                              0x08000c5c   Section        0  stm32f10x_usart.o(i.USART_Cmd)
    i.USART_GetITStatus                      0x08000c70   Section        0  stm32f10x_usart.o(i.USART_GetITStatus)
    i.USART_ITConfig                         0x08000cae   Section        0  stm32f10x_usart.o(i.USART_ITConfig)
    i.USART_Init                             0x08000ce0   Section        0  stm32f10x_usart.o(i.USART_Init)
    i.USART_ReceiveData                      0x08000d8c   Section        0  stm32f10x_usart.o(i.USART_ReceiveData)
    i.UsageFault_Handler                     0x08000d94   Section        0  stm32f10x_it.o(i.UsageFault_Handler)
    i._GpioConfig                            0x08000d98   Section        0  mcu_stm32f10x_gpio.o(i._GpioConfig)
    _GpioConfig                              0x08000d99   Thumb Code   118  mcu_stm32f10x_gpio.o(i._GpioConfig)
    i._GpioInit                              0x08000e14   Section        0  board.o(i._GpioInit)
    _GpioInit                                0x08000e15   Thumb Code   458  board.o(i._GpioInit)
    i._GpioRead                              0x08000ff8   Section        0  mcu_stm32f10x_gpio.o(i._GpioRead)
    _GpioRead                                0x08000ff9   Thumb Code    20  mcu_stm32f10x_gpio.o(i._GpioRead)
    i._GpioReadPin                           0x08001010   Section        0  mcu_stm32f10x_gpio.o(i._GpioReadPin)
    _GpioReadPin                             0x08001011   Thumb Code    36  mcu_stm32f10x_gpio.o(i._GpioReadPin)
    i._GpioWrite                             0x08001038   Section        0  mcu_stm32f10x_gpio.o(i._GpioWrite)
    _GpioWrite                               0x08001039   Thumb Code    14  mcu_stm32f10x_gpio.o(i._GpioWrite)
    i._GpioWritePin                          0x0800104c   Section        0  mcu_stm32f10x_gpio.o(i._GpioWritePin)
    _GpioWritePin                            0x0800104d   Thumb Code    32  mcu_stm32f10x_gpio.o(i._GpioWritePin)
    i._IntDisable                            0x08001070   Section        0  mcu_stm32f10x_it.o(i._IntDisable)
    _IntDisable                              0x08001071   Thumb Code     2  mcu_stm32f10x_it.o(i._IntDisable)
    i._IntEnable                             0x08001072   Section        0  mcu_stm32f10x_it.o(i._IntEnable)
    _IntEnable                               0x08001073   Thumb Code     2  mcu_stm32f10x_it.o(i._IntEnable)
    i._SpiInit                               0x08001074   Section        0  board.o(i._SpiInit)
    _SpiInit                                 0x08001075   Thumb Code   134  board.o(i._SpiInit)
    i._SpiReceive                            0x08001104   Section        0  mcu_stm32f10x_spi.o(i._SpiReceive)
    _SpiReceive                              0x08001105   Thumb Code    46  mcu_stm32f10x_spi.o(i._SpiReceive)
    i._SpiSend                               0x08001132   Section        0  mcu_stm32f10x_spi.o(i._SpiSend)
    _SpiSend                                 0x08001133   Thumb Code    44  mcu_stm32f10x_spi.o(i._SpiSend)
    i._SpiSetSpeed                           0x08001160   Section        0  mcu_stm32f10x_spi.o(i._SpiSetSpeed)
    _SpiSetSpeed                             0x08001161   Thumb Code    56  mcu_stm32f10x_spi.o(i._SpiSetSpeed)
    i._SpiTransfer                           0x0800119c   Section        0  mcu_stm32f10x_spi.o(i._SpiTransfer)
    _SpiTransfer                             0x0800119d   Thumb Code   106  mcu_stm32f10x_spi.o(i._SpiTransfer)
    i._UartReceive                           0x0800120c   Section        0  mcu_stm32f10x_uart.o(i._UartReceive)
    _UartReceive                             0x0800120d   Thumb Code    68  mcu_stm32f10x_uart.o(i._UartReceive)
    i._UartSend                              0x08001254   Section        0  mcu_stm32f10x_uart.o(i._UartSend)
    _UartSend                                0x08001255   Thumb Code    68  mcu_stm32f10x_uart.o(i._UartSend)
    i.__0sprintf                             0x0800129c   Section        0  printfa.o(i.__0sprintf)
    i.__0vsnprintf                           0x080012c4   Section        0  printfa.o(i.__0vsnprintf)
    i.__scatterload_copy                     0x080012f8   Section       14  handlers.o(i.__scatterload_copy)
    i.__scatterload_null                     0x08001306   Section        2  handlers.o(i.__scatterload_null)
    i.__scatterload_zeroinit                 0x08001308   Section       14  handlers.o(i.__scatterload_zeroinit)
    i._bCoreCreateFd                         0x08001318   Section        0  b_core.o(i._bCoreCreateFd)
    _bCoreCreateFd                           0x08001319   Thumb Code   106  b_core.o(i._bCoreCreateFd)
    i._bCoreDeleteFd                         0x0800138c   Section        0  b_core.o(i._bCoreDeleteFd)
    _bCoreDeleteFd                           0x0800138d   Thumb Code    30  b_core.o(i._bCoreDeleteFd)
    i._bCoreMonitor                          0x080013b0   Section        0  b_core.o(i._bCoreMonitor)
    _bCoreMonitor                            0x080013b1   Thumb Code     2  b_core.o(i._bCoreMonitor)
    i._bDriverNullInit                       0x080013b4   Section        0  b_device.o(i._bDriverNullInit)
    _bDriverNullInit                         0x080013b5   Thumb Code    34  b_device.o(i._bDriverNullInit)
    i._bHalUpdateDelayParam                  0x0800142c   Section        0  b_hal.o(i._bHalUpdateDelayParam)
    _bHalUpdateDelayParam                    0x0800142d   Thumb Code    78  b_hal.o(i._bHalUpdateDelayParam)
    i._bSPIFLASH_Close                       0x08001488   Section        0  b_drv_spiflash.o(i._bSPIFLASH_Close)
    _bSPIFLASH_Close                         0x08001489   Thumb Code    64  b_drv_spiflash.o(i._bSPIFLASH_Close)
    i._bSPIFLASH_Ctl                         0x080014d0   Section        0  b_drv_spiflash.o(i._bSPIFLASH_Ctl)
    _bSPIFLASH_Ctl                           0x080014d1   Thumb Code    62  b_drv_spiflash.o(i._bSPIFLASH_Ctl)
    i._bSPIFLASH_Open                        0x08001510   Section        0  b_drv_spiflash.o(i._bSPIFLASH_Open)
    _bSPIFLASH_Open                          0x08001511   Thumb Code    64  b_drv_spiflash.o(i._bSPIFLASH_Open)
    i._bSPIFLASH_ReadBuf                     0x08001558   Section        0  b_drv_spiflash.o(i._bSPIFLASH_ReadBuf)
    _bSPIFLASH_ReadBuf                       0x08001559   Thumb Code    18  b_drv_spiflash.o(i._bSPIFLASH_ReadBuf)
    i._bSPIFLASH_WriteBuf                    0x0800156a   Section        0  b_drv_spiflash.o(i._bSPIFLASH_WriteBuf)
    _bSPIFLASH_WriteBuf                      0x0800156b   Thumb Code    18  b_drv_spiflash.o(i._bSPIFLASH_WriteBuf)
    i._bSPIFlashSPI_Lock                     0x0800157c   Section        0  b_drv_spiflash.o(i._bSPIFlashSPI_Lock)
    _bSPIFlashSPI_Lock                       0x0800157d   Thumb Code     6  b_drv_spiflash.o(i._bSPIFlashSPI_Lock)
    i._bSPIFlashSPI_Unlock                   0x08001588   Section        0  b_drv_spiflash.o(i._bSPIFlashSPI_Unlock)
    _bSPIFlashSPI_Unlock                     0x08001589   Thumb Code     6  b_drv_spiflash.o(i._bSPIFlashSPI_Unlock)
    i._bSPIFlashSPI_WR                       0x08001594   Section        0  b_drv_spiflash.o(i._bSPIFlashSPI_WR)
    _bSPIFlashSPI_WR                         0x08001595   Thumb Code   118  b_drv_spiflash.o(i._bSPIFlashSPI_WR)
    i._bUtilUartDetectIdle                   0x08001614   Section        0  b_util_uart.o(i._bUtilUartDetectIdle)
    _bUtilUartDetectIdle                     0x08001615   Thumb Code    80  b_util_uart.o(i._bUtilUartDetectIdle)
    i._fp_digits                             0x08001668   Section        0  printfa.o(i._fp_digits)
    _fp_digits                               0x08001669   Thumb Code   366  printfa.o(i._fp_digits)
    i._printf_core                           0x080017ec   Section        0  printfa.o(i._printf_core)
    _printf_core                             0x080017ed   Thumb Code  1704  printfa.o(i._printf_core)
    i._printf_post_padding                   0x08001ea0   Section        0  printfa.o(i._printf_post_padding)
    _printf_post_padding                     0x08001ea1   Thumb Code    36  printfa.o(i._printf_post_padding)
    i._printf_pre_padding                    0x08001ec4   Section        0  printfa.o(i._printf_pre_padding)
    _printf_pre_padding                      0x08001ec5   Thumb Code    46  printfa.o(i._printf_pre_padding)
    i._snputc                                0x08001ef2   Section        0  printfa.o(i._snputc)
    _snputc                                  0x08001ef3   Thumb Code    22  printfa.o(i._snputc)
    i._sputc                                 0x08001f08   Section        0  printfa.o(i._sputc)
    _sputc                                   0x08001f09   Thumb Code    10  printfa.o(i._sputc)
    i.aai_write                              0x08001f14   Section        0  sfud.o(i.aai_write)
    aai_write                                0x08001f15   Thumb Code   440  sfud.o(i.aai_write)
    i.bClose                                 0x08002190   Section        0  b_core.o(i.bClose)
    i.bCtl                                   0x080021c0   Section        0  b_core.o(i.bCtl)
    i.bDeviceClose                           0x080021d8   Section        0  b_device.o(i.bDeviceClose)
    i.bDeviceCtl                             0x0800225c   Section        0  b_device.o(i.bDeviceCtl)
    i.bDeviceInit                            0x080022e4   Section        0  b_device.o(i.bDeviceInit)
    i.bDeviceOpen                            0x08002328   Section        0  b_device.o(i.bDeviceOpen)
    i.bDeviceRead                            0x080023ac   Section        0  b_device.o(i.bDeviceRead)
    i.bDeviceWrite                           0x08002438   Section        0  b_device.o(i.bDeviceWrite)
    i.bExec                                  0x080024c4   Section        0  b_core.o(i.bExec)
    i.bHalDelayUs                            0x080024e4   Section        0  b_hal.o(i.bHalDelayUs)
    i.bHalGetSysTick                         0x08002500   Section        0  b_hal.o(i.bHalGetSysTick)
    i.bHalIncSysTick                         0x0800250c   Section        0  b_hal.o(i.bHalIncSysTick)
    i.bHalInit                               0x0800251c   Section        0  b_hal.o(i.bHalInit)
    i.bInit                                  0x08002520   Section        0  b_core.o(i.bInit)
    i.bLogOut                                0x08002828   Section        0  b_mod_log.o(i.bLogOut)
    i.bLogOutput                             0x080028f0   Section        0  b_mod_log.o(i.bLogOutput)
    i.bLseek                                 0x0800290c   Section        0  b_core.o(i.bLseek)
    i.bOpen                                  0x0800292c   Section        0  b_core.o(i.bOpen)
    i.bRead                                  0x0800295c   Section        0  b_core.o(i.bRead)
    i.bSPIFLASH_Init                         0x080029a0   Section        0  b_drv_spiflash.o(i.bSPIFLASH_Init)
    i.bUtilSPI_WriteRead                     0x08002a78   Section        0  b_util_spi.o(i.bUtilSPI_WriteRead)
    i.bWrite                                 0x08002b3c   Section        0  b_core.o(i.bWrite)
    i.hardware_init                          0x08002b7c   Section        0  sfud.o(i.hardware_init)
    hardware_init                            0x08002b7d   Thumb Code   558  sfud.o(i.hardware_init)
    i.main                                   0x08002ed8   Section        0  main.o(i.main)
    i.make_adress_byte_array                 0x08002fa4   Section        0  sfud.o(i.make_adress_byte_array)
    make_adress_byte_array                   0x08002fa5   Thumb Code   136  sfud.o(i.make_adress_byte_array)
    i.page256_or_1_byte_write                0x08003094   Section        0  sfud.o(i.page256_or_1_byte_write)
    page256_or_1_byte_write                  0x08003095   Thumb Code   460  sfud.o(i.page256_or_1_byte_write)
    i.read_basic_header                      0x08003350   Section        0  sfud_sfdp.o(i.read_basic_header)
    read_basic_header                        0x08003351   Thumb Code   300  sfud_sfdp.o(i.read_basic_header)
    i.read_basic_table                       0x08003534   Section        0  sfud_sfdp.o(i.read_basic_table)
    read_basic_table                         0x08003535   Thumb Code  1726  sfud_sfdp.o(i.read_basic_table)
    i.read_jedec_id                          0x08003bf4   Section        0  sfud.o(i.read_jedec_id)
    read_jedec_id                            0x08003bf5   Thumb Code   162  sfud.o(i.read_jedec_id)
    i.read_sfdp_data                         0x08003d28   Section        0  sfud_sfdp.o(i.read_sfdp_data)
    read_sfdp_data                           0x08003d29   Thumb Code   242  sfud_sfdp.o(i.read_sfdp_data)
    i.read_sfdp_header                       0x08003eb4   Section        0  sfud_sfdp.o(i.read_sfdp_header)
    read_sfdp_header                         0x08003eb5   Thumb Code   256  sfud_sfdp.o(i.read_sfdp_header)
    i.reset                                  0x080040b4   Section        0  sfud.o(i.reset)
    reset                                    0x080040b5   Thumb Code   226  sfud.o(i.reset)
    i.set_4_byte_address_mode                0x08004238   Section        0  sfud.o(i.set_4_byte_address_mode)
    set_4_byte_address_mode                  0x08004239   Thumb Code   190  sfud.o(i.set_4_byte_address_mode)
    i.set_write_enabled                      0x080043b8   Section        0  sfud.o(i.set_write_enabled)
    set_write_enabled                        0x080043b9   Thumb Code   154  sfud.o(i.set_write_enabled)
    i.sfud_chip_erase                        0x080044d8   Section        0  sfud.o(i.sfud_chip_erase)
    i.sfud_device_init                       0x08004680   Section        0  sfud.o(i.sfud_device_init)
    i.sfud_erase                             0x08004774   Section        0  sfud.o(i.sfud_erase)
    i.sfud_init                              0x080049f4   Section        0  sfud.o(i.sfud_init)
    i.sfud_read                              0x08004ad4   Section        0  sfud.o(i.sfud_read)
    i.sfud_read_sfdp                         0x08004c9c   Section        0  sfud_sfdp.o(i.sfud_read_sfdp)
    i.sfud_read_status                       0x08004d7c   Section        0  sfud.o(i.sfud_read_status)
    i.sfud_sfdp_get_suitable_eraser          0x08004e60   Section        0  sfud_sfdp.o(i.sfud_sfdp_get_suitable_eraser)
    i.sfud_spi_port_init                     0x08004f44   Section        0  b_drv_spiflash.o(i.sfud_spi_port_init)
    i.sfud_write                             0x08004f6c   Section        0  sfud.o(i.sfud_write)
    i.sfud_write_status                      0x08004f98   Section        0  sfud.o(i.sfud_write_status)
    i.software_init                          0x080050c4   Section        0  sfud.o(i.software_init)
    software_init                            0x080050c5   Thumb Code    54  sfud.o(i.software_init)
    i.wait_busy                              0x0800515c   Section        0  sfud.o(i.wait_busy)
    wait_busy                                0x0800515d   Thumb Code   140  sfud.o(i.wait_busy)
    .constdata                               0x08005270   Section        5  main.o(.constdata)
    __func__                                 0x08005270   Data           5  main.o(.constdata)
    .constdata                               0x08005275   Section        6  b_core.o(.constdata)
    __func__                                 0x08005275   Data           6  b_core.o(.constdata)
    .constdata                               0x0800527b   Section       94  b_device.o(.constdata)
    __func__                                 0x0800527b   Data          17  b_device.o(.constdata)
    __func__                                 0x0800528c   Data          12  b_device.o(.constdata)
    __func__                                 0x08005298   Data          12  b_device.o(.constdata)
    __func__                                 0x080052a4   Data          13  b_device.o(.constdata)
    __func__                                 0x080052b1   Data          13  b_device.o(.constdata)
    __func__                                 0x080052be   Data          11  b_device.o(.constdata)
    __func__                                 0x080052c9   Data          16  b_device.o(.constdata)
    .constdata                               0x080052d9   Section       12  b_drv_spiflash.o(.constdata)
    bSPIFLASH_HalIfTable                     0x080052d9   Data          12  b_drv_spiflash.o(.constdata)
    .constdata                               0x080052e5   Section        6  b_mod_log.o(.constdata)
    bLogParamTable                           0x080052e5   Data           3  b_mod_log.o(.constdata)
    bLogPrefix                               0x080052e8   Data           3  b_mod_log.o(.constdata)
    .constdata                               0x080052ec   Section       20  mcu_stm32f10x_gpio.o(.constdata)
    .constdata                               0x08005300   Section        8  mcu_stm32f10x_it.o(.constdata)
    .constdata                               0x08005308   Section       16  mcu_stm32f10x_spi.o(.constdata)
    .constdata                               0x08005318   Section        8  mcu_stm32f10x_uart.o(.constdata)
    .constdata                               0x08005320   Section      890  sfud.o(.constdata)
    __func__                                 0x08005320   Data           6  sfud.o(.constdata)
    mf_table                                 0x08005328   Data         128  sfud.o(.constdata)
    flash_chip_table                         0x080053a8   Data         504  sfud.o(.constdata)
    __func__                                 0x080055a0   Data          17  sfud.o(.constdata)
    __func__                                 0x080055b1   Data          10  sfud.o(.constdata)
    __func__                                 0x080055bb   Data          14  sfud.o(.constdata)
    __func__                                 0x080055c9   Data          14  sfud.o(.constdata)
    __func__                                 0x080055d7   Data          10  sfud.o(.constdata)
    __func__                                 0x080055e1   Data          16  sfud.o(.constdata)
    __func__                                 0x080055f1   Data          11  sfud.o(.constdata)
    __func__                                 0x080055fc   Data          24  sfud.o(.constdata)
    __func__                                 0x08005614   Data          10  sfud.o(.constdata)
    __func__                                 0x0800561e   Data          14  sfud.o(.constdata)
    __func__                                 0x0800562c   Data          18  sfud.o(.constdata)
    __func__                                 0x0800563e   Data          24  sfud.o(.constdata)
    __func__                                 0x08005656   Data          17  sfud.o(.constdata)
    __func__                                 0x08005667   Data          10  sfud.o(.constdata)
    __func__                                 0x08005671   Data          23  sfud.o(.constdata)
    __func__                                 0x08005688   Data          18  sfud.o(.constdata)
    .constdata                               0x0800569a   Section      112  sfud_sfdp.o(.constdata)
    __func__                                 0x0800569a   Data          15  sfud_sfdp.o(.constdata)
    __func__                                 0x080056a9   Data          17  sfud_sfdp.o(.constdata)
    __func__                                 0x080056ba   Data          18  sfud_sfdp.o(.constdata)
    __func__                                 0x080056cc   Data          17  sfud_sfdp.o(.constdata)
    __func__                                 0x080056dd   Data          15  sfud_sfdp.o(.constdata)
    __func__                                 0x080056ec   Data          30  sfud_sfdp.o(.constdata)
    .conststring                             0x0800570c   Section       13  b_device.o(.conststring)
    .conststring                             0x0800571c   Section      521  sfud.o(.conststring)
    .conststring                             0x08005928   Section      911  sfud_sfdp.o(.conststring)
    bos_polling                              0x08005cd8   Section        4  b_core.o(bos_polling)
    __tagsym$$used                           0x08005cd8   Number         0  b_core.o(bos_polling)
    bos_polling                              0x08005cdc   Section        4  b_util_uart.o(bos_polling)
    __tagsym$$used                           0x08005cdc   Number         0  b_util_uart.o(bos_polling)
    driver_init                              0x08005ce0   Section        4  b_device.o(driver_init)
    __tagsym$$used                           0x08005ce0   Number         0  b_device.o(driver_init)
    driver_init                              0x08005ce4   Section        4  b_drv_spiflash.o(driver_init)
    __tagsym$$used                           0x08005ce4   Number         0  b_drv_spiflash.o(driver_init)
    driver_init_0                            0x08005ce8   Section        4  b_device.o(driver_init_0)
    __tagsym$$used                           0x08005ce8   Number         0  b_device.o(driver_init_0)
    .data                                    0x20000000   Section       20  stm32f10x_rcc.o(.data)
    ADCPrescTable                            0x20000000   Data           4  stm32f10x_rcc.o(.data)
    APBAHBPrescTable                         0x20000004   Data          16  stm32f10x_rcc.o(.data)
    .data                                    0x20000014   Section       20  system_stm32f10x.o(.data)
    .data                                    0x20000028   Section        1  b_core.o(.data)
    init                                     0x20000028   Data           1  b_core.o(.data)
    .data                                    0x2000002c   Section       16  b_device.o(.data)
    bDriverTable                             0x2000002c   Data           8  b_device.o(.data)
    bDeviceDescTable                         0x20000034   Data           8  b_device.o(.data)
    .data                                    0x2000003c   Section        4  b_drv_spiflash.o(.data)
    bSPIFlashName                            0x2000003c   Data           4  b_drv_spiflash.o(.data)
    .data                                    0x20000040   Section       12  mcu_stm32f10x_spi.o(.data)
    SpiTable                                 0x20000040   Data          12  mcu_stm32f10x_spi.o(.data)
    .data                                    0x2000004c   Section       20  mcu_stm32f10x_uart.o(.data)
    UartTable                                0x2000004c   Data          20  mcu_stm32f10x_uart.o(.data)
    .data                                    0x20000060   Section        8  b_hal.o(.data)
    bSysTick                                 0x20000060   Data           4  b_hal.o(.data)
    bUsDelayParam                            0x20000064   Data           4  b_hal.o(.data)
    .bss                                     0x20000068   Section       80  b_core.o(.bss)
    bCoreFdTable                             0x20000068   Data          80  b_core.o(.bss)
    .bss                                     0x200000b8   Section       32  b_device.o(.bss)
    bNullDriver                              0x200000b8   Data          32  b_device.o(.bss)
    .bss                                     0x200000d8   Section       32  b_drv_spiflash.o(.bss)
    .bss                                     0x200000f8   Section      256  b_mod_log.o(.bss)
    bLogBuff                                 0x200000f8   Data         256  b_mod_log.o(.bss)
    .bss                                     0x200001f8   Section       32  b_util_uart.o(.bss)
    bUitlUartHead                            0x200001f8   Data          32  b_util_uart.o(.bss)
    .bss                                     0x20000218   Section      380  sfud.o(.bss)
    cmd_data                                 0x20000218   Data         261  sfud.o(.bss)
    STACK                                    0x20000398   Section     2048  startup_stm32f10x_cl.o(STACK)

    Global Symbols

    Symbol Name                              Value     Ov Type        Size  Object(Section)

    BuildAttributes$$THM_ISAv4$P$D$K$B$S$PE$A:L22UL41UL21$X:L11$S22US41US21$IEEE1$IW$USESV6$~STKCKD$USESV7$~SHL$OSPACE$ROPI$EBA8$MICROLIB$REQ8$PRES8$EABIv2 0x00000000   Number         0  anon$$obj.o ABSOLUTE
    __ARM_use_no_argv                        0x00000000   Number         0  main.o ABSOLUTE
    _printf_a                                0x00000000   Number         0  stubs.o ABSOLUTE
    _printf_c                                0x00000000   Number         0  stubs.o ABSOLUTE
    _printf_charcount                        0x00000000   Number         0  stubs.o ABSOLUTE
    _printf_d                                0x00000000   Number         0  stubs.o ABSOLUTE
    _printf_e                                0x00000000   Number         0  stubs.o ABSOLUTE
    _printf_f                                0x00000000   Number         0  stubs.o ABSOLUTE
    _printf_flags                            0x00000000   Number         0  stubs.o ABSOLUTE
    _printf_fp_dec                           0x00000000   Number         0  stubs.o ABSOLUTE
    _printf_fp_hex                           0x00000000   Number         0  stubs.o ABSOLUTE
    _printf_g                                0x00000000   Number         0  stubs.o ABSOLUTE
    _printf_i                                0x00000000   Number         0  stubs.o ABSOLUTE
    _printf_int_dec                          0x00000000   Number         0  stubs.o ABSOLUTE
    _printf_l                                0x00000000   Number         0  stubs.o ABSOLUTE
    _printf_lc                               0x00000000   Number         0  stubs.o ABSOLUTE
    _printf_ll                               0x00000000   Number         0  stubs.o ABSOLUTE
    _printf_lld                              0x00000000   Number         0  stubs.o ABSOLUTE
    _printf_lli                              0x00000000   Number         0  stubs.o ABSOLUTE
    _printf_llo                              0x00000000   Number         0  stubs.o ABSOLUTE
    _printf_llu                              0x00000000   Number         0  stubs.o ABSOLUTE
    _printf_llx                              0x00000000   Number         0  stubs.o ABSOLUTE
    _printf_longlong_dec                     0x00000000   Number         0  stubs.o ABSOLUTE
    _printf_longlong_hex                     0x00000000   Number         0  stubs.o ABSOLUTE
    _printf_longlong_oct                     0x00000000   Number         0  stubs.o ABSOLUTE
    _printf_ls                               0x00000000   Number         0  stubs.o ABSOLUTE
    _printf_mbtowc                           0x00000000   Number         0  stubs.o ABSOLUTE
    _printf_n                                0x00000000   Number         0  stubs.o ABSOLUTE
    _printf_o                                0x00000000   Number         0  stubs.o ABSOLUTE
    _printf_p                                0x00000000   Number         0  stubs.o ABSOLUTE
    _printf_percent                          0x00000000   Number         0  stubs.o ABSOLUTE
    _printf_pre_padding                      0x00000000   Number         0  stubs.o ABSOLUTE
    _printf_return_value                     0x00000000   Number         0  stubs.o ABSOLUTE
    _printf_s                                0x00000000   Number         0  stubs.o ABSOLUTE
    _printf_sizespec                         0x00000000   Number         0  stubs.o ABSOLUTE
    _printf_str                              0x00000000   Number         0  stubs.o ABSOLUTE
    _printf_truncate_signed                  0x00000000   Number         0  stubs.o ABSOLUTE
    _printf_truncate_unsigned                0x00000000   Number         0  stubs.o ABSOLUTE
    _printf_u                                0x00000000   Number         0  stubs.o ABSOLUTE
    _printf_wc                               0x00000000   Number         0  stubs.o ABSOLUTE
    _printf_wctomb                           0x00000000   Number         0  stubs.o ABSOLUTE
    _printf_widthprec                        0x00000000   Number         0  stubs.o ABSOLUTE
    _printf_x                                0x00000000   Number         0  stubs.o ABSOLUTE
    __arm_fini_                               - Undefined Weak Reference
    __cpp_initialize__aeabi_                  - Undefined Weak Reference
    __cxa_finalize                            - Undefined Weak Reference
    __decompress                              - Undefined Weak Reference
    _clock_init                               - Undefined Weak Reference
    _microlib_exit                            - Undefined Weak Reference
    __Vectors_Size                           0x00000150   Number         0  startup_stm32f10x_cl.o ABSOLUTE
    __Vectors                                0x08000000   Data           4  startup_stm32f10x_cl.o(RESET)
    __Vectors_End                            0x08000150   Data           0  startup_stm32f10x_cl.o(RESET)
    __main                                   0x08000151   Thumb Code     0  entry.o(.ARM.Collect$$$$00000000)
    _main_stk                                0x08000151   Thumb Code     0  entry2.o(.ARM.Collect$$$$00000001)
    _main_scatterload                        0x08000155   Thumb Code     0  entry5.o(.ARM.Collect$$$$00000004)
    __main_after_scatterload                 0x08000159   Thumb Code     0  entry5.o(.ARM.Collect$$$$00000004)
    _main_clock                              0x08000159   Thumb Code     0  entry7b.o(.ARM.Collect$$$$00000008)
    _main_cpp_init                           0x08000159   Thumb Code     0  entry8b.o(.ARM.Collect$$$$0000000A)
    _main_init                               0x08000159   Thumb Code     0  entry9a.o(.ARM.Collect$$$$0000000B)
    __rt_lib_shutdown_fini                   0x08000161   Thumb Code     0  entry12b.o(.ARM.Collect$$$$0000000E)
    __rt_final_cpp                           0x08000165   Thumb Code     0  entry10a.o(.ARM.Collect$$$$0000000F)
    __rt_final_exit                          0x08000165   Thumb Code     0  entry11a.o(.ARM.Collect$$$$00000011)
    Reset_Handler                            0x08000169   Thumb Code     8  startup_stm32f10x_cl.o(.text)
    ADC1_2_IRQHandler                        0x08000183   Thumb Code     0  startup_stm32f10x_cl.o(.text)
    CAN1_RX0_IRQHandler                      0x08000183   Thumb Code     0  startup_stm32f10x_cl.o(.text)
    CAN1_RX1_IRQHandler                      0x08000183   Thumb Code     0  startup_stm32f10x_cl.o(.text)
    CAN1_SCE_IRQHandler                      0x08000183   Thumb Code     0  startup_stm32f10x_cl.o(.text)
    CAN1_TX_IRQHandler                       0x08000183   Thumb Code     0  startup_stm32f10x_cl.o(.text)
    CAN2_RX0_IRQHandler                      0x08000183   Thumb Code     0  startup_stm32f10x_cl.o(.text)
    CAN2_RX1_IRQHandler                      0x08000183   Thumb Code     0  startup_stm32f10x_cl.o(.text)
    CAN2_SCE_IRQHandler                      0x08000183   Thumb Code     0  startup_stm32f10x_cl.o(.text)
    CAN2_TX_IRQHandler                       0x08000183   Thumb Code     0  startup_stm32f10x_cl.o(.text)
    DMA1_Channel1_IRQHandler                 0x08000183   Thumb Code     0  startup_stm32f10x_cl.o(.text)
    DMA1_Channel2_IRQHandler                 0x08000183   Thumb Code     0  startup_stm32f10x_cl.o(.text)
    DMA1_Channel3_IRQHandler                 0x08000183   Thumb Code     0  startup_stm32f10x_cl.o(.text)
    DMA1_Channel4_IRQHandler                 0x08000183   Thumb Code     0  startup_stm32f10x_cl.o(.text)
    DMA1_Channel5_IRQHandler                 0x08000183   Thumb Code     0  startup_stm32f10x_cl.o(.text)
    DMA1_Channel6_IRQHandler                 0x08000183   Thumb Code     0  startup_stm32f10x_cl.o(.text)
    DMA1_Channel7_IRQHandler                 0x08000183   Thumb Code     0  startup_stm32f10x_cl.o(.text)
    DMA2_Channel1_IRQHandler                 0x08000183   Thumb Code     0  startup_stm32f10x_cl.o(.text)
    DMA2_Channel2_IRQHandler                 0x08000183   Thumb Code     0  startup_stm32f10x_cl.o(.text)
    DMA2_Channel3_IRQHandler                 0x08000183   Thumb Code     0  startup_stm32f10x_cl.o(.text)
    DMA2_Channel4_IRQHandler                 0x08000183   Thumb Code     0  startup_stm32f10x_cl.o(.text)
    DMA2_Channel5_IRQHandler                 0x08000183   Thumb Code     0  startup_stm32f10x_cl.o(.text)
    ETH_IRQHandler                           0x08000183   Thumb Code     0  startup_stm32f10x_cl.o(.text)
    ETH_WKUP_IRQHandler                      0x08000183   Thumb Code     0  startup_stm32f10x_cl.o(.text)
    EXTI0_IRQHandler                         0x08000183   Thumb Code     0  startup_stm32f10x_cl.o(.text)
    EXTI15_10_IRQHandler                     0x08000183   Thumb Code     0  startup_stm32f10x_cl.o(.text)
    EXTI1_IRQHandler                         0x08000183   Thumb Code     0  startup_stm32f10x_cl.o(.text)
    EXTI2_IRQHandler                         0x08000183   Thumb Code     0  startup_stm32f10x_cl.o(.text)
    EXTI3_IRQHandler                         0x08000183   Thumb Code     0  startup_stm32f10x_cl.o(.text)
    EXTI4_IRQHandler                         0x08000183   Thumb Code     0  startup_stm32f10x_cl.o(.text)
    EXTI9_5_IRQHandler                       0x08000183   Thumb Code     0  startup_stm32f10x_cl.o(.text)
    FLASH_IRQHandler                         0x08000183   Thumb Code     0  startup_stm32f10x_cl.o(.text)
    I2C1_ER_IRQHandler                       0x08000183   Thumb Code     0  startup_stm32f10x_cl.o(.text)
    I2C1_EV_IRQHandler                       0x08000183   Thumb Code     0  startup_stm32f10x_cl.o(.text)
    I2C2_ER_IRQHandler                       0x08000183   Thumb Code     0  startup_stm32f10x_cl.o(.text)
    I2C2_EV_IRQHandler                       0x08000183   Thumb Code     0  startup_stm32f10x_cl.o(.text)
    OTG_FS_IRQHandler                        0x08000183   Thumb Code     0  startup_stm32f10x_cl.o(.text)
    OTG_FS_WKUP_IRQHandler                   0x08000183   Thumb Code     0  startup_stm32f10x_cl.o(.text)
    PVD_IRQHandler                           0x08000183   Thumb Code     0  startup_stm32f10x_cl.o(.text)
    RCC_IRQHandler                           0x08000183   Thumb Code     0  startup_stm32f10x_cl.o(.text)
    RTCAlarm_IRQHandler                      0x08000183   Thumb Code     0  startup_stm32f10x_cl.o(.text)
    RTC_IRQHandler                           0x08000183   Thumb Code     0  startup_stm32f10x_cl.o(.text)
    SPI1_IRQHandler                          0x08000183   Thumb Code     0  startup_stm32f10x_cl.o(.text)
    SPI2_IRQHandler                          0x08000183   Thumb Code     0  startup_stm32f10x_cl.o(.text)
    SPI3_IRQHandler                          0x08000183   Thumb Code     0  startup_stm32f10x_cl.o(.text)
    TAMPER_IRQHandler                        0x08000183   Thumb Code     0  startup_stm32f10x_cl.o(.text)
    TIM1_BRK_IRQHandler                      0x08000183   Thumb Code     0  startup_stm32f10x_cl.o(.text)
    TIM1_CC_IRQHandler                       0x08000183   Thumb Code     0  startup_stm32f10x_cl.o(.text)
    TIM1_TRG_COM_IRQHandler                  0x08000183   Thumb Code     0  startup_stm32f10x_cl.o(.text)
    TIM1_UP_IRQHandler                       0x08000183   Thumb Code     0  startup_stm32f10x_cl.o(.text)
    TIM2_IRQHandler                          0x08000183   Thumb Code     0  startup_stm32f10x_cl.o(.text)
    TIM3_IRQHandler                          0x08000183   Thumb Code     0  startup_stm32f10x_cl.o(.text)
    TIM4_IRQHandler                          0x08000183   Thumb Code     0  startup_stm32f10x_cl.o(.text)
    TIM5_IRQHandler                          0x08000183   Thumb Code     0  startup_stm32f10x_cl.o(.text)
    TIM6_IRQHandler                          0x08000183   Thumb Code     0  startup_stm32f10x_cl.o(.text)
    TIM7_IRQHandler                          0x08000183   Thumb Code     0  startup_stm32f10x_cl.o(.text)
    UART4_IRQHandler                         0x08000183   Thumb Code     0  startup_stm32f10x_cl.o(.text)
    UART5_IRQHandler                         0x08000183   Thumb Code     0  startup_stm32f10x_cl.o(.text)
    USART2_IRQHandler                        0x08000183   Thumb Code     0  startup_stm32f10x_cl.o(.text)
    USART3_IRQHandler                        0x08000183   Thumb Code     0  startup_stm32f10x_cl.o(.text)
    WWDG_IRQHandler                          0x08000183   Thumb Code     0  startup_stm32f10x_cl.o(.text)
    __aeabi_memcpy                           0x0800018d   Thumb Code    36  memcpya.o(.text)
    __aeabi_memcpy4                          0x0800018d   Thumb Code     0  memcpya.o(.text)
    __aeabi_memcpy8                          0x0800018d   Thumb Code     0  memcpya.o(.text)
    __aeabi_memset                           0x080001b1   Thumb Code    14  memseta.o(.text)
    __aeabi_memset4                          0x080001b1   Thumb Code     0  memseta.o(.text)
    __aeabi_memset8                          0x080001b1   Thumb Code     0  memseta.o(.text)
    __aeabi_memclr                           0x080001bf   Thumb Code     4  memseta.o(.text)
    __aeabi_memclr4                          0x080001bf   Thumb Code     0  memseta.o(.text)
    __aeabi_memclr8                          0x080001bf   Thumb Code     0  memseta.o(.text)
    _memset$wrapper                          0x080001c3   Thumb Code    18  memseta.o(.text)
    strlen                                   0x080001d5   Thumb Code    14  strlen.o(.text)
    strcmp                                   0x080001e3   Thumb Code    28  strcmp.o(.text)
    __aeabi_dmul                             0x080001ff   Thumb Code   228  dmul.o(.text)
    __aeabi_ddiv                             0x080002e3   Thumb Code   222  ddiv.o(.text)
    __aeabi_ui2d                             0x080003c1   Thumb Code    26  dfltui.o(.text)
    __aeabi_d2uiz                            0x080003db   Thumb Code    50  dfixui.o(.text)
    __aeabi_uidiv                            0x0800040d   Thumb Code     0  uidiv.o(.text)
    __aeabi_uidivmod                         0x0800040d   Thumb Code    44  uidiv.o(.text)
    __aeabi_uldivmod                         0x08000439   Thumb Code    98  uldiv.o(.text)
    __aeabi_llsr                             0x0800049b   Thumb Code    32  llushr.o(.text)
    _ll_ushift_r                             0x0800049b   Thumb Code     0  llushr.o(.text)
    __I$use$fp                               0x080004bb   Thumb Code     0  iusefp.o(.text)
    _double_round                            0x080004bb   Thumb Code    30  depilogue.o(.text)
    _double_epilogue                         0x080004d9   Thumb Code   156  depilogue.o(.text)
    __aeabi_dadd                             0x08000575   Thumb Code   322  dadd.o(.text)
    __aeabi_dsub                             0x080006b7   Thumb Code     6  dadd.o(.text)
    __aeabi_drsub                            0x080006bd   Thumb Code     6  dadd.o(.text)
    __aeabi_d2ulz                            0x080006c3   Thumb Code    48  dfixul.o(.text)
    __aeabi_cdrcmple                         0x080006f5   Thumb Code    48  cdrcmple.o(.text)
    __scatterload                            0x08000725   Thumb Code    28  init.o(.text)
    __scatterload_rt2                        0x08000725   Thumb Code     0  init.o(.text)
    __aeabi_llsl                             0x08000749   Thumb Code    30  llshl.o(.text)
    _ll_shift_l                              0x08000749   Thumb Code     0  llshl.o(.text)
    __aeabi_lasr                             0x08000767   Thumb Code    36  llsshr.o(.text)
    _ll_sshift_r                             0x08000767   Thumb Code     0  llsshr.o(.text)
    BoardInit                                0x0800078d   Thumb Code   130  board.o(i.BoardInit)
    BusFault_Handler                         0x08000815   Thumb Code     2  stm32f10x_it.o(i.BusFault_Handler)
    DebugMon_Handler                         0x08000817   Thumb Code     2  stm32f10x_it.o(i.DebugMon_Handler)
    GPIO_Init                                0x08000819   Thumb Code   162  stm32f10x_gpio.o(i.GPIO_Init)
    GPIO_PinRemapConfig                      0x080008bd   Thumb Code    82  stm32f10x_gpio.o(i.GPIO_PinRemapConfig)
    GPIO_SetBits                             0x08000915   Thumb Code     4  stm32f10x_gpio.o(i.GPIO_SetBits)
    HardFault_Handler                        0x08000919   Thumb Code     2  stm32f10x_it.o(i.HardFault_Handler)
    MemManage_Handler                        0x0800091b   Thumb Code     2  stm32f10x_it.o(i.MemManage_Handler)
    NMI_Handler                              0x0800091d   Thumb Code     2  stm32f10x_it.o(i.NMI_Handler)
    NVIC_Init                                0x08000921   Thumb Code    94  misc.o(i.NVIC_Init)
    NVIC_PriorityGroupConfig                 0x08000985   Thumb Code    10  misc.o(i.NVIC_PriorityGroupConfig)
    PendSV_Handler                           0x080009b9   Thumb Code     2  stm32f10x_it.o(i.PendSV_Handler)
    RCC_APB1PeriphClockCmd                   0x080009bd   Thumb Code    18  stm32f10x_rcc.o(i.RCC_APB1PeriphClockCmd)
    RCC_APB2PeriphClockCmd                   0x080009d5   Thumb Code    18  stm32f10x_rcc.o(i.RCC_APB2PeriphClockCmd)
    RCC_GetClocksFreq                        0x080009ed   Thumb Code   178  stm32f10x_rcc.o(i.RCC_GetClocksFreq)
    SPI_Cmd                                  0x08000ab5   Thumb Code    20  stm32f10x_spi.o(i.SPI_Cmd)
    SPI_Init                                 0x08000ac9   Thumb Code    56  stm32f10x_spi.o(i.SPI_Init)
    SVC_Handler                              0x08000b01   Thumb Code     2  stm32f10x_it.o(i.SVC_Handler)
    SysTick_Handler                          0x08000bd5   Thumb Code     4  main.o(i.SysTick_Handler)
    SystemInit                               0x08000bd9   Thumb Code    64  system_stm32f10x.o(i.SystemInit)
    USART1_IRQHandler                        0x08000c25   Thumb Code    40  main.o(i.USART1_IRQHandler)
    USART_ClearITPendingBit                  0x08000c51   Thumb Code    12  stm32f10x_usart.o(i.USART_ClearITPendingBit)
    USART_Cmd                                0x08000c5d   Thumb Code    20  stm32f10x_usart.o(i.USART_Cmd)
    USART_GetITStatus                        0x08000c71   Thumb Code    62  stm32f10x_usart.o(i.USART_GetITStatus)
    USART_ITConfig                           0x08000caf   Thumb Code    48  stm32f10x_usart.o(i.USART_ITConfig)
    USART_Init                               0x08000ce1   Thumb Code   166  stm32f10x_usart.o(i.USART_Init)
    USART_ReceiveData                        0x08000d8d   Thumb Code     8  stm32f10x_usart.o(i.USART_ReceiveData)
    UsageFault_Handler                       0x08000d95   Thumb Code     2  stm32f10x_it.o(i.UsageFault_Handler)
    __0sprintf                               0x0800129d   Thumb Code    34  printfa.o(i.__0sprintf)
    __1sprintf                               0x0800129d   Thumb Code     0  printfa.o(i.__0sprintf)
    __2sprintf                               0x0800129d   Thumb Code     0  printfa.o(i.__0sprintf)
    __c89sprintf                             0x0800129d   Thumb Code     0  printfa.o(i.__0sprintf)
    sprintf                                  0x0800129d   Thumb Code     0  printfa.o(i.__0sprintf)
    __0vsnprintf                             0x080012c5   Thumb Code    46  printfa.o(i.__0vsnprintf)
    __1vsnprintf                             0x080012c5   Thumb Code     0  printfa.o(i.__0vsnprintf)
    __2vsnprintf                             0x080012c5   Thumb Code     0  printfa.o(i.__0vsnprintf)
    __c89vsnprintf                           0x080012c5   Thumb Code     0  printfa.o(i.__0vsnprintf)
    vsnprintf                                0x080012c5   Thumb Code     0  printfa.o(i.__0vsnprintf)
    __scatterload_copy                       0x080012f9   Thumb Code    14  handlers.o(i.__scatterload_copy)
    __scatterload_null                       0x08001307   Thumb Code     2  handlers.o(i.__scatterload_null)
    __scatterload_zeroinit                   0x08001309   Thumb Code    14  handlers.o(i.__scatterload_zeroinit)
    bClose                                   0x08002191   Thumb Code    44  b_core.o(i.bClose)
    bCtl                                     0x080021c1   Thumb Code    20  b_core.o(i.bCtl)
    bDeviceClose                             0x080021d9   Thumb Code    72  b_device.o(i.bDeviceClose)
    bDeviceCtl                               0x0800225d   Thumb Code    74  b_device.o(i.bDeviceCtl)
    bDeviceInit                              0x080022e5   Thumb Code    46  b_device.o(i.bDeviceInit)
    bDeviceOpen                              0x08002329   Thumb Code    72  b_device.o(i.bDeviceOpen)
    bDeviceRead                              0x080023ad   Thumb Code    78  b_device.o(i.bDeviceRead)
    bDeviceWrite                             0x08002439   Thumb Code    78  b_device.o(i.bDeviceWrite)
    bExec                                    0x080024c5   Thumb Code    22  b_core.o(i.bExec)
    bHalDelayUs                              0x080024e5   Thumb Code    22  b_hal.o(i.bHalDelayUs)
    bHalGetSysTick                           0x08002501   Thumb Code     6  b_hal.o(i.bHalGetSysTick)
    bHalIncSysTick                           0x0800250d   Thumb Code    10  b_hal.o(i.bHalIncSysTick)
    bHalInit                                 0x0800251d   Thumb Code     4  b_hal.o(i.bHalInit)
    bInit                                    0x08002521   Thumb Code   232  b_core.o(i.bInit)
    bLogOut                                  0x08002829   Thumb Code   186  b_mod_log.o(i.bLogOut)
    bLogOutput                               0x080028f1   Thumb Code    24  b_mod_log.o(i.bLogOutput)
    bLseek                                   0x0800290d   Thumb Code    28  b_core.o(i.bLseek)
    bOpen                                    0x0800292d   Thumb Code    48  b_core.o(i.bOpen)
    bRead                                    0x0800295d   Thumb Code    62  b_core.o(i.bRead)
    bSPIFLASH_Init                           0x080029a1   Thumb Code   172  b_drv_spiflash.o(i.bSPIFLASH_Init)
    bUtilSPI_WriteRead                       0x08002a79   Thumb Code   192  b_util_spi.o(i.bUtilSPI_WriteRead)
    bWrite                                   0x08002b3d   Thumb Code    60  b_core.o(i.bWrite)
    main                                     0x08002ed9   Thumb Code   170  main.o(i.main)
    sfud_chip_erase                          0x080044d9   Thumb Code   264  sfud.o(i.sfud_chip_erase)
    sfud_device_init                         0x08004681   Thumb Code   102  sfud.o(i.sfud_device_init)
    sfud_erase                               0x08004775   Thumb Code   444  sfud.o(i.sfud_erase)
    sfud_init                                0x080049f5   Thumb Code    90  sfud.o(i.sfud_init)
    sfud_read                                0x08004ad5   Thumb Code   296  sfud.o(i.sfud_read)
    sfud_read_sfdp                           0x08004c9d   Thumb Code   118  sfud_sfdp.o(i.sfud_read_sfdp)
    sfud_read_status                         0x08004d7d   Thumb Code   122  sfud.o(i.sfud_read_status)
    sfud_sfdp_get_suitable_eraser            0x08004e61   Thumb Code   110  sfud_sfdp.o(i.sfud_sfdp_get_suitable_eraser)
    sfud_spi_port_init                       0x08004f45   Thumb Code    28  b_drv_spiflash.o(i.sfud_spi_port_init)
    sfud_write                               0x08004f6d   Thumb Code    42  sfud.o(i.sfud_write)
    sfud_write_status                        0x08004f99   Thumb Code   164  sfud.o(i.sfud_write_status)
    bHalGPIODriver                           0x080052ec   Data          20  mcu_stm32f10x_gpio.o(.constdata)
    bHalITDriver                             0x08005300   Data           8  mcu_stm32f10x_it.o(.constdata)
    bHalSPIDriver                            0x08005308   Data          16  mcu_stm32f10x_spi.o(.constdata)
    bHalUartDriver                           0x08005318   Data           8  mcu_stm32f10x_uart.o(.constdata)
    Region$$Table$$Base                      0x08005cb8   Number         0  anon$$obj.o(Region$$Table)
    Region$$Table$$Limit                     0x08005cd8   Number         0  anon$$obj.o(Region$$Table)
    bos_polling$$Base                        0x08005cd8   Number         0  b_core.o(bos_polling)
    polling_bCoreMonitor                     0x08005cd8   Data           4  b_core.o(bos_polling)
    polling_bUtilUartDetectIdle              0x08005cdc   Data           4  b_util_uart.o(bos_polling)
    bos_polling$$Limit                       0x08005ce0   Number         0  b_util_uart.o(bos_polling)
    driver_init$$Base                        0x08005ce0   Number         0  b_device.o(driver_init)
    init_bDriverNullInit                     0x08005ce0   Data           4  b_device.o(driver_init)
    initbSPIFLASH_Init                       0x08005ce4   Data           4  b_drv_spiflash.o(driver_init)
    driver_init$$Limit                       0x08005ce8   Number         0  b_drv_spiflash.o(driver_init)
    driver_init_0$$Base                      0x08005ce8   Number         0  b_device.o(driver_init_0)
    init0_bDriverNullInit                    0x08005ce8   Data           4  b_device.o(driver_init_0)
    driver_init_0$$Limit                     0x08005cec   Number         0  b_device.o(driver_init_0)
    SystemCoreClock                          0x20000014   Data           4  system_stm32f10x.o(.data)
    AHBPrescTable                            0x20000018   Data          16  system_stm32f10x.o(.data)
    bSPIFLASH_Driver                         0x200000d8   Data          32  b_drv_spiflash.o(.bss)
    flash_table                              0x20000320   Data         116  sfud.o(.bss)
    __initial_sp                             0x20000b98   Data           0  startup_stm32f10x_cl.o(STACK)



==============================================================================

Memory Map of the image

  Image Entry point : 0x08000151

  Load Region LR_IROM1 (Base: 0x08000000, Size: 0x00005d54, Max: 0x00040000, ABSOLUTE)

    Execution Region ER_IROM1 (Exec base: 0x08000000, Load base: 0x08000000, Size: 0x00005cec, Max: 0x00040000, ABSOLUTE)

    Exec Addr    Load Addr    Size         Type   Attr      Idx    E Section Name        Object

    0x08000000   0x08000000   0x00000150   Data   RO         3319    RESET               startup_stm32f10x_cl.o
    0x08000150   0x08000150   0x00000000   Code   RO         4368  * .ARM.Collect$$$$00000000  mc_w.l(entry.o)
    0x08000150   0x08000150   0x00000004   Code   RO         4650    .ARM.Collect$$$$00000001  mc_w.l(entry2.o)
    0x08000154   0x08000154   0x00000004   Code   RO         4653    .ARM.Collect$$$$00000004  mc_w.l(entry5.o)
    0x08000158   0x08000158   0x00000000   Code   RO         4655    .ARM.Collect$$$$00000008  mc_w.l(entry7b.o)
    0x08000158   0x08000158   0x00000000   Code   RO         4657    .ARM.Collect$$$$0000000A  mc_w.l(entry8b.o)
    0x08000158   0x08000158   0x00000008   Code   RO         4658    .ARM.Collect$$$$0000000B  mc_w.l(entry9a.o)
    0x08000160   0x08000160   0x00000004   Code   RO         4665    .ARM.Collect$$$$0000000E  mc_w.l(entry12b.o)
    0x08000164   0x08000164   0x00000000   Code   RO         4660    .ARM.Collect$$$$0000000F  mc_w.l(entry10a.o)
    0x08000164   0x08000164   0x00000000   Code   RO         4662    .ARM.Collect$$$$00000011  mc_w.l(entry11a.o)
    0x08000164   0x08000164   0x00000004   Code   RO         4651    .ARM.Collect$$$$00002712  mc_w.l(entry2.o)
    0x08000168   0x08000168   0x00000024   Code   RO         3320    .text               startup_stm32f10x_cl.o
    0x0800018c   0x0800018c   0x00000024   Code   RO         4371    .text               mc_w.l(memcpya.o)
    0x080001b0   0x080001b0   0x00000024   Code   RO         4373    .text               mc_w.l(memseta.o)
    0x080001d4   0x080001d4   0x0000000e   Code   RO         4375    .text               mc_w.l(strlen.o)
    0x080001e2   0x080001e2   0x0000001c   Code   RO         4377    .text               mc_w.l(strcmp.o)
    0x080001fe   0x080001fe   0x000000e4   Code   RO         4642    .text               mf_w.l(dmul.o)
    0x080002e2   0x080002e2   0x000000de   Code   RO         4644    .text               mf_w.l(ddiv.o)
    0x080003c0   0x080003c0   0x0000001a   Code   RO         4646    .text               mf_w.l(dfltui.o)
    0x080003da   0x080003da   0x00000032   Code   RO         4648    .text               mf_w.l(dfixui.o)
    0x0800040c   0x0800040c   0x0000002c   Code   RO         4667    .text               mc_w.l(uidiv.o)
    0x08000438   0x08000438   0x00000062   Code   RO         4669    .text               mc_w.l(uldiv.o)
    0x0800049a   0x0800049a   0x00000020   Code   RO         4671    .text               mc_w.l(llushr.o)
    0x080004ba   0x080004ba   0x00000000   Code   RO         4673    .text               mc_w.l(iusefp.o)
    0x080004ba   0x080004ba   0x000000ba   Code   RO         4674    .text               mf_w.l(depilogue.o)
    0x08000574   0x08000574   0x0000014e   Code   RO         4676    .text               mf_w.l(dadd.o)
    0x080006c2   0x080006c2   0x00000030   Code   RO         4678    .text               mf_w.l(dfixul.o)
    0x080006f2   0x080006f2   0x00000002   PAD
    0x080006f4   0x080006f4   0x00000030   Code   RO         4680    .text               mf_w.l(cdrcmple.o)
    0x08000724   0x08000724   0x00000024   Code   RO         4682    .text               mc_w.l(init.o)
    0x08000748   0x08000748   0x0000001e   Code   RO         4684    .text               mc_w.l(llshl.o)
    0x08000766   0x08000766   0x00000024   Code   RO         4686    .text               mc_w.l(llsshr.o)
    0x0800078a   0x0800078a   0x00000002   PAD
    0x0800078c   0x0800078c   0x00000088   Code   RO         4346    i.BoardInit         board.o
    0x08000814   0x08000814   0x00000002   Code   RO          213    i.BusFault_Handler  stm32f10x_it.o
    0x08000816   0x08000816   0x00000002   Code   RO          214    i.DebugMon_Handler  stm32f10x_it.o
    0x08000818   0x08000818   0x000000a2   Code   RO         1408    i.GPIO_Init         stm32f10x_gpio.o
    0x080008ba   0x080008ba   0x00000002   PAD
    0x080008bc   0x080008bc   0x00000058   Code   RO         1410    i.GPIO_PinRemapConfig  stm32f10x_gpio.o
    0x08000914   0x08000914   0x00000004   Code   RO         1416    i.GPIO_SetBits      stm32f10x_gpio.o
    0x08000918   0x08000918   0x00000002   Code   RO          215    i.HardFault_Handler  stm32f10x_it.o
    0x0800091a   0x0800091a   0x00000002   Code   RO          216    i.MemManage_Handler  stm32f10x_it.o
    0x0800091c   0x0800091c   0x00000002   Code   RO          217    i.NMI_Handler       stm32f10x_it.o
    0x0800091e   0x0800091e   0x00000002   PAD
    0x08000920   0x08000920   0x00000064   Code   RO          274    i.NVIC_Init         misc.o
    0x08000984   0x08000984   0x00000014   Code   RO          275    i.NVIC_PriorityGroupConfig  misc.o
    0x08000998   0x08000998   0x00000020   Code   RO            1    i.NVIC_SetPriority  main.o
    0x080009b8   0x080009b8   0x00000002   Code   RO          218    i.PendSV_Handler    stm32f10x_it.o
    0x080009ba   0x080009ba   0x00000002   PAD
    0x080009bc   0x080009bc   0x00000018   Code   RO         1828    i.RCC_APB1PeriphClockCmd  stm32f10x_rcc.o
    0x080009d4   0x080009d4   0x00000018   Code   RO         1830    i.RCC_APB2PeriphClockCmd  stm32f10x_rcc.o
    0x080009ec   0x080009ec   0x000000c8   Code   RO         1838    i.RCC_GetClocksFreq  stm32f10x_rcc.o
    0x08000ab4   0x08000ab4   0x00000014   Code   RO         2365    i.SPI_Cmd           stm32f10x_spi.o
    0x08000ac8   0x08000ac8   0x00000038   Code   RO         2378    i.SPI_Init          stm32f10x_spi.o
    0x08000b00   0x08000b00   0x00000002   Code   RO          219    i.SVC_Handler       stm32f10x_it.o
    0x08000b02   0x08000b02   0x00000002   PAD
    0x08000b04   0x08000b04   0x000000d0   Code   RO         3288    i.SetSysClockTo72   system_stm32f10x.o
    0x08000bd4   0x08000bd4   0x00000004   Code   RO            2    i.SysTick_Handler   main.o
    0x08000bd8   0x08000bd8   0x0000004c   Code   RO         3290    i.SystemInit        system_stm32f10x.o
    0x08000c24   0x08000c24   0x0000002c   Code   RO            3    i.USART1_IRQHandler  main.o
    0x08000c50   0x08000c50   0x0000000c   Code   RO         3041    i.USART_ClearITPendingBit  stm32f10x_usart.o
    0x08000c5c   0x08000c5c   0x00000014   Code   RO         3044    i.USART_Cmd         stm32f10x_usart.o
    0x08000c70   0x08000c70   0x0000003e   Code   RO         3048    i.USART_GetITStatus  stm32f10x_usart.o
    0x08000cae   0x08000cae   0x00000030   Code   RO         3050    i.USART_ITConfig    stm32f10x_usart.o
    0x08000cde   0x08000cde   0x00000002   PAD
    0x08000ce0   0x08000ce0   0x000000ac   Code   RO         3051    i.USART_Init        stm32f10x_usart.o
    0x08000d8c   0x08000d8c   0x00000008   Code   RO         3058    i.USART_ReceiveData  stm32f10x_usart.o
    0x08000d94   0x08000d94   0x00000002   Code   RO          220    i.UsageFault_Handler  stm32f10x_it.o
    0x08000d96   0x08000d96   0x00000002   PAD
    0x08000d98   0x08000d98   0x0000007c   Code   RO         3938    i._GpioConfig       mcu_stm32f10x_gpio.o
    0x08000e14   0x08000e14   0x000001e4   Code   RO         4347    i._GpioInit         board.o
    0x08000ff8   0x08000ff8   0x00000018   Code   RO         3939    i._GpioRead         mcu_stm32f10x_gpio.o
    0x08001010   0x08001010   0x00000028   Code   RO         3940    i._GpioReadPin      mcu_stm32f10x_gpio.o
    0x08001038   0x08001038   0x00000014   Code   RO         3941    i._GpioWrite        mcu_stm32f10x_gpio.o
    0x0800104c   0x0800104c   0x00000024   Code   RO         3942    i._GpioWritePin     mcu_stm32f10x_gpio.o
    0x08001070   0x08001070   0x00000002   Code   RO         4018    i._IntDisable       mcu_stm32f10x_it.o
    0x08001072   0x08001072   0x00000002   Code   RO         4019    i._IntEnable        mcu_stm32f10x_it.o
    0x08001074   0x08001074   0x00000090   Code   RO         4348    i._SpiInit          board.o
    0x08001104   0x08001104   0x0000002e   Code   RO         4040    i._SpiReceive       mcu_stm32f10x_spi.o
    0x08001132   0x08001132   0x0000002c   Code   RO         4041    i._SpiSend          mcu_stm32f10x_spi.o
    0x0800115e   0x0800115e   0x00000002   PAD
    0x08001160   0x08001160   0x0000003c   Code   RO         4042    i._SpiSetSpeed      mcu_stm32f10x_spi.o
    0x0800119c   0x0800119c   0x00000070   Code   RO         4043    i._SpiTransfer      mcu_stm32f10x_spi.o
    0x0800120c   0x0800120c   0x00000048   Code   RO         4080    i._UartReceive      mcu_stm32f10x_uart.o
    0x08001254   0x08001254   0x00000048   Code   RO         4081    i._UartSend         mcu_stm32f10x_uart.o
    0x0800129c   0x0800129c   0x00000028   Code   RO         4616    i.__0sprintf        mc_w.l(printfa.o)
    0x080012c4   0x080012c4   0x00000034   Code   RO         4619    i.__0vsnprintf      mc_w.l(printfa.o)
    0x080012f8   0x080012f8   0x0000000e   Code   RO         4690    i.__scatterload_copy  mc_w.l(handlers.o)
    0x08001306   0x08001306   0x00000002   Code   RO         4691    i.__scatterload_null  mc_w.l(handlers.o)
    0x08001308   0x08001308   0x0000000e   Code   RO         4692    i.__scatterload_zeroinit  mc_w.l(handlers.o)
    0x08001316   0x08001316   0x00000002   PAD
    0x08001318   0x08001318   0x00000074   Code   RO         3324    i._bCoreCreateFd    b_core.o
    0x0800138c   0x0800138c   0x00000024   Code   RO         3325    i._bCoreDeleteFd    b_core.o
    0x080013b0   0x080013b0   0x00000002   Code   RO         3326    i._bCoreMonitor     b_core.o
    0x080013b2   0x080013b2   0x00000002   PAD
    0x080013b4   0x080013b4   0x00000078   Code   RO         3406    i._bDriverNullInit  b_device.o
    0x0800142c   0x0800142c   0x0000005c   Code   RO         4103    i._bHalUpdateDelayParam  b_hal.o
    0x08001488   0x08001488   0x00000048   Code   RO         3471    i._bSPIFLASH_Close  b_drv_spiflash.o
    0x080014d0   0x080014d0   0x0000003e   Code   RO         3472    i._bSPIFLASH_Ctl    b_drv_spiflash.o
    0x0800150e   0x0800150e   0x00000002   PAD
    0x08001510   0x08001510   0x00000048   Code   RO         3473    i._bSPIFLASH_Open   b_drv_spiflash.o
    0x08001558   0x08001558   0x00000012   Code   RO         3474    i._bSPIFLASH_ReadBuf  b_drv_spiflash.o
    0x0800156a   0x0800156a   0x00000012   Code   RO         3475    i._bSPIFLASH_WriteBuf  b_drv_spiflash.o
    0x0800157c   0x0800157c   0x0000000c   Code   RO         3476    i._bSPIFlashSPI_Lock  b_drv_spiflash.o
    0x08001588   0x08001588   0x0000000c   Code   RO         3477    i._bSPIFlashSPI_Unlock  b_drv_spiflash.o
    0x08001594   0x08001594   0x00000080   Code   RO         3478    i._bSPIFlashSPI_WR  b_drv_spiflash.o
    0x08001614   0x08001614   0x00000054   Code   RO         3872    i._bUtilUartDetectIdle  b_util_uart.o
    0x08001668   0x08001668   0x00000184   Code   RO         4621    i._fp_digits        mc_w.l(printfa.o)
    0x080017ec   0x080017ec   0x000006b4   Code   RO         4622    i._printf_core      mc_w.l(printfa.o)
    0x08001ea0   0x08001ea0   0x00000024   Code   RO         4623    i._printf_post_padding  mc_w.l(printfa.o)
    0x08001ec4   0x08001ec4   0x0000002e   Code   RO         4624    i._printf_pre_padding  mc_w.l(printfa.o)
    0x08001ef2   0x08001ef2   0x00000016   Code   RO         4625    i._snputc           mc_w.l(printfa.o)
    0x08001f08   0x08001f08   0x0000000a   Code   RO         4626    i._sputc            mc_w.l(printfa.o)
    0x08001f12   0x08001f12   0x00000002   PAD
    0x08001f14   0x08001f14   0x0000027c   Code   RO         4152    i.aai_write         sfud.o
    0x08002190   0x08002190   0x00000030   Code   RO         3327    i.bClose            b_core.o
    0x080021c0   0x080021c0   0x00000018   Code   RO         3329    i.bCtl              b_core.o
    0x080021d8   0x080021d8   0x00000084   Code   RO         3407    i.bDeviceClose      b_device.o
    0x0800225c   0x0800225c   0x00000088   Code   RO         3408    i.bDeviceCtl        b_device.o
    0x080022e4   0x080022e4   0x00000044   Code   RO         3410    i.bDeviceInit       b_device.o
    0x08002328   0x08002328   0x00000084   Code   RO         3411    i.bDeviceOpen       b_device.o
    0x080023ac   0x080023ac   0x0000008c   Code   RO         3412    i.bDeviceRead       b_device.o
    0x08002438   0x08002438   0x0000008c   Code   RO         3413    i.bDeviceWrite      b_device.o
    0x080024c4   0x080024c4   0x00000020   Code   RO         3330    i.bExec             b_core.o
    0x080024e4   0x080024e4   0x0000001c   Code   RO         4105    i.bHalDelayUs       b_hal.o
    0x08002500   0x08002500   0x0000000c   Code   RO         4106    i.bHalGetSysTick    b_hal.o
    0x0800250c   0x0800250c   0x00000010   Code   RO         4107    i.bHalIncSysTick    b_hal.o
    0x0800251c   0x0800251c   0x00000004   Code   RO         4108    i.bHalInit          b_hal.o
    0x08002520   0x08002520   0x00000308   Code   RO         3331    i.bInit             b_core.o
    0x08002828   0x08002828   0x000000c8   Code   RO         3649    i.bLogOut           b_mod_log.o
    0x080028f0   0x080028f0   0x0000001c   Code   RO         3650    i.bLogOutput        b_mod_log.o
    0x0800290c   0x0800290c   0x00000020   Code   RO         3332    i.bLseek            b_core.o
    0x0800292c   0x0800292c   0x00000030   Code   RO         3333    i.bOpen             b_core.o
    0x0800295c   0x0800295c   0x00000044   Code   RO         3334    i.bRead             b_core.o
    0x080029a0   0x080029a0   0x000000d8   Code   RO         3479    i.bSPIFLASH_Init    b_drv_spiflash.o
    0x08002a78   0x08002a78   0x000000c4   Code   RO         3857    i.bUtilSPI_WriteRead  b_util_spi.o
    0x08002b3c   0x08002b3c   0x00000040   Code   RO         3335    i.bWrite            b_core.o
    0x08002b7c   0x08002b7c   0x0000035c   Code   RO         4153    i.hardware_init     sfud.o
    0x08002ed8   0x08002ed8   0x000000cc   Code   RO            4    i.main              main.o
    0x08002fa4   0x08002fa4   0x000000f0   Code   RO         4154    i.make_adress_byte_array  sfud.o
    0x08003094   0x08003094   0x000002bc   Code   RO         4155    i.page256_or_1_byte_write  sfud.o
    0x08003350   0x08003350   0x000001e4   Code   RO         4306    i.read_basic_header  sfud_sfdp.o
    0x08003534   0x08003534   0x000006be   Code   RO         4307    i.read_basic_table  sfud_sfdp.o
    0x08003bf2   0x08003bf2   0x00000002   PAD
    0x08003bf4   0x08003bf4   0x00000134   Code   RO         4156    i.read_jedec_id     sfud.o
    0x08003d28   0x08003d28   0x0000018c   Code   RO         4308    i.read_sfdp_data    sfud_sfdp.o
    0x08003eb4   0x08003eb4   0x00000200   Code   RO         4309    i.read_sfdp_header  sfud_sfdp.o
    0x080040b4   0x080040b4   0x00000184   Code   RO         4157    i.reset             sfud.o
    0x08004238   0x08004238   0x00000180   Code   RO         4158    i.set_4_byte_address_mode  sfud.o
    0x080043b8   0x080043b8   0x00000120   Code   RO         4159    i.set_write_enabled  sfud.o
    0x080044d8   0x080044d8   0x000001a8   Code   RO         4160    i.sfud_chip_erase   sfud.o
    0x08004680   0x08004680   0x000000f4   Code   RO         4161    i.sfud_device_init  sfud.o
    0x08004774   0x08004774   0x00000280   Code   RO         4162    i.sfud_erase        sfud.o
    0x080049f4   0x080049f4   0x000000e0   Code   RO         4167    i.sfud_init         sfud.o
    0x08004ad4   0x08004ad4   0x000001c8   Code   RO         4168    i.sfud_read         sfud.o
    0x08004c9c   0x08004c9c   0x000000e0   Code   RO         4310    i.sfud_read_sfdp    sfud_sfdp.o
    0x08004d7c   0x08004d7c   0x000000e4   Code   RO         4169    i.sfud_read_status  sfud.o
    0x08004e60   0x08004e60   0x000000e4   Code   RO         4311    i.sfud_sfdp_get_suitable_eraser  sfud_sfdp.o
    0x08004f44   0x08004f44   0x00000028   Code   RO         3480    i.sfud_spi_port_init  b_drv_spiflash.o
    0x08004f6c   0x08004f6c   0x0000002a   Code   RO         4171    i.sfud_write        sfud.o
    0x08004f96   0x08004f96   0x00000002   PAD
    0x08004f98   0x08004f98   0x0000012c   Code   RO         4172    i.sfud_write_status  sfud.o
    0x080050c4   0x080050c4   0x00000098   Code   RO         4173    i.software_init     sfud.o
    0x0800515c   0x0800515c   0x00000114   Code   RO         4174    i.wait_busy         sfud.o
    0x08005270   0x08005270   0x00000005   Data   RO            5    .constdata          main.o
    0x08005275   0x08005275   0x00000006   Data   RO         3337    .constdata          b_core.o
    0x0800527b   0x0800527b   0x0000005e   Data   RO         3415    .constdata          b_device.o
    0x080052d9   0x080052d9   0x0000000c   Data   RO         3482    .constdata          b_drv_spiflash.o
    0x080052e5   0x080052e5   0x00000006   Data   RO         3652    .constdata          b_mod_log.o
    0x080052eb   0x080052eb   0x00000001   PAD
    0x080052ec   0x080052ec   0x00000014   Data   RO         3943    .constdata          mcu_stm32f10x_gpio.o
    0x08005300   0x08005300   0x00000008   Data   RO         4020    .constdata          mcu_stm32f10x_it.o
    0x08005308   0x08005308   0x00000010   Data   RO         4044    .constdata          mcu_stm32f10x_spi.o
    0x08005318   0x08005318   0x00000008   Data   RO         4082    .constdata          mcu_stm32f10x_uart.o
    0x08005320   0x08005320   0x0000037a   Data   RO         4176    .constdata          sfud.o
    0x0800569a   0x0800569a   0x00000070   Data   RO         4312    .constdata          sfud_sfdp.o
    0x0800570a   0x0800570a   0x00000002   PAD
    0x0800570c   0x0800570c   0x0000000d   Data   RO         3416    .conststring        b_device.o
    0x08005719   0x08005719   0x00000003   PAD
    0x0800571c   0x0800571c   0x00000209   Data   RO         4177    .conststring        sfud.o
    0x08005925   0x08005925   0x00000003   PAD
    0x08005928   0x08005928   0x0000038f   Data   RO         4313    .conststring        sfud_sfdp.o
    0x08005cb7   0x08005cb7   0x00000001   PAD
    0x08005cb8   0x08005cb8   0x00000020   Data   RO         4688    Region$$Table       anon$$obj.o
    0x08005cd8   0x08005cd8   0x00000004   Data   RO         3339    bos_polling         b_core.o
    0x08005cdc   0x08005cdc   0x00000004   Data   RO         3875    bos_polling         b_util_uart.o
    0x08005ce0   0x08005ce0   0x00000004   Data   RO         3418    driver_init         b_device.o
    0x08005ce4   0x08005ce4   0x00000004   Data   RO         3484    driver_init         b_drv_spiflash.o
    0x08005ce8   0x08005ce8   0x00000004   Data   RO         3419    driver_init_0       b_device.o


    Execution Region RW_IRAM1 (Exec base: 0x20000000, Load base: 0x08005cec, Size: 0x00000b98, Max: 0x00010000, ABSOLUTE)

    Exec Addr    Load Addr    Size         Type   Attr      Idx    E Section Name        Object

    0x20000000   0x08005cec   0x00000014   Data   RW         1866    .data               stm32f10x_rcc.o
    0x20000014   0x08005d00   0x00000014   Data   RW         3291    .data               system_stm32f10x.o
    0x20000028   0x08005d14   0x00000001   Data   RW         3338    .data               b_core.o
    0x20000029   0x08005d15   0x00000003   PAD
    0x2000002c   0x08005d18   0x00000010   Data   RW         3417    .data               b_device.o
    0x2000003c   0x08005d28   0x00000004   Data   RW         3483    .data               b_drv_spiflash.o
    0x20000040   0x08005d2c   0x0000000c   Data   RW         4045    .data               mcu_stm32f10x_spi.o
    0x2000004c   0x08005d38   0x00000014   Data   RW         4083    .data               mcu_stm32f10x_uart.o
    0x20000060   0x08005d4c   0x00000008   Data   RW         4110    .data               b_hal.o
    0x20000068        -       0x00000050   Zero   RW         3336    .bss                b_core.o
    0x200000b8        -       0x00000020   Zero   RW         3414    .bss                b_device.o
    0x200000d8        -       0x00000020   Zero   RW         3481    .bss                b_drv_spiflash.o
    0x200000f8        -       0x00000100   Zero   RW         3651    .bss                b_mod_log.o
    0x200001f8        -       0x00000020   Zero   RW         3874    .bss                b_util_uart.o
    0x20000218        -       0x0000017c   Zero   RW         4175    .bss                sfud.o
    0x20000394   0x08005d54   0x00000004   PAD
    0x20000398        -       0x00000800   Zero   RW         3317    STACK               startup_stm32f10x_cl.o


==============================================================================

Image component sizes


      Code (inc. data)   RO Data    RW Data    ZI Data      Debug   Object Name

      1246        592         10          1         80       7920   b_core.o
       868        414        115         16         32       7240   b_device.o
       650         94         16          4         32      18440   b_drv_spiflash.o
       152         32          0          8          0       3163   b_hal.o
       228         18          6          0        256       3015   b_mod_log.o
       196          4          0          0          0       1301   b_util_spi.o
        84          4          4          0         32       2310   b_util_uart.o
       764         42          0          0          0       2444   board.o
         0          0          0          0          0         32   core_cm3.o
       284         38          5          0          0     285616   main.o
       244         24         20          0          0       5921   mcu_stm32f10x_gpio.o
         0          0          0          0          0       1521   mcu_stm32f10x_i2c.o
         4          0          8          0          0       1659   mcu_stm32f10x_it.o
       262         10         16         12          0       5980   mcu_stm32f10x_spi.o
       144          8          8         20          0       3973   mcu_stm32f10x_uart.o
       120         16          0          0          0       1735   misc.o
      6790       2746       1411          0        380      24672   sfud.o
      3570       1544       1023          0          0       6705   sfud_sfdp.o
        36          8        336          0       2048        932   startup_stm32f10x_cl.o
       254          6          0          0          0       3469   stm32f10x_gpio.o
        16          0          0          0          0       3400   stm32f10x_it.o
       248         34          0         20          0       5682   stm32f10x_rcc.o
        76          0          0          0          0       2381   stm32f10x_spi.o
       322          6          0          0          0       6132   stm32f10x_usart.o
       284         30          0         20          0       2225   system_stm32f10x.o

    ----------------------------------------------------------------------
     16864       5670       3020        104       2864     407868   Object Totals
         0          0         32          0          0          0   (incl. Generated)
        22          0         10          3          4          0   (incl. Padding)

    ----------------------------------------------------------------------

      Code (inc. data)   RO Data    RW Data    ZI Data      Debug   Library Member Name

         0          0          0          0          0          0   entry.o
         0          0          0          0          0          0   entry10a.o
         0          0          0          0          0          0   entry11a.o
         4          0          0          0          0          0   entry12b.o
         8          4          0          0          0          0   entry2.o
         4          0          0          0          0          0   entry5.o
         0          0          0          0          0          0   entry7b.o
         0          0          0          0          0          0   entry8b.o
         8          4          0          0          0          0   entry9a.o
        30          0          0          0          0          0   handlers.o
        36          8          0          0          0         68   init.o
         0          0          0          0          0          0   iusefp.o
        30          0          0          0          0         68   llshl.o
        36          0          0          0          0         68   llsshr.o
        32          0          0          0          0         68   llushr.o
        36          0          0          0          0         68   memcpya.o
        36          0          0          0          0        108   memseta.o
      2310         92          0          0          0        680   printfa.o
        28          0          0          0          0         76   strcmp.o
        14          0          0          0          0         68   strlen.o
        44          0          0          0          0         80   uidiv.o
        98          0          0          0          0         92   uldiv.o
        48          0          0          0          0         68   cdrcmple.o
       334          0          0          0          0        148   dadd.o
       222          0          0          0          0        100   ddiv.o
       186          0          0          0          0        176   depilogue.o
        50          0          0          0          0         76   dfixui.o
        48          0          0          0          0         68   dfixul.o
        26          0          0          0          0         76   dfltui.o
       228          0          0          0          0         96   dmul.o

    ----------------------------------------------------------------------
      3904        108          0          0          0       2252   Library Totals
         8          0          0          0          0          0   (incl. Padding)

    ----------------------------------------------------------------------

      Code (inc. data)   RO Data    RW Data    ZI Data      Debug   Library Name

      2754        108          0          0          0       1444   mc_w.l
      1142          0          0          0          0        808   mf_w.l

    ----------------------------------------------------------------------
      3904        108          0          0          0       2252   Library Totals

    ----------------------------------------------------------------------

==============================================================================


      Code (inc. data)   RO Data    RW Data    ZI Data      Debug   

     20768       5778       3020        104       2864     403720   Grand Totals
     20768       5778       3020        104       2864     403720   ELF Image Totals
     20768       5778       3020        104          0          0   ROM Totals

==============================================================================

    Total RO  Size (Code + RO Data)                23788 (  23.23kB)
    Total RW  Size (RW Data + ZI Data)              2968 (   2.90kB)
    Total ROM Size (Code + RO Data + RW Data)      23892 (  23.33kB)

==============================================================================

