Component: ARM Compiler 5.06 update 7 (build 960) Tool: armlink [4d3601]

==============================================================================

Section Cross References

    main.o(i.SysTick_Handler) refers to b_hal.o(i.bHalIncSysTick) for bHalIncSysTick
    main.o(i.USART1_IRQHandler) refers to stm32f10x_usart.o(i.USART_GetITStatus) for USART_GetITStatus
    main.o(i.USART1_IRQHandler) refers to stm32f10x_usart.o(i.USART_ClearITPendingBit) for USART_ClearITPendingBit
    main.o(i.USART1_IRQHandler) refers to stm32f10x_usart.o(i.USART_ReceiveData) for USART_ReceiveData
    main.o(i.USART1_IRQHandler) refers to b_mod_shell.o(i.bShellParse) for bShellParse
    main.o(i._CmdKVHandler) refers to b_mod_kv.o(i.bKV_Get) for bKV_Get
    main.o(i._CmdKVHandler) refers to b_mod_log.o(i.bLogOut) for bLogOut
    main.o(i._CmdKVHandler) refers to strlen.o(.text) for strlen
    main.o(i._CmdKVHandler) refers to b_mod_kv.o(i.bKV_Set) for bKV_Set
    main.o(i._CmdKVHandler) refers to main.o(.constdata) for .constdata
    main.o(i.main) refers to board.o(i.BoardInit) for BoardInit
    main.o(i.main) refers to main.o(i.NVIC_SetPriority) for NVIC_SetPriority
    main.o(i.main) refers to b_core.o(i.bInit) for bInit
    main.o(i.main) refers to b_mod_shell.o(i.bShellInit) for bShellInit
    main.o(i.main) refers to b_mod_kv.o(i.bKV_Init) for bKV_Init
    main.o(i.main) refers to b_core.o(i.bExec) for bExec
    main.o(i.main) refers to system_stm32f10x.o(.data) for SystemCoreClock
    main.o(b_mod_shell) refers to main.o(.conststrlit) for .conststrlit
==============================================================================

Removing Unused input sections from the image.

    Removing misc.o(i.NVIC_SetVectorTable), (20 bytes).
    Removing misc.o(i.NVIC_SystemLPConfig), (24 bytes).
    Removing misc.o(i.SysTick_CLKSourceConfig), (24 bytes).
    Removing stm32f10x_adc.o(i.ADC_AnalogWatchdogCmd), (16 bytes).
    Removing stm32f10x_adc.o(i.ADC_AnalogWatchdogSingleChannelConfig), (12 bytes).
    Removing stm32f10x_adc.o(i.ADC_AnalogWatchdogThresholdsConfig), (6 bytes).
    Removing stm32f10x_adc.o(i.ADC_AutoInjectedConvCmd), (20 bytes).
    Removing stm32f10x_adc.o(i.ADC_ClearFlag), (6 bytes).
    Removing stm32f10x_adc.o(i.ADC_ClearITPendingBit), (8 bytes).
    Removing stm32f10x_adc.o(i.ADC_Cmd), (20 bytes).
    Removing stm32f10x_adc.o(i.ADC_DMACmd), (20 bytes).
    Removing stm32f10x_adc.o(i.ADC_DeInit), (68 bytes).
    Removing stm32f10x_adc.o(i.ADC_DiscModeChannelCountConfig), (16 bytes).
    Removing stm32f10x_adc.o(i.ADC_DiscModeCmd), (20 bytes).
    Removing stm32f10x_adc.o(i.ADC_ExternalTrigConvCmd), (20 bytes).
    Removing stm32f10x_adc.o(i.ADC_ExternalTrigInjectedConvCmd), (20 bytes).
    Removing stm32f10x_adc.o(i.ADC_ExternalTrigInjectedConvConfig), (12 bytes).
    Removing stm32f10x_adc.o(i.ADC_GetCalibrationStatus), (14 bytes).
==============================================================================

Image Symbol Table

    Local Symbols

    Symbol Name                              Value     Ov Type        Size  Object(Section)

    ../clib/microlib/ctype/ctype.c           0x00000000   Number         0  isdigit_o.o ABSOLUTE
    ../clib/microlib/ctype/ctype.c           0x00000000   Number         0  isgraph_o.o ABSOLUTE
    ../clib/microlib/ctype/ctype.c           0x00000000   Number         0  islower_o.o ABSOLUTE
    ../clib/microlib/ctype/ctype.c           0x00000000   Number         0  isprint_o.o ABSOLUTE
    ../clib/microlib/ctype/ctype.c           0x00000000   Number         0  ispunct_o.o ABSOLUTE
    ../clib/microlib/ctype/ctype.c           0x00000000   Number         0  isspace_o.o ABSOLUTE
    ../clib/microlib/ctype/ctype.c           0x00000000   Number         0  isupper_o.o ABSOLUTE
    ../clib/microlib/ctype/ctype.c           0x00000000   Number         0  isxdigit_o.o ABSOLUTE
    ../clib/microlib/ctype/ctype.c           0x00000000   Number         0  isalpha_o.o ABSOLUTE
    ../clib/microlib/ctype/ctype.c           0x00000000   Number         0  isalnum_o.o ABSOLUTE
    ../clib/microlib/ctype/ctype.c           0x00000000   Number         0  ctype_o.o ABSOLUTE
    ../clib/microlib/ctype/ctype.c           0x00000000   Number         0  isblank_o.o ABSOLUTE
    ../clib/microlib/ctype/ctype.c           0x00000000   Number         0  iscntrl_o.o ABSOLUTE
    ../clib/microlib/division.c              0x00000000   Number         0  uldiv.o ABSOLUTE
    ../clib/microlib/division.c              0x00000000   Number         0  uidiv.o ABSOLUTE
    ../clib/microlib/init/entry.s            0x00000000   Number         0  entry2.o ABSOLUTE
    ../clib/microlib/init/entry.s            0x00000000   Number         0  entry7a.o ABSOLUTE
    ../clib/microlib/init/entry.s            0x00000000   Number         0  entry9a.o ABSOLUTE
    ../clib/microlib/init/entry.s            0x00000000   Number         0  entry8a.o ABSOLUTE
    ../clib/microlib/init/entry.s            0x00000000   Number         0  entry.o ABSOLUTE
    ../clib/microlib/init/entry.s            0x00000000   Number         0  entry7b.o ABSOLUTE
    ../clib/microlib/init/entry.s            0x00000000   Number         0  entry10a.o ABSOLUTE
    ../clib/microlib/init/entry.s            0x00000000   Number         0  entry9b.o ABSOLUTE
    ../clib/microlib/init/entry.s            0x00000000   Number         0  entry8b.o ABSOLUTE
    ../clib/microlib/init/entry.s            0x00000000   Number         0  entry5.o ABSOLUTE
    ../clib/microlib/init/entry.s            0x00000000   Number         0  entry12b.o ABSOLUTE
    ../clib/microlib/init/entry.s            0x00000000   Number         0  entry12a.o ABSOLUTE
    ../clib/microlib/init/entry.s            0x00000000   Number         0  entry11b.o ABSOLUTE
    ../clib/microlib/init/entry.s            0x00000000   Number         0  entry11a.o ABSOLUTE
    ../clib/microlib/init/entry.s            0x00000000   Number         0  entry10b.o ABSOLUTE
    ../clib/microlib/longlong.c              0x00000000   Number         0  llsshr.o ABSOLUTE
    ../clib/microlib/longlong.c              0x00000000   Number         0  llshl.o ABSOLUTE
    ../clib/microlib/longlong.c              0x00000000   Number         0  llushr.o ABSOLUTE
    ../clib/microlib/printf/printf.c         0x00000000   Number         0  printf5.o ABSOLUTE
    ../clib/microlib/printf/printf.c         0x00000000   Number         0  printf6.o ABSOLUTE
    ../clib/microlib/printf/printf.c         0x00000000   Number         0  printf7.o ABSOLUTE
    ../clib/microlib/printf/printf.c         0x00000000   Number         0  printf8.o ABSOLUTE
    ../clib/microlib/printf/printf.c         0x00000000   Number         0  printfa.o ABSOLUTE
    ../clib/microlib/printf/printf.c         0x00000000   Number         0  printf4.o ABSOLUTE
    ../clib/microlib/printf/printf.c         0x00000000   Number         0  printfb.o ABSOLUTE
    ../clib/microlib/printf/printf.c         0x00000000   Number         0  printf0.o ABSOLUTE
    ../clib/microlib/printf/printf.c         0x00000000   Number         0  printf1.o ABSOLUTE
    ../clib/microlib/printf/printf.c         0x00000000   Number         0  printf2.o ABSOLUTE
    ../clib/microlib/printf/printf.c         0x00000000   Number         0  printf3.o ABSOLUTE
    ../clib/microlib/printf/stubs.s          0x00000000   Number         0  stubs.o ABSOLUTE
    ../clib/microlib/stdio/streams.c         0x00000000   Number         0  stdout.o ABSOLUTE
    ../clib/microlib/string/memcpy.c         0x00000000   Number         0  memcpya.o ABSOLUTE
    ../clib/microlib/string/memcpy.c         0x00000000   Number         0  memcpyb.o ABSOLUTE
    ../clib/microlib/string/memset.c         0x00000000   Number         0  memseta.o ABSOLUTE
    ../clib/microlib/string/strcmp.c         0x00000000   Number         0  strcmp.o ABSOLUTE
    ../clib/microlib/string/strcpy.c         0x00000000   Number         0  strcpy.o ABSOLUTE
    ../clib/microlib/string/strlen.c         0x00000000   Number         0  strlen.o ABSOLUTE
    ../clib/microlib/string/strncmp.c        0x00000000   Number         0  strncmp.o ABSOLUTE
    ../clib/microlib/string/strstr.c         0x00000000   Number         0  strstr.o ABSOLUTE
    ../clib/microlib/stubs.s                 0x00000000   Number         0  iusefp.o ABSOLUTE
    ../fplib/microlib/fpadd.c                0x00000000   Number         0  dadd.o ABSOLUTE
    ../fplib/microlib/fpdiv.c                0x00000000   Number         0  ddiv.o ABSOLUTE
    ../fplib/microlib/fpepilogue.c           0x00000000   Number         0  depilogue.o ABSOLUTE
    ../fplib/microlib/fpfix.c                0x00000000   Number         0  dfixul.o ABSOLUTE
    ../fplib/microlib/fpfix.c                0x00000000   Number         0  dfixui.o ABSOLUTE
    ../fplib/microlib/fpflt.c                0x00000000   Number         0  dfltui.o ABSOLUTE
    ../fplib/microlib/fpmul.c                0x00000000   Number         0  dmul.o ABSOLUTE
    ..\..\..\..\Libraries\CMSIS\CM3\CoreSupport\core_cm3.c 0x00000000   Number         0  core_cm3.o ABSOLUTE
    ..\..\..\..\Libraries\CMSIS\CM3\DeviceSupport\ST\STM32F10x\startup\arm\startup_stm32f10x_cl.s 0x00000000   Number         0  startup_stm32f10x_cl.o ABSOLUTE
    ..\..\..\..\Libraries\CMSIS\CM3\DeviceSupport\ST\STM32F10x\system_stm32f10x.c 0x00000000   Number         0  system_stm32f10x.o ABSOLUTE
    ..\..\..\..\Libraries\STM32F10x_StdPeriph_Driver\src\misc.c 0x00000000   Number         0  misc.o ABSOLUTE
    ..\..\..\..\Libraries\STM32F10x_StdPeriph_Driver\src\stm32f10x_adc.c 0x00000000   Number         0  stm32f10x_adc.o ABSOLUTE
    ..\..\..\..\Libraries\STM32F10x_StdPeriph_Driver\src\stm32f10x_bkp.c 0x00000000   Number         0  stm32f10x_bkp.o ABSOLUTE
    ..\..\..\..\Libraries\STM32F10x_StdPeriph_Driver\src\stm32f10x_can.c 0x00000000   Number         0  stm32f10x_can.o ABSOLUTE
    ..\..\..\..\Libraries\STM32F10x_StdPeriph_Driver\src\stm32f10x_cec.c 0x00000000   Number         0  stm32f10x_cec.o ABSOLUTE
    ..\..\..\..\Libraries\STM32F10x_StdPeriph_Driver\src\stm32f10x_crc.c 0x00000000   Number         0  stm32f10x_crc.o ABSOLUTE
    ..\..\..\..\Libraries\STM32F10x_StdPeriph_Driver\src\stm32f10x_dac.c 0x00000000   Number         0  stm32f10x_dac.o ABSOLUTE
    ..\..\..\..\Libraries\STM32F10x_StdPeriph_Driver\src\stm32f10x_dbgmcu.c 0x00000000   Number         0  stm32f10x_dbgmcu.o ABSOLUTE
    ..\..\..\..\Libraries\STM32F10x_StdPeriph_Driver\src\stm32f10x_dma.c 0x00000000   Number         0  stm32f10x_dma.o ABSOLUTE
    ..\..\..\..\Libraries\STM32F10x_StdPeriph_Driver\src\stm32f10x_exti.c 0x00000000   Number         0  stm32f10x_exti.o ABSOLUTE
    ..\..\..\..\Libraries\STM32F10x_StdPeriph_Driver\src\stm32f10x_flash.c 0x00000000   Number         0  stm32f10x_flash.o ABSOLUTE
    ..\..\..\..\Libraries\STM32F10x_StdPeriph_Driver\src\stm32f10x_fsmc.c 0x00000000   Number         0  stm32f10x_fsmc.o ABSOLUTE
    ..\..\..\..\Libraries\STM32F10x_StdPeriph_Driver\src\stm32f10x_gpio.c 0x00000000   Number         0  stm32f10x_gpio.o ABSOLUTE
    ..\..\..\..\Libraries\STM32F10x_StdPeriph_Driver\src\stm32f10x_i2c.c 0x00000000   Number         0  stm32f10x_i2c.o ABSOLUTE
    ..\..\..\..\Libraries\STM32F10x_StdPeriph_Driver\src\stm32f10x_iwdg.c 0x00000000   Number         0  stm32f10x_iwdg.o ABSOLUTE
    ..\..\..\..\Libraries\STM32F10x_StdPeriph_Driver\src\stm32f10x_pwr.c 0x00000000   Number         0  stm32f10x_pwr.o ABSOLUTE
    ..\..\..\..\Libraries\STM32F10x_StdPeriph_Driver\src\stm32f10x_rcc.c 0x00000000   Number         0  stm32f10x_rcc.o ABSOLUTE
    ..\..\..\..\Libraries\STM32F10x_StdPeriph_Driver\src\stm32f10x_rtc.c 0x00000000   Number         0  stm32f10x_rtc.o ABSOLUTE
    ..\..\..\..\Libraries\STM32F10x_StdPeriph_Driver\src\stm32f10x_sdio.c 0x00000000   Number         0  stm32f10x_sdio.o ABSOLUTE
    ..\..\..\..\Libraries\STM32F10x_StdPeriph_Driver\src\stm32f10x_spi.c 0x00000000   Number         0  stm32f10x_spi.o ABSOLUTE
    ..\..\..\..\Libraries\STM32F10x_StdPeriph_Driver\src\stm32f10x_tim.c 0x00000000   Number         0  stm32f10x_tim.o ABSOLUTE
    ..\..\..\..\Libraries\STM32F10x_StdPeriph_Driver\src\stm32f10x_usart.c 0x00000000   Number         0  stm32f10x_usart.o ABSOLUTE
    ..\..\..\..\Libraries\STM32F10x_StdPeriph_Driver\src\stm32f10x_wwdg.c 0x00000000   Number         0  stm32f10x_wwdg.o ABSOLUTE
    ..\..\..\..\babyos\bos\core\b_core.c     0x00000000   Number         0  b_core.o ABSOLUTE
    ..\..\..\..\babyos\bos\core\b_device.c   0x00000000   Number         0  b_device.o ABSOLUTE
    ..\..\..\..\babyos\bos\drivers\b_drv_mcuflash.c 0x00000000   Number         0  b_drv_mcuflash.o ABSOLUTE
    ..\..\..\..\babyos\bos\hal\b_hal.c       0x00000000   Number         0  b_hal.o ABSOLUTE
    ..\..\..\..\babyos\bos\mcu\st\stm32f10x\mcu_stm32f10x_flash.c 0x00000000   Number         0  mcu_stm32f10x_flash.o ABSOLUTE
    ..\..\..\..\babyos\bos\mcu\st\stm32f10x\mcu_stm32f10x_gpio.c 0x00000000   Number         0  mcu_stm32f10x_gpio.o ABSOLUTE
    ..\..\..\..\babyos\bos\mcu\st\stm32f10x\mcu_stm32f10x_i2c.c 0x00000000   Number         0  mcu_stm32f10x_i2c.o ABSOLUTE
    ..\..\..\..\babyos\bos\mcu\st\stm32f10x\mcu_stm32f10x_it.c 0x00000000   Number         0  mcu_stm32f10x_it.o ABSOLUTE
    ..\..\..\..\babyos\bos\mcu\st\stm32f10x\mcu_stm32f10x_spi.c 0x00000000   Number         0  mcu_stm32f10x_spi.o ABSOLUTE
    ..\..\..\..\babyos\bos\mcu\st\stm32f10x\mcu_stm32f10x_uart.c 0x00000000   Number         0  mcu_stm32f10x_uart.o ABSOLUTE
    ..\..\..\..\babyos\bos\modules\b_mod_adchub.c 0x00000000   Number         0  b_mod_adchub.o ABSOLUTE
    ..\..\..\..\babyos\bos\modules\b_mod_button.c 0x00000000   Number         0  b_mod_button.o ABSOLUTE
    ..\..\..\..\babyos\bos\modules\b_mod_error.c 0x00000000   Number         0  b_mod_error.o ABSOLUTE
    ..\..\..\..\babyos\bos\modules\b_mod_event.c 0x00000000   Number         0  b_mod_event.o ABSOLUTE
    ..\..\..\..\babyos\bos\modules\b_mod_fifo.c 0x00000000   Number         0  b_mod_fifo.o ABSOLUTE
    ..\..\..\..\babyos\bos\modules\b_mod_fs.c 0x00000000   Number         0  b_mod_fs.o ABSOLUTE
    ..\..\..\..\babyos\bos\modules\b_mod_gui.c 0x00000000   Number         0  b_mod_gui.o ABSOLUTE
    ..\..\..\..\babyos\bos\modules\b_mod_heap.c 0x00000000   Number         0  b_mod_heap.o ABSOLUTE
    ..\..\..\..\babyos\bos\modules\b_mod_kv.c 0x00000000   Number         0  b_mod_kv.o ABSOLUTE
    ..\..\..\..\babyos\bos\modules\b_mod_log.c 0x00000000   Number         0  b_mod_log.o ABSOLUTE
    ..\..\..\..\babyos\bos\modules\b_mod_lunar.c 0x00000000   Number         0  b_mod_lunar.o ABSOLUTE
    ..\..\..\..\babyos\bos\modules\b_mod_menu.c 0x00000000   Number         0  b_mod_menu.o ABSOLUTE
    ..\..\..\..\babyos\bos\modules\b_mod_modbus.c 0x00000000   Number         0  b_mod_modbus.o ABSOLUTE
    ..\..\..\..\babyos\bos\modules\b_mod_param.c 0x00000000   Number         0  b_mod_param.o ABSOLUTE
    ..\..\..\..\babyos\bos\modules\b_mod_protocol.c 0x00000000   Number         0  b_mod_protocol.o ABSOLUTE
    ..\..\..\..\babyos\bos\modules\b_mod_sda.c 0x00000000   Number         0  b_mod_sda.o ABSOLUTE
    ..\..\..\..\babyos\bos\modules\b_mod_sdb.c 0x00000000   Number         0  b_mod_sdb.o ABSOLUTE
    ..\..\..\..\babyos\bos\modules\b_mod_shell.c 0x00000000   Number         0  b_mod_shell.o ABSOLUTE
    ..\..\..\..\babyos\bos\modules\b_mod_timer.c 0x00000000   Number         0  b_mod_timer.o ABSOLUTE
    ..\..\..\..\babyos\bos\modules\b_mod_utc.c 0x00000000   Number         0  b_mod_utc.o ABSOLUTE
    ..\..\..\..\babyos\bos\modules\b_mod_xm128.c 0x00000000   Number         0  b_mod_xm128.o ABSOLUTE
    ..\..\..\..\babyos\bos\modules\b_mod_ymodem.c 0x00000000   Number         0  b_mod_ymodem.o ABSOLUTE
    ..\..\..\..\babyos\bos\thirdparty\nr_micro_shell\src\ansi.c 0x00000000   Number         0  ansi.o ABSOLUTE
    ..\..\..\..\babyos\bos\thirdparty\nr_micro_shell\src\ansi_port.c 0x00000000   Number         0  ansi_port.o ABSOLUTE
    ..\..\..\..\babyos\bos\thirdparty\nr_micro_shell\src\nr_micro_shell.c 0x00000000   Number         0  nr_micro_shell.o ABSOLUTE
    ..\..\..\..\babyos\bos\utils\b_util_i2c.c 0x00000000   Number         0  b_util_i2c.o ABSOLUTE
    ..\..\..\..\babyos\bos\utils\b_util_spi.c 0x00000000   Number         0  b_util_spi.o ABSOLUTE
    ..\..\..\..\babyos\bos\utils\b_util_uart.c 0x00000000   Number         0  b_util_uart.o ABSOLUTE
    ..\..\..\..\board\board.c                0x00000000   Number         0  board.o ABSOLUTE
    ..\\..\\..\\..\\Libraries\\CMSIS\\CM3\\CoreSupport\\core_cm3.c 0x00000000   Number         0  core_cm3.o ABSOLUTE
    ..\main.c                                0x00000000   Number         0  main.o ABSOLUTE
    ..\stm32f10x_it.c                        0x00000000   Number         0  stm32f10x_it.o ABSOLUTE
    cdrcmple.s                               0x00000000   Number         0  cdrcmple.o ABSOLUTE
    dc.s                                     0x00000000   Number         0  dc.o ABSOLUTE
    handlers.s                               0x00000000   Number         0  handlers.o ABSOLUTE
    init.s                                   0x00000000   Number         0  init.o ABSOLUTE
    RESET                                    0x08000000   Section      336  startup_stm32f10x_cl.o(RESET)
    .ARM.Collect$$$$00000000                 0x08000150   Section        0  entry.o(.ARM.Collect$$$$00000000)
    .ARM.Collect$$$$00000001                 0x08000150   Section        4  entry2.o(.ARM.Collect$$$$00000001)
    .ARM.Collect$$$$00000004                 0x08000154   Section        4  entry5.o(.ARM.Collect$$$$00000004)
    .ARM.Collect$$$$00000008                 0x08000158   Section        0  entry7b.o(.ARM.Collect$$$$00000008)
    .ARM.Collect$$$$0000000A                 0x08000158   Section        0  entry8b.o(.ARM.Collect$$$$0000000A)
    .ARM.Collect$$$$0000000B                 0x08000158   Section        8  entry9a.o(.ARM.Collect$$$$0000000B)
    .ARM.Collect$$$$0000000E                 0x08000160   Section        4  entry12b.o(.ARM.Collect$$$$0000000E)
    .ARM.Collect$$$$0000000F                 0x08000164   Section        0  entry10a.o(.ARM.Collect$$$$0000000F)
    .ARM.Collect$$$$00000011                 0x08000164   Section        0  entry11a.o(.ARM.Collect$$$$00000011)
    .ARM.Collect$$$$00002712                 0x08000164   Section        4  entry2.o(.ARM.Collect$$$$00002712)
    __lit__00000000                          0x08000164   Data           4  entry2.o(.ARM.Collect$$$$00002712)
    .text                                    0x08000168   Section       36  startup_stm32f10x_cl.o(.text)
    .text                                    0x0800018c   Section        0  ctype_o.o(.text)
    .text                                    0x08000194   Section        0  memcpya.o(.text)
    .text                                    0x080001b8   Section        0  memseta.o(.text)
    .text                                    0x080001dc   Section        0  strstr.o(.text)
    .text                                    0x08000200   Section        0  strlen.o(.text)
    .text                                    0x0800020e   Section        0  strcmp.o(.text)
    .text                                    0x0800022a   Section        0  strcpy.o(.text)
    .text                                    0x0800023c   Section        0  strncmp.o(.text)
    .text                                    0x0800025a   Section        0  dmul.o(.text)
    .text                                    0x0800033e   Section        0  ddiv.o(.text)
    .text                                    0x0800041c   Section        0  dfltui.o(.text)
    .text                                    0x08000436   Section        0  dfixui.o(.text)
    .text                                    0x08000468   Section        0  uidiv.o(.text)
    .text                                    0x08000494   Section        0  uldiv.o(.text)
    .text                                    0x080004f6   Section        0  llushr.o(.text)
    .text                                    0x08000516   Section        0  iusefp.o(.text)
    .text                                    0x08000516   Section        0  depilogue.o(.text)
    .text                                    0x080005d0   Section        0  dadd.o(.text)
    .text                                    0x0800071e   Section        0  dfixul.o(.text)
    .text                                    0x08000750   Section       48  cdrcmple.o(.text)
    .text                                    0x08000780   Section       36  init.o(.text)
    .text                                    0x080007a4   Section        0  llshl.o(.text)
    .text                                    0x080007c2   Section        0  llsshr.o(.text)
    i.BoardInit                              0x080007e8   Section        0  board.o(i.BoardInit)
    i.BusFault_Handler                       0x08000870   Section        0  stm32f10x_it.o(i.BusFault_Handler)
    i.DebugMon_Handler                       0x08000872   Section        0  stm32f10x_it.o(i.DebugMon_Handler)
    i.GPIO_Init                              0x08000874   Section        0  stm32f10x_gpio.o(i.GPIO_Init)
    i.GPIO_PinRemapConfig                    0x08000918   Section        0  stm32f10x_gpio.o(i.GPIO_PinRemapConfig)
    i.GPIO_SetBits                           0x08000970   Section        0  stm32f10x_gpio.o(i.GPIO_SetBits)
    i.HardFault_Handler                      0x08000974   Section        0  stm32f10x_it.o(i.HardFault_Handler)
    i.MemManage_Handler                      0x08000976   Section        0  stm32f10x_it.o(i.MemManage_Handler)
    i.NMI_Handler                            0x08000978   Section        0  stm32f10x_it.o(i.NMI_Handler)
    i.NVIC_Init                              0x0800097c   Section        0  misc.o(i.NVIC_Init)
    i.NVIC_PriorityGroupConfig               0x080009e0   Section        0  misc.o(i.NVIC_PriorityGroupConfig)
    i.NVIC_SetPriority                       0x080009f4   Section        0  main.o(i.NVIC_SetPriority)
    NVIC_SetPriority                         0x080009f5   Thumb Code    32  main.o(i.NVIC_SetPriority)
    i.PendSV_Handler                         0x08000a14   Section        0  stm32f10x_it.o(i.PendSV_Handler)
    i.RCC_APB1PeriphClockCmd                 0x08000a18   Section        0  stm32f10x_rcc.o(i.RCC_APB1PeriphClockCmd)
    i.RCC_APB2PeriphClockCmd                 0x08000a30   Section        0  stm32f10x_rcc.o(i.RCC_APB2PeriphClockCmd)
    i.RCC_GetClocksFreq                      0x08000a48   Section        0  stm32f10x_rcc.o(i.RCC_GetClocksFreq)
    i.SPI_Cmd                                0x08000b10   Section        0  stm32f10x_spi.o(i.SPI_Cmd)
    i.SPI_Init                               0x08000b24   Section        0  stm32f10x_spi.o(i.SPI_Init)
    i.SVC_Handler                            0x08000b5c   Section        0  stm32f10x_it.o(i.SVC_Handler)
    i.SetSysClockTo72                        0x08000b60   Section        0  system_stm32f10x.o(i.SetSysClockTo72)
    SetSysClockTo72                          0x08000b61   Thumb Code   190  system_stm32f10x.o(i.SetSysClockTo72)
    i.SysTick_Handler                        0x08000c30   Section        0  main.o(i.SysTick_Handler)
    i.SystemInit                             0x08000c34   Section        0  system_stm32f10x.o(i.SystemInit)
    i.USART1_IRQHandler                      0x08000c80   Section        0  main.o(i.USART1_IRQHandler)
    i.USART_ClearITPendingBit                0x08000cbc   Section        0  stm32f10x_usart.o(i.USART_ClearITPendingBit)
    i.USART_Cmd                              0x08000cc8   Section        0  stm32f10x_usart.o(i.USART_Cmd)
    i.USART_GetITStatus                      0x08000cdc   Section        0  stm32f10x_usart.o(i.USART_GetITStatus)
    i.USART_ITConfig                         0x08000d1a   Section        0  stm32f10x_usart.o(i.USART_ITConfig)
    i.USART_Init                             0x08000d4c   Section        0  stm32f10x_usart.o(i.USART_Init)
    i.USART_ReceiveData                      0x08000df8   Section        0  stm32f10x_usart.o(i.USART_ReceiveData)
    i.UsageFault_Handler                     0x08000e00   Section        0  stm32f10x_it.o(i.UsageFault_Handler)
    i._CmdBosHandler                         0x08000e04   Section        0  b_mod_shell.o(i._CmdBosHandler)
    _CmdBosHandler                           0x08000e05   Thumb Code    46  b_mod_shell.o(i._CmdBosHandler)
    i._CmdKVHandler                          0x08000e80   Section        0  main.o(i._CmdKVHandler)
    _CmdKVHandler                            0x08000e81   Thumb Code   110  main.o(i._CmdKVHandler)
    i._FlashErase                            0x08000f14   Section        0  mcu_stm32f10x_flash.o(i._FlashErase)
    _FlashErase                              0x08000f15   Thumb Code   120  mcu_stm32f10x_flash.o(i._FlashErase)
    i._FlashInit                             0x08000f94   Section        0  mcu_stm32f10x_flash.o(i._FlashInit)
    _FlashInit                               0x08000f95   Thumb Code     4  mcu_stm32f10x_flash.o(i._FlashInit)
    i._FlashLock                             0x08000f98   Section        0  mcu_stm32f10x_flash.o(i._FlashLock)
    _FlashLock                               0x08000f99   Thumb Code    14  mcu_stm32f10x_flash.o(i._FlashLock)
    i._FlashRead                             0x08000fac   Section        0  mcu_stm32f10x_flash.o(i._FlashRead)
    _FlashRead                               0x08000fad   Thumb Code    42  mcu_stm32f10x_flash.o(i._FlashRead)
    i._FlashUnlock                           0x08000fdc   Section        0  mcu_stm32f10x_flash.o(i._FlashUnlock)
    _FlashUnlock                             0x08000fdd   Thumb Code    14  mcu_stm32f10x_flash.o(i._FlashUnlock)
    i._FlashWrite                            0x08000ff8   Section        0  mcu_stm32f10x_flash.o(i._FlashWrite)
    _FlashWrite                              0x08000ff9   Thumb Code   136  mcu_stm32f10x_flash.o(i._FlashWrite)
    i._GpioInit                              0x08001088   Section        0  board.o(i._GpioInit)
    _GpioInit                                0x08001089   Thumb Code   458  board.o(i._GpioInit)
    i._SpiInit                               0x0800126c   Section        0  board.o(i._SpiInit)
    _SpiInit                                 0x0800126d   Thumb Code   134  board.o(i._SpiInit)
    i._UartReceive                           0x080012fc   Section        0  mcu_stm32f10x_uart.o(i._UartReceive)
    _UartReceive                             0x080012fd   Thumb Code    68  mcu_stm32f10x_uart.o(i._UartReceive)
    i._UartSend                              0x08001344   Section        0  mcu_stm32f10x_uart.o(i._UartSend)
    _UartSend                                0x08001345   Thumb Code    68  mcu_stm32f10x_uart.o(i._UartSend)
    i.__0sprintf                             0x0800138c   Section        0  printfa.o(i.__0sprintf)
    i.__0vsnprintf                           0x080013b4   Section        0  printfa.o(i.__0vsnprintf)
    i.__scatterload_copy                     0x080013e8   Section       14  handlers.o(i.__scatterload_copy)
    i.__scatterload_null                     0x080013f6   Section        2  handlers.o(i.__scatterload_null)
    i.__scatterload_zeroinit                 0x080013f8   Section       14  handlers.o(i.__scatterload_zeroinit)
    i._bCoreCreateFd                         0x08001408   Section        0  b_core.o(i._bCoreCreateFd)
    _bCoreCreateFd                           0x08001409   Thumb Code   106  b_core.o(i._bCoreCreateFd)
    i._bCoreDeleteFd                         0x0800147c   Section        0  b_core.o(i._bCoreDeleteFd)
    _bCoreDeleteFd                           0x0800147d   Thumb Code    30  b_core.o(i._bCoreDeleteFd)
    i._bCoreMonitor                          0x080014a0   Section        0  b_core.o(i._bCoreMonitor)
    _bCoreMonitor                            0x080014a1   Thumb Code     2  b_core.o(i._bCoreMonitor)
    i._bDriverNullInit                       0x080014a4   Section        0  b_device.o(i._bDriverNullInit)
    _bDriverNullInit                         0x080014a5   Thumb Code    34  b_device.o(i._bDriverNullInit)
    i._bHalUpdateDelayParam                  0x0800151c   Section        0  b_hal.o(i._bHalUpdateDelayParam)
    _bHalUpdateDelayParam                    0x0800151d   Thumb Code    78  b_hal.o(i._bHalUpdateDelayParam)
    i._bKV_AddNew                            0x08001578   Section        0  b_mod_kv.o(i._bKV_AddNew)
    _bKV_AddNew                              0x08001579   Thumb Code   172  b_mod_kv.o(i._bKV_AddNew)
    i._bKV_AllocateSpace                     0x08001628   Section        0  b_mod_kv.o(i._bKV_AllocateSpace)
    _bKV_AllocateSpace                       0x08001629   Thumb Code    92  b_mod_kv.o(i._bKV_AllocateSpace)
    i._bKV_ArrangeSpace                      0x080016d8   Section        0  b_mod_kv.o(i._bKV_ArrangeSpace)
    _bKV_ArrangeSpace                        0x080016d9   Thumb Code   274  b_mod_kv.o(i._bKV_ArrangeSpace)
    i._bKV_ClearSector                       0x080017f8   Section        0  b_mod_kv.o(i._bKV_ClearSector)
    _bKV_ClearSector                         0x080017f9   Thumb Code   134  b_mod_kv.o(i._bKV_ClearSector)
    i._bKV_GenerateID                        0x08001884   Section        0  b_mod_kv.o(i._bKV_GenerateID)
    _bKV_GenerateID                          0x08001885   Thumb Code    38  b_mod_kv.o(i._bKV_GenerateID)
    i._bKV_ISExist                           0x080018ac   Section        0  b_mod_kv.o(i._bKV_ISExist)
    _bKV_ISExist                             0x080018ad   Thumb Code    96  b_mod_kv.o(i._bKV_ISExist)
    i._bKV_ISFirstTime                       0x08001910   Section        0  b_mod_kv.o(i._bKV_ISFirstTime)
    _bKV_ISFirstTime                         0x08001911   Thumb Code   110  b_mod_kv.o(i._bKV_ISFirstTime)
    i._bKV_LoadInfo                          0x080019ac   Section        0  b_mod_kv.o(i._bKV_LoadInfo)
    _bKV_LoadInfo                            0x080019ad   Thumb Code    78  b_mod_kv.o(i._bKV_LoadInfo)
    i._bKV_Locate                            0x08001a00   Section        0  b_mod_kv.o(i._bKV_Locate)
    _bKV_Locate                              0x08001a01   Thumb Code   288  b_mod_kv.o(i._bKV_Locate)
    i._bKV_ModifyValue                       0x08001b2c   Section        0  b_mod_kv.o(i._bKV_ModifyValue)
    _bKV_ModifyValue                         0x08001b2d   Thumb Code   236  b_mod_kv.o(i._bKV_ModifyValue)
    i._bMCUFLASHClose                        0x08001c20   Section        0  b_drv_mcuflash.o(i._bMCUFLASHClose)
    _bMCUFLASHClose                          0x08001c21   Thumb Code     6  b_drv_mcuflash.o(i._bMCUFLASHClose)
    i._bMCUFLASHCtl                          0x08001c2c   Section        0  b_drv_mcuflash.o(i._bMCUFLASHCtl)
    _bMCUFLASHCtl                            0x08001c2d   Thumb Code    28  b_drv_mcuflash.o(i._bMCUFLASHCtl)
    i._bMCUFLASHOpen                         0x08001c4c   Section        0  b_drv_mcuflash.o(i._bMCUFLASHOpen)
    _bMCUFLASHOpen                           0x08001c4d   Thumb Code     6  b_drv_mcuflash.o(i._bMCUFLASHOpen)
    i._bMCUFLASHRead                         0x08001c58   Section        0  b_drv_mcuflash.o(i._bMCUFLASHRead)
    _bMCUFLASHRead                           0x08001c59   Thumb Code    20  b_drv_mcuflash.o(i._bMCUFLASHRead)
    i._bMCUFLASHWrite                        0x08001c70   Section        0  b_drv_mcuflash.o(i._bMCUFLASHWrite)
    _bMCUFLASHWrite                          0x08001c71   Thumb Code    20  b_drv_mcuflash.o(i._bMCUFLASHWrite)
    i._bUtilUartDetectIdle                   0x08001c88   Section        0  b_util_uart.o(i._bUtilUartDetectIdle)
    _bUtilUartDetectIdle                     0x08001c89   Thumb Code    80  b_util_uart.o(i._bUtilUartDetectIdle)
    i._fp_digits                             0x08001cdc   Section        0  printfa.o(i._fp_digits)
    _fp_digits                               0x08001cdd   Thumb Code   366  printfa.o(i._fp_digits)
    i._printf_core                           0x08001e60   Section        0  printfa.o(i._printf_core)
    _printf_core                             0x08001e61   Thumb Code  1704  printfa.o(i._printf_core)
    i._printf_post_padding                   0x08002514   Section        0  printfa.o(i._printf_post_padding)
    _printf_post_padding                     0x08002515   Thumb Code    36  printfa.o(i._printf_post_padding)
    i._printf_pre_padding                    0x08002538   Section        0  printfa.o(i._printf_pre_padding)
    _printf_pre_padding                      0x08002539   Thumb Code    46  printfa.o(i._printf_pre_padding)
    i._shell_init                            0x08002568   Section        0  nr_micro_shell.o(i._shell_init)
    i._snputc                                0x080025a4   Section        0  printfa.o(i._snputc)
    _snputc                                  0x080025a5   Thumb Code    22  printfa.o(i._snputc)
    i._sputc                                 0x080025ba   Section        0  printfa.o(i._sputc)
    _sputc                                   0x080025bb   Thumb Code    10  printfa.o(i._sputc)
    i.ansi_clear_current_line                0x080025c4   Section        0  ansi.o(i.ansi_clear_current_line)
    i.ansi_get_char                          0x080025d4   Section        0  ansi.o(i.ansi_get_char)
    i.ansi_init                              0x080026c4   Section        0  ansi.o(i.ansi_init)
    i.ansi_search_char                       0x080026da   Section        0  ansi.o(i.ansi_search_char)
    i.ansi_show_char                         0x080026fc   Section        0  ansi_port.o(i.ansi_show_char)
    i.ansi_show_str                          0x08002710   Section        0  ansi_port.o(i.ansi_show_str)
    i.bClose                                 0x08002728   Section        0  b_core.o(i.bClose)
    i.bCtl                                   0x08002758   Section        0  b_core.o(i.bCtl)
    i.bDeviceClose                           0x08002770   Section        0  b_device.o(i.bDeviceClose)
    i.bDeviceCtl                             0x080027f4   Section        0  b_device.o(i.bDeviceCtl)
    i.bDeviceInit                            0x0800287c   Section        0  b_device.o(i.bDeviceInit)
    i.bDeviceOpen                            0x080028c0   Section        0  b_device.o(i.bDeviceOpen)
    i.bDeviceRead                            0x08002944   Section        0  b_device.o(i.bDeviceRead)
    i.bDeviceWrite                           0x080029d0   Section        0  b_device.o(i.bDeviceWrite)
    i.bExec                                  0x08002a5c   Section        0  b_core.o(i.bExec)
    i.bHalGetSysTick                         0x08002a7c   Section        0  b_hal.o(i.bHalGetSysTick)
    i.bHalIncSysTick                         0x08002a88   Section        0  b_hal.o(i.bHalIncSysTick)
    i.bHalInit                               0x08002a98   Section        0  b_hal.o(i.bHalInit)
    i.bInit                                  0x08002a9c   Section        0  b_core.o(i.bInit)
    i.bKV_Get                                0x08002da4   Section        0  b_mod_kv.o(i.bKV_Get)
    i.bKV_Init                               0x08002e80   Section        0  b_mod_kv.o(i.bKV_Init)
    i.bKV_Set                                0x080030bc   Section        0  b_mod_kv.o(i.bKV_Set)
    i.bLogOut                                0x080031a0   Section        0  b_mod_log.o(i.bLogOut)
    i.bLogOutput                             0x08003268   Section        0  b_mod_log.o(i.bLogOutput)
    i.bLseek                                 0x08003284   Section        0  b_core.o(i.bLseek)
    i.bMCUFLASH_Init                         0x080032a4   Section        0  b_drv_mcuflash.o(i.bMCUFLASH_Init)
    i.bOpen                                  0x080032f0   Section        0  b_core.o(i.bOpen)
    i.bRead                                  0x08003320   Section        0  b_core.o(i.bRead)
    i.bShellInit                             0x08003364   Section        0  b_mod_shell.o(i.bShellInit)
    i.bShellParse                            0x08003380   Section        0  b_mod_shell.o(i.bShellParse)
    i.bWrite                                 0x080033c8   Section        0  b_core.o(i.bWrite)
    i.main                                   0x08003408   Section        0  main.o(i.main)
    i.nr_ansi_ctrl_common_slover             0x0800346c   Section        0  ansi_port.o(i.nr_ansi_ctrl_common_slover)
    i.nr_ansi_in_backspace                   0x0800348c   Section        0  ansi_port.o(i.nr_ansi_in_backspace)
    i.nr_ansi_in_down                        0x080034d8   Section        0  ansi_port.o(i.nr_ansi_in_down)
    i.nr_ansi_in_enter                       0x0800355c   Section        0  ansi_port.o(i.nr_ansi_in_enter)
    i.nr_ansi_in_left                        0x08003588   Section        0  ansi_port.o(i.nr_ansi_in_left)
    i.nr_ansi_in_newline                     0x080035b8   Section        0  ansi_port.o(i.nr_ansi_in_newline)
    i.nr_ansi_in_right                       0x080035c0   Section        0  ansi_port.o(i.nr_ansi_in_right)
    i.nr_ansi_in_tab                         0x080035f4   Section        0  ansi_port.o(i.nr_ansi_in_tab)
    i.nr_ansi_in_up                          0x080036c8   Section        0  ansi_port.o(i.nr_ansi_in_up)
    i.nr_shell_strtok                        0x08003750   Section        0  nr_micro_shell.o(i.nr_shell_strtok)
    nr_shell_strtok                          0x08003751   Thumb Code   136  nr_micro_shell.o(i.nr_shell_strtok)
    i.shell_cmd_complete                     0x080037dc   Section        0  nr_micro_shell.o(i.shell_cmd_complete)
    i.shell_his_copy_queue_item              0x0800381c   Section        0  nr_micro_shell.o(i.shell_his_copy_queue_item)
    i.shell_his_queue_add_cmd                0x08003898   Section        0  nr_micro_shell.o(i.shell_his_queue_add_cmd)
    i.shell_his_queue_init                   0x08003942   Section        0  nr_micro_shell.o(i.shell_his_queue_init)
    i.shell_his_queue_search_cmd             0x08003954   Section        0  nr_micro_shell.o(i.shell_his_queue_search_cmd)
    i.shell_parser                           0x080039dc   Section        0  nr_micro_shell.o(i.shell_parser)
    i.shell_search_cmd                       0x08003b08   Section        0  nr_micro_shell.o(i.shell_search_cmd)
    .constdata                               0x08003b38   Section       14  main.o(.constdata)
    __func__                                 0x08003b38   Data          14  main.o(.constdata)
    .constdata                               0x08003b46   Section        6  b_core.o(.constdata)
    __func__                                 0x08003b46   Data           6  b_core.o(.constdata)
    .constdata                               0x08003b4c   Section       94  b_device.o(.constdata)
    __func__                                 0x08003b4c   Data          17  b_device.o(.constdata)
    __func__                                 0x08003b5d   Data          12  b_device.o(.constdata)
    __func__                                 0x08003b69   Data          12  b_device.o(.constdata)
    __func__                                 0x08003b75   Data          13  b_device.o(.constdata)
    __func__                                 0x08003b82   Data          13  b_device.o(.constdata)
    __func__                                 0x08003b8f   Data          11  b_device.o(.constdata)
    __func__                                 0x08003b9a   Data          16  b_device.o(.constdata)
    .constdata                               0x08003bac   Section       92  b_mod_kv.o(.constdata)
    __func__                                 0x08003bac   Data           8  b_mod_kv.o(.constdata)
    __func__                                 0x08003bb4   Data           8  b_mod_kv.o(.constdata)
    InvalidIndex                             0x08003bbc   Data          20  b_mod_kv.o(.constdata)
    __func__                                 0x08003bd0   Data          19  b_mod_kv.o(.constdata)
    __func__                                 0x08003be3   Data          17  b_mod_kv.o(.constdata)
    __func__                                 0x08003bf4   Data           9  b_mod_kv.o(.constdata)
    __func__                                 0x08003bfd   Data          11  b_mod_kv.o(.constdata)
    .constdata                               0x08003c08   Section        6  b_mod_log.o(.constdata)
    bLogParamTable                           0x08003c08   Data           3  b_mod_log.o(.constdata)
    bLogPrefix                               0x08003c0b   Data           3  b_mod_log.o(.constdata)
    .constdata                               0x08003c0e   Section       15  b_mod_shell.o(.constdata)
    __func__                                 0x08003c0e   Data          15  b_mod_shell.o(.constdata)
    .constdata                               0x08003c20   Section       24  mcu_stm32f10x_flash.o(.constdata)
    .constdata                               0x08003c38   Section        8  mcu_stm32f10x_uart.o(.constdata)
    .constdata                               0x08003c40   Section      120  ansi.o(.constdata)
    .constdata                               0x08003cb8   Section       99  ansi_port.o(.constdata)
    __func__                                 0x08003cb8   Data          21  ansi_port.o(.constdata)
    __func__                                 0x08003ccd   Data          14  ansi_port.o(.constdata)
    __func__                                 0x08003cdb   Data          16  ansi_port.o(.constdata)
    __func__                                 0x08003ceb   Data          16  ansi_port.o(.constdata)
    __func__                                 0x08003cfb   Data          17  ansi_port.o(.constdata)
    __func__                                 0x08003d0c   Data          15  ansi_port.o(.constdata)
    .constdata                               0x08003d1b   Section       25  nr_micro_shell.o(.constdata)
    __func__                                 0x08003d1b   Data          12  nr_micro_shell.o(.constdata)
    __func__                                 0x08003d27   Data          13  nr_micro_shell.o(.constdata)
    .constdata                               0x08003d34   Section      129  ctype_o.o(.constdata)
    .constdata                               0x08003db8   Section        4  ctype_o.o(.constdata)
    table                                    0x08003db8   Data           4  ctype_o.o(.constdata)
    .conststring                             0x08003dbc   Section       11  b_device.o(.conststring)
    .conststring                             0x08003dc8   Section       65  ansi_port.o(.conststring)
    .conststring                             0x08003e0c   Section       70  nr_micro_shell.o(.conststring)
    .conststrlit                             0x08003e54   Section        3  main.o(.conststrlit)
    .conststrlit                             0x08003e58   Section        4  b_mod_shell.o(.conststrlit)
    b_mod_shell                              0x08003e7c   Section        8  main.o(b_mod_shell)
    __tagsym$$used                           0x08003e7c   Number         0  main.o(b_mod_shell)
    b_mod_shell                              0x08003e84   Section        8  b_mod_shell.o(b_mod_shell)
    __tagsym$$used                           0x08003e84   Number         0  b_mod_shell.o(b_mod_shell)
    bos_polling                              0x08003e8c   Section        4  b_core.o(bos_polling)
    __tagsym$$used                           0x08003e8c   Number         0  b_core.o(bos_polling)
    bos_polling                              0x08003e90   Section        4  b_util_uart.o(bos_polling)
    __tagsym$$used                           0x08003e90   Number         0  b_util_uart.o(bos_polling)
    driver_init                              0x08003e94   Section        4  b_device.o(driver_init)
    __tagsym$$used                           0x08003e94   Number         0  b_device.o(driver_init)
    driver_init                              0x08003e98   Section        4  b_drv_mcuflash.o(driver_init)
    __tagsym$$used                           0x08003e98   Number         0  b_drv_mcuflash.o(driver_init)
    driver_init_0                            0x08003e9c   Section        4  b_device.o(driver_init_0)
    __tagsym$$used                           0x08003e9c   Number         0  b_device.o(driver_init_0)
    .data                                    0x20000000   Section       20  stm32f10x_rcc.o(.data)
    ADCPrescTable                            0x20000000   Data           4  stm32f10x_rcc.o(.data)
    APBAHBPrescTable                         0x20000004   Data          16  stm32f10x_rcc.o(.data)
    .data                                    0x20000014   Section       20  system_stm32f10x.o(.data)
    .data                                    0x20000028   Section        1  b_core.o(.data)
    init                                     0x20000028   Data           1  b_core.o(.data)
    .data                                    0x2000002c   Section       16  b_device.o(.data)
    bDriverTable                             0x2000002c   Data           8  b_device.o(.data)
    bDeviceDescTable                         0x20000034   Data           8  b_device.o(.data)
    .data                                    0x2000003c   Section       20  mcu_stm32f10x_uart.o(.data)
    UartTable                                0x2000003c   Data          20  mcu_stm32f10x_uart.o(.data)
    .data                                    0x20000050   Section        8  b_hal.o(.data)
    bSysTick                                 0x20000050   Data           4  b_hal.o(.data)
    bUsDelayParam                            0x20000054   Data           4  b_hal.o(.data)
    .data                                    0x20000058   Section      148  nr_micro_shell.o(.data)
    .data                                    0x200000ec   Section        4  nr_micro_shell.o(.data)
    last                                     0x200000ec   Data           4  nr_micro_shell.o(.data)
    .bss                                     0x200000f0   Section       80  b_core.o(.bss)
    bCoreFdTable                             0x200000f0   Data          80  b_core.o(.bss)
    .bss                                     0x20000140   Section       32  b_device.o(.bss)
    bNullDriver                              0x20000140   Data          32  b_device.o(.bss)
    .bss                                     0x20000160   Section       32  b_drv_mcuflash.o(.bss)
    .bss                                     0x20000180   Section       52  b_mod_kv.o(.bss)
    bKV_Info                                 0x20000180   Data          52  b_mod_kv.o(.bss)
    .bss                                     0x200001b4   Section      256  b_mod_log.o(.bss)
    bLogBuff                                 0x200001b4   Data         256  b_mod_log.o(.bss)
    .bss                                     0x200002b4   Section       32  b_util_uart.o(.bss)
    bUitlUartHead                            0x200002b4   Data          32  b_util_uart.o(.bss)
    .bss                                     0x200002d4   Section      132  ansi.o(.bss)
    STACK                                    0x20000358   Section     2048  startup_stm32f10x_cl.o(STACK)

    Global Symbols

    Symbol Name                              Value     Ov Type        Size  Object(Section)

    BuildAttributes$$THM_ISAv4$P$D$K$B$S$PE$A:L22UL41UL21$X:L11$S22US41US21$IEEE1$IW$USESV6$~STKCKD$USESV7$~SHL$OSPACE$ROPI$EBA8$MICROLIB$REQ8$PRES8$EABIv2 0x00000000   Number         0  anon$$obj.o ABSOLUTE
    __ARM_use_no_argv                        0x00000000   Number         0  main.o ABSOLUTE
    _printf_a                                0x00000000   Number         0  stubs.o ABSOLUTE
    _printf_c                                0x00000000   Number         0  stubs.o ABSOLUTE
    _printf_charcount                        0x00000000   Number         0  stubs.o ABSOLUTE
    _printf_d                                0x00000000   Number         0  stubs.o ABSOLUTE
    _printf_e                                0x00000000   Number         0  stubs.o ABSOLUTE
    _printf_f                                0x00000000   Number         0  stubs.o ABSOLUTE
    _printf_flags                            0x00000000   Number         0  stubs.o ABSOLUTE
    _printf_fp_dec                           0x00000000   Number         0  stubs.o ABSOLUTE
    _printf_fp_hex                           0x00000000   Number         0  stubs.o ABSOLUTE
    _printf_g                                0x00000000   Number         0  stubs.o ABSOLUTE
    _printf_i                                0x00000000   Number         0  stubs.o ABSOLUTE
    _printf_int_dec                          0x00000000   Number         0  stubs.o ABSOLUTE
    _printf_l                                0x00000000   Number         0  stubs.o ABSOLUTE
    _printf_lc                               0x00000000   Number         0  stubs.o ABSOLUTE
    _printf_ll                               0x00000000   Number         0  stubs.o ABSOLUTE
    _printf_lld                              0x00000000   Number         0  stubs.o ABSOLUTE
    _printf_lli                              0x00000000   Number         0  stubs.o ABSOLUTE
    _printf_llo                              0x00000000   Number         0  stubs.o ABSOLUTE
    _printf_llu                              0x00000000   Number         0  stubs.o ABSOLUTE
    _printf_llx                              0x00000000   Number         0  stubs.o ABSOLUTE
    _printf_longlong_dec                     0x00000000   Number         0  stubs.o ABSOLUTE
    _printf_longlong_hex                     0x00000000   Number         0  stubs.o ABSOLUTE
    _printf_longlong_oct                     0x00000000   Number         0  stubs.o ABSOLUTE
    _printf_ls                               0x00000000   Number         0  stubs.o ABSOLUTE
    _printf_mbtowc                           0x00000000   Number         0  stubs.o ABSOLUTE
    _printf_n                                0x00000000   Number         0  stubs.o ABSOLUTE
    _printf_o                                0x00000000   Number         0  stubs.o ABSOLUTE
    _printf_p                                0x00000000   Number         0  stubs.o ABSOLUTE
    _printf_percent                          0x00000000   Number         0  stubs.o ABSOLUTE
    _printf_pre_padding                      0x00000000   Number         0  stubs.o ABSOLUTE
    _printf_return_value                     0x00000000   Number         0  stubs.o ABSOLUTE
    _printf_s                                0x00000000   Number         0  stubs.o ABSOLUTE
    _printf_sizespec                         0x00000000   Number         0  stubs.o ABSOLUTE
    _printf_str                              0x00000000   Number         0  stubs.o ABSOLUTE
    _printf_truncate_signed                  0x00000000   Number         0  stubs.o ABSOLUTE
    _printf_truncate_unsigned                0x00000000   Number         0  stubs.o ABSOLUTE
    _printf_u                                0x00000000   Number         0  stubs.o ABSOLUTE
    _printf_wc                               0x00000000   Number         0  stubs.o ABSOLUTE
    _printf_wctomb                           0x00000000   Number         0  stubs.o ABSOLUTE
    _printf_widthprec                        0x00000000   Number         0  stubs.o ABSOLUTE
    _printf_x                                0x00000000   Number         0  stubs.o ABSOLUTE
    __arm_fini_                               - Undefined Weak Reference
    __cpp_initialize__aeabi_                  - Undefined Weak Reference
    __cxa_finalize                            - Undefined Weak Reference
    __decompress                              - Undefined Weak Reference
    _clock_init                               - Undefined Weak Reference
    _microlib_exit                            - Undefined Weak Reference
    __Vectors_Size                           0x00000150   Number         0  startup_stm32f10x_cl.o ABSOLUTE
    __Vectors                                0x08000000   Data           4  startup_stm32f10x_cl.o(RESET)
    __Vectors_End                            0x08000150   Data           0  startup_stm32f10x_cl.o(RESET)
    __main                                   0x08000151   Thumb Code     0  entry.o(.ARM.Collect$$$$00000000)
    _main_stk                                0x08000151   Thumb Code     0  entry2.o(.ARM.Collect$$$$00000001)
    _main_scatterload                        0x08000155   Thumb Code     0  entry5.o(.ARM.Collect$$$$00000004)
    __main_after_scatterload                 0x08000159   Thumb Code     0  entry5.o(.ARM.Collect$$$$00000004)
    _main_clock                              0x08000159   Thumb Code     0  entry7b.o(.ARM.Collect$$$$00000008)
    _main_cpp_init                           0x08000159   Thumb Code     0  entry8b.o(.ARM.Collect$$$$0000000A)
    _main_init                               0x08000159   Thumb Code     0  entry9a.o(.ARM.Collect$$$$0000000B)
    __rt_lib_shutdown_fini                   0x08000161   Thumb Code     0  entry12b.o(.ARM.Collect$$$$0000000E)
    __rt_final_cpp                           0x08000165   Thumb Code     0  entry10a.o(.ARM.Collect$$$$0000000F)
    __rt_final_exit                          0x08000165   Thumb Code     0  entry11a.o(.ARM.Collect$$$$00000011)
    Reset_Handler                            0x08000169   Thumb Code     8  startup_stm32f10x_cl.o(.text)
    ADC1_2_IRQHandler                        0x08000183   Thumb Code     0  startup_stm32f10x_cl.o(.text)
    CAN1_RX0_IRQHandler                      0x08000183   Thumb Code     0  startup_stm32f10x_cl.o(.text)
    CAN1_RX1_IRQHandler                      0x08000183   Thumb Code     0  startup_stm32f10x_cl.o(.text)
    CAN1_SCE_IRQHandler                      0x08000183   Thumb Code     0  startup_stm32f10x_cl.o(.text)
    CAN1_TX_IRQHandler                       0x08000183   Thumb Code     0  startup_stm32f10x_cl.o(.text)
    CAN2_RX0_IRQHandler                      0x08000183   Thumb Code     0  startup_stm32f10x_cl.o(.text)
    CAN2_RX1_IRQHandler                      0x08000183   Thumb Code     0  startup_stm32f10x_cl.o(.text)
    CAN2_SCE_IRQHandler                      0x08000183   Thumb Code     0  startup_stm32f10x_cl.o(.text)
    CAN2_TX_IRQHandler                       0x08000183   Thumb Code     0  startup_stm32f10x_cl.o(.text)
    DMA1_Channel1_IRQHandler                 0x08000183   Thumb Code     0  startup_stm32f10x_cl.o(.text)
    DMA1_Channel2_IRQHandler                 0x08000183   Thumb Code     0  startup_stm32f10x_cl.o(.text)
    DMA1_Channel3_IRQHandler                 0x08000183   Thumb Code     0  startup_stm32f10x_cl.o(.text)
    DMA1_Channel4_IRQHandler                 0x08000183   Thumb Code     0  startup_stm32f10x_cl.o(.text)
    DMA1_Channel5_IRQHandler                 0x08000183   Thumb Code     0  startup_stm32f10x_cl.o(.text)
    DMA1_Channel6_IRQHandler                 0x08000183   Thumb Code     0  startup_stm32f10x_cl.o(.text)
    DMA1_Channel7_IRQHandler                 0x08000183   Thumb Code     0  startup_stm32f10x_cl.o(.text)
    DMA2_Channel1_IRQHandler                 0x08000183   Thumb Code     0  startup_stm32f10x_cl.o(.text)
    DMA2_Channel2_IRQHandler                 0x08000183   Thumb Code     0  startup_stm32f10x_cl.o(.text)
    DMA2_Channel3_IRQHandler                 0x08000183   Thumb Code     0  startup_stm32f10x_cl.o(.text)
    DMA2_Channel4_IRQHandler                 0x08000183   Thumb Code     0  startup_stm32f10x_cl.o(.text)
    DMA2_Channel5_IRQHandler                 0x08000183   Thumb Code     0  startup_stm32f10x_cl.o(.text)
    ETH_IRQHandler                           0x08000183   Thumb Code     0  startup_stm32f10x_cl.o(.text)
    ETH_WKUP_IRQHandler                      0x08000183   Thumb Code     0  startup_stm32f10x_cl.o(.text)
    EXTI0_IRQHandler                         0x08000183   Thumb Code     0  startup_stm32f10x_cl.o(.text)
    EXTI15_10_IRQHandler                     0x08000183   Thumb Code     0  startup_stm32f10x_cl.o(.text)
    EXTI1_IRQHandler                         0x08000183   Thumb Code     0  startup_stm32f10x_cl.o(.text)
    EXTI2_IRQHandler                         0x08000183   Thumb Code     0  startup_stm32f10x_cl.o(.text)
    EXTI3_IRQHandler                         0x08000183   Thumb Code     0  startup_stm32f10x_cl.o(.text)
    EXTI4_IRQHandler                         0x08000183   Thumb Code     0  startup_stm32f10x_cl.o(.text)
    EXTI9_5_IRQHandler                       0x08000183   Thumb Code     0  startup_stm32f10x_cl.o(.text)
    FLASH_IRQHandler                         0x08000183   Thumb Code     0  startup_stm32f10x_cl.o(.text)
    I2C1_ER_IRQHandler                       0x08000183   Thumb Code     0  startup_stm32f10x_cl.o(.text)
    I2C1_EV_IRQHandler                       0x08000183   Thumb Code     0  startup_stm32f10x_cl.o(.text)
    I2C2_ER_IRQHandler                       0x08000183   Thumb Code     0  startup_stm32f10x_cl.o(.text)
    I2C2_EV_IRQHandler                       0x08000183   Thumb Code     0  startup_stm32f10x_cl.o(.text)
    OTG_FS_IRQHandler                        0x08000183   Thumb Code     0  startup_stm32f10x_cl.o(.text)
    OTG_FS_WKUP_IRQHandler                   0x08000183   Thumb Code     0  startup_stm32f10x_cl.o(.text)
    PVD_IRQHandler                           0x08000183   Thumb Code     0  startup_stm32f10x_cl.o(.text)
    RCC_IRQHandler                           0x08000183   Thumb Code     0  startup_stm32f10x_cl.o(.text)
    RTCAlarm_IRQHandler                      0x08000183   Thumb Code     0  startup_stm32f10x_cl.o(.text)
    RTC_IRQHandler                           0x08000183   Thumb Code     0  startup_stm32f10x_cl.o(.text)
    SPI1_IRQHandler                          0x08000183   Thumb Code     0  startup_stm32f10x_cl.o(.text)
    SPI2_IRQHandler                          0x08000183   Thumb Code     0  startup_stm32f10x_cl.o(.text)
    SPI3_IRQHandler                          0x08000183   Thumb Code     0  startup_stm32f10x_cl.o(.text)
    TAMPER_IRQHandler                        0x08000183   Thumb Code     0  startup_stm32f10x_cl.o(.text)
    TIM1_BRK_IRQHandler                      0x08000183   Thumb Code     0  startup_stm32f10x_cl.o(.text)
    TIM1_CC_IRQHandler                       0x08000183   Thumb Code     0  startup_stm32f10x_cl.o(.text)
    TIM1_TRG_COM_IRQHandler                  0x08000183   Thumb Code     0  startup_stm32f10x_cl.o(.text)
    TIM1_UP_IRQHandler                       0x08000183   Thumb Code     0  startup_stm32f10x_cl.o(.text)
    TIM2_IRQHandler                          0x08000183   Thumb Code     0  startup_stm32f10x_cl.o(.text)
    TIM3_IRQHandler                          0x08000183   Thumb Code     0  startup_stm32f10x_cl.o(.text)
    TIM4_IRQHandler                          0x08000183   Thumb Code     0  startup_stm32f10x_cl.o(.text)
    TIM5_IRQHandler                          0x08000183   Thumb Code     0  startup_stm32f10x_cl.o(.text)
    TIM6_IRQHandler                          0x08000183   Thumb Code     0  startup_stm32f10x_cl.o(.text)
    TIM7_IRQHandler                          0x08000183   Thumb Code     0  startup_stm32f10x_cl.o(.text)
    UART4_IRQHandler                         0x08000183   Thumb Code     0  startup_stm32f10x_cl.o(.text)
    UART5_IRQHandler                         0x08000183   Thumb Code     0  startup_stm32f10x_cl.o(.text)
    USART2_IRQHandler                        0x08000183   Thumb Code     0  startup_stm32f10x_cl.o(.text)
    USART3_IRQHandler                        0x08000183   Thumb Code     0  startup_stm32f10x_cl.o(.text)
    WWDG_IRQHandler                          0x08000183   Thumb Code     0  startup_stm32f10x_cl.o(.text)
    __rt_ctype_table                         0x0800018d   Thumb Code     4  ctype_o.o(.text)
    __aeabi_memcpy                           0x08000195   Thumb Code    36  memcpya.o(.text)
    __aeabi_memcpy4                          0x08000195   Thumb Code     0  memcpya.o(.text)
    __aeabi_memcpy8                          0x08000195   Thumb Code     0  memcpya.o(.text)
    __aeabi_memset                           0x080001b9   Thumb Code    14  memseta.o(.text)
    __aeabi_memset4                          0x080001b9   Thumb Code     0  memseta.o(.text)
    __aeabi_memset8                          0x080001b9   Thumb Code     0  memseta.o(.text)
    __aeabi_memclr                           0x080001c7   Thumb Code     4  memseta.o(.text)
    __aeabi_memclr4                          0x080001c7   Thumb Code     0  memseta.o(.text)
    __aeabi_memclr8                          0x080001c7   Thumb Code     0  memseta.o(.text)
    _memset$wrapper                          0x080001cb   Thumb Code    18  memseta.o(.text)
    strstr                                   0x080001dd   Thumb Code    36  strstr.o(.text)
    strlen                                   0x08000201   Thumb Code    14  strlen.o(.text)
    strcmp                                   0x0800020f   Thumb Code    28  strcmp.o(.text)
    strcpy                                   0x0800022b   Thumb Code    18  strcpy.o(.text)
    strncmp                                  0x0800023d   Thumb Code    30  strncmp.o(.text)
    __aeabi_dmul                             0x0800025b   Thumb Code   228  dmul.o(.text)
    __aeabi_ddiv                             0x0800033f   Thumb Code   222  ddiv.o(.text)
    __aeabi_ui2d                             0x0800041d   Thumb Code    26  dfltui.o(.text)
    __aeabi_d2uiz                            0x08000437   Thumb Code    50  dfixui.o(.text)
    __aeabi_uidiv                            0x08000469   Thumb Code     0  uidiv.o(.text)
    __aeabi_uidivmod                         0x08000469   Thumb Code    44  uidiv.o(.text)
    __aeabi_uldivmod                         0x08000495   Thumb Code    98  uldiv.o(.text)
    __aeabi_llsr                             0x080004f7   Thumb Code    32  llushr.o(.text)
    _ll_ushift_r                             0x080004f7   Thumb Code     0  llushr.o(.text)
    __I$use$fp                               0x08000517   Thumb Code     0  iusefp.o(.text)
    _double_round                            0x08000517   Thumb Code    30  depilogue.o(.text)
    _double_epilogue                         0x08000535   Thumb Code   156  depilogue.o(.text)
    __aeabi_dadd                             0x080005d1   Thumb Code   322  dadd.o(.text)
    __aeabi_dsub                             0x08000713   Thumb Code     6  dadd.o(.text)
    __aeabi_drsub                            0x08000719   Thumb Code     6  dadd.o(.text)
    __aeabi_d2ulz                            0x0800071f   Thumb Code    48  dfixul.o(.text)
    __aeabi_cdrcmple                         0x08000751   Thumb Code    48  cdrcmple.o(.text)
    __scatterload                            0x08000781   Thumb Code    28  init.o(.text)
    __scatterload_rt2                        0x08000781   Thumb Code     0  init.o(.text)
    __aeabi_llsl                             0x080007a5   Thumb Code    30  llshl.o(.text)
    _ll_shift_l                              0x080007a5   Thumb Code     0  llshl.o(.text)
    __aeabi_lasr                             0x080007c3   Thumb Code    36  llsshr.o(.text)
    _ll_sshift_r                             0x080007c3   Thumb Code     0  llsshr.o(.text)
    BoardInit                                0x080007e9   Thumb Code   130  board.o(i.BoardInit)
    BusFault_Handler                         0x08000871   Thumb Code     2  stm32f10x_it.o(i.BusFault_Handler)
    DebugMon_Handler                         0x08000873   Thumb Code     2  stm32f10x_it.o(i.DebugMon_Handler)
    GPIO_Init                                0x08000875   Thumb Code   162  stm32f10x_gpio.o(i.GPIO_Init)
    GPIO_PinRemapConfig                      0x08000919   Thumb Code    82  stm32f10x_gpio.o(i.GPIO_PinRemapConfig)
    GPIO_SetBits                             0x08000971   Thumb Code     4  stm32f10x_gpio.o(i.GPIO_SetBits)
    HardFault_Handler                        0x08000975   Thumb Code     2  stm32f10x_it.o(i.HardFault_Handler)
    MemManage_Handler                        0x08000977   Thumb Code     2  stm32f10x_it.o(i.MemManage_Handler)
    NMI_Handler                              0x08000979   Thumb Code     2  stm32f10x_it.o(i.NMI_Handler)
    NVIC_Init                                0x0800097d   Thumb Code    94  misc.o(i.NVIC_Init)
    NVIC_PriorityGroupConfig                 0x080009e1   Thumb Code    10  misc.o(i.NVIC_PriorityGroupConfig)
    PendSV_Handler                           0x08000a15   Thumb Code     2  stm32f10x_it.o(i.PendSV_Handler)
    RCC_APB1PeriphClockCmd                   0x08000a19   Thumb Code    18  stm32f10x_rcc.o(i.RCC_APB1PeriphClockCmd)
    RCC_APB2PeriphClockCmd                   0x08000a31   Thumb Code    18  stm32f10x_rcc.o(i.RCC_APB2PeriphClockCmd)
    RCC_GetClocksFreq                        0x08000a49   Thumb Code   178  stm32f10x_rcc.o(i.RCC_GetClocksFreq)
    SPI_Cmd                                  0x08000b11   Thumb Code    20  stm32f10x_spi.o(i.SPI_Cmd)
    SPI_Init                                 0x08000b25   Thumb Code    56  stm32f10x_spi.o(i.SPI_Init)
    SVC_Handler                              0x08000b5d   Thumb Code     2  stm32f10x_it.o(i.SVC_Handler)
    SysTick_Handler                          0x08000c31   Thumb Code     4  main.o(i.SysTick_Handler)
    SystemInit                               0x08000c35   Thumb Code    64  system_stm32f10x.o(i.SystemInit)
    USART1_IRQHandler                        0x08000c81   Thumb Code    54  main.o(i.USART1_IRQHandler)
    USART_ClearITPendingBit                  0x08000cbd   Thumb Code    12  stm32f10x_usart.o(i.USART_ClearITPendingBit)
    USART_Cmd                                0x08000cc9   Thumb Code    20  stm32f10x_usart.o(i.USART_Cmd)
    USART_GetITStatus                        0x08000cdd   Thumb Code    62  stm32f10x_usart.o(i.USART_GetITStatus)
    USART_ITConfig                           0x08000d1b   Thumb Code    48  stm32f10x_usart.o(i.USART_ITConfig)
    USART_Init                               0x08000d4d   Thumb Code   166  stm32f10x_usart.o(i.USART_Init)
    USART_ReceiveData                        0x08000df9   Thumb Code     8  stm32f10x_usart.o(i.USART_ReceiveData)
    UsageFault_Handler                       0x08000e01   Thumb Code     2  stm32f10x_it.o(i.UsageFault_Handler)
    __0sprintf                               0x0800138d   Thumb Code    34  printfa.o(i.__0sprintf)
    __1sprintf                               0x0800138d   Thumb Code     0  printfa.o(i.__0sprintf)
    __2sprintf                               0x0800138d   Thumb Code     0  printfa.o(i.__0sprintf)
    __c89sprintf                             0x0800138d   Thumb Code     0  printfa.o(i.__0sprintf)
    sprintf                                  0x0800138d   Thumb Code     0  printfa.o(i.__0sprintf)
    __0vsnprintf                             0x080013b5   Thumb Code    46  printfa.o(i.__0vsnprintf)
    __1vsnprintf                             0x080013b5   Thumb Code     0  printfa.o(i.__0vsnprintf)
    __2vsnprintf                             0x080013b5   Thumb Code     0  printfa.o(i.__0vsnprintf)
    __c89vsnprintf                           0x080013b5   Thumb Code     0  printfa.o(i.__0vsnprintf)
    vsnprintf                                0x080013b5   Thumb Code     0  printfa.o(i.__0vsnprintf)
    __scatterload_copy                       0x080013e9   Thumb Code    14  handlers.o(i.__scatterload_copy)
    __scatterload_null                       0x080013f7   Thumb Code     2  handlers.o(i.__scatterload_null)
    __scatterload_zeroinit                   0x080013f9   Thumb Code    14  handlers.o(i.__scatterload_zeroinit)
    _shell_init                              0x08002569   Thumb Code    42  nr_micro_shell.o(i._shell_init)
    ansi_clear_current_line                  0x080025c5   Thumb Code    14  ansi.o(i.ansi_clear_current_line)
    ansi_get_char                            0x080025d5   Thumb Code   236  ansi.o(i.ansi_get_char)
    ansi_init                                0x080026c5   Thumb Code    22  ansi.o(i.ansi_init)
    ansi_search_char                         0x080026db   Thumb Code    32  ansi.o(i.ansi_search_char)
    ansi_show_char                           0x080026fd   Thumb Code    16  ansi_port.o(i.ansi_show_char)
    ansi_show_str                            0x08002711   Thumb Code    24  ansi_port.o(i.ansi_show_str)
    bClose                                   0x08002729   Thumb Code    44  b_core.o(i.bClose)
    bCtl                                     0x08002759   Thumb Code    20  b_core.o(i.bCtl)
    bDeviceClose                             0x08002771   Thumb Code    72  b_device.o(i.bDeviceClose)
    bDeviceCtl                               0x080027f5   Thumb Code    74  b_device.o(i.bDeviceCtl)
    bDeviceInit                              0x0800287d   Thumb Code    46  b_device.o(i.bDeviceInit)
    bDeviceOpen                              0x080028c1   Thumb Code    72  b_device.o(i.bDeviceOpen)
    bDeviceRead                              0x08002945   Thumb Code    78  b_device.o(i.bDeviceRead)
    bDeviceWrite                             0x080029d1   Thumb Code    78  b_device.o(i.bDeviceWrite)
    bExec                                    0x08002a5d   Thumb Code    22  b_core.o(i.bExec)
    bHalGetSysTick                           0x08002a7d   Thumb Code     6  b_hal.o(i.bHalGetSysTick)
    bHalIncSysTick                           0x08002a89   Thumb Code    10  b_hal.o(i.bHalIncSysTick)
    bHalInit                                 0x08002a99   Thumb Code     4  b_hal.o(i.bHalInit)
    bInit                                    0x08002a9d   Thumb Code   232  b_core.o(i.bInit)
    bKV_Get                                  0x08002da5   Thumb Code   144  b_mod_kv.o(i.bKV_Get)
    bKV_Init                                 0x08002e81   Thumb Code   364  b_mod_kv.o(i.bKV_Init)
    bKV_Set                                  0x080030bd   Thumb Code   152  b_mod_kv.o(i.bKV_Set)
    bLogOut                                  0x080031a1   Thumb Code   186  b_mod_log.o(i.bLogOut)
    bLogOutput                               0x08003269   Thumb Code    24  b_mod_log.o(i.bLogOutput)
    bLseek                                   0x08003285   Thumb Code    28  b_core.o(i.bLseek)
    bMCUFLASH_Init                           0x080032a5   Thumb Code    46  b_drv_mcuflash.o(i.bMCUFLASH_Init)
    bOpen                                    0x080032f1   Thumb Code    48  b_core.o(i.bOpen)
    bRead                                    0x08003321   Thumb Code    62  b_core.o(i.bRead)
    bShellInit                               0x08003365   Thumb Code    18  b_mod_shell.o(i.bShellInit)
    bShellParse                              0x08003381   Thumb Code    62  b_mod_shell.o(i.bShellParse)
    bWrite                                   0x080033c9   Thumb Code    60  b_core.o(i.bWrite)
    main                                     0x08003409   Thumb Code    94  main.o(i.main)
    nr_ansi_ctrl_common_slover               0x0800346d   Thumb Code    30  ansi_port.o(i.nr_ansi_ctrl_common_slover)
    nr_ansi_in_backspace                     0x0800348d   Thumb Code    60  ansi_port.o(i.nr_ansi_in_backspace)
    nr_ansi_in_down                          0x080034d9   Thumb Code   108  ansi_port.o(i.nr_ansi_in_down)
    nr_ansi_in_enter                         0x0800355d   Thumb Code    38  ansi_port.o(i.nr_ansi_in_enter)
    nr_ansi_in_left                          0x08003589   Thumb Code    32  ansi_port.o(i.nr_ansi_in_left)
    nr_ansi_in_newline                       0x080035b9   Thumb Code     6  ansi_port.o(i.nr_ansi_in_newline)
    nr_ansi_in_right                         0x080035c1   Thumb Code    36  ansi_port.o(i.nr_ansi_in_right)
    nr_ansi_in_tab                           0x080035f5   Thumb Code   174  ansi_port.o(i.nr_ansi_in_tab)
    nr_ansi_in_up                            0x080036c9   Thumb Code   110  ansi_port.o(i.nr_ansi_in_up)
    shell_cmd_complete                       0x080037dd   Thumb Code    54  nr_micro_shell.o(i.shell_cmd_complete)
    shell_his_copy_queue_item                0x0800381d   Thumb Code   124  nr_micro_shell.o(i.shell_his_copy_queue_item)
    shell_his_queue_add_cmd                  0x08003899   Thumb Code   170  nr_micro_shell.o(i.shell_his_queue_add_cmd)
    shell_his_queue_init                     0x08003943   Thumb Code    16  nr_micro_shell.o(i.shell_his_queue_init)
    shell_his_queue_search_cmd               0x08003955   Thumb Code   134  nr_micro_shell.o(i.shell_his_queue_search_cmd)
    shell_parser                             0x080039dd   Thumb Code   234  nr_micro_shell.o(i.shell_parser)
    shell_search_cmd                         0x08003b09   Thumb Code    38  nr_micro_shell.o(i.shell_search_cmd)
    bHalFlashDriver                          0x08003c20   Data          24  mcu_stm32f10x_flash.o(.constdata)
    bHalUartDriver                           0x08003c38   Data           8  mcu_stm32f10x_uart.o(.constdata)
    nr_ansi_in_special_symbol                0x08003c40   Data           5  ansi.o(.constdata)
    nr_ansi_in_cmd                           0x08003c45   Data          20  ansi.o(.constdata)
    nr_ansi_in_cmd_fun                       0x08003c5c   Data          76  ansi.o(.constdata)
    nr_ansi_in_special_symbol_fun            0x08003ca8   Data          16  ansi.o(.constdata)
    __ctype_table                            0x08003d34   Data         129  ctype_o.o(.constdata)
    Region$$Table$$Base                      0x08003e5c   Number         0  anon$$obj.o(Region$$Table)
    Region$$Table$$Limit                     0x08003e7c   Number         0  anon$$obj.o(Region$$Table)
    b_mod_shell$$Base                        0x08003e7c   Number         0  main.o(b_mod_shell)
    do__CmdKVHandler                         0x08003e7c   Data           8  main.o(b_mod_shell)
    do__CmdBosHandler                        0x08003e84   Data           8  b_mod_shell.o(b_mod_shell)
    b_mod_shell$$Limit                       0x08003e8c   Number         0  b_mod_shell.o(b_mod_shell)
    bos_polling$$Base                        0x08003e8c   Number         0  b_core.o(bos_polling)
    polling_bCoreMonitor                     0x08003e8c   Data           4  b_core.o(bos_polling)
    polling_bUtilUartDetectIdle              0x08003e90   Data           4  b_util_uart.o(bos_polling)
    bos_polling$$Limit                       0x08003e94   Number         0  b_util_uart.o(bos_polling)
    driver_init$$Base                        0x08003e94   Number         0  b_device.o(driver_init)
    init_bDriverNullInit                     0x08003e94   Data           4  b_device.o(driver_init)
    initbMCUFLASH_Init                       0x08003e98   Data           4  b_drv_mcuflash.o(driver_init)
    driver_init$$Limit                       0x08003e9c   Number         0  b_drv_mcuflash.o(driver_init)
    driver_init_0$$Base                      0x08003e9c   Number         0  b_device.o(driver_init_0)
    init0_bDriverNullInit                    0x08003e9c   Data           4  b_device.o(driver_init_0)
    driver_init_0$$Limit                     0x08003ea0   Number         0  b_device.o(driver_init_0)
    SystemCoreClock                          0x20000014   Data           4  system_stm32f10x.o(.data)
    AHBPrescTable                            0x20000018   Data          16  system_stm32f10x.o(.data)
    nr_shell                                 0x20000058   Data         148  nr_micro_shell.o(.data)
    bMCUFLASH_Driver                         0x20000160   Data          32  b_drv_mcuflash.o(.bss)
    nr_ansi                                  0x200002d4   Data         132  ansi.o(.bss)
    __initial_sp                             0x20000b58   Data           0  startup_stm32f10x_cl.o(STACK)



==============================================================================

Memory Map of the image

  Image Entry point : 0x08000151

  Load Region LR_IROM1 (Base: 0x08000000, Size: 0x00003f90, Max: 0x00040000, ABSOLUTE)

    Execution Region ER_IROM1 (Exec base: 0x08000000, Load base: 0x08000000, Size: 0x00003ea0, Max: 0x00040000, ABSOLUTE)

    Exec Addr    Load Addr    Size         Type   Attr      Idx    E Section Name        Object

    0x08000000   0x08000000   0x00000150   Data   RO         3337    RESET               startup_stm32f10x_cl.o
    0x08000150   0x08000150   0x00000000   Code   RO         4466  * .ARM.Collect$$$$00000000  mc_w.l(entry.o)
    0x08000150   0x08000150   0x00000004   Code   RO         4782    .ARM.Collect$$$$00000001  mc_w.l(entry2.o)
    0x08000154   0x08000154   0x00000004   Code   RO         4785    .ARM.Collect$$$$00000004  mc_w.l(entry5.o)
    0x08000158   0x08000158   0x00000000   Code   RO         4787    .ARM.Collect$$$$00000008  mc_w.l(entry7b.o)
    0x08000158   0x08000158   0x00000000   Code   RO         4789    .ARM.Collect$$$$0000000A  mc_w.l(entry8b.o)
    0x08000158   0x08000158   0x00000008   Code   RO         4790    .ARM.Collect$$$$0000000B  mc_w.l(entry9a.o)
    0x08000160   0x08000160   0x00000004   Code   RO         4797    .ARM.Collect$$$$0000000E  mc_w.l(entry12b.o)
    0x08000164   0x08000164   0x00000000   Code   RO         4792    .ARM.Collect$$$$0000000F  mc_w.l(entry10a.o)
    0x08000164   0x08000164   0x00000000   Code   RO         4794    .ARM.Collect$$$$00000011  mc_w.l(entry11a.o)
    0x08000164   0x08000164   0x00000004   Code   RO         4783    .ARM.Collect$$$$00002712  mc_w.l(entry2.o)
    0x08000168   0x08000168   0x00000024   Code   RO         3338    .text               startup_stm32f10x_cl.o
    0x0800018c   0x0800018c   0x00000008   Code   RO         4469    .text               mc_w.l(ctype_o.o)
    0x08000194   0x08000194   0x00000024   Code   RO         4497    .text               mc_w.l(memcpya.o)
    0x080001b8   0x080001b8   0x00000024   Code   RO         4499    .text               mc_w.l(memseta.o)
    0x080001dc   0x080001dc   0x00000024   Code   RO         4501    .text               mc_w.l(strstr.o)
    0x08000200   0x08000200   0x0000000e   Code   RO         4503    .text               mc_w.l(strlen.o)
    0x0800020e   0x0800020e   0x0000001c   Code   RO         4505    .text               mc_w.l(strcmp.o)
    0x0800022a   0x0800022a   0x00000012   Code   RO         4507    .text               mc_w.l(strcpy.o)
    0x0800023c   0x0800023c   0x0000001e   Code   RO         4509    .text               mc_w.l(strncmp.o)
    0x0800025a   0x0800025a   0x000000e4   Code   RO         4774    .text               mf_w.l(dmul.o)
    0x0800033e   0x0800033e   0x000000de   Code   RO         4776    .text               mf_w.l(ddiv.o)
    0x0800041c   0x0800041c   0x0000001a   Code   RO         4778    .text               mf_w.l(dfltui.o)
    0x08000436   0x08000436   0x00000032   Code   RO         4780    .text               mf_w.l(dfixui.o)
    0x08000468   0x08000468   0x0000002c   Code   RO         4799    .text               mc_w.l(uidiv.o)
    0x08000494   0x08000494   0x00000062   Code   RO         4801    .text               mc_w.l(uldiv.o)
    0x080004f6   0x080004f6   0x00000020   Code   RO         4803    .text               mc_w.l(llushr.o)
    0x08000516   0x08000516   0x00000000   Code   RO         4805    .text               mc_w.l(iusefp.o)
    0x08000516   0x08000516   0x000000ba   Code   RO         4806    .text               mf_w.l(depilogue.o)
    0x080005d0   0x080005d0   0x0000014e   Code   RO         4808    .text               mf_w.l(dadd.o)
    0x0800071e   0x0800071e   0x00000030   Code   RO         4810    .text               mf_w.l(dfixul.o)
    0x0800074e   0x0800074e   0x00000002   PAD
    0x08000750   0x08000750   0x00000030   Code   RO         4812    .text               mf_w.l(cdrcmple.o)
    0x08000780   0x08000780   0x00000024   Code   RO         4814    .text               mc_w.l(init.o)
    0x080007a4   0x080007a4   0x0000001e   Code   RO         4816    .text               mc_w.l(llshl.o)
    0x080007c2   0x080007c2   0x00000024   Code   RO         4818    .text               mc_w.l(llsshr.o)
    0x080007e6   0x080007e6   0x00000002   PAD
    0x080007e8   0x080007e8   0x00000088   Code   RO         4444    i.BoardInit         board.o
    0x08000870   0x08000870   0x00000002   Code   RO          231    i.BusFault_Handler  stm32f10x_it.o
    0x08000872   0x08000872   0x00000002   Code   RO          232    i.DebugMon_Handler  stm32f10x_it.o
    0x08000874   0x08000874   0x000000a2   Code   RO         1426    i.GPIO_Init         stm32f10x_gpio.o
    0x08000916   0x08000916   0x00000002   PAD
    0x08000918   0x08000918   0x00000058   Code   RO         1428    i.GPIO_PinRemapConfig  stm32f10x_gpio.o
    0x08000970   0x08000970   0x00000004   Code   RO         1434    i.GPIO_SetBits      stm32f10x_gpio.o
    0x08000974   0x08000974   0x00000002   Code   RO          233    i.HardFault_Handler  stm32f10x_it.o
    0x08000976   0x08000976   0x00000002   Code   RO          234    i.MemManage_Handler  stm32f10x_it.o
    0x08000978   0x08000978   0x00000002   Code   RO          235    i.NMI_Handler       stm32f10x_it.o
    0x0800097a   0x0800097a   0x00000002   PAD
    0x0800097c   0x0800097c   0x00000064   Code   RO          292    i.NVIC_Init         misc.o
    0x080009e0   0x080009e0   0x00000014   Code   RO          293    i.NVIC_PriorityGroupConfig  misc.o
    0x080009f4   0x080009f4   0x00000020   Code   RO            1    i.NVIC_SetPriority  main.o
    0x08000a14   0x08000a14   0x00000002   Code   RO          236    i.PendSV_Handler    stm32f10x_it.o
    0x08000a16   0x08000a16   0x00000002   PAD
    0x08000a18   0x08000a18   0x00000018   Code   RO         1846    i.RCC_APB1PeriphClockCmd  stm32f10x_rcc.o
    0x08000a30   0x08000a30   0x00000018   Code   RO         1848    i.RCC_APB2PeriphClockCmd  stm32f10x_rcc.o
    0x08000a48   0x08000a48   0x000000c8   Code   RO         1856    i.RCC_GetClocksFreq  stm32f10x_rcc.o
    0x08000b10   0x08000b10   0x00000014   Code   RO         2383    i.SPI_Cmd           stm32f10x_spi.o
    0x08000b24   0x08000b24   0x00000038   Code   RO         2396    i.SPI_Init          stm32f10x_spi.o
    0x08000b5c   0x08000b5c   0x00000002   Code   RO          237    i.SVC_Handler       stm32f10x_it.o
    0x08000b5e   0x08000b5e   0x00000002   PAD
    0x08000b60   0x08000b60   0x000000d0   Code   RO         3306    i.SetSysClockTo72   system_stm32f10x.o
    0x08000c30   0x08000c30   0x00000004   Code   RO            2    i.SysTick_Handler   main.o
    0x08000c34   0x08000c34   0x0000004c   Code   RO         3308    i.SystemInit        system_stm32f10x.o
    0x08000c80   0x08000c80   0x0000003c   Code   RO            3    i.USART1_IRQHandler  main.o
    0x08000cbc   0x08000cbc   0x0000000c   Code   RO         3059    i.USART_ClearITPendingBit  stm32f10x_usart.o
    0x08000cc8   0x08000cc8   0x00000014   Code   RO         3062    i.USART_Cmd         stm32f10x_usart.o
    0x08000cdc   0x08000cdc   0x0000003e   Code   RO         3066    i.USART_GetITStatus  stm32f10x_usart.o
    0x08000d1a   0x08000d1a   0x00000030   Code   RO         3068    i.USART_ITConfig    stm32f10x_usart.o
    0x08000d4a   0x08000d4a   0x00000002   PAD
    0x08000d4c   0x08000d4c   0x000000ac   Code   RO         3069    i.USART_Init        stm32f10x_usart.o
    0x08000df8   0x08000df8   0x00000008   Code   RO         3076    i.USART_ReceiveData  stm32f10x_usart.o
    0x08000e00   0x08000e00   0x00000002   Code   RO          238    i.UsageFault_Handler  stm32f10x_it.o
    0x08000e02   0x08000e02   0x00000002   PAD
    0x08000e04   0x08000e04   0x0000007c   Code   RO         3803    i._CmdBosHandler    b_mod_shell.o
    0x08000e80   0x08000e80   0x00000094   Code   RO            4    i._CmdKVHandler     main.o
    0x08000f14   0x08000f14   0x00000080   Code   RO         3982    i._FlashErase       mcu_stm32f10x_flash.o
    0x08000f94   0x08000f94   0x00000004   Code   RO         3983    i._FlashInit        mcu_stm32f10x_flash.o
    0x08000f98   0x08000f98   0x00000014   Code   RO         3984    i._FlashLock        mcu_stm32f10x_flash.o
    0x08000fac   0x08000fac   0x00000030   Code   RO         3985    i._FlashRead        mcu_stm32f10x_flash.o
    0x08000fdc   0x08000fdc   0x0000001c   Code   RO         3986    i._FlashUnlock      mcu_stm32f10x_flash.o
    0x08000ff8   0x08000ff8   0x00000090   Code   RO         3987    i._FlashWrite       mcu_stm32f10x_flash.o
    0x08001088   0x08001088   0x000001e4   Code   RO         4445    i._GpioInit         board.o
    0x0800126c   0x0800126c   0x00000090   Code   RO         4446    i._SpiInit          board.o
    0x080012fc   0x080012fc   0x00000048   Code   RO         4166    i._UartReceive      mcu_stm32f10x_uart.o
    0x08001344   0x08001344   0x00000048   Code   RO         4167    i._UartSend         mcu_stm32f10x_uart.o
    0x0800138c   0x0800138c   0x00000028   Code   RO         4748    i.__0sprintf        mc_w.l(printfa.o)
    0x080013b4   0x080013b4   0x00000034   Code   RO         4751    i.__0vsnprintf      mc_w.l(printfa.o)
    0x080013e8   0x080013e8   0x0000000e   Code   RO         4822    i.__scatterload_copy  mc_w.l(handlers.o)
    0x080013f6   0x080013f6   0x00000002   Code   RO         4823    i.__scatterload_null  mc_w.l(handlers.o)
    0x080013f8   0x080013f8   0x0000000e   Code   RO         4824    i.__scatterload_zeroinit  mc_w.l(handlers.o)
    0x08001406   0x08001406   0x00000002   PAD
    0x08001408   0x08001408   0x00000074   Code   RO         3342    i._bCoreCreateFd    b_core.o
    0x0800147c   0x0800147c   0x00000024   Code   RO         3343    i._bCoreDeleteFd    b_core.o
    0x080014a0   0x080014a0   0x00000002   Code   RO         3344    i._bCoreMonitor     b_core.o
    0x080014a2   0x080014a2   0x00000002   PAD
    0x080014a4   0x080014a4   0x00000078   Code   RO         3424    i._bDriverNullInit  b_device.o
    0x0800151c   0x0800151c   0x0000005c   Code   RO         4189    i._bHalUpdateDelayParam  b_hal.o
    0x08001578   0x08001578   0x000000b0   Code   RO         3615    i._bKV_AddNew       b_mod_kv.o
    0x08001628   0x08001628   0x000000b0   Code   RO         3616    i._bKV_AllocateSpace  b_mod_kv.o
    0x080016d8   0x080016d8   0x00000120   Code   RO         3617    i._bKV_ArrangeSpace  b_mod_kv.o
    0x080017f8   0x080017f8   0x0000008c   Code   RO         3618    i._bKV_ClearSector  b_mod_kv.o
    0x08001884   0x08001884   0x00000026   Code   RO         3620    i._bKV_GenerateID   b_mod_kv.o
    0x080018aa   0x080018aa   0x00000002   PAD
    0x080018ac   0x080018ac   0x00000064   Code   RO         3621    i._bKV_ISExist      b_mod_kv.o
    0x08001910   0x08001910   0x0000009c   Code   RO         3622    i._bKV_ISFirstTime  b_mod_kv.o
    0x080019ac   0x080019ac   0x00000054   Code   RO         3623    i._bKV_LoadInfo     b_mod_kv.o
    0x08001a00   0x08001a00   0x0000012c   Code   RO         3624    i._bKV_Locate       b_mod_kv.o
    0x08001b2c   0x08001b2c   0x000000f4   Code   RO         3625    i._bKV_ModifyValue  b_mod_kv.o
    0x08001c20   0x08001c20   0x0000000c   Code   RO         3489    i._bMCUFLASHClose   b_drv_mcuflash.o
    0x08001c2c   0x08001c2c   0x00000020   Code   RO         3490    i._bMCUFLASHCtl     b_drv_mcuflash.o
    0x08001c4c   0x08001c4c   0x0000000c   Code   RO         3491    i._bMCUFLASHOpen    b_drv_mcuflash.o
    0x08001c58   0x08001c58   0x00000018   Code   RO         3492    i._bMCUFLASHRead    b_drv_mcuflash.o
    0x08001c70   0x08001c70   0x00000018   Code   RO         3493    i._bMCUFLASHWrite   b_drv_mcuflash.o
    0x08001c88   0x08001c88   0x00000054   Code   RO         3958    i._bUtilUartDetectIdle  b_util_uart.o
    0x08001cdc   0x08001cdc   0x00000184   Code   RO         4753    i._fp_digits        mc_w.l(printfa.o)
    0x08001e60   0x08001e60   0x000006b4   Code   RO         4754    i._printf_core      mc_w.l(printfa.o)
    0x08002514   0x08002514   0x00000024   Code   RO         4755    i._printf_post_padding  mc_w.l(printfa.o)
    0x08002538   0x08002538   0x0000002e   Code   RO         4756    i._printf_pre_padding  mc_w.l(printfa.o)
    0x08002566   0x08002566   0x00000002   PAD
    0x08002568   0x08002568   0x0000003c   Code   RO         4365    i._shell_init       nr_micro_shell.o
    0x080025a4   0x080025a4   0x00000016   Code   RO         4757    i._snputc           mc_w.l(printfa.o)
    0x080025ba   0x080025ba   0x0000000a   Code   RO         4758    i._sputc            mc_w.l(printfa.o)
    0x080025c4   0x080025c4   0x0000000e   Code   RO         4238    i.ansi_clear_current_line  ansi.o
    0x080025d2   0x080025d2   0x00000002   PAD
    0x080025d4   0x080025d4   0x000000f0   Code   RO         4239    i.ansi_get_char     ansi.o
    0x080026c4   0x080026c4   0x00000016   Code   RO         4240    i.ansi_init         ansi.o
    0x080026da   0x080026da   0x00000020   Code   RO         4241    i.ansi_search_char  ansi.o
    0x080026fa   0x080026fa   0x00000002   PAD
    0x080026fc   0x080026fc   0x00000014   Code   RO         4281    i.ansi_show_char    ansi_port.o
    0x08002710   0x08002710   0x00000018   Code   RO         4282    i.ansi_show_str     ansi_port.o
    0x08002728   0x08002728   0x00000030   Code   RO         3345    i.bClose            b_core.o
    0x08002758   0x08002758   0x00000018   Code   RO         3347    i.bCtl              b_core.o
    0x08002770   0x08002770   0x00000084   Code   RO         3425    i.bDeviceClose      b_device.o
    0x080027f4   0x080027f4   0x00000088   Code   RO         3426    i.bDeviceCtl        b_device.o
    0x0800287c   0x0800287c   0x00000044   Code   RO         3428    i.bDeviceInit       b_device.o
    0x080028c0   0x080028c0   0x00000084   Code   RO         3429    i.bDeviceOpen       b_device.o
    0x08002944   0x08002944   0x0000008c   Code   RO         3430    i.bDeviceRead       b_device.o
    0x080029d0   0x080029d0   0x0000008c   Code   RO         3431    i.bDeviceWrite      b_device.o
    0x08002a5c   0x08002a5c   0x00000020   Code   RO         3348    i.bExec             b_core.o
    0x08002a7c   0x08002a7c   0x0000000c   Code   RO         4192    i.bHalGetSysTick    b_hal.o
    0x08002a88   0x08002a88   0x00000010   Code   RO         4193    i.bHalIncSysTick    b_hal.o
    0x08002a98   0x08002a98   0x00000004   Code   RO         4194    i.bHalInit          b_hal.o
    0x08002a9c   0x08002a9c   0x00000308   Code   RO         3349    i.bInit             b_core.o
    0x08002da4   0x08002da4   0x000000dc   Code   RO         3627    i.bKV_Get           b_mod_kv.o
    0x08002e80   0x08002e80   0x0000023c   Code   RO         3628    i.bKV_Init          b_mod_kv.o
    0x080030bc   0x080030bc   0x000000e4   Code   RO         3629    i.bKV_Set           b_mod_kv.o
    0x080031a0   0x080031a0   0x000000c8   Code   RO         3709    i.bLogOut           b_mod_log.o
    0x08003268   0x08003268   0x0000001c   Code   RO         3710    i.bLogOutput        b_mod_log.o
    0x08003284   0x08003284   0x00000020   Code   RO         3350    i.bLseek            b_core.o
    0x080032a4   0x080032a4   0x0000004c   Code   RO         3494    i.bMCUFLASH_Init    b_drv_mcuflash.o
    0x080032f0   0x080032f0   0x00000030   Code   RO         3351    i.bOpen             b_core.o
    0x08003320   0x08003320   0x00000044   Code   RO         3352    i.bRead             b_core.o
    0x08003364   0x08003364   0x0000001c   Code   RO         3804    i.bShellInit        b_mod_shell.o
    0x08003380   0x08003380   0x00000048   Code   RO         3805    i.bShellParse       b_mod_shell.o
    0x080033c8   0x080033c8   0x00000040   Code   RO         3353    i.bWrite            b_core.o
    0x08003408   0x08003408   0x00000064   Code   RO            5    i.main              main.o
    0x0800346c   0x0800346c   0x0000001e   Code   RO         4283    i.nr_ansi_ctrl_common_slover  ansi_port.o
    0x0800348a   0x0800348a   0x00000002   PAD
    0x0800348c   0x0800348c   0x0000004c   Code   RO         4284    i.nr_ansi_in_backspace  ansi_port.o
    0x080034d8   0x080034d8   0x00000084   Code   RO         4285    i.nr_ansi_in_down   ansi_port.o
    0x0800355c   0x0800355c   0x0000002c   Code   RO         4286    i.nr_ansi_in_enter  ansi_port.o
    0x08003588   0x08003588   0x00000030   Code   RO         4287    i.nr_ansi_in_left   ansi_port.o
    0x080035b8   0x080035b8   0x00000006   Code   RO         4288    i.nr_ansi_in_newline  ansi_port.o
    0x080035be   0x080035be   0x00000002   PAD
    0x080035c0   0x080035c0   0x00000034   Code   RO         4289    i.nr_ansi_in_right  ansi_port.o
    0x080035f4   0x080035f4   0x000000d4   Code   RO         4290    i.nr_ansi_in_tab    ansi_port.o
    0x080036c8   0x080036c8   0x00000088   Code   RO         4291    i.nr_ansi_in_up     ansi_port.o
    0x08003750   0x08003750   0x0000008c   Code   RO         4366    i.nr_shell_strtok   nr_micro_shell.o
    0x080037dc   0x080037dc   0x00000040   Code   RO         4367    i.shell_cmd_complete  nr_micro_shell.o
    0x0800381c   0x0800381c   0x0000007c   Code   RO         4368    i.shell_his_copy_queue_item  nr_micro_shell.o
    0x08003898   0x08003898   0x000000aa   Code   RO         4369    i.shell_his_queue_add_cmd  nr_micro_shell.o
    0x08003942   0x08003942   0x00000010   Code   RO         4370    i.shell_his_queue_init  nr_micro_shell.o
    0x08003952   0x08003952   0x00000002   PAD
    0x08003954   0x08003954   0x00000086   Code   RO         4371    i.shell_his_queue_search_cmd  nr_micro_shell.o
    0x080039da   0x080039da   0x00000002   PAD
    0x080039dc   0x080039dc   0x0000012c   Code   RO         4372    i.shell_parser      nr_micro_shell.o
    0x08003b08   0x08003b08   0x00000030   Code   RO         4373    i.shell_search_cmd  nr_micro_shell.o
    0x08003b38   0x08003b38   0x0000000e   Data   RO            6    .constdata          main.o
    0x08003b46   0x08003b46   0x00000006   Data   RO         3355    .constdata          b_core.o
    0x08003b4c   0x08003b4c   0x0000005e   Data   RO         3433    .constdata          b_device.o
    0x08003baa   0x08003baa   0x00000002   PAD
    0x08003bac   0x08003bac   0x0000005c   Data   RO         3631    .constdata          b_mod_kv.o
    0x08003c08   0x08003c08   0x00000006   Data   RO         3712    .constdata          b_mod_log.o
    0x08003c0e   0x08003c0e   0x0000000f   Data   RO         3806    .constdata          b_mod_shell.o
    0x08003c1d   0x08003c1d   0x00000003   PAD
    0x08003c20   0x08003c20   0x00000018   Data   RO         3988    .constdata          mcu_stm32f10x_flash.o
    0x08003c38   0x08003c38   0x00000008   Data   RO         4168    .constdata          mcu_stm32f10x_uart.o
    0x08003c40   0x08003c40   0x00000078   Data   RO         4243    .constdata          ansi.o
    0x08003cb8   0x08003cb8   0x00000063   Data   RO         4292    .constdata          ansi_port.o
    0x08003d1b   0x08003d1b   0x00000019   Data   RO         4374    .constdata          nr_micro_shell.o
    0x08003d34   0x08003d34   0x00000081   Data   RO         4470    .constdata          mc_w.l(ctype_o.o)
    0x08003db5   0x08003db5   0x00000003   PAD
    0x08003db8   0x08003db8   0x00000004   Data   RO         4471    .constdata          mc_w.l(ctype_o.o)
    0x08003dbc   0x08003dbc   0x0000000b   Data   RO         3434    .conststring        b_device.o
    0x08003dc7   0x08003dc7   0x00000001   PAD
    0x08003dc8   0x08003dc8   0x00000041   Data   RO         4293    .conststring        ansi_port.o
    0x08003e09   0x08003e09   0x00000003   PAD
    0x08003e0c   0x08003e0c   0x00000046   Data   RO         4375    .conststring        nr_micro_shell.o
    0x08003e52   0x08003e52   0x00000002   PAD
    0x08003e54   0x08003e54   0x00000003   Data   RO            7    .conststrlit        main.o
    0x08003e57   0x08003e57   0x00000001   PAD
    0x08003e58   0x08003e58   0x00000004   Data   RO         3807    .conststrlit        b_mod_shell.o
    0x08003e5c   0x08003e5c   0x00000020   Data   RO         4820    Region$$Table       anon$$obj.o
    0x08003e7c   0x08003e7c   0x00000008   Data   RO            8    b_mod_shell         main.o
    0x08003e84   0x08003e84   0x00000008   Data   RO         3808    b_mod_shell         b_mod_shell.o
    0x08003e8c   0x08003e8c   0x00000004   Data   RO         3357    bos_polling         b_core.o
    0x08003e90   0x08003e90   0x00000004   Data   RO         3961    bos_polling         b_util_uart.o
    0x08003e94   0x08003e94   0x00000004   Data   RO         3436    driver_init         b_device.o
    0x08003e98   0x08003e98   0x00000004   Data   RO         3496    driver_init         b_drv_mcuflash.o
    0x08003e9c   0x08003e9c   0x00000004   Data   RO         3437    driver_init_0       b_device.o


    Execution Region RW_IRAM1 (Exec base: 0x20000000, Load base: 0x08003ea0, Size: 0x00000b58, Max: 0x00010000, ABSOLUTE)

    Exec Addr    Load Addr    Size         Type   Attr      Idx    E Section Name        Object

    0x20000000   0x08003ea0   0x00000014   Data   RW         1884    .data               stm32f10x_rcc.o
    0x20000014   0x08003eb4   0x00000014   Data   RW         3309    .data               system_stm32f10x.o
    0x20000028   0x08003ec8   0x00000001   Data   RW         3356    .data               b_core.o
    0x20000029   0x08003ec9   0x00000003   PAD
    0x2000002c   0x08003ecc   0x00000010   Data   RW         3435    .data               b_device.o
    0x2000003c   0x08003edc   0x00000014   Data   RW         4169    .data               mcu_stm32f10x_uart.o
    0x20000050   0x08003ef0   0x00000008   Data   RW         4196    .data               b_hal.o
    0x20000058   0x08003ef8   0x00000094   Data   RW         4376    .data               nr_micro_shell.o
    0x200000ec   0x08003f8c   0x00000004   Data   RW         4377    .data               nr_micro_shell.o
    0x200000f0        -       0x00000050   Zero   RW         3354    .bss                b_core.o
    0x20000140        -       0x00000020   Zero   RW         3432    .bss                b_device.o
    0x20000160        -       0x00000020   Zero   RW         3495    .bss                b_drv_mcuflash.o
    0x20000180        -       0x00000034   Zero   RW         3630    .bss                b_mod_kv.o
    0x200001b4        -       0x00000100   Zero   RW         3711    .bss                b_mod_log.o
    0x200002b4        -       0x00000020   Zero   RW         3960    .bss                b_util_uart.o
    0x200002d4        -       0x00000084   Zero   RW         4242    .bss                ansi.o
    0x20000358        -       0x00000800   Zero   RW         3335    STACK               startup_stm32f10x_cl.o


==============================================================================

Image component sizes


      Code (inc. data)   RO Data    RW Data    ZI Data      Debug   Object Name

       308          4        120          0        132       7089   ansi.o
       780        146        164          0          0      12497   ansi_port.o
      1246        592         10          1         80       7920   b_core.o
       868        414        113         16         32       7240   b_device.o
       180         54          4          0         32       6933   b_drv_mcuflash.o
       124         26          0          8          0       2625   b_hal.o
      2722        544         92          0         52      15112   b_mod_kv.o
       228         18          6          0        256       3015   b_mod_log.o
       224         98         27          0          0       2511   b_mod_shell.o
        84          4          4          0         32       2310   b_util_uart.o
       764         42          0          0          0       2440   board.o
         0          0          0          0          0         32   core_cm3.o
       344         50         25          0          0     285194   main.o
       372         42         24          0          0       5962   mcu_stm32f10x_flash.o
       144          8          8         20          0       3973   mcu_stm32f10x_uart.o
       120         16          0          0          0       1735   misc.o
      1056        108         95        152          0      10189   nr_micro_shell.o
        36          8        336          0       2048        932   startup_stm32f10x_cl.o
       254          6          0          0          0       3469   stm32f10x_gpio.o
        16          0          0          0          0       3400   stm32f10x_it.o
       248         34          0         20          0       5682   stm32f10x_rcc.o
        76          0          0          0          0       2381   stm32f10x_spi.o
       322          6          0          0          0       6132   stm32f10x_usart.o
       284         30          0         20          0       2225   system_stm32f10x.o

    ----------------------------------------------------------------------
     10828       2250       1072        240       2664     400998   Object Totals
         0          0         32          0          0          0   (incl. Generated)
        28          0         12          3          0          0   (incl. Padding)

    ----------------------------------------------------------------------

      Code (inc. data)   RO Data    RW Data    ZI Data      Debug   Library Member Name

         8          4        133          0          0         68   ctype_o.o
         0          0          0          0          0          0   entry.o
         0          0          0          0          0          0   entry10a.o
         0          0          0          0          0          0   entry11a.o
         4          0          0          0          0          0   entry12b.o
         8          4          0          0          0          0   entry2.o
         4          0          0          0          0          0   entry5.o
         0          0          0          0          0          0   entry7b.o
         0          0          0          0          0          0   entry8b.o
         8          4          0          0          0          0   entry9a.o
        30          0          0          0          0          0   handlers.o
        36          8          0          0          0         68   init.o
         0          0          0          0          0          0   iusefp.o
        30          0          0          0          0         68   llshl.o
        36          0          0          0          0         68   llsshr.o
        32          0          0          0          0         68   llushr.o
        36          0          0          0          0         68   memcpya.o
        36          0          0          0          0        108   memseta.o
      2310         92          0          0          0        680   printfa.o
        28          0          0          0          0         76   strcmp.o
        18          0          0          0          0         68   strcpy.o
        14          0          0          0          0         68   strlen.o
        30          0          0          0          0         80   strncmp.o
        36          0          0          0          0         80   strstr.o
        44          0          0          0          0         80   uidiv.o
        98          0          0          0          0         92   uldiv.o
        48          0          0          0          0         68   cdrcmple.o
       334          0          0          0          0        148   dadd.o
       222          0          0          0          0        100   ddiv.o
       186          0          0          0          0        176   depilogue.o
        50          0          0          0          0         76   dfixui.o
        48          0          0          0          0         68   dfixul.o
        26          0          0          0          0         76   dfltui.o
       228          0          0          0          0         96   dmul.o

    ----------------------------------------------------------------------
      3996        112        136          0          0       2548   Library Totals
         8          0          3          0          0          0   (incl. Padding)

    ----------------------------------------------------------------------

      Code (inc. data)   RO Data    RW Data    ZI Data      Debug   Library Name

      2846        112        133          0          0       1740   mc_w.l
      1142          0          0          0          0        808   mf_w.l

    ----------------------------------------------------------------------
      3996        112        136          0          0       2548   Library Totals

    ----------------------------------------------------------------------

==============================================================================


      Code (inc. data)   RO Data    RW Data    ZI Data      Debug   

     14824       2362       1208        240       2664     396574   Grand Totals
     14824       2362       1208        240       2664     396574   ELF Image Totals
     14824       2362       1208        240          0          0   ROM Totals

==============================================================================

    Total RO  Size (Code + RO Data)                16032 (  15.66kB)
    Total RW  Size (RW Data + ZI Data)              2904 (   2.84kB)
    Total ROM Size (Code + RO Data + RW Data)      16272 (  15.89kB)

==============================================================================

