Component: ARM Compiler 5.06 update 7 (build 960) Tool: armlink [4d3601]

==============================================================================

Section Cross References

    main.o(i.SysTick_Handler) refers to b_hal.o(i.bHalIncSysTick) for bHalIncSysTick
    main.o(i.USART1_IRQHandler) refers to stm32f10x_usart.o(i.USART_GetITStatus) for USART_GetITStatus
    main.o(i.USART1_IRQHandler) refers to stm32f10x_usart.o(i.USART_ClearITPendingBit) for USART_ClearITPendingBit
    main.o(i.USART1_IRQHandler) refers to stm32f10x_usart.o(i.USART_ReceiveData) for USART_ReceiveData
    main.o(i.USART1_IRQHandler) refers to b_mod_shell.o(i.bShellParse) for bShellParse
    main.o(i._CmdShowHandler) refers to atoi.o(.text) for atoi
    main.o(i._CmdShowHandler) refers to ugui.o(i.UG_PutString) for UG_PutString
    main.o(i.main) refers to board.o(i.BoardInit) for BoardInit
    main.o(i.main) refers to main.o(i.NVIC_SetPriority) for NVIC_SetPriority
    main.o(i.main) refers to b_core.o(i.bInit) for bInit
    main.o(i.main) refers to b_mod_shell.o(i.bShellInit) for bShellInit
    main.o(i.main) refers to b_mod_gui.o(i.bGUI_Init) for bGUI_Init
    main.o(i.main) refers to b_core.o(i.bExec) for bExec
    main.o(i.main) refers to system_stm32f10x.o(.data) for SystemCoreClock
    main.o(b_mod_shell) refers to main.o(.conststrlit) for .conststrlit
    main.o(b_mod_shell) refers to main.o(i._CmdShowHandler) for _CmdShowHandler
    stm32f10x_adc.o(i.ADC_DeInit) refers to stm32f10x_rcc.o(i.RCC_APB2PeriphResetCmd) for RCC_APB2PeriphResetCmd
    stm32f10x_bkp.o(i.BKP_DeInit) refers to stm32f10x_rcc.o(i.RCC_BackupResetCmd) for RCC_BackupResetCmd
==============================================================================

Removing Unused input sections from the image.

    Removing misc.o(i.NVIC_SetVectorTable), (20 bytes).
    Removing misc.o(i.NVIC_SystemLPConfig), (24 bytes).
    Removing misc.o(i.SysTick_CLKSourceConfig), (24 bytes).
    Removing stm32f10x_adc.o(i.ADC_AnalogWatchdogCmd), (16 bytes).
    Removing stm32f10x_adc.o(i.ADC_AnalogWatchdogSingleChannelConfig), (12 bytes).
    Removing stm32f10x_adc.o(i.ADC_AnalogWatchdogThresholdsConfig), (6 bytes).
    Removing stm32f10x_adc.o(i.ADC_AutoInjectedConvCmd), (20 bytes).
    Removing stm32f10x_adc.o(i.ADC_ClearFlag), (6 bytes).
    Removing stm32f10x_adc.o(i.ADC_ClearITPendingBit), (8 bytes).
    Removing stm32f10x_adc.o(i.ADC_Cmd), (20 bytes).
    Removing stm32f10x_adc.o(i.ADC_DMACmd), (20 bytes).
    Removing stm32f10x_adc.o(i.ADC_DeInit), (68 bytes).
    Removing stm32f10x_adc.o(i.ADC_DiscModeChannelCountConfig), (16 bytes).
    Removing stm32f10x_adc.o(i.ADC_DiscModeCmd), (20 bytes).
    Removing stm32f10x_adc.o(i.ADC_ExternalTrigConvCmd), (20 bytes).
    Removing stm32f10x_adc.o(i.ADC_ExternalTrigInjectedConvCmd), (20 bytes).
    Removing stm32f10x_adc.o(i.ADC_ExternalTrigInjectedConvConfig), (12 bytes).
    Removing stm32f10x_adc.o(i.ADC_GetCalibrationStatus), (14 bytes).
==============================================================================

Image Symbol Table

    Local Symbols

    Symbol Name                              Value     Ov Type        Size  Object(Section)

    ../clib/microlib/ctype/ctype.c           0x00000000   Number         0  isdigit_o.o ABSOLUTE
    ../clib/microlib/ctype/ctype.c           0x00000000   Number         0  islower_o.o ABSOLUTE
    ../clib/microlib/ctype/ctype.c           0x00000000   Number         0  isxdigit_o.o ABSOLUTE
    ../clib/microlib/ctype/ctype.c           0x00000000   Number         0  isspace_o.o ABSOLUTE
    ../clib/microlib/ctype/ctype.c           0x00000000   Number         0  isgraph_o.o ABSOLUTE
    ../clib/microlib/ctype/ctype.c           0x00000000   Number         0  ctype_o.o ABSOLUTE
    ../clib/microlib/ctype/ctype.c           0x00000000   Number         0  isprint_o.o ABSOLUTE
    ../clib/microlib/ctype/ctype.c           0x00000000   Number         0  isupper_o.o ABSOLUTE
    ../clib/microlib/ctype/ctype.c           0x00000000   Number         0  isalnum_o.o ABSOLUTE
    ../clib/microlib/ctype/ctype.c           0x00000000   Number         0  isalpha_o.o ABSOLUTE
    ../clib/microlib/ctype/ctype.c           0x00000000   Number         0  isblank_o.o ABSOLUTE
    ../clib/microlib/ctype/ctype.c           0x00000000   Number         0  iscntrl_o.o ABSOLUTE
    ../clib/microlib/ctype/ctype.c           0x00000000   Number         0  ispunct_o.o ABSOLUTE
    ../clib/microlib/division.c              0x00000000   Number         0  uldiv.o ABSOLUTE
    ../clib/microlib/division.c              0x00000000   Number         0  uidiv.o ABSOLUTE
    ../clib/microlib/errno.c                 0x00000000   Number         0  errno.o ABSOLUTE
    ../clib/microlib/init/entry.s            0x00000000   Number         0  entry9a.o ABSOLUTE
    ../clib/microlib/init/entry.s            0x00000000   Number         0  entry8b.o ABSOLUTE
    ../clib/microlib/init/entry.s            0x00000000   Number         0  entry8a.o ABSOLUTE
    ../clib/microlib/init/entry.s            0x00000000   Number         0  entry7b.o ABSOLUTE
    ../clib/microlib/init/entry.s            0x00000000   Number         0  entry7a.o ABSOLUTE
    ../clib/microlib/init/entry.s            0x00000000   Number         0  entry9b.o ABSOLUTE
    ../clib/microlib/init/entry.s            0x00000000   Number         0  entry5.o ABSOLUTE
    ../clib/microlib/init/entry.s            0x00000000   Number         0  entry2.o ABSOLUTE
    ../clib/microlib/init/entry.s            0x00000000   Number         0  entry.o ABSOLUTE
    ../clib/microlib/init/entry.s            0x00000000   Number         0  entry12b.o ABSOLUTE
    ../clib/microlib/init/entry.s            0x00000000   Number         0  entry10a.o ABSOLUTE
    ../clib/microlib/init/entry.s            0x00000000   Number         0  entry12a.o ABSOLUTE
    ../clib/microlib/init/entry.s            0x00000000   Number         0  entry11b.o ABSOLUTE
    ../clib/microlib/init/entry.s            0x00000000   Number         0  entry11a.o ABSOLUTE
    ../clib/microlib/init/entry.s            0x00000000   Number         0  entry10b.o ABSOLUTE
    ../clib/microlib/longlong.c              0x00000000   Number         0  llshl.o ABSOLUTE
    ../clib/microlib/longlong.c              0x00000000   Number         0  llsshr.o ABSOLUTE
    ../clib/microlib/longlong.c              0x00000000   Number         0  llushr.o ABSOLUTE
    ../clib/microlib/printf/printf.c         0x00000000   Number         0  printf0.o ABSOLUTE
    ../clib/microlib/printf/printf.c         0x00000000   Number         0  printf6.o ABSOLUTE
    ../clib/microlib/printf/printf.c         0x00000000   Number         0  printf4.o ABSOLUTE
    ../clib/microlib/printf/printf.c         0x00000000   Number         0  printf1.o ABSOLUTE
    ../clib/microlib/printf/printf.c         0x00000000   Number         0  printf2.o ABSOLUTE
    ../clib/microlib/printf/printf.c         0x00000000   Number         0  printfb.o ABSOLUTE
    ../clib/microlib/printf/printf.c         0x00000000   Number         0  printf3.o ABSOLUTE
    ../clib/microlib/printf/printf.c         0x00000000   Number         0  printf5.o ABSOLUTE
    ../clib/microlib/printf/printf.c         0x00000000   Number         0  printf7.o ABSOLUTE
    ../clib/microlib/printf/printf.c         0x00000000   Number         0  printfa.o ABSOLUTE
    ../clib/microlib/printf/printf.c         0x00000000   Number         0  printf8.o ABSOLUTE
    ../clib/microlib/printf/stubs.s          0x00000000   Number         0  stubs.o ABSOLUTE
    ../clib/microlib/stdio/streams.c         0x00000000   Number         0  stdout.o ABSOLUTE
    ../clib/microlib/string/memcpy.c         0x00000000   Number         0  memcpyb.o ABSOLUTE
    ../clib/microlib/string/memcpy.c         0x00000000   Number         0  memcpya.o ABSOLUTE
    ../clib/microlib/string/memset.c         0x00000000   Number         0  memseta.o ABSOLUTE
    ../clib/microlib/string/strcmp.c         0x00000000   Number         0  strcmp.o ABSOLUTE
    ../clib/microlib/string/strcpy.c         0x00000000   Number         0  strcpy.o ABSOLUTE
    ../clib/microlib/string/strlen.c         0x00000000   Number         0  strlen.o ABSOLUTE
    ../clib/microlib/string/strstr.c         0x00000000   Number         0  strstr.o ABSOLUTE
    ../clib/microlib/stubs.s                 0x00000000   Number         0  iusefp.o ABSOLUTE
    ../clib/scanf.c                          0x00000000   Number         0  atoi.o ABSOLUTE
    ../clib/scanf.c                          0x00000000   Number         0  strtol.o ABSOLUTE
    ../clib/scanf.c                          0x00000000   Number         0  _strtoul.o ABSOLUTE
    ../clib/scanf.c                          0x00000000   Number         0  _chval.o ABSOLUTE
    ../fplib/microlib/fpadd.c                0x00000000   Number         0  dadd.o ABSOLUTE
    ../fplib/microlib/fpdiv.c                0x00000000   Number         0  ddiv.o ABSOLUTE
    ../fplib/microlib/fpepilogue.c           0x00000000   Number         0  depilogue.o ABSOLUTE
    ../fplib/microlib/fpfix.c                0x00000000   Number         0  dfixui.o ABSOLUTE
    ../fplib/microlib/fpfix.c                0x00000000   Number         0  dfixul.o ABSOLUTE
    ../fplib/microlib/fpflt.c                0x00000000   Number         0  dfltui.o ABSOLUTE
    ../fplib/microlib/fpmul.c                0x00000000   Number         0  dmul.o ABSOLUTE
    ..\..\..\..\Libraries\CMSIS\CM3\CoreSupport\core_cm3.c 0x00000000   Number         0  core_cm3.o ABSOLUTE
    ..\..\..\..\Libraries\CMSIS\CM3\DeviceSupport\ST\STM32F10x\startup\arm\startup_stm32f10x_cl.s 0x00000000   Number         0  startup_stm32f10x_cl.o ABSOLUTE
    ..\..\..\..\Libraries\CMSIS\CM3\DeviceSupport\ST\STM32F10x\system_stm32f10x.c 0x00000000   Number         0  system_stm32f10x.o ABSOLUTE
    ..\..\..\..\Libraries\STM32F10x_StdPeriph_Driver\src\misc.c 0x00000000   Number         0  misc.o ABSOLUTE
    ..\..\..\..\Libraries\STM32F10x_StdPeriph_Driver\src\stm32f10x_adc.c 0x00000000   Number         0  stm32f10x_adc.o ABSOLUTE
    ..\..\..\..\Libraries\STM32F10x_StdPeriph_Driver\src\stm32f10x_bkp.c 0x00000000   Number         0  stm32f10x_bkp.o ABSOLUTE
    ..\..\..\..\Libraries\STM32F10x_StdPeriph_Driver\src\stm32f10x_can.c 0x00000000   Number         0  stm32f10x_can.o ABSOLUTE
    ..\..\..\..\Libraries\STM32F10x_StdPeriph_Driver\src\stm32f10x_cec.c 0x00000000   Number         0  stm32f10x_cec.o ABSOLUTE
    ..\..\..\..\Libraries\STM32F10x_StdPeriph_Driver\src\stm32f10x_crc.c 0x00000000   Number         0  stm32f10x_crc.o ABSOLUTE
    ..\..\..\..\Libraries\STM32F10x_StdPeriph_Driver\src\stm32f10x_dac.c 0x00000000   Number         0  stm32f10x_dac.o ABSOLUTE
    ..\..\..\..\Libraries\STM32F10x_StdPeriph_Driver\src\stm32f10x_dbgmcu.c 0x00000000   Number         0  stm32f10x_dbgmcu.o ABSOLUTE
    ..\..\..\..\Libraries\STM32F10x_StdPeriph_Driver\src\stm32f10x_dma.c 0x00000000   Number         0  stm32f10x_dma.o ABSOLUTE
    ..\..\..\..\Libraries\STM32F10x_StdPeriph_Driver\src\stm32f10x_exti.c 0x00000000   Number         0  stm32f10x_exti.o ABSOLUTE
    ..\..\..\..\Libraries\STM32F10x_StdPeriph_Driver\src\stm32f10x_flash.c 0x00000000   Number         0  stm32f10x_flash.o ABSOLUTE
    ..\..\..\..\Libraries\STM32F10x_StdPeriph_Driver\src\stm32f10x_fsmc.c 0x00000000   Number         0  stm32f10x_fsmc.o ABSOLUTE
    ..\..\..\..\Libraries\STM32F10x_StdPeriph_Driver\src\stm32f10x_gpio.c 0x00000000   Number         0  stm32f10x_gpio.o ABSOLUTE
    ..\..\..\..\Libraries\STM32F10x_StdPeriph_Driver\src\stm32f10x_i2c.c 0x00000000   Number         0  stm32f10x_i2c.o ABSOLUTE
    ..\..\..\..\Libraries\STM32F10x_StdPeriph_Driver\src\stm32f10x_iwdg.c 0x00000000   Number         0  stm32f10x_iwdg.o ABSOLUTE
    ..\..\..\..\Libraries\STM32F10x_StdPeriph_Driver\src\stm32f10x_pwr.c 0x00000000   Number         0  stm32f10x_pwr.o ABSOLUTE
    ..\..\..\..\Libraries\STM32F10x_StdPeriph_Driver\src\stm32f10x_rcc.c 0x00000000   Number         0  stm32f10x_rcc.o ABSOLUTE
    ..\..\..\..\Libraries\STM32F10x_StdPeriph_Driver\src\stm32f10x_rtc.c 0x00000000   Number         0  stm32f10x_rtc.o ABSOLUTE
    ..\..\..\..\Libraries\STM32F10x_StdPeriph_Driver\src\stm32f10x_sdio.c 0x00000000   Number         0  stm32f10x_sdio.o ABSOLUTE
    ..\..\..\..\Libraries\STM32F10x_StdPeriph_Driver\src\stm32f10x_spi.c 0x00000000   Number         0  stm32f10x_spi.o ABSOLUTE
    ..\..\..\..\Libraries\STM32F10x_StdPeriph_Driver\src\stm32f10x_tim.c 0x00000000   Number         0  stm32f10x_tim.o ABSOLUTE
    ..\..\..\..\Libraries\STM32F10x_StdPeriph_Driver\src\stm32f10x_usart.c 0x00000000   Number         0  stm32f10x_usart.o ABSOLUTE
    ..\..\..\..\Libraries\STM32F10x_StdPeriph_Driver\src\stm32f10x_wwdg.c 0x00000000   Number         0  stm32f10x_wwdg.o ABSOLUTE
    ..\..\..\..\babyos\bos\core\b_core.c     0x00000000   Number         0  b_core.o ABSOLUTE
    ..\..\..\..\babyos\bos\core\b_device.c   0x00000000   Number         0  b_device.o ABSOLUTE
    ..\..\..\..\babyos\bos\drivers\b_drv_oled.c 0x00000000   Number         0  b_drv_oled.o ABSOLUTE
    ..\..\..\..\babyos\bos\hal\b_hal.c       0x00000000   Number         0  b_hal.o ABSOLUTE
    ..\..\..\..\babyos\bos\mcu\st\stm32f10x\mcu_stm32f10x_flash.c 0x00000000   Number         0  mcu_stm32f10x_flash.o ABSOLUTE
    ..\..\..\..\babyos\bos\mcu\st\stm32f10x\mcu_stm32f10x_gpio.c 0x00000000   Number         0  mcu_stm32f10x_gpio.o ABSOLUTE
    ..\..\..\..\babyos\bos\mcu\st\stm32f10x\mcu_stm32f10x_i2c.c 0x00000000   Number         0  mcu_stm32f10x_i2c.o ABSOLUTE
    ..\..\..\..\babyos\bos\mcu\st\stm32f10x\mcu_stm32f10x_it.c 0x00000000   Number         0  mcu_stm32f10x_it.o ABSOLUTE
    ..\..\..\..\babyos\bos\mcu\st\stm32f10x\mcu_stm32f10x_spi.c 0x00000000   Number         0  mcu_stm32f10x_spi.o ABSOLUTE
    ..\..\..\..\babyos\bos\mcu\st\stm32f10x\mcu_stm32f10x_uart.c 0x00000000   Number         0  mcu_stm32f10x_uart.o ABSOLUTE
    ..\..\..\..\babyos\bos\modules\b_mod_adchub.c 0x00000000   Number         0  b_mod_adchub.o ABSOLUTE
    ..\..\..\..\babyos\bos\modules\b_mod_button.c 0x00000000   Number         0  b_mod_button.o ABSOLUTE
    ..\..\..\..\babyos\bos\modules\b_mod_error.c 0x00000000   Number         0  b_mod_error.o ABSOLUTE
    ..\..\..\..\babyos\bos\modules\b_mod_event.c 0x00000000   Number         0  b_mod_event.o ABSOLUTE
    ..\..\..\..\babyos\bos\modules\b_mod_fifo.c 0x00000000   Number         0  b_mod_fifo.o ABSOLUTE
    ..\..\..\..\babyos\bos\modules\b_mod_fs.c 0x00000000   Number         0  b_mod_fs.o ABSOLUTE
    ..\..\..\..\babyos\bos\modules\b_mod_gui.c 0x00000000   Number         0  b_mod_gui.o ABSOLUTE
    ..\..\..\..\babyos\bos\modules\b_mod_heap.c 0x00000000   Number         0  b_mod_heap.o ABSOLUTE
    ..\..\..\..\babyos\bos\modules\b_mod_kv.c 0x00000000   Number         0  b_mod_kv.o ABSOLUTE
    ..\..\..\..\babyos\bos\modules\b_mod_log.c 0x00000000   Number         0  b_mod_log.o ABSOLUTE
    ..\..\..\..\babyos\bos\modules\b_mod_lunar.c 0x00000000   Number         0  b_mod_lunar.o ABSOLUTE
    ..\..\..\..\babyos\bos\modules\b_mod_menu.c 0x00000000   Number         0  b_mod_menu.o ABSOLUTE
    ..\..\..\..\babyos\bos\modules\b_mod_modbus.c 0x00000000   Number         0  b_mod_modbus.o ABSOLUTE
    ..\..\..\..\babyos\bos\modules\b_mod_param.c 0x00000000   Number         0  b_mod_param.o ABSOLUTE
    ..\..\..\..\babyos\bos\modules\b_mod_protocol.c 0x00000000   Number         0  b_mod_protocol.o ABSOLUTE
    ..\..\..\..\babyos\bos\modules\b_mod_sda.c 0x00000000   Number         0  b_mod_sda.o ABSOLUTE
    ..\..\..\..\babyos\bos\modules\b_mod_sdb.c 0x00000000   Number         0  b_mod_sdb.o ABSOLUTE
    ..\..\..\..\babyos\bos\modules\b_mod_shell.c 0x00000000   Number         0  b_mod_shell.o ABSOLUTE
    ..\..\..\..\babyos\bos\modules\b_mod_timer.c 0x00000000   Number         0  b_mod_timer.o ABSOLUTE
    ..\..\..\..\babyos\bos\modules\b_mod_utc.c 0x00000000   Number         0  b_mod_utc.o ABSOLUTE
    ..\..\..\..\babyos\bos\modules\b_mod_xm128.c 0x00000000   Number         0  b_mod_xm128.o ABSOLUTE
    ..\..\..\..\babyos\bos\modules\b_mod_ymodem.c 0x00000000   Number         0  b_mod_ymodem.o ABSOLUTE
    ..\..\..\..\babyos\bos\thirdparty\UGUI\ugui.c 0x00000000   Number         0  ugui.o ABSOLUTE
    ..\..\..\..\babyos\bos\thirdparty\nr_micro_shell\src\ansi.c 0x00000000   Number         0  ansi.o ABSOLUTE
    ..\..\..\..\babyos\bos\thirdparty\nr_micro_shell\src\ansi_port.c 0x00000000   Number         0  ansi_port.o ABSOLUTE
    ..\..\..\..\babyos\bos\thirdparty\nr_micro_shell\src\nr_micro_shell.c 0x00000000   Number         0  nr_micro_shell.o ABSOLUTE
    ..\..\..\..\babyos\bos\utils\b_util_i2c.c 0x00000000   Number         0  b_util_i2c.o ABSOLUTE
    ..\..\..\..\babyos\bos\utils\b_util_spi.c 0x00000000   Number         0  b_util_spi.o ABSOLUTE
    ..\..\..\..\babyos\bos\utils\b_util_uart.c 0x00000000   Number         0  b_util_uart.o ABSOLUTE
    ..\..\..\..\board\board.c                0x00000000   Number         0  board.o ABSOLUTE
    ..\\..\\..\\..\\Libraries\\CMSIS\\CM3\\CoreSupport\\core_cm3.c 0x00000000   Number         0  core_cm3.o ABSOLUTE
    ..\main.c                                0x00000000   Number         0  main.o ABSOLUTE
    ..\stm32f10x_it.c                        0x00000000   Number         0  stm32f10x_it.o ABSOLUTE
    cdrcmple.s                               0x00000000   Number         0  cdrcmple.o ABSOLUTE
    dc.s                                     0x00000000   Number         0  dc.o ABSOLUTE
    handlers.s                               0x00000000   Number         0  handlers.o ABSOLUTE
    init.s                                   0x00000000   Number         0  init.o ABSOLUTE
    RESET                                    0x08000000   Section      336  startup_stm32f10x_cl.o(RESET)
    .ARM.Collect$$$$00000000                 0x08000150   Section        0  entry.o(.ARM.Collect$$$$00000000)
    .ARM.Collect$$$$00000001                 0x08000150   Section        4  entry2.o(.ARM.Collect$$$$00000001)
    .ARM.Collect$$$$00000004                 0x08000154   Section        4  entry5.o(.ARM.Collect$$$$00000004)
    .ARM.Collect$$$$00000008                 0x08000158   Section        0  entry7b.o(.ARM.Collect$$$$00000008)
    .ARM.Collect$$$$0000000A                 0x08000158   Section        0  entry8b.o(.ARM.Collect$$$$0000000A)
    .ARM.Collect$$$$0000000B                 0x08000158   Section        8  entry9a.o(.ARM.Collect$$$$0000000B)
    .ARM.Collect$$$$0000000E                 0x08000160   Section        4  entry12b.o(.ARM.Collect$$$$0000000E)
    .ARM.Collect$$$$0000000F                 0x08000164   Section        0  entry10a.o(.ARM.Collect$$$$0000000F)
    .ARM.Collect$$$$00000011                 0x08000164   Section        0  entry11a.o(.ARM.Collect$$$$00000011)
    .ARM.Collect$$$$00002712                 0x08000164   Section        4  entry2.o(.ARM.Collect$$$$00002712)
    __lit__00000000                          0x08000164   Data           4  entry2.o(.ARM.Collect$$$$00002712)
    .text                                    0x08000168   Section       36  startup_stm32f10x_cl.o(.text)
    .text                                    0x0800018c   Section        0  ctype_o.o(.text)
    .text                                    0x08000194   Section        0  memcpya.o(.text)
    .text                                    0x080001b8   Section        0  memseta.o(.text)
    .text                                    0x080001dc   Section        0  strstr.o(.text)
    .text                                    0x08000200   Section        0  strlen.o(.text)
    .text                                    0x0800020e   Section        0  strcmp.o(.text)
    .text                                    0x0800022a   Section        0  strcpy.o(.text)
    .text                                    0x0800023c   Section        0  atoi.o(.text)
    .text                                    0x08000256   Section        0  dmul.o(.text)
    .text                                    0x0800033a   Section        0  ddiv.o(.text)
    .text                                    0x08000418   Section        0  dfltui.o(.text)
    .text                                    0x08000432   Section        0  dfixui.o(.text)
    .text                                    0x08000464   Section        0  uidiv.o(.text)
    .text                                    0x08000490   Section        0  uldiv.o(.text)
    .text                                    0x080004f2   Section        0  llushr.o(.text)
    .text                                    0x08000512   Section        0  strtol.o(.text)
    .text                                    0x08000582   Section        0  iusefp.o(.text)
    .text                                    0x08000582   Section        0  depilogue.o(.text)
    .text                                    0x0800063c   Section        0  dadd.o(.text)
    .text                                    0x0800078a   Section        0  dfixul.o(.text)
    .text                                    0x080007bc   Section       48  cdrcmple.o(.text)
    .text                                    0x080007ec   Section       36  init.o(.text)
    .text                                    0x08000810   Section        0  llshl.o(.text)
    .text                                    0x0800082e   Section        0  llsshr.o(.text)
    .text                                    0x08000852   Section        0  _strtoul.o(.text)
    .text                                    0x080008f0   Section        0  _chval.o(.text)
    i.BoardInit                              0x0800090c   Section        0  board.o(i.BoardInit)
    i.BusFault_Handler                       0x08000994   Section        0  stm32f10x_it.o(i.BusFault_Handler)
    i.DebugMon_Handler                       0x08000996   Section        0  stm32f10x_it.o(i.DebugMon_Handler)
    i.GPIO_Init                              0x08000998   Section        0  stm32f10x_gpio.o(i.GPIO_Init)
    i.GPIO_PinRemapConfig                    0x08000a3c   Section        0  stm32f10x_gpio.o(i.GPIO_PinRemapConfig)
    i.GPIO_SetBits                           0x08000a94   Section        0  stm32f10x_gpio.o(i.GPIO_SetBits)
    i.HardFault_Handler                      0x08000a98   Section        0  stm32f10x_it.o(i.HardFault_Handler)
    i.MemManage_Handler                      0x08000a9a   Section        0  stm32f10x_it.o(i.MemManage_Handler)
    i.NMI_Handler                            0x08000a9c   Section        0  stm32f10x_it.o(i.NMI_Handler)
    i.NVIC_Init                              0x08000aa0   Section        0  misc.o(i.NVIC_Init)
    i.NVIC_PriorityGroupConfig               0x08000b04   Section        0  misc.o(i.NVIC_PriorityGroupConfig)
    i.NVIC_SetPriority                       0x08000b18   Section        0  main.o(i.NVIC_SetPriority)
    NVIC_SetPriority                         0x08000b19   Thumb Code    32  main.o(i.NVIC_SetPriority)
    i.PendSV_Handler                         0x08000b38   Section        0  stm32f10x_it.o(i.PendSV_Handler)
    i.RCC_APB1PeriphClockCmd                 0x08000b3c   Section        0  stm32f10x_rcc.o(i.RCC_APB1PeriphClockCmd)
    i.RCC_APB2PeriphClockCmd                 0x08000b54   Section        0  stm32f10x_rcc.o(i.RCC_APB2PeriphClockCmd)
    i.RCC_GetClocksFreq                      0x08000b6c   Section        0  stm32f10x_rcc.o(i.RCC_GetClocksFreq)
    i.SPI_Cmd                                0x08000c34   Section        0  stm32f10x_spi.o(i.SPI_Cmd)
    i.SPI_Init                               0x08000c48   Section        0  stm32f10x_spi.o(i.SPI_Init)
    i.SVC_Handler                            0x08000c80   Section        0  stm32f10x_it.o(i.SVC_Handler)
    i.SetSysClockTo72                        0x08000c84   Section        0  system_stm32f10x.o(i.SetSysClockTo72)
    SetSysClockTo72                          0x08000c85   Thumb Code   190  system_stm32f10x.o(i.SetSysClockTo72)
    i.SysTick_Handler                        0x08000d54   Section        0  main.o(i.SysTick_Handler)
    i.SystemInit                             0x08000d58   Section        0  system_stm32f10x.o(i.SystemInit)
    i.UG_DrawLine                            0x08000da4   Section        0  ugui.o(i.UG_DrawLine)
    i.UG_FillFrame                           0x08000e94   Section        0  ugui.o(i.UG_FillFrame)
    i.UG_FontSelect                          0x08000f10   Section        0  ugui.o(i.UG_FontSelect)
    i.UG_GetUnicode                          0x08000f24   Section        0  ugui.o(i.UG_GetUnicode)
    i.UG_Init                                0x08000f48   Section        0  ugui.o(i.UG_Init)
    i.UG_PutChar                             0x08000fb4   Section        0  ugui.o(i.UG_PutChar)
    i.UG_PutString                           0x08000fcc   Section        0  ugui.o(i.UG_PutString)
    i.UG_SelectGUI                           0x08001070   Section        0  ugui.o(i.UG_SelectGUI)
    i.UG_SetBackcolor                        0x0800107c   Section        0  ugui.o(i.UG_SetBackcolor)
    i.UG_SetForecolor                        0x0800108c   Section        0  ugui.o(i.UG_SetForecolor)
    i.UG_TouchUpdate                         0x0800109c   Section        0  ugui.o(i.UG_TouchUpdate)
    i.UG_Update                              0x080010ac   Section        0  ugui.o(i.UG_Update)
    i.USART1_IRQHandler                      0x0800115c   Section        0  main.o(i.USART1_IRQHandler)
    i.USART_ClearITPendingBit                0x08001198   Section        0  stm32f10x_usart.o(i.USART_ClearITPendingBit)
    i.USART_Cmd                              0x080011a4   Section        0  stm32f10x_usart.o(i.USART_Cmd)
    i.USART_GetITStatus                      0x080011b8   Section        0  stm32f10x_usart.o(i.USART_GetITStatus)
    i.USART_ITConfig                         0x080011f6   Section        0  stm32f10x_usart.o(i.USART_ITConfig)
    i.USART_Init                             0x08001228   Section        0  stm32f10x_usart.o(i.USART_Init)
    i.USART_ReceiveData                      0x080012d4   Section        0  stm32f10x_usart.o(i.USART_ReceiveData)
    i.UsageFault_Handler                     0x080012dc   Section        0  stm32f10x_it.o(i.UsageFault_Handler)
    i._CmdBosHandler                         0x080012e0   Section        0  b_mod_shell.o(i._CmdBosHandler)
    _CmdBosHandler                           0x080012e1   Thumb Code    46  b_mod_shell.o(i._CmdBosHandler)
    i._CmdShowHandler                        0x0800135c   Section        0  main.o(i._CmdShowHandler)
    _CmdShowHandler                          0x0800135d   Thumb Code    44  main.o(i._CmdShowHandler)
    i._GpioConfig                            0x08001388   Section        0  mcu_stm32f10x_gpio.o(i._GpioConfig)
    _GpioConfig                              0x08001389   Thumb Code   118  mcu_stm32f10x_gpio.o(i._GpioConfig)
    i._GpioInit                              0x08001404   Section        0  board.o(i._GpioInit)
    _GpioInit                                0x08001405   Thumb Code   458  board.o(i._GpioInit)
    i._GpioRead                              0x080015e8   Section        0  mcu_stm32f10x_gpio.o(i._GpioRead)
    _GpioRead                                0x080015e9   Thumb Code    20  mcu_stm32f10x_gpio.o(i._GpioRead)
    i._GpioReadPin                           0x08001600   Section        0  mcu_stm32f10x_gpio.o(i._GpioReadPin)
    _GpioReadPin                             0x08001601   Thumb Code    36  mcu_stm32f10x_gpio.o(i._GpioReadPin)
    i._GpioWrite                             0x08001628   Section        0  mcu_stm32f10x_gpio.o(i._GpioWrite)
    _GpioWrite                               0x08001629   Thumb Code    14  mcu_stm32f10x_gpio.o(i._GpioWrite)
    i._GpioWritePin                          0x0800163c   Section        0  mcu_stm32f10x_gpio.o(i._GpioWritePin)
    _GpioWritePin                            0x0800163d   Thumb Code    32  mcu_stm32f10x_gpio.o(i._GpioWritePin)
    i._I2CMemRead                            0x08001660   Section        0  mcu_stm32f10x_i2c.o(i._I2CMemRead)
    _I2CMemRead                              0x08001661   Thumb Code    54  mcu_stm32f10x_i2c.o(i._I2CMemRead)
    i._I2CMemWrite                           0x08001696   Section        0  mcu_stm32f10x_i2c.o(i._I2CMemWrite)
    _I2CMemWrite                             0x08001697   Thumb Code    54  mcu_stm32f10x_i2c.o(i._I2CMemWrite)
    i._I2CReadByte                           0x080016cc   Section        0  mcu_stm32f10x_i2c.o(i._I2CReadByte)
    _I2CReadByte                             0x080016cd   Thumb Code     2  mcu_stm32f10x_i2c.o(i._I2CReadByte)
    i._I2CSendByte                           0x080016ce   Section        0  mcu_stm32f10x_i2c.o(i._I2CSendByte)
    _I2CSendByte                             0x080016cf   Thumb Code     2  mcu_stm32f10x_i2c.o(i._I2CSendByte)
    i._LCD_SetColorPixel                     0x080016d0   Section        0  b_mod_gui.o(i._LCD_SetColorPixel)
    _LCD_SetColorPixel                       0x080016d1   Thumb Code    54  b_mod_gui.o(i._LCD_SetColorPixel)
    i._SpiInit                               0x0800170c   Section        0  board.o(i._SpiInit)
    _SpiInit                                 0x0800170d   Thumb Code   134  board.o(i._SpiInit)
    i._UG_DrawObjectFrame                    0x0800179c   Section        0  ugui.o(i._UG_DrawObjectFrame)
    i._UG_HandleEvents                       0x080018a8   Section        0  ugui.o(i._UG_HandleEvents)
    i._UG_ProcessTouchData                   0x08001904   Section        0  ugui.o(i._UG_ProcessTouchData)
    i._UG_PutChar                            0x080019c4   Section        0  ugui.o(i._UG_PutChar)
    i._UG_PutText                            0x08001c98   Section        0  ugui.o(i._UG_PutText)
    i._UG_UpdateObjects                      0x08001e1c   Section        0  ugui.o(i._UG_UpdateObjects)
    i._UG_WindowDrawTitle                    0x08001e6c   Section        0  ugui.o(i._UG_WindowDrawTitle)
    i._UG_WindowUpdate                       0x08001f40   Section        0  ugui.o(i._UG_WindowUpdate)
    i._UartReceive                           0x08002010   Section        0  mcu_stm32f10x_uart.o(i._UartReceive)
    _UartReceive                             0x08002011   Thumb Code    68  mcu_stm32f10x_uart.o(i._UartReceive)
    i._UartSend                              0x08002058   Section        0  mcu_stm32f10x_uart.o(i._UartSend)
    _UartSend                                0x08002059   Thumb Code    68  mcu_stm32f10x_uart.o(i._UartSend)
    i._Utf82Unicode                          0x080020a0   Section        0  ugui.o(i._Utf82Unicode)
    _Utf82Unicode                            0x080020a1   Thumb Code   344  ugui.o(i._Utf82Unicode)
    i._Utf82UnicodeSize                      0x080021f8   Section        0  ugui.o(i._Utf82UnicodeSize)
    _Utf82UnicodeSize                        0x080021f9   Thumb Code    76  ugui.o(i._Utf82UnicodeSize)
    i.__0sprintf                             0x08002244   Section        0  printfa.o(i.__0sprintf)
    i.__0vsnprintf                           0x0800226c   Section        0  printfa.o(i.__0vsnprintf)
    i.__aeabi_errno_addr                     0x080022a0   Section        0  errno.o(i.__aeabi_errno_addr)
    i.__scatterload_copy                     0x080022a8   Section       14  handlers.o(i.__scatterload_copy)
    i.__scatterload_null                     0x080022b6   Section        2  handlers.o(i.__scatterload_null)
    i.__scatterload_zeroinit                 0x080022b8   Section       14  handlers.o(i.__scatterload_zeroinit)
    i._bCoreCreateFd                         0x080022c8   Section        0  b_core.o(i._bCoreCreateFd)
    _bCoreCreateFd                           0x080022c9   Thumb Code   106  b_core.o(i._bCoreCreateFd)
    i._bCoreDeleteFd                         0x0800233c   Section        0  b_core.o(i._bCoreDeleteFd)
    _bCoreDeleteFd                           0x0800233d   Thumb Code    30  b_core.o(i._bCoreDeleteFd)
    i._bCoreMonitor                          0x08002360   Section        0  b_core.o(i._bCoreMonitor)
    _bCoreMonitor                            0x08002361   Thumb Code     2  b_core.o(i._bCoreMonitor)
    i._bDriverNullInit                       0x08002364   Section        0  b_device.o(i._bDriverNullInit)
    _bDriverNullInit                         0x08002365   Thumb Code    34  b_device.o(i._bDriverNullInit)
    i._bGUI_Core                             0x080023dc   Section        0  b_mod_gui.o(i._bGUI_Core)
    _bGUI_Core                               0x080023dd   Thumb Code    34  b_mod_gui.o(i._bGUI_Core)
    i._bGUI_TouchExec                        0x08002404   Section        0  b_mod_gui.o(i._bGUI_TouchExec)
    _bGUI_TouchExec                          0x08002405   Thumb Code   130  b_mod_gui.o(i._bGUI_TouchExec)
    i._bHalUpdateDelayParam                  0x0800248c   Section        0  b_hal.o(i._bHalUpdateDelayParam)
    _bHalUpdateDelayParam                    0x0800248d   Thumb Code    78  b_hal.o(i._bHalUpdateDelayParam)
    i._bOLEDWrite                            0x080024e8   Section        0  b_drv_oled.o(i._bOLEDWrite)
    _bOLEDWrite                              0x080024e9   Thumb Code   110  b_drv_oled.o(i._bOLEDWrite)
    i._bOLED_WriteCmd                        0x0800255c   Section        0  b_drv_oled.o(i._bOLED_WriteCmd)
    _bOLED_WriteCmd                          0x0800255d   Thumb Code    42  b_drv_oled.o(i._bOLED_WriteCmd)
    i._bOLED_WriteData                       0x080025d4   Section        0  b_drv_oled.o(i._bOLED_WriteData)
    _bOLED_WriteData                         0x080025d5   Thumb Code    42  b_drv_oled.o(i._bOLED_WriteData)
    i._bUtilUartDetectIdle                   0x0800264c   Section        0  b_util_uart.o(i._bUtilUartDetectIdle)
    _bUtilUartDetectIdle                     0x0800264d   Thumb Code    80  b_util_uart.o(i._bUtilUartDetectIdle)
    i._fp_digits                             0x080026a0   Section        0  printfa.o(i._fp_digits)
    _fp_digits                               0x080026a1   Thumb Code   366  printfa.o(i._fp_digits)
    i._printf_core                           0x08002824   Section        0  printfa.o(i._printf_core)
    _printf_core                             0x08002825   Thumb Code  1704  printfa.o(i._printf_core)
    i._printf_post_padding                   0x08002ed8   Section        0  printfa.o(i._printf_post_padding)
    _printf_post_padding                     0x08002ed9   Thumb Code    36  printfa.o(i._printf_post_padding)
    i._printf_pre_padding                    0x08002efc   Section        0  printfa.o(i._printf_pre_padding)
    _printf_pre_padding                      0x08002efd   Thumb Code    46  printfa.o(i._printf_pre_padding)
    i._shell_init                            0x08002f2c   Section        0  nr_micro_shell.o(i._shell_init)
    i._snputc                                0x08002f68   Section        0  printfa.o(i._snputc)
    _snputc                                  0x08002f69   Thumb Code    22  printfa.o(i._snputc)
    i._sputc                                 0x08002f7e   Section        0  printfa.o(i._sputc)
    _sputc                                   0x08002f7f   Thumb Code    10  printfa.o(i._sputc)
    i.ansi_clear_current_line                0x08002f88   Section        0  ansi.o(i.ansi_clear_current_line)
    i.ansi_get_char                          0x08002f98   Section        0  ansi.o(i.ansi_get_char)
    i.ansi_init                              0x08003088   Section        0  ansi.o(i.ansi_init)
    i.ansi_search_char                       0x0800309e   Section        0  ansi.o(i.ansi_search_char)
    i.ansi_show_char                         0x080030c0   Section        0  ansi_port.o(i.ansi_show_char)
    i.ansi_show_str                          0x080030d4   Section        0  ansi_port.o(i.ansi_show_str)
    i.bClose                                 0x080030ec   Section        0  b_core.o(i.bClose)
    i.bDeviceClose                           0x0800311c   Section        0  b_device.o(i.bDeviceClose)
    i.bDeviceInit                            0x080031a0   Section        0  b_device.o(i.bDeviceInit)
    i.bDeviceOpen                            0x080031e4   Section        0  b_device.o(i.bDeviceOpen)
    i.bDeviceRead                            0x08003268   Section        0  b_device.o(i.bDeviceRead)
    i.bDeviceWrite                           0x080032f4   Section        0  b_device.o(i.bDeviceWrite)
    i.bExec                                  0x08003380   Section        0  b_core.o(i.bExec)
    i.bGUI_Init                              0x080033a0   Section        0  b_mod_gui.o(i.bGUI_Init)
    i.bHalDelayMs                            0x080033ec   Section        0  b_hal.o(i.bHalDelayMs)
    i.bHalDelayUs                            0x08003400   Section        0  b_hal.o(i.bHalDelayUs)
    i.bHalGetSysTick                         0x0800341c   Section        0  b_hal.o(i.bHalGetSysTick)
    i.bHalIncSysTick                         0x08003428   Section        0  b_hal.o(i.bHalIncSysTick)
    i.bHalInit                               0x08003438   Section        0  b_hal.o(i.bHalInit)
    i.bInit                                  0x0800343c   Section        0  b_core.o(i.bInit)
    i.bLogOut                                0x08003744   Section        0  b_mod_log.o(i.bLogOut)
    i.bLogOutput                             0x0800380c   Section        0  b_mod_log.o(i.bLogOutput)
    i.bLseek                                 0x08003828   Section        0  b_core.o(i.bLseek)
    i.bOLED_Init                             0x08003848   Section        0  b_drv_oled.o(i.bOLED_Init)
    i.bOpen                                  0x08003958   Section        0  b_core.o(i.bOpen)
    i.bRead                                  0x08003988   Section        0  b_core.o(i.bRead)
    i.bShellInit                             0x080039cc   Section        0  b_mod_shell.o(i.bShellInit)
    i.bShellParse                            0x080039e8   Section        0  b_mod_shell.o(i.bShellParse)
    i.bUtilI2C_ACK                           0x08003a30   Section        0  b_util_i2c.o(i.bUtilI2C_ACK)
    i.bUtilI2C_ReadBuff                      0x08003ab8   Section        0  b_util_i2c.o(i.bUtilI2C_ReadBuff)
    i.bUtilI2C_ReadByte                      0x08003b44   Section        0  b_util_i2c.o(i.bUtilI2C_ReadByte)
    i.bUtilI2C_Start                         0x08003bcc   Section        0  b_util_i2c.o(i.bUtilI2C_Start)
    i.bUtilI2C_Stop                          0x08003c20   Section        0  b_util_i2c.o(i.bUtilI2C_Stop)
    i.bUtilI2C_WriteBuff                     0x08003c7c   Section        0  b_util_i2c.o(i.bUtilI2C_WriteBuff)
    i.bUtilI2C_WriteByte                     0x08003ce8   Section        0  b_util_i2c.o(i.bUtilI2C_WriteByte)
    i.bUtilI2C_mACK                          0x08003d54   Section        0  b_util_i2c.o(i.bUtilI2C_mACK)
    i.bWrite                                 0x08003d94   Section        0  b_core.o(i.bWrite)
    i.main                                   0x08003dd4   Section        0  main.o(i.main)
    i.nr_ansi_ctrl_common_slover             0x08003e30   Section        0  ansi_port.o(i.nr_ansi_ctrl_common_slover)
    i.nr_ansi_in_backspace                   0x08003e50   Section        0  ansi_port.o(i.nr_ansi_in_backspace)
    i.nr_ansi_in_down                        0x08003e9c   Section        0  ansi_port.o(i.nr_ansi_in_down)
    i.nr_ansi_in_enter                       0x08003f20   Section        0  ansi_port.o(i.nr_ansi_in_enter)
    i.nr_ansi_in_left                        0x08003f4c   Section        0  ansi_port.o(i.nr_ansi_in_left)
    i.nr_ansi_in_newline                     0x08003f7c   Section        0  ansi_port.o(i.nr_ansi_in_newline)
    i.nr_ansi_in_right                       0x08003f84   Section        0  ansi_port.o(i.nr_ansi_in_right)
    i.nr_ansi_in_tab                         0x08003fb8   Section        0  ansi_port.o(i.nr_ansi_in_tab)
    i.nr_ansi_in_up                          0x0800408c   Section        0  ansi_port.o(i.nr_ansi_in_up)
    i.nr_shell_strtok                        0x08004114   Section        0  nr_micro_shell.o(i.nr_shell_strtok)
    nr_shell_strtok                          0x08004115   Thumb Code   136  nr_micro_shell.o(i.nr_shell_strtok)
    i.shell_cmd_complete                     0x080041a0   Section        0  nr_micro_shell.o(i.shell_cmd_complete)
    i.shell_his_copy_queue_item              0x080041e0   Section        0  nr_micro_shell.o(i.shell_his_copy_queue_item)
    i.shell_his_queue_add_cmd                0x0800425c   Section        0  nr_micro_shell.o(i.shell_his_queue_add_cmd)
    i.shell_his_queue_init                   0x08004306   Section        0  nr_micro_shell.o(i.shell_his_queue_init)
    i.shell_his_queue_search_cmd             0x08004318   Section        0  nr_micro_shell.o(i.shell_his_queue_search_cmd)
    i.shell_parser                           0x080043a0   Section        0  nr_micro_shell.o(i.shell_parser)
    i.shell_search_cmd                       0x080044cc   Section        0  nr_micro_shell.o(i.shell_search_cmd)
    .constdata                               0x080044fc   Section        6  b_core.o(.constdata)
    __func__                                 0x080044fc   Data           6  b_core.o(.constdata)
    .constdata                               0x08004502   Section       94  b_device.o(.constdata)
    __func__                                 0x08004502   Data          17  b_device.o(.constdata)
    __func__                                 0x08004513   Data          12  b_device.o(.constdata)
    __func__                                 0x0800451f   Data          12  b_device.o(.constdata)
    __func__                                 0x0800452b   Data          13  b_device.o(.constdata)
    __func__                                 0x08004538   Data          13  b_device.o(.constdata)
    __func__                                 0x08004545   Data          11  b_device.o(.constdata)
    __func__                                 0x08004550   Data          16  b_device.o(.constdata)
    .constdata                               0x08004560   Section       45  b_drv_oled.o(.constdata)
    bOLED_HalIf                              0x08004560   Data          12  b_drv_oled.o(.constdata)
    __func__                                 0x0800456c   Data          16  b_drv_oled.o(.constdata)
    __func__                                 0x0800457c   Data          17  b_drv_oled.o(.constdata)
    .constdata                               0x0800458d   Section        6  b_mod_log.o(.constdata)
    bLogParamTable                           0x0800458d   Data           3  b_mod_log.o(.constdata)
    bLogPrefix                               0x08004590   Data           3  b_mod_log.o(.constdata)
    .constdata                               0x08004593   Section       15  b_mod_shell.o(.constdata)
    __func__                                 0x08004593   Data          15  b_mod_shell.o(.constdata)
    .constdata                               0x080045a4   Section       20  mcu_stm32f10x_gpio.o(.constdata)
    .constdata                               0x080045b8   Section       16  mcu_stm32f10x_i2c.o(.constdata)
    .constdata                               0x080045c8   Section        8  mcu_stm32f10x_uart.o(.constdata)
    .constdata                               0x080045d0   Section      120  ansi.o(.constdata)
    .constdata                               0x08004648   Section       99  ansi_port.o(.constdata)
    __func__                                 0x08004648   Data          21  ansi_port.o(.constdata)
    __func__                                 0x0800465d   Data          14  ansi_port.o(.constdata)
    __func__                                 0x0800466b   Data          16  ansi_port.o(.constdata)
    __func__                                 0x0800467b   Data          16  ansi_port.o(.constdata)
    __func__                                 0x0800468b   Data          17  ansi_port.o(.constdata)
    __func__                                 0x0800469c   Data          15  ansi_port.o(.constdata)
    .constdata                               0x080046ab   Section       25  nr_micro_shell.o(.constdata)
    __func__                                 0x080046ab   Data          12  nr_micro_shell.o(.constdata)
    __func__                                 0x080046b7   Data          13  nr_micro_shell.o(.constdata)
    .constdata                               0x080046c4   Section     2048  ugui.o(.constdata)
    .constdata                               0x08004ec4   Section       20  ugui.o(.constdata)
    .constdata                               0x08004ed8   Section      120  ugui.o(.constdata)
    .constdata                               0x08004f50   Section      129  ctype_o.o(.constdata)
    .constdata                               0x08004fd4   Section        4  ctype_o.o(.constdata)
    table                                    0x08004fd4   Data           4  ctype_o.o(.constdata)
    .conststring                             0x08004fd8   Section       13  b_device.o(.conststring)
    .conststring                             0x08004fe8   Section       65  ansi_port.o(.conststring)
    .conststring                             0x0800502c   Section       70  nr_micro_shell.o(.conststring)
    .conststrlit                             0x08005074   Section        5  main.o(.conststrlit)
    .conststrlit                             0x0800507c   Section        4  b_mod_shell.o(.conststrlit)
    b_mod_shell                              0x080050a0   Section        8  main.o(b_mod_shell)
    __tagsym$$used                           0x080050a0   Number         0  main.o(b_mod_shell)
    b_mod_shell                              0x080050a8   Section        8  b_mod_shell.o(b_mod_shell)
    __tagsym$$used                           0x080050a8   Number         0  b_mod_shell.o(b_mod_shell)
    bos_polling                              0x080050b0   Section        4  b_core.o(bos_polling)
    __tagsym$$used                           0x080050b0   Number         0  b_core.o(bos_polling)
    bos_polling                              0x080050b4   Section        4  b_mod_gui.o(bos_polling)
    __tagsym$$used                           0x080050b4   Number         0  b_mod_gui.o(bos_polling)
    bos_polling                              0x080050b8   Section        4  b_util_uart.o(bos_polling)
    __tagsym$$used                           0x080050b8   Number         0  b_util_uart.o(bos_polling)
    driver_init                              0x080050bc   Section        4  b_device.o(driver_init)
    __tagsym$$used                           0x080050bc   Number         0  b_device.o(driver_init)
    driver_init                              0x080050c0   Section        4  b_drv_oled.o(driver_init)
    __tagsym$$used                           0x080050c0   Number         0  b_drv_oled.o(driver_init)
    driver_init_0                            0x080050c4   Section        4  b_device.o(driver_init_0)
    __tagsym$$used                           0x080050c4   Number         0  b_device.o(driver_init_0)
    .data                                    0x20000000   Section       20  stm32f10x_rcc.o(.data)
    ADCPrescTable                            0x20000000   Data           4  stm32f10x_rcc.o(.data)
    APBAHBPrescTable                         0x20000004   Data          16  stm32f10x_rcc.o(.data)
    .data                                    0x20000014   Section       20  system_stm32f10x.o(.data)
    .data                                    0x20000028   Section        1  b_core.o(.data)
    init                                     0x20000028   Data           1  b_core.o(.data)
    .data                                    0x2000002c   Section       16  b_device.o(.data)
    bDriverTable                             0x2000002c   Data           8  b_device.o(.data)
    bDeviceDescTable                         0x20000034   Data           8  b_device.o(.data)
    .data                                    0x2000003c   Section       12  b_mod_gui.o(.data)
    tick                                     0x2000003c   Data           4  b_mod_gui.o(.data)
    GUI_Info                                 0x20000040   Data           8  b_mod_gui.o(.data)
    .data                                    0x20000048   Section       20  mcu_stm32f10x_uart.o(.data)
    UartTable                                0x20000048   Data          20  mcu_stm32f10x_uart.o(.data)
    .data                                    0x2000005c   Section        8  b_hal.o(.data)
    bSysTick                                 0x2000005c   Data           4  b_hal.o(.data)
    bUsDelayParam                            0x20000060   Data           4  b_hal.o(.data)
    .data                                    0x20000064   Section      148  nr_micro_shell.o(.data)
    .data                                    0x200000f8   Section        4  nr_micro_shell.o(.data)
    last                                     0x200000f8   Data           4  nr_micro_shell.o(.data)
    .data                                    0x200000fc   Section       12  ugui.o(.data)
    gui                                      0x200000fc   Data           4  ugui.o(.data)
    msg                                      0x20000100   Data           8  ugui.o(.data)
    .data                                    0x20000108   Section        4  errno.o(.data)
    _errno                                   0x20000108   Data           4  errno.o(.data)
    .bss                                     0x2000010c   Section       80  b_core.o(.bss)
    bCoreFdTable                             0x2000010c   Data          80  b_core.o(.bss)
    .bss                                     0x2000015c   Section       32  b_device.o(.bss)
    bNullDriver                              0x2000015c   Data          32  b_device.o(.bss)
    .bss                                     0x2000017c   Section     1056  b_drv_oled.o(.bss)
    bOLED_Buff                               0x2000017c   Data        1024  b_drv_oled.o(.bss)
    .bss                                     0x2000059c   Section      100  b_mod_gui.o(.bss)
    bGUI_Handle                              0x2000059c   Data         100  b_mod_gui.o(.bss)
    .bss                                     0x20000600   Section      256  b_mod_log.o(.bss)
    bLogBuff                                 0x20000600   Data         256  b_mod_log.o(.bss)
    .bss                                     0x20000700   Section       32  b_util_uart.o(.bss)
    bUitlUartHead                            0x20000700   Data          32  b_util_uart.o(.bss)
    .bss                                     0x20000720   Section      132  ansi.o(.bss)
    STACK                                    0x200007a8   Section     2048  startup_stm32f10x_cl.o(STACK)

    Global Symbols

    Symbol Name                              Value     Ov Type        Size  Object(Section)

    BuildAttributes$$THM_ISAv4$P$D$K$B$S$PE$A:L22UL41UL21$X:L11$S22US41US21$IEEE1$IW$USESV6$~STKCKD$USESV7$~SHL$OSPACE$ROPI$EBA8$MICROLIB$REQ8$PRES8$EABIv2 0x00000000   Number         0  anon$$obj.o ABSOLUTE
    __ARM_use_no_argv                        0x00000000   Number         0  main.o ABSOLUTE
    _printf_a                                0x00000000   Number         0  stubs.o ABSOLUTE
    _printf_c                                0x00000000   Number         0  stubs.o ABSOLUTE
    _printf_charcount                        0x00000000   Number         0  stubs.o ABSOLUTE
    _printf_d                                0x00000000   Number         0  stubs.o ABSOLUTE
    _printf_e                                0x00000000   Number         0  stubs.o ABSOLUTE
    _printf_f                                0x00000000   Number         0  stubs.o ABSOLUTE
    _printf_flags                            0x00000000   Number         0  stubs.o ABSOLUTE
    _printf_fp_dec                           0x00000000   Number         0  stubs.o ABSOLUTE
    _printf_fp_hex                           0x00000000   Number         0  stubs.o ABSOLUTE
    _printf_g                                0x00000000   Number         0  stubs.o ABSOLUTE
    _printf_i                                0x00000000   Number         0  stubs.o ABSOLUTE
    _printf_int_dec                          0x00000000   Number         0  stubs.o ABSOLUTE
    _printf_l                                0x00000000   Number         0  stubs.o ABSOLUTE
    _printf_lc                               0x00000000   Number         0  stubs.o ABSOLUTE
    _printf_ll                               0x00000000   Number         0  stubs.o ABSOLUTE
    _printf_lld                              0x00000000   Number         0  stubs.o ABSOLUTE
    _printf_lli                              0x00000000   Number         0  stubs.o ABSOLUTE
    _printf_llo                              0x00000000   Number         0  stubs.o ABSOLUTE
    _printf_llu                              0x00000000   Number         0  stubs.o ABSOLUTE
    _printf_llx                              0x00000000   Number         0  stubs.o ABSOLUTE
    _printf_longlong_dec                     0x00000000   Number         0  stubs.o ABSOLUTE
    _printf_longlong_hex                     0x00000000   Number         0  stubs.o ABSOLUTE
    _printf_longlong_oct                     0x00000000   Number         0  stubs.o ABSOLUTE
    _printf_ls                               0x00000000   Number         0  stubs.o ABSOLUTE
    _printf_mbtowc                           0x00000000   Number         0  stubs.o ABSOLUTE
    _printf_n                                0x00000000   Number         0  stubs.o ABSOLUTE
    _printf_o                                0x00000000   Number         0  stubs.o ABSOLUTE
    _printf_p                                0x00000000   Number         0  stubs.o ABSOLUTE
    _printf_percent                          0x00000000   Number         0  stubs.o ABSOLUTE
    _printf_pre_padding                      0x00000000   Number         0  stubs.o ABSOLUTE
    _printf_return_value                     0x00000000   Number         0  stubs.o ABSOLUTE
    _printf_s                                0x00000000   Number         0  stubs.o ABSOLUTE
    _printf_sizespec                         0x00000000   Number         0  stubs.o ABSOLUTE
    _printf_str                              0x00000000   Number         0  stubs.o ABSOLUTE
    _printf_truncate_signed                  0x00000000   Number         0  stubs.o ABSOLUTE
    _printf_truncate_unsigned                0x00000000   Number         0  stubs.o ABSOLUTE
    _printf_u                                0x00000000   Number         0  stubs.o ABSOLUTE
    _printf_wc                               0x00000000   Number         0  stubs.o ABSOLUTE
    _printf_wctomb                           0x00000000   Number         0  stubs.o ABSOLUTE
    _printf_widthprec                        0x00000000   Number         0  stubs.o ABSOLUTE
    _printf_x                                0x00000000   Number         0  stubs.o ABSOLUTE
    __arm_fini_                               - Undefined Weak Reference
    __cpp_initialize__aeabi_                  - Undefined Weak Reference
    __cxa_finalize                            - Undefined Weak Reference
    __decompress                              - Undefined Weak Reference
    _clock_init                               - Undefined Weak Reference
    _microlib_exit                            - Undefined Weak Reference
    __Vectors_Size                           0x00000150   Number         0  startup_stm32f10x_cl.o ABSOLUTE
    __Vectors                                0x08000000   Data           4  startup_stm32f10x_cl.o(RESET)
    __Vectors_End                            0x08000150   Data           0  startup_stm32f10x_cl.o(RESET)
    __main                                   0x08000151   Thumb Code     0  entry.o(.ARM.Collect$$$$00000000)
    _main_stk                                0x08000151   Thumb Code     0  entry2.o(.ARM.Collect$$$$00000001)
    _main_scatterload                        0x08000155   Thumb Code     0  entry5.o(.ARM.Collect$$$$00000004)
    __main_after_scatterload                 0x08000159   Thumb Code     0  entry5.o(.ARM.Collect$$$$00000004)
    _main_clock                              0x08000159   Thumb Code     0  entry7b.o(.ARM.Collect$$$$00000008)
    _main_cpp_init                           0x08000159   Thumb Code     0  entry8b.o(.ARM.Collect$$$$0000000A)
    _main_init                               0x08000159   Thumb Code     0  entry9a.o(.ARM.Collect$$$$0000000B)
    __rt_lib_shutdown_fini                   0x08000161   Thumb Code     0  entry12b.o(.ARM.Collect$$$$0000000E)
    __rt_final_cpp                           0x08000165   Thumb Code     0  entry10a.o(.ARM.Collect$$$$0000000F)
    __rt_final_exit                          0x08000165   Thumb Code     0  entry11a.o(.ARM.Collect$$$$00000011)
    Reset_Handler                            0x08000169   Thumb Code     8  startup_stm32f10x_cl.o(.text)
    ADC1_2_IRQHandler                        0x08000183   Thumb Code     0  startup_stm32f10x_cl.o(.text)
    CAN1_RX0_IRQHandler                      0x08000183   Thumb Code     0  startup_stm32f10x_cl.o(.text)
    CAN1_RX1_IRQHandler                      0x08000183   Thumb Code     0  startup_stm32f10x_cl.o(.text)
    CAN1_SCE_IRQHandler                      0x08000183   Thumb Code     0  startup_stm32f10x_cl.o(.text)
    CAN1_TX_IRQHandler                       0x08000183   Thumb Code     0  startup_stm32f10x_cl.o(.text)
    CAN2_RX0_IRQHandler                      0x08000183   Thumb Code     0  startup_stm32f10x_cl.o(.text)
    CAN2_RX1_IRQHandler                      0x08000183   Thumb Code     0  startup_stm32f10x_cl.o(.text)
    CAN2_SCE_IRQHandler                      0x08000183   Thumb Code     0  startup_stm32f10x_cl.o(.text)
    CAN2_TX_IRQHandler                       0x08000183   Thumb Code     0  startup_stm32f10x_cl.o(.text)
    DMA1_Channel1_IRQHandler                 0x08000183   Thumb Code     0  startup_stm32f10x_cl.o(.text)
    DMA1_Channel2_IRQHandler                 0x08000183   Thumb Code     0  startup_stm32f10x_cl.o(.text)
    DMA1_Channel3_IRQHandler                 0x08000183   Thumb Code     0  startup_stm32f10x_cl.o(.text)
    DMA1_Channel4_IRQHandler                 0x08000183   Thumb Code     0  startup_stm32f10x_cl.o(.text)
    DMA1_Channel5_IRQHandler                 0x08000183   Thumb Code     0  startup_stm32f10x_cl.o(.text)
    DMA1_Channel6_IRQHandler                 0x08000183   Thumb Code     0  startup_stm32f10x_cl.o(.text)
    DMA1_Channel7_IRQHandler                 0x08000183   Thumb Code     0  startup_stm32f10x_cl.o(.text)
    DMA2_Channel1_IRQHandler                 0x08000183   Thumb Code     0  startup_stm32f10x_cl.o(.text)
    DMA2_Channel2_IRQHandler                 0x08000183   Thumb Code     0  startup_stm32f10x_cl.o(.text)
    DMA2_Channel3_IRQHandler                 0x08000183   Thumb Code     0  startup_stm32f10x_cl.o(.text)
    DMA2_Channel4_IRQHandler                 0x08000183   Thumb Code     0  startup_stm32f10x_cl.o(.text)
    DMA2_Channel5_IRQHandler                 0x08000183   Thumb Code     0  startup_stm32f10x_cl.o(.text)
    ETH_IRQHandler                           0x08000183   Thumb Code     0  startup_stm32f10x_cl.o(.text)
    ETH_WKUP_IRQHandler                      0x08000183   Thumb Code     0  startup_stm32f10x_cl.o(.text)
    EXTI0_IRQHandler                         0x08000183   Thumb Code     0  startup_stm32f10x_cl.o(.text)
    EXTI15_10_IRQHandler                     0x08000183   Thumb Code     0  startup_stm32f10x_cl.o(.text)
    EXTI1_IRQHandler                         0x08000183   Thumb Code     0  startup_stm32f10x_cl.o(.text)
    EXTI2_IRQHandler                         0x08000183   Thumb Code     0  startup_stm32f10x_cl.o(.text)
    EXTI3_IRQHandler                         0x08000183   Thumb Code     0  startup_stm32f10x_cl.o(.text)
    EXTI4_IRQHandler                         0x08000183   Thumb Code     0  startup_stm32f10x_cl.o(.text)
    EXTI9_5_IRQHandler                       0x08000183   Thumb Code     0  startup_stm32f10x_cl.o(.text)
    FLASH_IRQHandler                         0x08000183   Thumb Code     0  startup_stm32f10x_cl.o(.text)
    I2C1_ER_IRQHandler                       0x08000183   Thumb Code     0  startup_stm32f10x_cl.o(.text)
    I2C1_EV_IRQHandler                       0x08000183   Thumb Code     0  startup_stm32f10x_cl.o(.text)
    I2C2_ER_IRQHandler                       0x08000183   Thumb Code     0  startup_stm32f10x_cl.o(.text)
    I2C2_EV_IRQHandler                       0x08000183   Thumb Code     0  startup_stm32f10x_cl.o(.text)
    OTG_FS_IRQHandler                        0x08000183   Thumb Code     0  startup_stm32f10x_cl.o(.text)
    OTG_FS_WKUP_IRQHandler                   0x08000183   Thumb Code     0  startup_stm32f10x_cl.o(.text)
    PVD_IRQHandler                           0x08000183   Thumb Code     0  startup_stm32f10x_cl.o(.text)
    RCC_IRQHandler                           0x08000183   Thumb Code     0  startup_stm32f10x_cl.o(.text)
    RTCAlarm_IRQHandler                      0x08000183   Thumb Code     0  startup_stm32f10x_cl.o(.text)
    RTC_IRQHandler                           0x08000183   Thumb Code     0  startup_stm32f10x_cl.o(.text)
    SPI1_IRQHandler                          0x08000183   Thumb Code     0  startup_stm32f10x_cl.o(.text)
    SPI2_IRQHandler                          0x08000183   Thumb Code     0  startup_stm32f10x_cl.o(.text)
    SPI3_IRQHandler                          0x08000183   Thumb Code     0  startup_stm32f10x_cl.o(.text)
    TAMPER_IRQHandler                        0x08000183   Thumb Code     0  startup_stm32f10x_cl.o(.text)
    TIM1_BRK_IRQHandler                      0x08000183   Thumb Code     0  startup_stm32f10x_cl.o(.text)
    TIM1_CC_IRQHandler                       0x08000183   Thumb Code     0  startup_stm32f10x_cl.o(.text)
    TIM1_TRG_COM_IRQHandler                  0x08000183   Thumb Code     0  startup_stm32f10x_cl.o(.text)
    TIM1_UP_IRQHandler                       0x08000183   Thumb Code     0  startup_stm32f10x_cl.o(.text)
    TIM2_IRQHandler                          0x08000183   Thumb Code     0  startup_stm32f10x_cl.o(.text)
    TIM3_IRQHandler                          0x08000183   Thumb Code     0  startup_stm32f10x_cl.o(.text)
    TIM4_IRQHandler                          0x08000183   Thumb Code     0  startup_stm32f10x_cl.o(.text)
    TIM5_IRQHandler                          0x08000183   Thumb Code     0  startup_stm32f10x_cl.o(.text)
    TIM6_IRQHandler                          0x08000183   Thumb Code     0  startup_stm32f10x_cl.o(.text)
    TIM7_IRQHandler                          0x08000183   Thumb Code     0  startup_stm32f10x_cl.o(.text)
    UART4_IRQHandler                         0x08000183   Thumb Code     0  startup_stm32f10x_cl.o(.text)
    UART5_IRQHandler                         0x08000183   Thumb Code     0  startup_stm32f10x_cl.o(.text)
    USART2_IRQHandler                        0x08000183   Thumb Code     0  startup_stm32f10x_cl.o(.text)
    USART3_IRQHandler                        0x08000183   Thumb Code     0  startup_stm32f10x_cl.o(.text)
    WWDG_IRQHandler                          0x08000183   Thumb Code     0  startup_stm32f10x_cl.o(.text)
    __rt_ctype_table                         0x0800018d   Thumb Code     4  ctype_o.o(.text)
    __aeabi_memcpy                           0x08000195   Thumb Code    36  memcpya.o(.text)
    __aeabi_memcpy4                          0x08000195   Thumb Code     0  memcpya.o(.text)
    __aeabi_memcpy8                          0x08000195   Thumb Code     0  memcpya.o(.text)
    __aeabi_memset                           0x080001b9   Thumb Code    14  memseta.o(.text)
    __aeabi_memset4                          0x080001b9   Thumb Code     0  memseta.o(.text)
    __aeabi_memset8                          0x080001b9   Thumb Code     0  memseta.o(.text)
    __aeabi_memclr                           0x080001c7   Thumb Code     4  memseta.o(.text)
    __aeabi_memclr4                          0x080001c7   Thumb Code     0  memseta.o(.text)
    __aeabi_memclr8                          0x080001c7   Thumb Code     0  memseta.o(.text)
    _memset$wrapper                          0x080001cb   Thumb Code    18  memseta.o(.text)
    strstr                                   0x080001dd   Thumb Code    36  strstr.o(.text)
    strlen                                   0x08000201   Thumb Code    14  strlen.o(.text)
    strcmp                                   0x0800020f   Thumb Code    28  strcmp.o(.text)
    strcpy                                   0x0800022b   Thumb Code    18  strcpy.o(.text)
    atoi                                     0x0800023d   Thumb Code    26  atoi.o(.text)
    __aeabi_dmul                             0x08000257   Thumb Code   228  dmul.o(.text)
    __aeabi_ddiv                             0x0800033b   Thumb Code   222  ddiv.o(.text)
    __aeabi_ui2d                             0x08000419   Thumb Code    26  dfltui.o(.text)
    __aeabi_d2uiz                            0x08000433   Thumb Code    50  dfixui.o(.text)
    __aeabi_uidiv                            0x08000465   Thumb Code     0  uidiv.o(.text)
    __aeabi_uidivmod                         0x08000465   Thumb Code    44  uidiv.o(.text)
    __aeabi_uldivmod                         0x08000491   Thumb Code    98  uldiv.o(.text)
    __aeabi_llsr                             0x080004f3   Thumb Code    32  llushr.o(.text)
    _ll_ushift_r                             0x080004f3   Thumb Code     0  llushr.o(.text)
    strtol                                   0x08000513   Thumb Code   112  strtol.o(.text)
    __I$use$fp                               0x08000583   Thumb Code     0  iusefp.o(.text)
    _double_round                            0x08000583   Thumb Code    30  depilogue.o(.text)
    _double_epilogue                         0x080005a1   Thumb Code   156  depilogue.o(.text)
    __aeabi_dadd                             0x0800063d   Thumb Code   322  dadd.o(.text)
    __aeabi_dsub                             0x0800077f   Thumb Code     6  dadd.o(.text)
    __aeabi_drsub                            0x08000785   Thumb Code     6  dadd.o(.text)
    __aeabi_d2ulz                            0x0800078b   Thumb Code    48  dfixul.o(.text)
    __aeabi_cdrcmple                         0x080007bd   Thumb Code    48  cdrcmple.o(.text)
    __scatterload                            0x080007ed   Thumb Code    28  init.o(.text)
    __scatterload_rt2                        0x080007ed   Thumb Code     0  init.o(.text)
    __aeabi_llsl                             0x08000811   Thumb Code    30  llshl.o(.text)
    _ll_shift_l                              0x08000811   Thumb Code     0  llshl.o(.text)
    __aeabi_lasr                             0x0800082f   Thumb Code    36  llsshr.o(.text)
    _ll_sshift_r                             0x0800082f   Thumb Code     0  llsshr.o(.text)
    _strtoul                                 0x08000853   Thumb Code   158  _strtoul.o(.text)
    _chval                                   0x080008f1   Thumb Code    28  _chval.o(.text)
    BoardInit                                0x0800090d   Thumb Code   130  board.o(i.BoardInit)
    BusFault_Handler                         0x08000995   Thumb Code     2  stm32f10x_it.o(i.BusFault_Handler)
    DebugMon_Handler                         0x08000997   Thumb Code     2  stm32f10x_it.o(i.DebugMon_Handler)
    GPIO_Init                                0x08000999   Thumb Code   162  stm32f10x_gpio.o(i.GPIO_Init)
    GPIO_PinRemapConfig                      0x08000a3d   Thumb Code    82  stm32f10x_gpio.o(i.GPIO_PinRemapConfig)
    GPIO_SetBits                             0x08000a95   Thumb Code     4  stm32f10x_gpio.o(i.GPIO_SetBits)
    HardFault_Handler                        0x08000a99   Thumb Code     2  stm32f10x_it.o(i.HardFault_Handler)
    MemManage_Handler                        0x08000a9b   Thumb Code     2  stm32f10x_it.o(i.MemManage_Handler)
    NMI_Handler                              0x08000a9d   Thumb Code     2  stm32f10x_it.o(i.NMI_Handler)
    NVIC_Init                                0x08000aa1   Thumb Code    94  misc.o(i.NVIC_Init)
    NVIC_PriorityGroupConfig                 0x08000b05   Thumb Code    10  misc.o(i.NVIC_PriorityGroupConfig)
    PendSV_Handler                           0x08000b39   Thumb Code     2  stm32f10x_it.o(i.PendSV_Handler)
    RCC_APB1PeriphClockCmd                   0x08000b3d   Thumb Code    18  stm32f10x_rcc.o(i.RCC_APB1PeriphClockCmd)
    RCC_APB2PeriphClockCmd                   0x08000b55   Thumb Code    18  stm32f10x_rcc.o(i.RCC_APB2PeriphClockCmd)
    RCC_GetClocksFreq                        0x08000b6d   Thumb Code   178  stm32f10x_rcc.o(i.RCC_GetClocksFreq)
    SPI_Cmd                                  0x08000c35   Thumb Code    20  stm32f10x_spi.o(i.SPI_Cmd)
    SPI_Init                                 0x08000c49   Thumb Code    56  stm32f10x_spi.o(i.SPI_Init)
    SVC_Handler                              0x08000c81   Thumb Code     2  stm32f10x_it.o(i.SVC_Handler)
    SysTick_Handler                          0x08000d55   Thumb Code     4  main.o(i.SysTick_Handler)
    SystemInit                               0x08000d59   Thumb Code    64  system_stm32f10x.o(i.SystemInit)
    UG_DrawLine                              0x08000da5   Thumb Code   236  ugui.o(i.UG_DrawLine)
    UG_FillFrame                             0x08000e95   Thumb Code   118  ugui.o(i.UG_FillFrame)
    UG_FontSelect                            0x08000f11   Thumb Code    14  ugui.o(i.UG_FontSelect)
    UG_GetUnicode                            0x08000f25   Thumb Code    34  ugui.o(i.UG_GetUnicode)
    UG_Init                                  0x08000f49   Thumb Code   102  ugui.o(i.UG_Init)
    UG_PutChar                               0x08000fb5   Thumb Code    20  ugui.o(i.UG_PutChar)
    UG_PutString                             0x08000fcd   Thumb Code   160  ugui.o(i.UG_PutString)
    UG_SelectGUI                             0x08001071   Thumb Code     8  ugui.o(i.UG_SelectGUI)
    UG_SetBackcolor                          0x0800107d   Thumb Code    10  ugui.o(i.UG_SetBackcolor)
    UG_SetForecolor                          0x0800108d   Thumb Code    10  ugui.o(i.UG_SetForecolor)
    UG_TouchUpdate                           0x0800109d   Thumb Code    12  ugui.o(i.UG_TouchUpdate)
    UG_Update                                0x080010ad   Thumb Code   172  ugui.o(i.UG_Update)
    USART1_IRQHandler                        0x0800115d   Thumb Code    54  main.o(i.USART1_IRQHandler)
    USART_ClearITPendingBit                  0x08001199   Thumb Code    12  stm32f10x_usart.o(i.USART_ClearITPendingBit)
    USART_Cmd                                0x080011a5   Thumb Code    20  stm32f10x_usart.o(i.USART_Cmd)
    USART_GetITStatus                        0x080011b9   Thumb Code    62  stm32f10x_usart.o(i.USART_GetITStatus)
    USART_ITConfig                           0x080011f7   Thumb Code    48  stm32f10x_usart.o(i.USART_ITConfig)
    USART_Init                               0x08001229   Thumb Code   166  stm32f10x_usart.o(i.USART_Init)
    USART_ReceiveData                        0x080012d5   Thumb Code     8  stm32f10x_usart.o(i.USART_ReceiveData)
    UsageFault_Handler                       0x080012dd   Thumb Code     2  stm32f10x_it.o(i.UsageFault_Handler)
    _UG_DrawObjectFrame                      0x0800179d   Thumb Code   268  ugui.o(i._UG_DrawObjectFrame)
    _UG_HandleEvents                         0x080018a9   Thumb Code    86  ugui.o(i._UG_HandleEvents)
    _UG_ProcessTouchData                     0x08001905   Thumb Code   186  ugui.o(i._UG_ProcessTouchData)
    _UG_PutChar                              0x080019c5   Thumb Code   718  ugui.o(i._UG_PutChar)
    _UG_PutText                              0x08001c99   Thumb Code   382  ugui.o(i._UG_PutText)
    _UG_UpdateObjects                        0x08001e1d   Thumb Code    80  ugui.o(i._UG_UpdateObjects)
    _UG_WindowDrawTitle                      0x08001e6d   Thumb Code   206  ugui.o(i._UG_WindowDrawTitle)
    _UG_WindowUpdate                         0x08001f41   Thumb Code   198  ugui.o(i._UG_WindowUpdate)
    __0sprintf                               0x08002245   Thumb Code    34  printfa.o(i.__0sprintf)
    __1sprintf                               0x08002245   Thumb Code     0  printfa.o(i.__0sprintf)
    __2sprintf                               0x08002245   Thumb Code     0  printfa.o(i.__0sprintf)
    __c89sprintf                             0x08002245   Thumb Code     0  printfa.o(i.__0sprintf)
    sprintf                                  0x08002245   Thumb Code     0  printfa.o(i.__0sprintf)
    __0vsnprintf                             0x0800226d   Thumb Code    46  printfa.o(i.__0vsnprintf)
    __1vsnprintf                             0x0800226d   Thumb Code     0  printfa.o(i.__0vsnprintf)
    __2vsnprintf                             0x0800226d   Thumb Code     0  printfa.o(i.__0vsnprintf)
    __c89vsnprintf                           0x0800226d   Thumb Code     0  printfa.o(i.__0vsnprintf)
    vsnprintf                                0x0800226d   Thumb Code     0  printfa.o(i.__0vsnprintf)
    __aeabi_errno_addr                       0x080022a1   Thumb Code     4  errno.o(i.__aeabi_errno_addr)
    __rt_errno_addr                          0x080022a1   Thumb Code     0  errno.o(i.__aeabi_errno_addr)
    __scatterload_copy                       0x080022a9   Thumb Code    14  handlers.o(i.__scatterload_copy)
    __scatterload_null                       0x080022b7   Thumb Code     2  handlers.o(i.__scatterload_null)
    __scatterload_zeroinit                   0x080022b9   Thumb Code    14  handlers.o(i.__scatterload_zeroinit)
    _shell_init                              0x08002f2d   Thumb Code    42  nr_micro_shell.o(i._shell_init)
    ansi_clear_current_line                  0x08002f89   Thumb Code    14  ansi.o(i.ansi_clear_current_line)
    ansi_get_char                            0x08002f99   Thumb Code   236  ansi.o(i.ansi_get_char)
    ansi_init                                0x08003089   Thumb Code    22  ansi.o(i.ansi_init)
    ansi_search_char                         0x0800309f   Thumb Code    32  ansi.o(i.ansi_search_char)
    ansi_show_char                           0x080030c1   Thumb Code    16  ansi_port.o(i.ansi_show_char)
    ansi_show_str                            0x080030d5   Thumb Code    24  ansi_port.o(i.ansi_show_str)
    bClose                                   0x080030ed   Thumb Code    44  b_core.o(i.bClose)
    bDeviceClose                             0x0800311d   Thumb Code    72  b_device.o(i.bDeviceClose)
    bDeviceInit                              0x080031a1   Thumb Code    46  b_device.o(i.bDeviceInit)
    bDeviceOpen                              0x080031e5   Thumb Code    72  b_device.o(i.bDeviceOpen)
    bDeviceRead                              0x08003269   Thumb Code    78  b_device.o(i.bDeviceRead)
    bDeviceWrite                             0x080032f5   Thumb Code    78  b_device.o(i.bDeviceWrite)
    bExec                                    0x08003381   Thumb Code    22  b_core.o(i.bExec)
    bGUI_Init                                0x080033a1   Thumb Code    60  b_mod_gui.o(i.bGUI_Init)
    bHalDelayMs                              0x080033ed   Thumb Code    14  b_hal.o(i.bHalDelayMs)
    bHalDelayUs                              0x08003401   Thumb Code    22  b_hal.o(i.bHalDelayUs)
    bHalGetSysTick                           0x0800341d   Thumb Code     6  b_hal.o(i.bHalGetSysTick)
    bHalIncSysTick                           0x08003429   Thumb Code    10  b_hal.o(i.bHalIncSysTick)
    bHalInit                                 0x08003439   Thumb Code     4  b_hal.o(i.bHalInit)
    bInit                                    0x0800343d   Thumb Code   232  b_core.o(i.bInit)
    bLogOut                                  0x08003745   Thumb Code   186  b_mod_log.o(i.bLogOut)
    bLogOutput                               0x0800380d   Thumb Code    24  b_mod_log.o(i.bLogOutput)
    bLseek                                   0x08003829   Thumb Code    28  b_core.o(i.bLseek)
    bOLED_Init                               0x08003849   Thumb Code   258  b_drv_oled.o(i.bOLED_Init)
    bOpen                                    0x08003959   Thumb Code    48  b_core.o(i.bOpen)
    bRead                                    0x08003989   Thumb Code    62  b_core.o(i.bRead)
    bShellInit                               0x080039cd   Thumb Code    18  b_mod_shell.o(i.bShellInit)
    bShellParse                              0x080039e9   Thumb Code    62  b_mod_shell.o(i.bShellParse)
    bUtilI2C_ACK                             0x08003a31   Thumb Code   130  b_util_i2c.o(i.bUtilI2C_ACK)
    bUtilI2C_ReadBuff                        0x08003ab9   Thumb Code   138  b_util_i2c.o(i.bUtilI2C_ReadBuff)
    bUtilI2C_ReadByte                        0x08003b45   Thumb Code   132  b_util_i2c.o(i.bUtilI2C_ReadByte)
    bUtilI2C_Start                           0x08003bcd   Thumb Code    78  b_util_i2c.o(i.bUtilI2C_Start)
    bUtilI2C_Stop                            0x08003c21   Thumb Code    88  b_util_i2c.o(i.bUtilI2C_Stop)
    bUtilI2C_WriteBuff                       0x08003c7d   Thumb Code   106  b_util_i2c.o(i.bUtilI2C_WriteBuff)
    bUtilI2C_WriteByte                       0x08003ce9   Thumb Code   104  b_util_i2c.o(i.bUtilI2C_WriteByte)
    bUtilI2C_mACK                            0x08003d55   Thumb Code    60  b_util_i2c.o(i.bUtilI2C_mACK)
    bWrite                                   0x08003d95   Thumb Code    60  b_core.o(i.bWrite)
    main                                     0x08003dd5   Thumb Code    86  main.o(i.main)
    nr_ansi_ctrl_common_slover               0x08003e31   Thumb Code    30  ansi_port.o(i.nr_ansi_ctrl_common_slover)
    nr_ansi_in_backspace                     0x08003e51   Thumb Code    60  ansi_port.o(i.nr_ansi_in_backspace)
    nr_ansi_in_down                          0x08003e9d   Thumb Code   108  ansi_port.o(i.nr_ansi_in_down)
    nr_ansi_in_enter                         0x08003f21   Thumb Code    38  ansi_port.o(i.nr_ansi_in_enter)
    nr_ansi_in_left                          0x08003f4d   Thumb Code    32  ansi_port.o(i.nr_ansi_in_left)
    nr_ansi_in_newline                       0x08003f7d   Thumb Code     6  ansi_port.o(i.nr_ansi_in_newline)
    nr_ansi_in_right                         0x08003f85   Thumb Code    36  ansi_port.o(i.nr_ansi_in_right)
    nr_ansi_in_tab                           0x08003fb9   Thumb Code   174  ansi_port.o(i.nr_ansi_in_tab)
    nr_ansi_in_up                            0x0800408d   Thumb Code   110  ansi_port.o(i.nr_ansi_in_up)
    shell_cmd_complete                       0x080041a1   Thumb Code    54  nr_micro_shell.o(i.shell_cmd_complete)
    shell_his_copy_queue_item                0x080041e1   Thumb Code   124  nr_micro_shell.o(i.shell_his_copy_queue_item)
    shell_his_queue_add_cmd                  0x0800425d   Thumb Code   170  nr_micro_shell.o(i.shell_his_queue_add_cmd)
    shell_his_queue_init                     0x08004307   Thumb Code    16  nr_micro_shell.o(i.shell_his_queue_init)
    shell_his_queue_search_cmd               0x08004319   Thumb Code   134  nr_micro_shell.o(i.shell_his_queue_search_cmd)
    shell_parser                             0x080043a1   Thumb Code   234  nr_micro_shell.o(i.shell_parser)
    shell_search_cmd                         0x080044cd   Thumb Code    38  nr_micro_shell.o(i.shell_search_cmd)
    bHalGPIODriver                           0x080045a4   Data          20  mcu_stm32f10x_gpio.o(.constdata)
    bHalI2CDriver                            0x080045b8   Data          16  mcu_stm32f10x_i2c.o(.constdata)
    bHalUartDriver                           0x080045c8   Data           8  mcu_stm32f10x_uart.o(.constdata)
    nr_ansi_in_special_symbol                0x080045d0   Data           5  ansi.o(.constdata)
    nr_ansi_in_cmd                           0x080045d5   Data          20  ansi.o(.constdata)
    nr_ansi_in_cmd_fun                       0x080045ec   Data          76  ansi.o(.constdata)
    nr_ansi_in_special_symbol_fun            0x08004638   Data          16  ansi.o(.constdata)
    font_6x8                                 0x080046c4   Data        2048  ugui.o(.constdata)
    FONT_6X8                                 0x08004ec4   Data          20  ugui.o(.constdata)
    pal_window                               0x08004ed8   Data          24  ugui.o(.constdata)
    pal_button_pressed                       0x08004ef0   Data          24  ugui.o(.constdata)
    pal_button_released                      0x08004f08   Data          24  ugui.o(.constdata)
    pal_checkbox_pressed                     0x08004f20   Data          24  ugui.o(.constdata)
    pal_checkbox_released                    0x08004f38   Data          24  ugui.o(.constdata)
    __ctype_table                            0x08004f50   Data         129  ctype_o.o(.constdata)
    Region$$Table$$Base                      0x08005080   Number         0  anon$$obj.o(Region$$Table)
    Region$$Table$$Limit                     0x080050a0   Number         0  anon$$obj.o(Region$$Table)
    b_mod_shell$$Base                        0x080050a0   Number         0  main.o(b_mod_shell)
    do__CmdShowHandler                       0x080050a0   Data           8  main.o(b_mod_shell)
    do__CmdBosHandler                        0x080050a8   Data           8  b_mod_shell.o(b_mod_shell)
    b_mod_shell$$Limit                       0x080050b0   Number         0  b_mod_shell.o(b_mod_shell)
    bos_polling$$Base                        0x080050b0   Number         0  b_core.o(bos_polling)
    polling_bCoreMonitor                     0x080050b0   Data           4  b_core.o(bos_polling)
    polling_bGUI_Core                        0x080050b4   Data           4  b_mod_gui.o(bos_polling)
    polling_bUtilUartDetectIdle              0x080050b8   Data           4  b_util_uart.o(bos_polling)
    bos_polling$$Limit                       0x080050bc   Number         0  b_util_uart.o(bos_polling)
    driver_init$$Base                        0x080050bc   Number         0  b_device.o(driver_init)
    init_bDriverNullInit                     0x080050bc   Data           4  b_device.o(driver_init)
    initbOLED_Init                           0x080050c0   Data           4  b_drv_oled.o(driver_init)
    driver_init$$Limit                       0x080050c4   Number         0  b_drv_oled.o(driver_init)
    driver_init_0$$Base                      0x080050c4   Number         0  b_device.o(driver_init_0)
    init0_bDriverNullInit                    0x080050c4   Data           4  b_device.o(driver_init_0)
    driver_init_0$$Limit                     0x080050c8   Number         0  b_device.o(driver_init_0)
    SystemCoreClock                          0x20000014   Data           4  system_stm32f10x.o(.data)
    AHBPrescTable                            0x20000018   Data          16  system_stm32f10x.o(.data)
    nr_shell                                 0x20000064   Data         148  nr_micro_shell.o(.data)
    bOLED_Driver                             0x2000057c   Data          32  b_drv_oled.o(.bss)
    nr_ansi                                  0x20000720   Data         132  ansi.o(.bss)
    __initial_sp                             0x20000fa8   Data           0  startup_stm32f10x_cl.o(STACK)



==============================================================================

Memory Map of the image

  Image Entry point : 0x08000151

  Load Region LR_IROM1 (Base: 0x08000000, Size: 0x000051d4, Max: 0x00040000, ABSOLUTE)

    Execution Region ER_IROM1 (Exec base: 0x08000000, Load base: 0x08000000, Size: 0x000050c8, Max: 0x00040000, ABSOLUTE)

    Exec Addr    Load Addr    Size         Type   Attr      Idx    E Section Name        Object

    0x08000000   0x08000000   0x00000150   Data   RO         3386    RESET               startup_stm32f10x_cl.o
    0x08000150   0x08000150   0x00000000   Code   RO         5500  * .ARM.Collect$$$$00000000  mc_w.l(entry.o)
    0x08000150   0x08000150   0x00000004   Code   RO         5816    .ARM.Collect$$$$00000001  mc_w.l(entry2.o)
    0x08000154   0x08000154   0x00000004   Code   RO         5819    .ARM.Collect$$$$00000004  mc_w.l(entry5.o)
    0x08000158   0x08000158   0x00000000   Code   RO         5821    .ARM.Collect$$$$00000008  mc_w.l(entry7b.o)
    0x08000158   0x08000158   0x00000000   Code   RO         5823    .ARM.Collect$$$$0000000A  mc_w.l(entry8b.o)
    0x08000158   0x08000158   0x00000008   Code   RO         5824    .ARM.Collect$$$$0000000B  mc_w.l(entry9a.o)
    0x08000160   0x08000160   0x00000004   Code   RO         5831    .ARM.Collect$$$$0000000E  mc_w.l(entry12b.o)
    0x08000164   0x08000164   0x00000000   Code   RO         5826    .ARM.Collect$$$$0000000F  mc_w.l(entry10a.o)
    0x08000164   0x08000164   0x00000000   Code   RO         5828    .ARM.Collect$$$$00000011  mc_w.l(entry11a.o)
    0x08000164   0x08000164   0x00000004   Code   RO         5817    .ARM.Collect$$$$00002712  mc_w.l(entry2.o)
    0x08000168   0x08000168   0x00000024   Code   RO         3387    .text               startup_stm32f10x_cl.o
    0x0800018c   0x0800018c   0x00000008   Code   RO         5503    .text               mc_w.l(ctype_o.o)
    0x08000194   0x08000194   0x00000024   Code   RO         5531    .text               mc_w.l(memcpya.o)
    0x080001b8   0x080001b8   0x00000024   Code   RO         5533    .text               mc_w.l(memseta.o)
    0x080001dc   0x080001dc   0x00000024   Code   RO         5535    .text               mc_w.l(strstr.o)
    0x08000200   0x08000200   0x0000000e   Code   RO         5537    .text               mc_w.l(strlen.o)
    0x0800020e   0x0800020e   0x0000001c   Code   RO         5539    .text               mc_w.l(strcmp.o)
    0x0800022a   0x0800022a   0x00000012   Code   RO         5541    .text               mc_w.l(strcpy.o)
    0x0800023c   0x0800023c   0x0000001a   Code   RO         5806    .text               mc_w.l(atoi.o)
    0x08000256   0x08000256   0x000000e4   Code   RO         5808    .text               mf_w.l(dmul.o)
    0x0800033a   0x0800033a   0x000000de   Code   RO         5810    .text               mf_w.l(ddiv.o)
    0x08000418   0x08000418   0x0000001a   Code   RO         5812    .text               mf_w.l(dfltui.o)
    0x08000432   0x08000432   0x00000032   Code   RO         5814    .text               mf_w.l(dfixui.o)
    0x08000464   0x08000464   0x0000002c   Code   RO         5833    .text               mc_w.l(uidiv.o)
    0x08000490   0x08000490   0x00000062   Code   RO         5835    .text               mc_w.l(uldiv.o)
    0x080004f2   0x080004f2   0x00000020   Code   RO         5837    .text               mc_w.l(llushr.o)
    0x08000512   0x08000512   0x00000070   Code   RO         5846    .text               mc_w.l(strtol.o)
    0x08000582   0x08000582   0x00000000   Code   RO         5848    .text               mc_w.l(iusefp.o)
    0x08000582   0x08000582   0x000000ba   Code   RO         5849    .text               mf_w.l(depilogue.o)
    0x0800063c   0x0800063c   0x0000014e   Code   RO         5851    .text               mf_w.l(dadd.o)
    0x0800078a   0x0800078a   0x00000030   Code   RO         5853    .text               mf_w.l(dfixul.o)
    0x080007ba   0x080007ba   0x00000002   PAD
    0x080007bc   0x080007bc   0x00000030   Code   RO         5855    .text               mf_w.l(cdrcmple.o)
    0x080007ec   0x080007ec   0x00000024   Code   RO         5857    .text               mc_w.l(init.o)
    0x08000810   0x08000810   0x0000001e   Code   RO         5859    .text               mc_w.l(llshl.o)
    0x0800082e   0x0800082e   0x00000024   Code   RO         5861    .text               mc_w.l(llsshr.o)
    0x08000852   0x08000852   0x0000009e   Code   RO         5863    .text               mc_w.l(_strtoul.o)
    0x080008f0   0x080008f0   0x0000001c   Code   RO         5865    .text               mc_w.l(_chval.o)
    0x0800090c   0x0800090c   0x00000088   Code   RO         5475    i.BoardInit         board.o
    0x08000994   0x08000994   0x00000002   Code   RO          243    i.BusFault_Handler  stm32f10x_it.o
    0x08000996   0x08000996   0x00000002   Code   RO          244    i.DebugMon_Handler  stm32f10x_it.o
    0x08000998   0x08000998   0x000000a2   Code   RO         1475    i.GPIO_Init         stm32f10x_gpio.o
    0x08000a3a   0x08000a3a   0x00000002   PAD
    0x08000a3c   0x08000a3c   0x00000058   Code   RO         1477    i.GPIO_PinRemapConfig  stm32f10x_gpio.o
    0x08000a94   0x08000a94   0x00000004   Code   RO         1483    i.GPIO_SetBits      stm32f10x_gpio.o
    0x08000a98   0x08000a98   0x00000002   Code   RO          245    i.HardFault_Handler  stm32f10x_it.o
    0x08000a9a   0x08000a9a   0x00000002   Code   RO          246    i.MemManage_Handler  stm32f10x_it.o
    0x08000a9c   0x08000a9c   0x00000002   Code   RO          247    i.NMI_Handler       stm32f10x_it.o
    0x08000a9e   0x08000a9e   0x00000002   PAD
    0x08000aa0   0x08000aa0   0x00000064   Code   RO          341    i.NVIC_Init         misc.o
    0x08000b04   0x08000b04   0x00000014   Code   RO          342    i.NVIC_PriorityGroupConfig  misc.o
    0x08000b18   0x08000b18   0x00000020   Code   RO            1    i.NVIC_SetPriority  main.o
    0x08000b38   0x08000b38   0x00000002   Code   RO          248    i.PendSV_Handler    stm32f10x_it.o
    0x08000b3a   0x08000b3a   0x00000002   PAD
    0x08000b3c   0x08000b3c   0x00000018   Code   RO         1895    i.RCC_APB1PeriphClockCmd  stm32f10x_rcc.o
    0x08000b54   0x08000b54   0x00000018   Code   RO         1897    i.RCC_APB2PeriphClockCmd  stm32f10x_rcc.o
    0x08000b6c   0x08000b6c   0x000000c8   Code   RO         1905    i.RCC_GetClocksFreq  stm32f10x_rcc.o
    0x08000c34   0x08000c34   0x00000014   Code   RO         2432    i.SPI_Cmd           stm32f10x_spi.o
    0x08000c48   0x08000c48   0x00000038   Code   RO         2445    i.SPI_Init          stm32f10x_spi.o
    0x08000c80   0x08000c80   0x00000002   Code   RO          249    i.SVC_Handler       stm32f10x_it.o
    0x08000c82   0x08000c82   0x00000002   PAD
    0x08000c84   0x08000c84   0x000000d0   Code   RO         3355    i.SetSysClockTo72   system_stm32f10x.o
    0x08000d54   0x08000d54   0x00000004   Code   RO            2    i.SysTick_Handler   main.o
    0x08000d58   0x08000d58   0x0000004c   Code   RO         3357    i.SystemInit        system_stm32f10x.o
    0x08000da4   0x08000da4   0x000000f0   Code   RO         4490    i.UG_DrawLine       ugui.o
    0x08000e94   0x08000e94   0x0000007c   Code   RO         4498    i.UG_FillFrame      ugui.o
    0x08000f10   0x08000f10   0x00000014   Code   RO         4501    i.UG_FontSelect     ugui.o
    0x08000f24   0x08000f24   0x00000022   Code   RO         4504    i.UG_GetUnicode     ugui.o
    0x08000f46   0x08000f46   0x00000002   PAD
    0x08000f48   0x08000f48   0x0000006c   Code   RO         4512    i.UG_Init           ugui.o
    0x08000fb4   0x08000fb4   0x00000018   Code   RO         4513    i.UG_PutChar        ugui.o
    0x08000fcc   0x08000fcc   0x000000a4   Code   RO         4515    i.UG_PutString      ugui.o
    0x08001070   0x08001070   0x0000000c   Code   RO         4516    i.UG_SelectGUI      ugui.o
    0x0800107c   0x0800107c   0x00000010   Code   RO         4517    i.UG_SetBackcolor   ugui.o
    0x0800108c   0x0800108c   0x00000010   Code   RO         4518    i.UG_SetForecolor   ugui.o
    0x0800109c   0x0800109c   0x00000010   Code   RO         4537    i.UG_TouchUpdate    ugui.o
    0x080010ac   0x080010ac   0x000000b0   Code   RO         4538    i.UG_Update         ugui.o
    0x0800115c   0x0800115c   0x0000003c   Code   RO            3    i.USART1_IRQHandler  main.o
    0x08001198   0x08001198   0x0000000c   Code   RO         3108    i.USART_ClearITPendingBit  stm32f10x_usart.o
    0x080011a4   0x080011a4   0x00000014   Code   RO         3111    i.USART_Cmd         stm32f10x_usart.o
    0x080011b8   0x080011b8   0x0000003e   Code   RO         3115    i.USART_GetITStatus  stm32f10x_usart.o
    0x080011f6   0x080011f6   0x00000030   Code   RO         3117    i.USART_ITConfig    stm32f10x_usart.o
    0x08001226   0x08001226   0x00000002   PAD
    0x08001228   0x08001228   0x000000ac   Code   RO         3118    i.USART_Init        stm32f10x_usart.o
    0x080012d4   0x080012d4   0x00000008   Code   RO         3125    i.USART_ReceiveData  stm32f10x_usart.o
    0x080012dc   0x080012dc   0x00000002   Code   RO          250    i.UsageFault_Handler  stm32f10x_it.o
    0x080012de   0x080012de   0x00000002   PAD
    0x080012e0   0x080012e0   0x0000007c   Code   RO         3791    i._CmdBosHandler    b_mod_shell.o
    0x0800135c   0x0800135c   0x0000002c   Code   RO            4    i._CmdShowHandler   main.o
    0x08001388   0x08001388   0x0000007c   Code   RO         4012    i._GpioConfig       mcu_stm32f10x_gpio.o
    0x08001404   0x08001404   0x000001e4   Code   RO         5476    i._GpioInit         board.o
    0x080015e8   0x080015e8   0x00000018   Code   RO         4013    i._GpioRead         mcu_stm32f10x_gpio.o
    0x08001600   0x08001600   0x00000028   Code   RO         4014    i._GpioReadPin      mcu_stm32f10x_gpio.o
    0x08001628   0x08001628   0x00000014   Code   RO         4015    i._GpioWrite        mcu_stm32f10x_gpio.o
    0x0800163c   0x0800163c   0x00000024   Code   RO         4016    i._GpioWritePin     mcu_stm32f10x_gpio.o
    0x08001660   0x08001660   0x00000036   Code   RO         4049    i._I2CMemRead       mcu_stm32f10x_i2c.o
    0x08001696   0x08001696   0x00000036   Code   RO         4050    i._I2CMemWrite      mcu_stm32f10x_i2c.o
    0x080016cc   0x080016cc   0x00000002   Code   RO         4051    i._I2CReadByte      mcu_stm32f10x_i2c.o
    0x080016ce   0x080016ce   0x00000002   Code   RO         4052    i._I2CSendByte      mcu_stm32f10x_i2c.o
    0x080016d0   0x080016d0   0x0000003c   Code   RO         3634    i._LCD_SetColorPixel  b_mod_gui.o
    0x0800170c   0x0800170c   0x00000090   Code   RO         5477    i._SpiInit          board.o
    0x0800179c   0x0800179c   0x0000010c   Code   RO         4588    i._UG_DrawObjectFrame  ugui.o
    0x080018a8   0x080018a8   0x0000005c   Code   RO         4590    i._UG_HandleEvents  ugui.o
    0x08001904   0x08001904   0x000000c0   Code   RO         4592    i._UG_ProcessTouchData  ugui.o
    0x080019c4   0x080019c4   0x000002d4   Code   RO         4593    i._UG_PutChar       ugui.o
    0x08001c98   0x08001c98   0x00000184   Code   RO         4594    i._UG_PutText       ugui.o
    0x08001e1c   0x08001e1c   0x00000050   Code   RO         4599    i._UG_UpdateObjects  ugui.o
    0x08001e6c   0x08001e6c   0x000000d4   Code   RO         4601    i._UG_WindowDrawTitle  ugui.o
    0x08001f40   0x08001f40   0x000000d0   Code   RO         4602    i._UG_WindowUpdate  ugui.o
    0x08002010   0x08002010   0x00000048   Code   RO         4154    i._UartReceive      mcu_stm32f10x_uart.o
    0x08002058   0x08002058   0x00000048   Code   RO         4155    i._UartSend         mcu_stm32f10x_uart.o
    0x080020a0   0x080020a0   0x00000158   Code   RO         4603    i._Utf82Unicode     ugui.o
    0x080021f8   0x080021f8   0x0000004c   Code   RO         4604    i._Utf82UnicodeSize  ugui.o
    0x08002244   0x08002244   0x00000028   Code   RO         5780    i.__0sprintf        mc_w.l(printfa.o)
    0x0800226c   0x0800226c   0x00000034   Code   RO         5783    i.__0vsnprintf      mc_w.l(printfa.o)
    0x080022a0   0x080022a0   0x00000008   Code   RO         5839    i.__aeabi_errno_addr  mc_w.l(errno.o)
    0x080022a8   0x080022a8   0x0000000e   Code   RO         5869    i.__scatterload_copy  mc_w.l(handlers.o)
    0x080022b6   0x080022b6   0x00000002   Code   RO         5870    i.__scatterload_null  mc_w.l(handlers.o)
    0x080022b8   0x080022b8   0x0000000e   Code   RO         5871    i.__scatterload_zeroinit  mc_w.l(handlers.o)
    0x080022c6   0x080022c6   0x00000002   PAD
    0x080022c8   0x080022c8   0x00000074   Code   RO         3391    i._bCoreCreateFd    b_core.o
    0x0800233c   0x0800233c   0x00000024   Code   RO         3392    i._bCoreDeleteFd    b_core.o
    0x08002360   0x08002360   0x00000002   Code   RO         3393    i._bCoreMonitor     b_core.o
    0x08002362   0x08002362   0x00000002   PAD
    0x08002364   0x08002364   0x00000078   Code   RO         3473    i._bDriverNullInit  b_device.o
    0x080023dc   0x080023dc   0x00000028   Code   RO         3635    i._bGUI_Core        b_mod_gui.o
    0x08002404   0x08002404   0x00000088   Code   RO         3636    i._bGUI_TouchExec   b_mod_gui.o
    0x0800248c   0x0800248c   0x0000005c   Code   RO         4177    i._bHalUpdateDelayParam  b_hal.o
    0x080024e8   0x080024e8   0x00000074   Code   RO         3538    i._bOLEDWrite       b_drv_oled.o
    0x0800255c   0x0800255c   0x00000078   Code   RO         3539    i._bOLED_WriteCmd   b_drv_oled.o
    0x080025d4   0x080025d4   0x00000078   Code   RO         3540    i._bOLED_WriteData  b_drv_oled.o
    0x0800264c   0x0800264c   0x00000054   Code   RO         3946    i._bUtilUartDetectIdle  b_util_uart.o
    0x080026a0   0x080026a0   0x00000184   Code   RO         5785    i._fp_digits        mc_w.l(printfa.o)
    0x08002824   0x08002824   0x000006b4   Code   RO         5786    i._printf_core      mc_w.l(printfa.o)
    0x08002ed8   0x08002ed8   0x00000024   Code   RO         5787    i._printf_post_padding  mc_w.l(printfa.o)
    0x08002efc   0x08002efc   0x0000002e   Code   RO         5788    i._printf_pre_padding  mc_w.l(printfa.o)
    0x08002f2a   0x08002f2a   0x00000002   PAD
    0x08002f2c   0x08002f2c   0x0000003c   Code   RO         4353    i._shell_init       nr_micro_shell.o
    0x08002f68   0x08002f68   0x00000016   Code   RO         5789    i._snputc           mc_w.l(printfa.o)
    0x08002f7e   0x08002f7e   0x0000000a   Code   RO         5790    i._sputc            mc_w.l(printfa.o)
    0x08002f88   0x08002f88   0x0000000e   Code   RO         4226    i.ansi_clear_current_line  ansi.o
    0x08002f96   0x08002f96   0x00000002   PAD
    0x08002f98   0x08002f98   0x000000f0   Code   RO         4227    i.ansi_get_char     ansi.o
    0x08003088   0x08003088   0x00000016   Code   RO         4228    i.ansi_init         ansi.o
    0x0800309e   0x0800309e   0x00000020   Code   RO         4229    i.ansi_search_char  ansi.o
    0x080030be   0x080030be   0x00000002   PAD
    0x080030c0   0x080030c0   0x00000014   Code   RO         4269    i.ansi_show_char    ansi_port.o
    0x080030d4   0x080030d4   0x00000018   Code   RO         4270    i.ansi_show_str     ansi_port.o
    0x080030ec   0x080030ec   0x00000030   Code   RO         3394    i.bClose            b_core.o
    0x0800311c   0x0800311c   0x00000084   Code   RO         3474    i.bDeviceClose      b_device.o
    0x080031a0   0x080031a0   0x00000044   Code   RO         3477    i.bDeviceInit       b_device.o
    0x080031e4   0x080031e4   0x00000084   Code   RO         3478    i.bDeviceOpen       b_device.o
    0x08003268   0x08003268   0x0000008c   Code   RO         3479    i.bDeviceRead       b_device.o
    0x080032f4   0x080032f4   0x0000008c   Code   RO         3480    i.bDeviceWrite      b_device.o
    0x08003380   0x08003380   0x00000020   Code   RO         3397    i.bExec             b_core.o
    0x080033a0   0x080033a0   0x0000004c   Code   RO         3637    i.bGUI_Init         b_mod_gui.o
    0x080033ec   0x080033ec   0x00000014   Code   RO         4178    i.bHalDelayMs       b_hal.o
    0x08003400   0x08003400   0x0000001c   Code   RO         4179    i.bHalDelayUs       b_hal.o
    0x0800341c   0x0800341c   0x0000000c   Code   RO         4180    i.bHalGetSysTick    b_hal.o
    0x08003428   0x08003428   0x00000010   Code   RO         4181    i.bHalIncSysTick    b_hal.o
    0x08003438   0x08003438   0x00000004   Code   RO         4182    i.bHalInit          b_hal.o
    0x0800343c   0x0800343c   0x00000308   Code   RO         3398    i.bInit             b_core.o
    0x08003744   0x08003744   0x000000c8   Code   RO         3697    i.bLogOut           b_mod_log.o
    0x0800380c   0x0800380c   0x0000001c   Code   RO         3698    i.bLogOutput        b_mod_log.o
    0x08003828   0x08003828   0x00000020   Code   RO         3399    i.bLseek            b_core.o
    0x08003848   0x08003848   0x00000110   Code   RO         3541    i.bOLED_Init        b_drv_oled.o
    0x08003958   0x08003958   0x00000030   Code   RO         3400    i.bOpen             b_core.o
    0x08003988   0x08003988   0x00000044   Code   RO         3401    i.bRead             b_core.o
    0x080039cc   0x080039cc   0x0000001c   Code   RO         3792    i.bShellInit        b_mod_shell.o
    0x080039e8   0x080039e8   0x00000048   Code   RO         3793    i.bShellParse       b_mod_shell.o
    0x08003a30   0x08003a30   0x00000088   Code   RO         3862    i.bUtilI2C_ACK      b_util_i2c.o
    0x08003ab8   0x08003ab8   0x0000008a   Code   RO         3863    i.bUtilI2C_ReadBuff  b_util_i2c.o
    0x08003b42   0x08003b42   0x00000002   PAD
    0x08003b44   0x08003b44   0x00000088   Code   RO         3864    i.bUtilI2C_ReadByte  b_util_i2c.o
    0x08003bcc   0x08003bcc   0x00000054   Code   RO         3866    i.bUtilI2C_Start    b_util_i2c.o
    0x08003c20   0x08003c20   0x0000005c   Code   RO         3867    i.bUtilI2C_Stop     b_util_i2c.o
    0x08003c7c   0x08003c7c   0x0000006a   Code   RO         3868    i.bUtilI2C_WriteBuff  b_util_i2c.o
    0x08003ce6   0x08003ce6   0x00000002   PAD
    0x08003ce8   0x08003ce8   0x0000006c   Code   RO         3869    i.bUtilI2C_WriteByte  b_util_i2c.o
    0x08003d54   0x08003d54   0x00000040   Code   RO         3871    i.bUtilI2C_mACK     b_util_i2c.o
    0x08003d94   0x08003d94   0x00000040   Code   RO         3402    i.bWrite            b_core.o
    0x08003dd4   0x08003dd4   0x0000005c   Code   RO            5    i.main              main.o
    0x08003e30   0x08003e30   0x0000001e   Code   RO         4271    i.nr_ansi_ctrl_common_slover  ansi_port.o
    0x08003e4e   0x08003e4e   0x00000002   PAD
    0x08003e50   0x08003e50   0x0000004c   Code   RO         4272    i.nr_ansi_in_backspace  ansi_port.o
    0x08003e9c   0x08003e9c   0x00000084   Code   RO         4273    i.nr_ansi_in_down   ansi_port.o
    0x08003f20   0x08003f20   0x0000002c   Code   RO         4274    i.nr_ansi_in_enter  ansi_port.o
    0x08003f4c   0x08003f4c   0x00000030   Code   RO         4275    i.nr_ansi_in_left   ansi_port.o
    0x08003f7c   0x08003f7c   0x00000006   Code   RO         4276    i.nr_ansi_in_newline  ansi_port.o
    0x08003f82   0x08003f82   0x00000002   PAD
    0x08003f84   0x08003f84   0x00000034   Code   RO         4277    i.nr_ansi_in_right  ansi_port.o
    0x08003fb8   0x08003fb8   0x000000d4   Code   RO         4278    i.nr_ansi_in_tab    ansi_port.o
    0x0800408c   0x0800408c   0x00000088   Code   RO         4279    i.nr_ansi_in_up     ansi_port.o
    0x08004114   0x08004114   0x0000008c   Code   RO         4354    i.nr_shell_strtok   nr_micro_shell.o
    0x080041a0   0x080041a0   0x00000040   Code   RO         4355    i.shell_cmd_complete  nr_micro_shell.o
    0x080041e0   0x080041e0   0x0000007c   Code   RO         4356    i.shell_his_copy_queue_item  nr_micro_shell.o
    0x0800425c   0x0800425c   0x000000aa   Code   RO         4357    i.shell_his_queue_add_cmd  nr_micro_shell.o
    0x08004306   0x08004306   0x00000010   Code   RO         4358    i.shell_his_queue_init  nr_micro_shell.o
    0x08004316   0x08004316   0x00000002   PAD
    0x08004318   0x08004318   0x00000086   Code   RO         4359    i.shell_his_queue_search_cmd  nr_micro_shell.o
    0x0800439e   0x0800439e   0x00000002   PAD
    0x080043a0   0x080043a0   0x0000012c   Code   RO         4360    i.shell_parser      nr_micro_shell.o
    0x080044cc   0x080044cc   0x00000030   Code   RO         4361    i.shell_search_cmd  nr_micro_shell.o
    0x080044fc   0x080044fc   0x00000006   Data   RO         3404    .constdata          b_core.o
    0x08004502   0x08004502   0x0000005e   Data   RO         3482    .constdata          b_device.o
    0x08004560   0x08004560   0x0000002d   Data   RO         3543    .constdata          b_drv_oled.o
    0x0800458d   0x0800458d   0x00000006   Data   RO         3700    .constdata          b_mod_log.o
    0x08004593   0x08004593   0x0000000f   Data   RO         3794    .constdata          b_mod_shell.o
    0x080045a2   0x080045a2   0x00000002   PAD
    0x080045a4   0x080045a4   0x00000014   Data   RO         4017    .constdata          mcu_stm32f10x_gpio.o
    0x080045b8   0x080045b8   0x00000010   Data   RO         4053    .constdata          mcu_stm32f10x_i2c.o
    0x080045c8   0x080045c8   0x00000008   Data   RO         4156    .constdata          mcu_stm32f10x_uart.o
    0x080045d0   0x080045d0   0x00000078   Data   RO         4231    .constdata          ansi.o
    0x08004648   0x08004648   0x00000063   Data   RO         4280    .constdata          ansi_port.o
    0x080046ab   0x080046ab   0x00000019   Data   RO         4362    .constdata          nr_micro_shell.o
    0x080046c4   0x080046c4   0x00000800   Data   RO         4605    .constdata          ugui.o
    0x08004ec4   0x08004ec4   0x00000014   Data   RO         4606    .constdata          ugui.o
    0x08004ed8   0x08004ed8   0x00000078   Data   RO         4607    .constdata          ugui.o
    0x08004f50   0x08004f50   0x00000081   Data   RO         5504    .constdata          mc_w.l(ctype_o.o)
    0x08004fd1   0x08004fd1   0x00000003   PAD
    0x08004fd4   0x08004fd4   0x00000004   Data   RO         5505    .constdata          mc_w.l(ctype_o.o)
    0x08004fd8   0x08004fd8   0x0000000d   Data   RO         3483    .conststring        b_device.o
    0x08004fe5   0x08004fe5   0x00000003   PAD
    0x08004fe8   0x08004fe8   0x00000041   Data   RO         4281    .conststring        ansi_port.o
    0x08005029   0x08005029   0x00000003   PAD
    0x0800502c   0x0800502c   0x00000046   Data   RO         4363    .conststring        nr_micro_shell.o
    0x08005072   0x08005072   0x00000002   PAD
    0x08005074   0x08005074   0x00000005   Data   RO            6    .conststrlit        main.o
    0x08005079   0x08005079   0x00000003   PAD
    0x0800507c   0x0800507c   0x00000004   Data   RO         3795    .conststrlit        b_mod_shell.o
    0x08005080   0x08005080   0x00000020   Data   RO         5867    Region$$Table       anon$$obj.o
    0x080050a0   0x080050a0   0x00000008   Data   RO            7    b_mod_shell         main.o
    0x080050a8   0x080050a8   0x00000008   Data   RO         3796    b_mod_shell         b_mod_shell.o
    0x080050b0   0x080050b0   0x00000004   Data   RO         3406    bos_polling         b_core.o
    0x080050b4   0x080050b4   0x00000004   Data   RO         3640    bos_polling         b_mod_gui.o
    0x080050b8   0x080050b8   0x00000004   Data   RO         3949    bos_polling         b_util_uart.o
    0x080050bc   0x080050bc   0x00000004   Data   RO         3485    driver_init         b_device.o
    0x080050c0   0x080050c0   0x00000004   Data   RO         3544    driver_init         b_drv_oled.o
    0x080050c4   0x080050c4   0x00000004   Data   RO         3486    driver_init_0       b_device.o


    Execution Region RW_IRAM1 (Exec base: 0x20000000, Load base: 0x080050c8, Size: 0x00000fa8, Max: 0x00010000, ABSOLUTE)

    Exec Addr    Load Addr    Size         Type   Attr      Idx    E Section Name        Object

    0x20000000   0x080050c8   0x00000014   Data   RW         1933    .data               stm32f10x_rcc.o
    0x20000014   0x080050dc   0x00000014   Data   RW         3358    .data               system_stm32f10x.o
    0x20000028   0x080050f0   0x00000001   Data   RW         3405    .data               b_core.o
    0x20000029   0x080050f1   0x00000003   PAD
    0x2000002c   0x080050f4   0x00000010   Data   RW         3484    .data               b_device.o
    0x2000003c   0x08005104   0x0000000c   Data   RW         3639    .data               b_mod_gui.o
    0x20000048   0x08005110   0x00000014   Data   RW         4157    .data               mcu_stm32f10x_uart.o
    0x2000005c   0x08005124   0x00000008   Data   RW         4184    .data               b_hal.o
    0x20000064   0x0800512c   0x00000094   Data   RW         4364    .data               nr_micro_shell.o
    0x200000f8   0x080051c0   0x00000004   Data   RW         4365    .data               nr_micro_shell.o
    0x200000fc   0x080051c4   0x0000000c   Data   RW         4608    .data               ugui.o
    0x20000108   0x080051d0   0x00000004   Data   RW         5842    .data               mc_w.l(errno.o)
    0x2000010c        -       0x00000050   Zero   RW         3403    .bss                b_core.o
    0x2000015c        -       0x00000020   Zero   RW         3481    .bss                b_device.o
    0x2000017c        -       0x00000420   Zero   RW         3542    .bss                b_drv_oled.o
    0x2000059c        -       0x00000064   Zero   RW         3638    .bss                b_mod_gui.o
    0x20000600        -       0x00000100   Zero   RW         3699    .bss                b_mod_log.o
    0x20000700        -       0x00000020   Zero   RW         3948    .bss                b_util_uart.o
    0x20000720        -       0x00000084   Zero   RW         4230    .bss                ansi.o
    0x200007a4   0x080051d4   0x00000004   PAD
    0x200007a8        -       0x00000800   Zero   RW         3384    STACK               startup_stm32f10x_cl.o


==============================================================================

Image component sizes


      Code (inc. data)   RO Data    RW Data    ZI Data      Debug   Object Name

       308          4        120          0        132       7061   ansi.o
       780        146        164          0          0      12441   ansi_port.o
      1222        588         10          1         80       7257   b_core.o
       732        352        115         16         32       7108   b_device.o
       628        176         49          0       1056       6785   b_drv_oled.o
       172         38          0          8          0       3657   b_hal.o
       312         34          4         12        100      14723   b_mod_gui.o
       228         18          6          0        256       2999   b_mod_log.o
       224         98         27          0          0       2491   b_mod_shell.o
       864         28          0          0          0       6406   b_util_i2c.o
        84          4          4          0         32       2294   b_util_uart.o
       764         42          0          0          0       2440   board.o
         0          0          0          0          0         32   core_cm3.o
       232         12         13          0          0     252393   main.o
       244         24         20          0          0       5889   mcu_stm32f10x_gpio.o
       112          0         16          0          0       6185   mcu_stm32f10x_i2c.o
       144          8          8         20          0       3953   mcu_stm32f10x_uart.o
       120         16          0          0          0       1727   misc.o
      1056        108         95        152          0      10141   nr_micro_shell.o
        36          8        336          0       2048        928   startup_stm32f10x_cl.o
       254          6          0          0          0       3465   stm32f10x_gpio.o
        16          0          0          0          0     259632   stm32f10x_it.o
       248         34          0         20          0       5682   stm32f10x_rcc.o
        76          0          0          0          0       2381   stm32f10x_spi.o
       322          6          0          0          0       6128   stm32f10x_usart.o
       284         30          0         20          0       2213   system_stm32f10x.o
      3534        102       2188         12          0      33399   ugui.o

    ----------------------------------------------------------------------
     13028       1882       3220        264       3740     669810   Object Totals
         0          0         32          0          0          0   (incl. Generated)
        32          0         13          3          4          0   (incl. Padding)

    ----------------------------------------------------------------------

      Code (inc. data)   RO Data    RW Data    ZI Data      Debug   Library Member Name

        28          0          0          0          0         68   _chval.o
       158          0          0          0          0         92   _strtoul.o
        26          0          0          0          0         80   atoi.o
         8          4        133          0          0         68   ctype_o.o
         0          0          0          0          0          0   entry.o
         0          0          0          0          0          0   entry10a.o
         0          0          0          0          0          0   entry11a.o
         4          0          0          0          0          0   entry12b.o
         8          4          0          0          0          0   entry2.o
         4          0          0          0          0          0   entry5.o
         0          0          0          0          0          0   entry7b.o
         0          0          0          0          0          0   entry8b.o
         8          4          0          0          0          0   entry9a.o
         8          4          0          4          0         68   errno.o
        30          0          0          0          0          0   handlers.o
        36          8          0          0          0         68   init.o
         0          0          0          0          0          0   iusefp.o
        30          0          0          0          0         68   llshl.o
        36          0          0          0          0         68   llsshr.o
        32          0          0          0          0         68   llushr.o
        36          0          0          0          0         68   memcpya.o
        36          0          0          0          0        108   memseta.o
      2310         92          0          0          0        680   printfa.o
        28          0          0          0          0         76   strcmp.o
        18          0          0          0          0         68   strcpy.o
        14          0          0          0          0         68   strlen.o
        36          0          0          0          0         80   strstr.o
       112          0          0          0          0         88   strtol.o
        44          0          0          0          0         80   uidiv.o
        98          0          0          0          0         92   uldiv.o
        48          0          0          0          0         68   cdrcmple.o
       334          0          0          0          0        148   dadd.o
       222          0          0          0          0        100   ddiv.o
       186          0          0          0          0        176   depilogue.o
        50          0          0          0          0         76   dfixui.o
        48          0          0          0          0         68   dfixul.o
        26          0          0          0          0         76   dfltui.o
       228          0          0          0          0         96   dmul.o

    ----------------------------------------------------------------------
      4296        116        136          4          0       2864   Library Totals
         6          0          3          0          0          0   (incl. Padding)

    ----------------------------------------------------------------------

      Code (inc. data)   RO Data    RW Data    ZI Data      Debug   Library Name

      3148        116        133          4          0       2056   mc_w.l
      1142          0          0          0          0        808   mf_w.l

    ----------------------------------------------------------------------
      4296        116        136          4          0       2864   Library Totals

    ----------------------------------------------------------------------

==============================================================================


      Code (inc. data)   RO Data    RW Data    ZI Data      Debug   

     17324       1998       3356        268       3740     664402   Grand Totals
     17324       1998       3356        268       3740     664402   ELF Image Totals
     17324       1998       3356        268          0          0   ROM Totals

==============================================================================

    Total RO  Size (Code + RO Data)                20680 (  20.20kB)
    Total RW  Size (RW Data + ZI Data)              4008 (   3.91kB)
    Total ROM Size (Code + RO Data + RW Data)      20948 (  20.46kB)

==============================================================================

