Component: ARM Compiler 5.06 update 7 (build 960) Tool: armlink [4d3601]

==============================================================================

Section Cross References

    main.o(i.SysTick_Handler) refers to b_hal.o(i.bHalIncSysTick) for bHalIncSysTick
    main.o(i.USART1_IRQHandler) refers to stm32f10x_usart.o(i.USART_GetITStatus) for USART_GetITStatus
    main.o(i.USART1_IRQHandler) refers to stm32f10x_usart.o(i.USART_ClearITPendingBit) for USART_ClearITPendingBit
    main.o(i.USART1_IRQHandler) refers to stm32f10x_usart.o(i.USART_ReceiveData) for USART_ReceiveData
    main.o(i.USART1_IRQHandler) refers to b_mod_shell.o(i.bShellParse) for bShellParse
    main.o(i._CmdTempHandler) refers to b_core.o(i.bOpen) for bOpen
    main.o(i._CmdTempHandler) refers to b_core.o(i.bRead) for bRead
    main.o(i._CmdTempHandler) refers to b_mod_log.o(i.bLogOut) for bLogOut
    main.o(i._CmdTempHandler) refers to b_core.o(i.bClose) for bClose
    main.o(i._CmdTempHandler) refers to strcmp.o(.text) for strcmp
    main.o(i._CmdTempHandler) refers to b_core.o(i.bCtl) for bCtl
    main.o(i._CmdTempHandler) refers to main.o(.constdata) for .constdata
    main.o(i.main) refers to board.o(i.BoardInit) for BoardInit
    main.o(i.main) refers to main.o(i.NVIC_SetPriority) for NVIC_SetPriority
    main.o(i.main) refers to b_core.o(i.bInit) for bInit
    main.o(i.main) refers to b_mod_shell.o(i.bShellInit) for bShellInit
    main.o(i.main) refers to b_core.o(i.bExec) for bExec
    main.o(i.main) refers to system_stm32f10x.o(.data) for SystemCoreClock
==============================================================================

Removing Unused input sections from the image.

    Removing misc.o(i.NVIC_SetVectorTable), (20 bytes).
    Removing misc.o(i.NVIC_SystemLPConfig), (24 bytes).
    Removing misc.o(i.SysTick_CLKSourceConfig), (24 bytes).
    Removing stm32f10x_adc.o(i.ADC_AnalogWatchdogCmd), (16 bytes).
    Removing stm32f10x_adc.o(i.ADC_AnalogWatchdogSingleChannelConfig), (12 bytes).
    Removing stm32f10x_adc.o(i.ADC_AnalogWatchdogThresholdsConfig), (6 bytes).
    Removing stm32f10x_adc.o(i.ADC_AutoInjectedConvCmd), (20 bytes).
    Removing stm32f10x_adc.o(i.ADC_ClearFlag), (6 bytes).
    Removing stm32f10x_adc.o(i.ADC_ClearITPendingBit), (8 bytes).
    Removing stm32f10x_adc.o(i.ADC_Cmd), (20 bytes).
    Removing stm32f10x_adc.o(i.ADC_DMACmd), (20 bytes).
    Removing stm32f10x_adc.o(i.ADC_DeInit), (68 bytes).
    Removing stm32f10x_adc.o(i.ADC_DiscModeChannelCountConfig), (16 bytes).
    Removing stm32f10x_adc.o(i.ADC_DiscModeCmd), (20 bytes).
    Removing stm32f10x_adc.o(i.ADC_ExternalTrigConvCmd), (20 bytes).
    Removing stm32f10x_adc.o(i.ADC_ExternalTrigInjectedConvCmd), (20 bytes).
    Removing stm32f10x_adc.o(i.ADC_ExternalTrigInjectedConvConfig), (12 bytes).
    Removing stm32f10x_adc.o(i.ADC_GetCalibrationStatus), (14 bytes).
==============================================================================

Image Symbol Table

    Local Symbols

    Symbol Name                              Value     Ov Type        Size  Object(Section)

    ../clib/microlib/ctype/ctype.c           0x00000000   Number         0  isdigit_o.o ABSOLUTE
    ../clib/microlib/ctype/ctype.c           0x00000000   Number         0  isgraph_o.o ABSOLUTE
    ../clib/microlib/ctype/ctype.c           0x00000000   Number         0  ctype_o.o ABSOLUTE
    ../clib/microlib/ctype/ctype.c           0x00000000   Number         0  isalnum_o.o ABSOLUTE
    ../clib/microlib/ctype/ctype.c           0x00000000   Number         0  isalpha_o.o ABSOLUTE
    ../clib/microlib/ctype/ctype.c           0x00000000   Number         0  islower_o.o ABSOLUTE
    ../clib/microlib/ctype/ctype.c           0x00000000   Number         0  isspace_o.o ABSOLUTE
    ../clib/microlib/ctype/ctype.c           0x00000000   Number         0  ispunct_o.o ABSOLUTE
    ../clib/microlib/ctype/ctype.c           0x00000000   Number         0  isupper_o.o ABSOLUTE
    ../clib/microlib/ctype/ctype.c           0x00000000   Number         0  isxdigit_o.o ABSOLUTE
    ../clib/microlib/ctype/ctype.c           0x00000000   Number         0  isblank_o.o ABSOLUTE
    ../clib/microlib/ctype/ctype.c           0x00000000   Number         0  isprint_o.o ABSOLUTE
    ../clib/microlib/ctype/ctype.c           0x00000000   Number         0  iscntrl_o.o ABSOLUTE
    ../clib/microlib/division.c              0x00000000   Number         0  uldiv.o ABSOLUTE
    ../clib/microlib/division.c              0x00000000   Number         0  uidiv.o ABSOLUTE
    ../clib/microlib/init/entry.s            0x00000000   Number         0  entry8a.o ABSOLUTE
    ../clib/microlib/init/entry.s            0x00000000   Number         0  entry7b.o ABSOLUTE
    ../clib/microlib/init/entry.s            0x00000000   Number         0  entry7a.o ABSOLUTE
    ../clib/microlib/init/entry.s            0x00000000   Number         0  entry5.o ABSOLUTE
    ../clib/microlib/init/entry.s            0x00000000   Number         0  entry12b.o ABSOLUTE
    ../clib/microlib/init/entry.s            0x00000000   Number         0  entry11b.o ABSOLUTE
    ../clib/microlib/init/entry.s            0x00000000   Number         0  entry11a.o ABSOLUTE
    ../clib/microlib/init/entry.s            0x00000000   Number         0  entry12a.o ABSOLUTE
    ../clib/microlib/init/entry.s            0x00000000   Number         0  entry2.o ABSOLUTE
    ../clib/microlib/init/entry.s            0x00000000   Number         0  entry10b.o ABSOLUTE
    ../clib/microlib/init/entry.s            0x00000000   Number         0  entry10a.o ABSOLUTE
    ../clib/microlib/init/entry.s            0x00000000   Number         0  entry.o ABSOLUTE
    ../clib/microlib/init/entry.s            0x00000000   Number         0  entry9b.o ABSOLUTE
    ../clib/microlib/init/entry.s            0x00000000   Number         0  entry9a.o ABSOLUTE
    ../clib/microlib/init/entry.s            0x00000000   Number         0  entry8b.o ABSOLUTE
    ../clib/microlib/longlong.c              0x00000000   Number         0  llushr.o ABSOLUTE
    ../clib/microlib/longlong.c              0x00000000   Number         0  llshl.o ABSOLUTE
    ../clib/microlib/longlong.c              0x00000000   Number         0  llsshr.o ABSOLUTE
    ../clib/microlib/printf/printf.c         0x00000000   Number         0  printf5.o ABSOLUTE
    ../clib/microlib/printf/printf.c         0x00000000   Number         0  printf0.o ABSOLUTE
    ../clib/microlib/printf/printf.c         0x00000000   Number         0  printfb.o ABSOLUTE
    ../clib/microlib/printf/printf.c         0x00000000   Number         0  printf1.o ABSOLUTE
    ../clib/microlib/printf/printf.c         0x00000000   Number         0  printf2.o ABSOLUTE
    ../clib/microlib/printf/printf.c         0x00000000   Number         0  printf3.o ABSOLUTE
    ../clib/microlib/printf/printf.c         0x00000000   Number         0  printf4.o ABSOLUTE
    ../clib/microlib/printf/printf.c         0x00000000   Number         0  printf6.o ABSOLUTE
    ../clib/microlib/printf/printf.c         0x00000000   Number         0  printf7.o ABSOLUTE
    ../clib/microlib/printf/printf.c         0x00000000   Number         0  printf8.o ABSOLUTE
    ../clib/microlib/printf/printf.c         0x00000000   Number         0  printfa.o ABSOLUTE
    ../clib/microlib/printf/stubs.s          0x00000000   Number         0  stubs.o ABSOLUTE
    ../clib/microlib/stdio/streams.c         0x00000000   Number         0  stdout.o ABSOLUTE
    ../clib/microlib/string/memcpy.c         0x00000000   Number         0  memcpya.o ABSOLUTE
    ../clib/microlib/string/memcpy.c         0x00000000   Number         0  memcpyb.o ABSOLUTE
    ../clib/microlib/string/memset.c         0x00000000   Number         0  memseta.o ABSOLUTE
    ../clib/microlib/string/strcmp.c         0x00000000   Number         0  strcmp.o ABSOLUTE
    ../clib/microlib/string/strcpy.c         0x00000000   Number         0  strcpy.o ABSOLUTE
    ../clib/microlib/string/strlen.c         0x00000000   Number         0  strlen.o ABSOLUTE
    ../clib/microlib/string/strstr.c         0x00000000   Number         0  strstr.o ABSOLUTE
    ../clib/microlib/stubs.s                 0x00000000   Number         0  iusefp.o ABSOLUTE
    ../fplib/microlib/d2f.c                  0x00000000   Number         0  d2f.o ABSOLUTE
    ../fplib/microlib/fpadd.c                0x00000000   Number         0  dadd.o ABSOLUTE
    ../fplib/microlib/fpdiv.c                0x00000000   Number         0  ddiv.o ABSOLUTE
    ../fplib/microlib/fpepilogue.c           0x00000000   Number         0  fepilogue.o ABSOLUTE
    ../fplib/microlib/fpepilogue.c           0x00000000   Number         0  depilogue.o ABSOLUTE
    ../fplib/microlib/fpfix.c                0x00000000   Number         0  ffixi.o ABSOLUTE
    ../fplib/microlib/fpfix.c                0x00000000   Number         0  dfixui.o ABSOLUTE
    ../fplib/microlib/fpfix.c                0x00000000   Number         0  dfixul.o ABSOLUTE
    ../fplib/microlib/fpflt.c                0x00000000   Number         0  dflti.o ABSOLUTE
    ../fplib/microlib/fpflt.c                0x00000000   Number         0  dfltui.o ABSOLUTE
    ../fplib/microlib/fpmul.c                0x00000000   Number         0  fmul.o ABSOLUTE
    ../fplib/microlib/fpmul.c                0x00000000   Number         0  dmul.o ABSOLUTE
    ../fplib/microlib/fpscalb.c              0x00000000   Number         0  dscalb.o ABSOLUTE
    ..\..\..\..\Libraries\CMSIS\CM3\CoreSupport\core_cm3.c 0x00000000   Number         0  core_cm3.o ABSOLUTE
    ..\..\..\..\Libraries\CMSIS\CM3\DeviceSupport\ST\STM32F10x\startup\arm\startup_stm32f10x_cl.s 0x00000000   Number         0  startup_stm32f10x_cl.o ABSOLUTE
    ..\..\..\..\Libraries\CMSIS\CM3\DeviceSupport\ST\STM32F10x\system_stm32f10x.c 0x00000000   Number         0  system_stm32f10x.o ABSOLUTE
    ..\..\..\..\Libraries\STM32F10x_StdPeriph_Driver\src\misc.c 0x00000000   Number         0  misc.o ABSOLUTE
    ..\..\..\..\Libraries\STM32F10x_StdPeriph_Driver\src\stm32f10x_adc.c 0x00000000   Number         0  stm32f10x_adc.o ABSOLUTE
    ..\..\..\..\Libraries\STM32F10x_StdPeriph_Driver\src\stm32f10x_bkp.c 0x00000000   Number         0  stm32f10x_bkp.o ABSOLUTE
    ..\..\..\..\Libraries\STM32F10x_StdPeriph_Driver\src\stm32f10x_can.c 0x00000000   Number         0  stm32f10x_can.o ABSOLUTE
    ..\..\..\..\Libraries\STM32F10x_StdPeriph_Driver\src\stm32f10x_cec.c 0x00000000   Number         0  stm32f10x_cec.o ABSOLUTE
    ..\..\..\..\Libraries\STM32F10x_StdPeriph_Driver\src\stm32f10x_crc.c 0x00000000   Number         0  stm32f10x_crc.o ABSOLUTE
    ..\..\..\..\Libraries\STM32F10x_StdPeriph_Driver\src\stm32f10x_dac.c 0x00000000   Number         0  stm32f10x_dac.o ABSOLUTE
    ..\..\..\..\Libraries\STM32F10x_StdPeriph_Driver\src\stm32f10x_dbgmcu.c 0x00000000   Number         0  stm32f10x_dbgmcu.o ABSOLUTE
    ..\..\..\..\Libraries\STM32F10x_StdPeriph_Driver\src\stm32f10x_dma.c 0x00000000   Number         0  stm32f10x_dma.o ABSOLUTE
    ..\..\..\..\Libraries\STM32F10x_StdPeriph_Driver\src\stm32f10x_exti.c 0x00000000   Number         0  stm32f10x_exti.o ABSOLUTE
    ..\..\..\..\Libraries\STM32F10x_StdPeriph_Driver\src\stm32f10x_flash.c 0x00000000   Number         0  stm32f10x_flash.o ABSOLUTE
    ..\..\..\..\Libraries\STM32F10x_StdPeriph_Driver\src\stm32f10x_fsmc.c 0x00000000   Number         0  stm32f10x_fsmc.o ABSOLUTE
    ..\..\..\..\Libraries\STM32F10x_StdPeriph_Driver\src\stm32f10x_gpio.c 0x00000000   Number         0  stm32f10x_gpio.o ABSOLUTE
    ..\..\..\..\Libraries\STM32F10x_StdPeriph_Driver\src\stm32f10x_i2c.c 0x00000000   Number         0  stm32f10x_i2c.o ABSOLUTE
    ..\..\..\..\Libraries\STM32F10x_StdPeriph_Driver\src\stm32f10x_iwdg.c 0x00000000   Number         0  stm32f10x_iwdg.o ABSOLUTE
    ..\..\..\..\Libraries\STM32F10x_StdPeriph_Driver\src\stm32f10x_pwr.c 0x00000000   Number         0  stm32f10x_pwr.o ABSOLUTE
    ..\..\..\..\Libraries\STM32F10x_StdPeriph_Driver\src\stm32f10x_rcc.c 0x00000000   Number         0  stm32f10x_rcc.o ABSOLUTE
    ..\..\..\..\Libraries\STM32F10x_StdPeriph_Driver\src\stm32f10x_rtc.c 0x00000000   Number         0  stm32f10x_rtc.o ABSOLUTE
    ..\..\..\..\Libraries\STM32F10x_StdPeriph_Driver\src\stm32f10x_sdio.c 0x00000000   Number         0  stm32f10x_sdio.o ABSOLUTE
    ..\..\..\..\Libraries\STM32F10x_StdPeriph_Driver\src\stm32f10x_spi.c 0x00000000   Number         0  stm32f10x_spi.o ABSOLUTE
    ..\..\..\..\Libraries\STM32F10x_StdPeriph_Driver\src\stm32f10x_tim.c 0x00000000   Number         0  stm32f10x_tim.o ABSOLUTE
    ..\..\..\..\Libraries\STM32F10x_StdPeriph_Driver\src\stm32f10x_usart.c 0x00000000   Number         0  stm32f10x_usart.o ABSOLUTE
    ..\..\..\..\Libraries\STM32F10x_StdPeriph_Driver\src\stm32f10x_wwdg.c 0x00000000   Number         0  stm32f10x_wwdg.o ABSOLUTE
    ..\..\..\..\babyos\bos\core\b_core.c     0x00000000   Number         0  b_core.o ABSOLUTE
    ..\..\..\..\babyos\bos\core\b_device.c   0x00000000   Number         0  b_device.o ABSOLUTE
    ..\..\..\..\babyos\bos\drivers\b_drv_ds18b20.c 0x00000000   Number         0  b_drv_ds18b20.o ABSOLUTE
    ..\..\..\..\babyos\bos\hal\b_hal.c       0x00000000   Number         0  b_hal.o ABSOLUTE
    ..\..\..\..\babyos\bos\mcu\st\stm32f10x\mcu_stm32f10x_flash.c 0x00000000   Number         0  mcu_stm32f10x_flash.o ABSOLUTE
    ..\..\..\..\babyos\bos\mcu\st\stm32f10x\mcu_stm32f10x_gpio.c 0x00000000   Number         0  mcu_stm32f10x_gpio.o ABSOLUTE
    ..\..\..\..\babyos\bos\mcu\st\stm32f10x\mcu_stm32f10x_i2c.c 0x00000000   Number         0  mcu_stm32f10x_i2c.o ABSOLUTE
    ..\..\..\..\babyos\bos\mcu\st\stm32f10x\mcu_stm32f10x_it.c 0x00000000   Number         0  mcu_stm32f10x_it.o ABSOLUTE
    ..\..\..\..\babyos\bos\mcu\st\stm32f10x\mcu_stm32f10x_spi.c 0x00000000   Number         0  mcu_stm32f10x_spi.o ABSOLUTE
    ..\..\..\..\babyos\bos\mcu\st\stm32f10x\mcu_stm32f10x_uart.c 0x00000000   Number         0  mcu_stm32f10x_uart.o ABSOLUTE
    ..\..\..\..\babyos\bos\modules\b_mod_adchub.c 0x00000000   Number         0  b_mod_adchub.o ABSOLUTE
    ..\..\..\..\babyos\bos\modules\b_mod_button.c 0x00000000   Number         0  b_mod_button.o ABSOLUTE
    ..\..\..\..\babyos\bos\modules\b_mod_error.c 0x00000000   Number         0  b_mod_error.o ABSOLUTE
    ..\..\..\..\babyos\bos\modules\b_mod_event.c 0x00000000   Number         0  b_mod_event.o ABSOLUTE
    ..\..\..\..\babyos\bos\modules\b_mod_fifo.c 0x00000000   Number         0  b_mod_fifo.o ABSOLUTE
    ..\..\..\..\babyos\bos\modules\b_mod_fs.c 0x00000000   Number         0  b_mod_fs.o ABSOLUTE
    ..\..\..\..\babyos\bos\modules\b_mod_gui.c 0x00000000   Number         0  b_mod_gui.o ABSOLUTE
    ..\..\..\..\babyos\bos\modules\b_mod_heap.c 0x00000000   Number         0  b_mod_heap.o ABSOLUTE
    ..\..\..\..\babyos\bos\modules\b_mod_kv.c 0x00000000   Number         0  b_mod_kv.o ABSOLUTE
    ..\..\..\..\babyos\bos\modules\b_mod_log.c 0x00000000   Number         0  b_mod_log.o ABSOLUTE
    ..\..\..\..\babyos\bos\modules\b_mod_lunar.c 0x00000000   Number         0  b_mod_lunar.o ABSOLUTE
    ..\..\..\..\babyos\bos\modules\b_mod_menu.c 0x00000000   Number         0  b_mod_menu.o ABSOLUTE
    ..\..\..\..\babyos\bos\modules\b_mod_modbus.c 0x00000000   Number         0  b_mod_modbus.o ABSOLUTE
    ..\..\..\..\babyos\bos\modules\b_mod_param.c 0x00000000   Number         0  b_mod_param.o ABSOLUTE
    ..\..\..\..\babyos\bos\modules\b_mod_protocol.c 0x00000000   Number         0  b_mod_protocol.o ABSOLUTE
    ..\..\..\..\babyos\bos\modules\b_mod_sda.c 0x00000000   Number         0  b_mod_sda.o ABSOLUTE
    ..\..\..\..\babyos\bos\modules\b_mod_sdb.c 0x00000000   Number         0  b_mod_sdb.o ABSOLUTE
    ..\..\..\..\babyos\bos\modules\b_mod_shell.c 0x00000000   Number         0  b_mod_shell.o ABSOLUTE
    ..\..\..\..\babyos\bos\modules\b_mod_timer.c 0x00000000   Number         0  b_mod_timer.o ABSOLUTE
    ..\..\..\..\babyos\bos\modules\b_mod_utc.c 0x00000000   Number         0  b_mod_utc.o ABSOLUTE
    ..\..\..\..\babyos\bos\modules\b_mod_xm128.c 0x00000000   Number         0  b_mod_xm128.o ABSOLUTE
    ..\..\..\..\babyos\bos\modules\b_mod_ymodem.c 0x00000000   Number         0  b_mod_ymodem.o ABSOLUTE
    ..\..\..\..\babyos\bos\thirdparty\nr_micro_shell\src\ansi.c 0x00000000   Number         0  ansi.o ABSOLUTE
    ..\..\..\..\babyos\bos\thirdparty\nr_micro_shell\src\ansi_port.c 0x00000000   Number         0  ansi_port.o ABSOLUTE
    ..\..\..\..\babyos\bos\thirdparty\nr_micro_shell\src\nr_micro_shell.c 0x00000000   Number         0  nr_micro_shell.o ABSOLUTE
    ..\..\..\..\babyos\bos\utils\b_util_i2c.c 0x00000000   Number         0  b_util_i2c.o ABSOLUTE
    ..\..\..\..\babyos\bos\utils\b_util_spi.c 0x00000000   Number         0  b_util_spi.o ABSOLUTE
    ..\..\..\..\babyos\bos\utils\b_util_uart.c 0x00000000   Number         0  b_util_uart.o ABSOLUTE
    ..\..\..\..\board\board.c                0x00000000   Number         0  board.o ABSOLUTE
    ..\\..\\..\\..\\Libraries\\CMSIS\\CM3\\CoreSupport\\core_cm3.c 0x00000000   Number         0  core_cm3.o ABSOLUTE
    ..\main.c                                0x00000000   Number         0  main.o ABSOLUTE
    ..\stm32f10x_it.c                        0x00000000   Number         0  stm32f10x_it.o ABSOLUTE
    cdrcmple.s                               0x00000000   Number         0  cdrcmple.o ABSOLUTE
    dc.s                                     0x00000000   Number         0  dc.o ABSOLUTE
    handlers.s                               0x00000000   Number         0  handlers.o ABSOLUTE
    init.s                                   0x00000000   Number         0  init.o ABSOLUTE
    RESET                                    0x08000000   Section      336  startup_stm32f10x_cl.o(RESET)
    .ARM.Collect$$$$00000000                 0x08000150   Section        0  entry.o(.ARM.Collect$$$$00000000)
    .ARM.Collect$$$$00000001                 0x08000150   Section        4  entry2.o(.ARM.Collect$$$$00000001)
    .ARM.Collect$$$$00000004                 0x08000154   Section        4  entry5.o(.ARM.Collect$$$$00000004)
    .ARM.Collect$$$$00000008                 0x08000158   Section        0  entry7b.o(.ARM.Collect$$$$00000008)
    .ARM.Collect$$$$0000000A                 0x08000158   Section        0  entry8b.o(.ARM.Collect$$$$0000000A)
    .ARM.Collect$$$$0000000B                 0x08000158   Section        8  entry9a.o(.ARM.Collect$$$$0000000B)
    .ARM.Collect$$$$0000000E                 0x08000160   Section        4  entry12b.o(.ARM.Collect$$$$0000000E)
    .ARM.Collect$$$$0000000F                 0x08000164   Section        0  entry10a.o(.ARM.Collect$$$$0000000F)
    .ARM.Collect$$$$00000011                 0x08000164   Section        0  entry11a.o(.ARM.Collect$$$$00000011)
    .ARM.Collect$$$$00002712                 0x08000164   Section        4  entry2.o(.ARM.Collect$$$$00002712)
    __lit__00000000                          0x08000164   Data           4  entry2.o(.ARM.Collect$$$$00002712)
    .text                                    0x08000168   Section       36  startup_stm32f10x_cl.o(.text)
    .text                                    0x0800018c   Section        0  ctype_o.o(.text)
    .text                                    0x08000194   Section        0  memcpya.o(.text)
    .text                                    0x080001b8   Section        0  memseta.o(.text)
    .text                                    0x080001dc   Section        0  strstr.o(.text)
    .text                                    0x08000200   Section        0  strlen.o(.text)
    .text                                    0x0800020e   Section        0  strcmp.o(.text)
    .text                                    0x0800022a   Section        0  strcpy.o(.text)
    .text                                    0x0800023c   Section        0  fmul.o(.text)
    .text                                    0x080002a0   Section        0  dmul.o(.text)
    .text                                    0x08000384   Section        0  ddiv.o(.text)
    .text                                    0x08000462   Section        0  dscalb.o(.text)
    .text                                    0x08000490   Section        0  dflti.o(.text)
    .text                                    0x080004b2   Section        0  dfltui.o(.text)
    .text                                    0x080004cc   Section        0  ffixi.o(.text)
    .text                                    0x080004fe   Section        0  dfixui.o(.text)
    .text                                    0x08000530   Section        0  d2f.o(.text)
    .text                                    0x08000568   Section        0  uidiv.o(.text)
    .text                                    0x08000594   Section        0  uldiv.o(.text)
    .text                                    0x080005f6   Section        0  llushr.o(.text)
    .text                                    0x08000616   Section        0  fepilogue.o(.text)
    .text                                    0x08000616   Section        0  iusefp.o(.text)
    .text                                    0x08000684   Section        0  depilogue.o(.text)
    .text                                    0x0800073e   Section        0  dadd.o(.text)
    .text                                    0x0800088c   Section        0  dfixul.o(.text)
    .text                                    0x080008bc   Section       48  cdrcmple.o(.text)
    .text                                    0x080008ec   Section       36  init.o(.text)
    .text                                    0x08000910   Section        0  llshl.o(.text)
    .text                                    0x0800092e   Section        0  llsshr.o(.text)
    i.BoardInit                              0x08000954   Section        0  board.o(i.BoardInit)
    i.BusFault_Handler                       0x080009dc   Section        0  stm32f10x_it.o(i.BusFault_Handler)
    i.DebugMon_Handler                       0x080009de   Section        0  stm32f10x_it.o(i.DebugMon_Handler)
    i.GPIO_Init                              0x080009e0   Section        0  stm32f10x_gpio.o(i.GPIO_Init)
    i.GPIO_PinRemapConfig                    0x08000a84   Section        0  stm32f10x_gpio.o(i.GPIO_PinRemapConfig)
    i.GPIO_SetBits                           0x08000adc   Section        0  stm32f10x_gpio.o(i.GPIO_SetBits)
    i.HardFault_Handler                      0x08000ae0   Section        0  stm32f10x_it.o(i.HardFault_Handler)
    i.MemManage_Handler                      0x08000ae2   Section        0  stm32f10x_it.o(i.MemManage_Handler)
    i.NMI_Handler                            0x08000ae4   Section        0  stm32f10x_it.o(i.NMI_Handler)
    i.NVIC_Init                              0x08000ae8   Section        0  misc.o(i.NVIC_Init)
    i.NVIC_PriorityGroupConfig               0x08000b4c   Section        0  misc.o(i.NVIC_PriorityGroupConfig)
    i.NVIC_SetPriority                       0x08000b60   Section        0  main.o(i.NVIC_SetPriority)
    NVIC_SetPriority                         0x08000b61   Thumb Code    32  main.o(i.NVIC_SetPriority)
    i.PendSV_Handler                         0x08000b80   Section        0  stm32f10x_it.o(i.PendSV_Handler)
    i.RCC_APB1PeriphClockCmd                 0x08000b84   Section        0  stm32f10x_rcc.o(i.RCC_APB1PeriphClockCmd)
    i.RCC_APB2PeriphClockCmd                 0x08000b9c   Section        0  stm32f10x_rcc.o(i.RCC_APB2PeriphClockCmd)
    i.RCC_GetClocksFreq                      0x08000bb4   Section        0  stm32f10x_rcc.o(i.RCC_GetClocksFreq)
    i.SPI_Cmd                                0x08000c7c   Section        0  stm32f10x_spi.o(i.SPI_Cmd)
    i.SPI_Init                               0x08000c90   Section        0  stm32f10x_spi.o(i.SPI_Init)
    i.SVC_Handler                            0x08000cc8   Section        0  stm32f10x_it.o(i.SVC_Handler)
    i.SetSysClockTo72                        0x08000ccc   Section        0  system_stm32f10x.o(i.SetSysClockTo72)
    SetSysClockTo72                          0x08000ccd   Thumb Code   190  system_stm32f10x.o(i.SetSysClockTo72)
    i.SysTick_Handler                        0x08000d9c   Section        0  main.o(i.SysTick_Handler)
    i.SystemInit                             0x08000da0   Section        0  system_stm32f10x.o(i.SystemInit)
    i.USART1_IRQHandler                      0x08000dec   Section        0  main.o(i.USART1_IRQHandler)
    i.USART_ClearITPendingBit                0x08000e28   Section        0  stm32f10x_usart.o(i.USART_ClearITPendingBit)
    i.USART_Cmd                              0x08000e34   Section        0  stm32f10x_usart.o(i.USART_Cmd)
    i.USART_GetITStatus                      0x08000e48   Section        0  stm32f10x_usart.o(i.USART_GetITStatus)
    i.USART_ITConfig                         0x08000e86   Section        0  stm32f10x_usart.o(i.USART_ITConfig)
    i.USART_Init                             0x08000eb8   Section        0  stm32f10x_usart.o(i.USART_Init)
    i.USART_ReceiveData                      0x08000f64   Section        0  stm32f10x_usart.o(i.USART_ReceiveData)
    i.UsageFault_Handler                     0x08000f6c   Section        0  stm32f10x_it.o(i.UsageFault_Handler)
    i._CmdBosHandler                         0x08000f70   Section        0  b_mod_shell.o(i._CmdBosHandler)
    _CmdBosHandler                           0x08000f71   Thumb Code    46  b_mod_shell.o(i._CmdBosHandler)
    i._CmdTempHandler                        0x08000fec   Section        0  main.o(i._CmdTempHandler)
    _CmdTempHandler                          0x08000fed   Thumb Code    90  main.o(i._CmdTempHandler)
    i._GpioConfig                            0x08001064   Section        0  mcu_stm32f10x_gpio.o(i._GpioConfig)
    _GpioConfig                              0x08001065   Thumb Code   118  mcu_stm32f10x_gpio.o(i._GpioConfig)
    i._GpioInit                              0x080010e0   Section        0  board.o(i._GpioInit)
    _GpioInit                                0x080010e1   Thumb Code   458  board.o(i._GpioInit)
    i._GpioRead                              0x080012c4   Section        0  mcu_stm32f10x_gpio.o(i._GpioRead)
    _GpioRead                                0x080012c5   Thumb Code    20  mcu_stm32f10x_gpio.o(i._GpioRead)
    i._GpioReadPin                           0x080012dc   Section        0  mcu_stm32f10x_gpio.o(i._GpioReadPin)
    _GpioReadPin                             0x080012dd   Thumb Code    36  mcu_stm32f10x_gpio.o(i._GpioReadPin)
    i._GpioWrite                             0x08001304   Section        0  mcu_stm32f10x_gpio.o(i._GpioWrite)
    _GpioWrite                               0x08001305   Thumb Code    14  mcu_stm32f10x_gpio.o(i._GpioWrite)
    i._GpioWritePin                          0x08001318   Section        0  mcu_stm32f10x_gpio.o(i._GpioWritePin)
    _GpioWritePin                            0x08001319   Thumb Code    32  mcu_stm32f10x_gpio.o(i._GpioWritePin)
    i._SpiInit                               0x0800133c   Section        0  board.o(i._SpiInit)
    _SpiInit                                 0x0800133d   Thumb Code   134  board.o(i._SpiInit)
    i._UartReceive                           0x080013cc   Section        0  mcu_stm32f10x_uart.o(i._UartReceive)
    _UartReceive                             0x080013cd   Thumb Code    68  mcu_stm32f10x_uart.o(i._UartReceive)
    i._UartSend                              0x08001414   Section        0  mcu_stm32f10x_uart.o(i._UartSend)
    _UartSend                                0x08001415   Thumb Code    68  mcu_stm32f10x_uart.o(i._UartSend)
    i.__0sprintf                             0x0800145c   Section        0  printfa.o(i.__0sprintf)
    i.__0vsnprintf                           0x08001484   Section        0  printfa.o(i.__0vsnprintf)
    i.__scatterload_copy                     0x080014b8   Section       14  handlers.o(i.__scatterload_copy)
    i.__scatterload_null                     0x080014c6   Section        2  handlers.o(i.__scatterload_null)
    i.__scatterload_zeroinit                 0x080014c8   Section       14  handlers.o(i.__scatterload_zeroinit)
    i._bCoreCreateFd                         0x080014d8   Section        0  b_core.o(i._bCoreCreateFd)
    _bCoreCreateFd                           0x080014d9   Thumb Code   106  b_core.o(i._bCoreCreateFd)
    i._bCoreDeleteFd                         0x0800154c   Section        0  b_core.o(i._bCoreDeleteFd)
    _bCoreDeleteFd                           0x0800154d   Thumb Code    30  b_core.o(i._bCoreDeleteFd)
    i._bCoreMonitor                          0x08001570   Section        0  b_core.o(i._bCoreMonitor)
    _bCoreMonitor                            0x08001571   Thumb Code     2  b_core.o(i._bCoreMonitor)
    i._bDS18B20Ctl                           0x08001572   Section        0  b_drv_ds18b20.o(i._bDS18B20Ctl)
    _bDS18B20Ctl                             0x08001573   Thumb Code    36  b_drv_ds18b20.o(i._bDS18B20Ctl)
    i._bDS18B20Read                          0x08001598   Section        0  b_drv_ds18b20.o(i._bDS18B20Read)
    _bDS18B20Read                            0x08001599   Thumb Code    96  b_drv_ds18b20.o(i._bDS18B20Read)
    i._bDriverNullInit                       0x080015fc   Section        0  b_device.o(i._bDriverNullInit)
    _bDriverNullInit                         0x080015fd   Thumb Code    34  b_device.o(i._bDriverNullInit)
    i._bHalUpdateDelayParam                  0x08001674   Section        0  b_hal.o(i._bHalUpdateDelayParam)
    _bHalUpdateDelayParam                    0x08001675   Thumb Code    78  b_hal.o(i._bHalUpdateDelayParam)
    i._bSbusReadByte                         0x080016d0   Section        0  b_drv_ds18b20.o(i._bSbusReadByte)
    _bSbusReadByte                           0x080016d1   Thumb Code   112  b_drv_ds18b20.o(i._bSbusReadByte)
    i._bSbusReady                            0x08001744   Section        0  b_drv_ds18b20.o(i._bSbusReady)
    _bSbusReady                              0x08001745   Thumb Code   120  b_drv_ds18b20.o(i._bSbusReady)
    i._bSbusWriteByte                        0x080017c0   Section        0  b_drv_ds18b20.o(i._bSbusWriteByte)
    _bSbusWriteByte                          0x080017c1   Thumb Code    78  b_drv_ds18b20.o(i._bSbusWriteByte)
    i._bUtilUartDetectIdle                   0x08001814   Section        0  b_util_uart.o(i._bUtilUartDetectIdle)
    _bUtilUartDetectIdle                     0x08001815   Thumb Code    80  b_util_uart.o(i._bUtilUartDetectIdle)
    i._fp_digits                             0x08001868   Section        0  printfa.o(i._fp_digits)
    _fp_digits                               0x08001869   Thumb Code   366  printfa.o(i._fp_digits)
    i._printf_core                           0x080019ec   Section        0  printfa.o(i._printf_core)
    _printf_core                             0x080019ed   Thumb Code  1704  printfa.o(i._printf_core)
    i._printf_post_padding                   0x080020a0   Section        0  printfa.o(i._printf_post_padding)
    _printf_post_padding                     0x080020a1   Thumb Code    36  printfa.o(i._printf_post_padding)
    i._printf_pre_padding                    0x080020c4   Section        0  printfa.o(i._printf_pre_padding)
    _printf_pre_padding                      0x080020c5   Thumb Code    46  printfa.o(i._printf_pre_padding)
    i._shell_init                            0x080020f4   Section        0  nr_micro_shell.o(i._shell_init)
    i._snputc                                0x08002130   Section        0  printfa.o(i._snputc)
    _snputc                                  0x08002131   Thumb Code    22  printfa.o(i._snputc)
    i._sputc                                 0x08002146   Section        0  printfa.o(i._sputc)
    _sputc                                   0x08002147   Thumb Code    10  printfa.o(i._sputc)
    i.ansi_clear_current_line                0x08002150   Section        0  ansi.o(i.ansi_clear_current_line)
    i.ansi_get_char                          0x08002160   Section        0  ansi.o(i.ansi_get_char)
    i.ansi_init                              0x08002250   Section        0  ansi.o(i.ansi_init)
    i.ansi_search_char                       0x08002266   Section        0  ansi.o(i.ansi_search_char)
    i.ansi_show_char                         0x08002288   Section        0  ansi_port.o(i.ansi_show_char)
    i.ansi_show_str                          0x0800229c   Section        0  ansi_port.o(i.ansi_show_str)
    i.bClose                                 0x080022b4   Section        0  b_core.o(i.bClose)
    i.bCtl                                   0x080022e4   Section        0  b_core.o(i.bCtl)
    i.bDS18B20_Init                          0x080022fc   Section        0  b_drv_ds18b20.o(i.bDS18B20_Init)
    i.bDeviceClose                           0x08002320   Section        0  b_device.o(i.bDeviceClose)
    i.bDeviceCtl                             0x080023a4   Section        0  b_device.o(i.bDeviceCtl)
    i.bDeviceInit                            0x0800242c   Section        0  b_device.o(i.bDeviceInit)
    i.bDeviceOpen                            0x08002470   Section        0  b_device.o(i.bDeviceOpen)
    i.bDeviceRead                            0x080024f4   Section        0  b_device.o(i.bDeviceRead)
    i.bExec                                  0x08002580   Section        0  b_core.o(i.bExec)
    i.bHalDelayUs                            0x080025a0   Section        0  b_hal.o(i.bHalDelayUs)
    i.bHalGetSysTick                         0x080025bc   Section        0  b_hal.o(i.bHalGetSysTick)
    i.bHalIncSysTick                         0x080025c8   Section        0  b_hal.o(i.bHalIncSysTick)
    i.bHalInit                               0x080025d8   Section        0  b_hal.o(i.bHalInit)
    i.bInit                                  0x080025dc   Section        0  b_core.o(i.bInit)
    i.bLogOut                                0x080028e4   Section        0  b_mod_log.o(i.bLogOut)
    i.bLogOutput                             0x080029ac   Section        0  b_mod_log.o(i.bLogOutput)
    i.bOpen                                  0x080029c8   Section        0  b_core.o(i.bOpen)
    i.bRead                                  0x080029f8   Section        0  b_core.o(i.bRead)
    i.bShellInit                             0x08002a3c   Section        0  b_mod_shell.o(i.bShellInit)
    i.bShellParse                            0x08002a58   Section        0  b_mod_shell.o(i.bShellParse)
    i.main                                   0x08002aa0   Section        0  main.o(i.main)
    i.nr_ansi_ctrl_common_slover             0x08002af4   Section        0  ansi_port.o(i.nr_ansi_ctrl_common_slover)
    i.nr_ansi_in_backspace                   0x08002b14   Section        0  ansi_port.o(i.nr_ansi_in_backspace)
    i.nr_ansi_in_down                        0x08002b60   Section        0  ansi_port.o(i.nr_ansi_in_down)
    i.nr_ansi_in_enter                       0x08002be4   Section        0  ansi_port.o(i.nr_ansi_in_enter)
    i.nr_ansi_in_left                        0x08002c10   Section        0  ansi_port.o(i.nr_ansi_in_left)
    i.nr_ansi_in_newline                     0x08002c40   Section        0  ansi_port.o(i.nr_ansi_in_newline)
    i.nr_ansi_in_right                       0x08002c48   Section        0  ansi_port.o(i.nr_ansi_in_right)
    i.nr_ansi_in_tab                         0x08002c7c   Section        0  ansi_port.o(i.nr_ansi_in_tab)
    i.nr_ansi_in_up                          0x08002d50   Section        0  ansi_port.o(i.nr_ansi_in_up)
    i.nr_shell_strtok                        0x08002dd8   Section        0  nr_micro_shell.o(i.nr_shell_strtok)
    nr_shell_strtok                          0x08002dd9   Thumb Code   136  nr_micro_shell.o(i.nr_shell_strtok)
    i.shell_cmd_complete                     0x08002e64   Section        0  nr_micro_shell.o(i.shell_cmd_complete)
    i.shell_his_copy_queue_item              0x08002ea4   Section        0  nr_micro_shell.o(i.shell_his_copy_queue_item)
    i.shell_his_queue_add_cmd                0x08002f20   Section        0  nr_micro_shell.o(i.shell_his_queue_add_cmd)
    i.shell_his_queue_init                   0x08002fca   Section        0  nr_micro_shell.o(i.shell_his_queue_init)
    i.shell_his_queue_search_cmd             0x08002fdc   Section        0  nr_micro_shell.o(i.shell_his_queue_search_cmd)
    i.shell_parser                           0x08003064   Section        0  nr_micro_shell.o(i.shell_parser)
    i.shell_search_cmd                       0x08003190   Section        0  nr_micro_shell.o(i.shell_search_cmd)
    .constdata                               0x080031c0   Section       16  main.o(.constdata)
    __func__                                 0x080031c0   Data          16  main.o(.constdata)
    .constdata                               0x080031d0   Section        6  b_core.o(.constdata)
    __func__                                 0x080031d0   Data           6  b_core.o(.constdata)
    .constdata                               0x080031d6   Section       94  b_device.o(.constdata)
    __func__                                 0x080031d6   Data          17  b_device.o(.constdata)
    __func__                                 0x080031e7   Data          12  b_device.o(.constdata)
    __func__                                 0x080031f3   Data          12  b_device.o(.constdata)
    __func__                                 0x080031ff   Data          13  b_device.o(.constdata)
    __func__                                 0x0800320c   Data          13  b_device.o(.constdata)
    __func__                                 0x08003219   Data          11  b_device.o(.constdata)
    __func__                                 0x08003224   Data          16  b_device.o(.constdata)
    .constdata                               0x08003234   Section        6  b_mod_log.o(.constdata)
    bLogParamTable                           0x08003234   Data           3  b_mod_log.o(.constdata)
    bLogPrefix                               0x08003237   Data           3  b_mod_log.o(.constdata)
    .constdata                               0x0800323a   Section       15  b_mod_shell.o(.constdata)
    __func__                                 0x0800323a   Data          15  b_mod_shell.o(.constdata)
    .constdata                               0x0800324c   Section       20  mcu_stm32f10x_gpio.o(.constdata)
    .constdata                               0x08003260   Section        8  mcu_stm32f10x_uart.o(.constdata)
    .constdata                               0x08003268   Section      120  ansi.o(.constdata)
    .constdata                               0x080032e0   Section       99  ansi_port.o(.constdata)
    __func__                                 0x080032e0   Data          21  ansi_port.o(.constdata)
    __func__                                 0x080032f5   Data          14  ansi_port.o(.constdata)
    __func__                                 0x08003303   Data          16  ansi_port.o(.constdata)
    __func__                                 0x08003313   Data          16  ansi_port.o(.constdata)
    __func__                                 0x08003323   Data          17  ansi_port.o(.constdata)
    __func__                                 0x08003334   Data          15  ansi_port.o(.constdata)
    .constdata                               0x08003343   Section       25  nr_micro_shell.o(.constdata)
    __func__                                 0x08003343   Data          12  nr_micro_shell.o(.constdata)
    __func__                                 0x0800334f   Data          13  nr_micro_shell.o(.constdata)
    .constdata                               0x0800335c   Section      129  ctype_o.o(.constdata)
    .constdata                               0x080033e0   Section        4  ctype_o.o(.constdata)
    table                                    0x080033e0   Data           4  ctype_o.o(.constdata)
    .conststring                             0x080033e4   Section       13  b_device.o(.conststring)
    .conststring                             0x080033f4   Section       65  ansi_port.o(.conststring)
    .conststring                             0x08003438   Section       70  nr_micro_shell.o(.conststring)
    .conststrlit                             0x08003480   Section        5  main.o(.conststrlit)
    .conststrlit                             0x08003488   Section        4  b_mod_shell.o(.conststrlit)
    b_mod_shell                              0x080034ac   Section        8  main.o(b_mod_shell)
    __tagsym$$used                           0x080034ac   Number         0  main.o(b_mod_shell)
    b_mod_shell                              0x080034b4   Section        8  b_mod_shell.o(b_mod_shell)
    __tagsym$$used                           0x080034b4   Number         0  b_mod_shell.o(b_mod_shell)
    bos_polling                              0x080034bc   Section        4  b_core.o(bos_polling)
    __tagsym$$used                           0x080034bc   Number         0  b_core.o(bos_polling)
    bos_polling                              0x080034c0   Section        4  b_util_uart.o(bos_polling)
    __tagsym$$used                           0x080034c0   Number         0  b_util_uart.o(bos_polling)
    driver_init                              0x080034c4   Section        4  b_device.o(driver_init)
    __tagsym$$used                           0x080034c4   Number         0  b_device.o(driver_init)
    driver_init                              0x080034c8   Section        4  b_drv_ds18b20.o(driver_init)
    __tagsym$$used                           0x080034c8   Number         0  b_drv_ds18b20.o(driver_init)
    driver_init_0                            0x080034cc   Section        4  b_device.o(driver_init_0)
    __tagsym$$used                           0x080034cc   Number         0  b_device.o(driver_init_0)
    .data                                    0x20000000   Section       20  stm32f10x_rcc.o(.data)
    ADCPrescTable                            0x20000000   Data           4  stm32f10x_rcc.o(.data)
    APBAHBPrescTable                         0x20000004   Data          16  stm32f10x_rcc.o(.data)
    .data                                    0x20000014   Section       20  system_stm32f10x.o(.data)
    .data                                    0x20000028   Section        1  b_core.o(.data)
    init                                     0x20000028   Data           1  b_core.o(.data)
    .data                                    0x2000002c   Section       16  b_device.o(.data)
    bDriverTable                             0x2000002c   Data           8  b_device.o(.data)
    bDeviceDescTable                         0x20000034   Data           8  b_device.o(.data)
    .data                                    0x2000003c   Section       20  mcu_stm32f10x_uart.o(.data)
    UartTable                                0x2000003c   Data          20  mcu_stm32f10x_uart.o(.data)
    .data                                    0x20000050   Section        8  b_hal.o(.data)
    bSysTick                                 0x20000050   Data           4  b_hal.o(.data)
    bUsDelayParam                            0x20000054   Data           4  b_hal.o(.data)
    .data                                    0x20000058   Section      148  nr_micro_shell.o(.data)
    .data                                    0x200000ec   Section        4  nr_micro_shell.o(.data)
    last                                     0x200000ec   Data           4  nr_micro_shell.o(.data)
    .bss                                     0x200000f0   Section       80  b_core.o(.bss)
    bCoreFdTable                             0x200000f0   Data          80  b_core.o(.bss)
    .bss                                     0x20000140   Section       32  b_device.o(.bss)
    bNullDriver                              0x20000140   Data          32  b_device.o(.bss)
    .bss                                     0x20000160   Section       32  b_drv_ds18b20.o(.bss)
    .bss                                     0x20000180   Section      256  b_mod_log.o(.bss)
    bLogBuff                                 0x20000180   Data         256  b_mod_log.o(.bss)
    .bss                                     0x20000280   Section       32  b_util_uart.o(.bss)
    bUitlUartHead                            0x20000280   Data          32  b_util_uart.o(.bss)
    .bss                                     0x200002a0   Section      132  ansi.o(.bss)
    STACK                                    0x20000328   Section     2048  startup_stm32f10x_cl.o(STACK)

    Global Symbols

    Symbol Name                              Value     Ov Type        Size  Object(Section)

    BuildAttributes$$THM_ISAv4$P$D$K$B$S$PE$A:L22UL41UL21$X:L11$S22US41US21$IEEE1$IW$USESV6$~STKCKD$USESV7$~SHL$OTIME$ROPI$EBA8$MICROLIB$REQ8$PRES8$EABIv2 0x00000000   Number         0  anon$$obj.o ABSOLUTE
    __ARM_use_no_argv                        0x00000000   Number         0  main.o ABSOLUTE
    _printf_a                                0x00000000   Number         0  stubs.o ABSOLUTE
    _printf_c                                0x00000000   Number         0  stubs.o ABSOLUTE
    _printf_charcount                        0x00000000   Number         0  stubs.o ABSOLUTE
    _printf_d                                0x00000000   Number         0  stubs.o ABSOLUTE
    _printf_e                                0x00000000   Number         0  stubs.o ABSOLUTE
    _printf_f                                0x00000000   Number         0  stubs.o ABSOLUTE
    _printf_flags                            0x00000000   Number         0  stubs.o ABSOLUTE
    _printf_fp_dec                           0x00000000   Number         0  stubs.o ABSOLUTE
    _printf_fp_hex                           0x00000000   Number         0  stubs.o ABSOLUTE
    _printf_g                                0x00000000   Number         0  stubs.o ABSOLUTE
    _printf_i                                0x00000000   Number         0  stubs.o ABSOLUTE
    _printf_int_dec                          0x00000000   Number         0  stubs.o ABSOLUTE
    _printf_l                                0x00000000   Number         0  stubs.o ABSOLUTE
    _printf_lc                               0x00000000   Number         0  stubs.o ABSOLUTE
    _printf_ll                               0x00000000   Number         0  stubs.o ABSOLUTE
    _printf_lld                              0x00000000   Number         0  stubs.o ABSOLUTE
    _printf_lli                              0x00000000   Number         0  stubs.o ABSOLUTE
    _printf_llo                              0x00000000   Number         0  stubs.o ABSOLUTE
    _printf_llu                              0x00000000   Number         0  stubs.o ABSOLUTE
    _printf_llx                              0x00000000   Number         0  stubs.o ABSOLUTE
    _printf_longlong_dec                     0x00000000   Number         0  stubs.o ABSOLUTE
    _printf_longlong_hex                     0x00000000   Number         0  stubs.o ABSOLUTE
    _printf_longlong_oct                     0x00000000   Number         0  stubs.o ABSOLUTE
    _printf_ls                               0x00000000   Number         0  stubs.o ABSOLUTE
    _printf_mbtowc                           0x00000000   Number         0  stubs.o ABSOLUTE
    _printf_n                                0x00000000   Number         0  stubs.o ABSOLUTE
    _printf_o                                0x00000000   Number         0  stubs.o ABSOLUTE
    _printf_p                                0x00000000   Number         0  stubs.o ABSOLUTE
    _printf_percent                          0x00000000   Number         0  stubs.o ABSOLUTE
    _printf_pre_padding                      0x00000000   Number         0  stubs.o ABSOLUTE
    _printf_return_value                     0x00000000   Number         0  stubs.o ABSOLUTE
    _printf_s                                0x00000000   Number         0  stubs.o ABSOLUTE
    _printf_sizespec                         0x00000000   Number         0  stubs.o ABSOLUTE
    _printf_str                              0x00000000   Number         0  stubs.o ABSOLUTE
    _printf_truncate_signed                  0x00000000   Number         0  stubs.o ABSOLUTE
    _printf_truncate_unsigned                0x00000000   Number         0  stubs.o ABSOLUTE
    _printf_u                                0x00000000   Number         0  stubs.o ABSOLUTE
    _printf_wc                               0x00000000   Number         0  stubs.o ABSOLUTE
    _printf_wctomb                           0x00000000   Number         0  stubs.o ABSOLUTE
    _printf_widthprec                        0x00000000   Number         0  stubs.o ABSOLUTE
    _printf_x                                0x00000000   Number         0  stubs.o ABSOLUTE
    __arm_fini_                               - Undefined Weak Reference
    __cpp_initialize__aeabi_                  - Undefined Weak Reference
    __cxa_finalize                            - Undefined Weak Reference
    __decompress                              - Undefined Weak Reference
    _clock_init                               - Undefined Weak Reference
    _microlib_exit                            - Undefined Weak Reference
    __Vectors_Size                           0x00000150   Number         0  startup_stm32f10x_cl.o ABSOLUTE
    __Vectors                                0x08000000   Data           4  startup_stm32f10x_cl.o(RESET)
    __Vectors_End                            0x08000150   Data           0  startup_stm32f10x_cl.o(RESET)
    __main                                   0x08000151   Thumb Code     0  entry.o(.ARM.Collect$$$$00000000)
    _main_stk                                0x08000151   Thumb Code     0  entry2.o(.ARM.Collect$$$$00000001)
    _main_scatterload                        0x08000155   Thumb Code     0  entry5.o(.ARM.Collect$$$$00000004)
    __main_after_scatterload                 0x08000159   Thumb Code     0  entry5.o(.ARM.Collect$$$$00000004)
    _main_clock                              0x08000159   Thumb Code     0  entry7b.o(.ARM.Collect$$$$00000008)
    _main_cpp_init                           0x08000159   Thumb Code     0  entry8b.o(.ARM.Collect$$$$0000000A)
    _main_init                               0x08000159   Thumb Code     0  entry9a.o(.ARM.Collect$$$$0000000B)
    __rt_lib_shutdown_fini                   0x08000161   Thumb Code     0  entry12b.o(.ARM.Collect$$$$0000000E)
    __rt_final_cpp                           0x08000165   Thumb Code     0  entry10a.o(.ARM.Collect$$$$0000000F)
    __rt_final_exit                          0x08000165   Thumb Code     0  entry11a.o(.ARM.Collect$$$$00000011)
    Reset_Handler                            0x08000169   Thumb Code     8  startup_stm32f10x_cl.o(.text)
    ADC1_2_IRQHandler                        0x08000183   Thumb Code     0  startup_stm32f10x_cl.o(.text)
    CAN1_RX0_IRQHandler                      0x08000183   Thumb Code     0  startup_stm32f10x_cl.o(.text)
    CAN1_RX1_IRQHandler                      0x08000183   Thumb Code     0  startup_stm32f10x_cl.o(.text)
    CAN1_SCE_IRQHandler                      0x08000183   Thumb Code     0  startup_stm32f10x_cl.o(.text)
    CAN1_TX_IRQHandler                       0x08000183   Thumb Code     0  startup_stm32f10x_cl.o(.text)
    CAN2_RX0_IRQHandler                      0x08000183   Thumb Code     0  startup_stm32f10x_cl.o(.text)
    CAN2_RX1_IRQHandler                      0x08000183   Thumb Code     0  startup_stm32f10x_cl.o(.text)
    CAN2_SCE_IRQHandler                      0x08000183   Thumb Code     0  startup_stm32f10x_cl.o(.text)
    CAN2_TX_IRQHandler                       0x08000183   Thumb Code     0  startup_stm32f10x_cl.o(.text)
    DMA1_Channel1_IRQHandler                 0x08000183   Thumb Code     0  startup_stm32f10x_cl.o(.text)
    DMA1_Channel2_IRQHandler                 0x08000183   Thumb Code     0  startup_stm32f10x_cl.o(.text)
    DMA1_Channel3_IRQHandler                 0x08000183   Thumb Code     0  startup_stm32f10x_cl.o(.text)
    DMA1_Channel4_IRQHandler                 0x08000183   Thumb Code     0  startup_stm32f10x_cl.o(.text)
    DMA1_Channel5_IRQHandler                 0x08000183   Thumb Code     0  startup_stm32f10x_cl.o(.text)
    DMA1_Channel6_IRQHandler                 0x08000183   Thumb Code     0  startup_stm32f10x_cl.o(.text)
    DMA1_Channel7_IRQHandler                 0x08000183   Thumb Code     0  startup_stm32f10x_cl.o(.text)
    DMA2_Channel1_IRQHandler                 0x08000183   Thumb Code     0  startup_stm32f10x_cl.o(.text)
    DMA2_Channel2_IRQHandler                 0x08000183   Thumb Code     0  startup_stm32f10x_cl.o(.text)
    DMA2_Channel3_IRQHandler                 0x08000183   Thumb Code     0  startup_stm32f10x_cl.o(.text)
    DMA2_Channel4_IRQHandler                 0x08000183   Thumb Code     0  startup_stm32f10x_cl.o(.text)
    DMA2_Channel5_IRQHandler                 0x08000183   Thumb Code     0  startup_stm32f10x_cl.o(.text)
    ETH_IRQHandler                           0x08000183   Thumb Code     0  startup_stm32f10x_cl.o(.text)
    ETH_WKUP_IRQHandler                      0x08000183   Thumb Code     0  startup_stm32f10x_cl.o(.text)
    EXTI0_IRQHandler                         0x08000183   Thumb Code     0  startup_stm32f10x_cl.o(.text)
    EXTI15_10_IRQHandler                     0x08000183   Thumb Code     0  startup_stm32f10x_cl.o(.text)
    EXTI1_IRQHandler                         0x08000183   Thumb Code     0  startup_stm32f10x_cl.o(.text)
    EXTI2_IRQHandler                         0x08000183   Thumb Code     0  startup_stm32f10x_cl.o(.text)
    EXTI3_IRQHandler                         0x08000183   Thumb Code     0  startup_stm32f10x_cl.o(.text)
    EXTI4_IRQHandler                         0x08000183   Thumb Code     0  startup_stm32f10x_cl.o(.text)
    EXTI9_5_IRQHandler                       0x08000183   Thumb Code     0  startup_stm32f10x_cl.o(.text)
    FLASH_IRQHandler                         0x08000183   Thumb Code     0  startup_stm32f10x_cl.o(.text)
    I2C1_ER_IRQHandler                       0x08000183   Thumb Code     0  startup_stm32f10x_cl.o(.text)
    I2C1_EV_IRQHandler                       0x08000183   Thumb Code     0  startup_stm32f10x_cl.o(.text)
    I2C2_ER_IRQHandler                       0x08000183   Thumb Code     0  startup_stm32f10x_cl.o(.text)
    I2C2_EV_IRQHandler                       0x08000183   Thumb Code     0  startup_stm32f10x_cl.o(.text)
    OTG_FS_IRQHandler                        0x08000183   Thumb Code     0  startup_stm32f10x_cl.o(.text)
    OTG_FS_WKUP_IRQHandler                   0x08000183   Thumb Code     0  startup_stm32f10x_cl.o(.text)
    PVD_IRQHandler                           0x08000183   Thumb Code     0  startup_stm32f10x_cl.o(.text)
    RCC_IRQHandler                           0x08000183   Thumb Code     0  startup_stm32f10x_cl.o(.text)
    RTCAlarm_IRQHandler                      0x08000183   Thumb Code     0  startup_stm32f10x_cl.o(.text)
    RTC_IRQHandler                           0x08000183   Thumb Code     0  startup_stm32f10x_cl.o(.text)
    SPI1_IRQHandler                          0x08000183   Thumb Code     0  startup_stm32f10x_cl.o(.text)
    SPI2_IRQHandler                          0x08000183   Thumb Code     0  startup_stm32f10x_cl.o(.text)
    SPI3_IRQHandler                          0x08000183   Thumb Code     0  startup_stm32f10x_cl.o(.text)
    TAMPER_IRQHandler                        0x08000183   Thumb Code     0  startup_stm32f10x_cl.o(.text)
    TIM1_BRK_IRQHandler                      0x08000183   Thumb Code     0  startup_stm32f10x_cl.o(.text)
    TIM1_CC_IRQHandler                       0x08000183   Thumb Code     0  startup_stm32f10x_cl.o(.text)
    TIM1_TRG_COM_IRQHandler                  0x08000183   Thumb Code     0  startup_stm32f10x_cl.o(.text)
    TIM1_UP_IRQHandler                       0x08000183   Thumb Code     0  startup_stm32f10x_cl.o(.text)
    TIM2_IRQHandler                          0x08000183   Thumb Code     0  startup_stm32f10x_cl.o(.text)
    TIM3_IRQHandler                          0x08000183   Thumb Code     0  startup_stm32f10x_cl.o(.text)
    TIM4_IRQHandler                          0x08000183   Thumb Code     0  startup_stm32f10x_cl.o(.text)
    TIM5_IRQHandler                          0x08000183   Thumb Code     0  startup_stm32f10x_cl.o(.text)
    TIM6_IRQHandler                          0x08000183   Thumb Code     0  startup_stm32f10x_cl.o(.text)
    TIM7_IRQHandler                          0x08000183   Thumb Code     0  startup_stm32f10x_cl.o(.text)
    UART4_IRQHandler                         0x08000183   Thumb Code     0  startup_stm32f10x_cl.o(.text)
    UART5_IRQHandler                         0x08000183   Thumb Code     0  startup_stm32f10x_cl.o(.text)
    USART2_IRQHandler                        0x08000183   Thumb Code     0  startup_stm32f10x_cl.o(.text)
    USART3_IRQHandler                        0x08000183   Thumb Code     0  startup_stm32f10x_cl.o(.text)
    WWDG_IRQHandler                          0x08000183   Thumb Code     0  startup_stm32f10x_cl.o(.text)
    __rt_ctype_table                         0x0800018d   Thumb Code     4  ctype_o.o(.text)
    __aeabi_memcpy                           0x08000195   Thumb Code    36  memcpya.o(.text)
    __aeabi_memcpy4                          0x08000195   Thumb Code     0  memcpya.o(.text)
    __aeabi_memcpy8                          0x08000195   Thumb Code     0  memcpya.o(.text)
    __aeabi_memset                           0x080001b9   Thumb Code    14  memseta.o(.text)
    __aeabi_memset4                          0x080001b9   Thumb Code     0  memseta.o(.text)
    __aeabi_memset8                          0x080001b9   Thumb Code     0  memseta.o(.text)
    __aeabi_memclr                           0x080001c7   Thumb Code     4  memseta.o(.text)
    __aeabi_memclr4                          0x080001c7   Thumb Code     0  memseta.o(.text)
    __aeabi_memclr8                          0x080001c7   Thumb Code     0  memseta.o(.text)
    _memset$wrapper                          0x080001cb   Thumb Code    18  memseta.o(.text)
    strstr                                   0x080001dd   Thumb Code    36  strstr.o(.text)
    strlen                                   0x08000201   Thumb Code    14  strlen.o(.text)
    strcmp                                   0x0800020f   Thumb Code    28  strcmp.o(.text)
    strcpy                                   0x0800022b   Thumb Code    18  strcpy.o(.text)
    __aeabi_fmul                             0x0800023d   Thumb Code   100  fmul.o(.text)
    __aeabi_dmul                             0x080002a1   Thumb Code   228  dmul.o(.text)
    __aeabi_ddiv                             0x08000385   Thumb Code   222  ddiv.o(.text)
    __ARM_scalbn                             0x08000463   Thumb Code    46  dscalb.o(.text)
    scalbn                                   0x08000463   Thumb Code     0  dscalb.o(.text)
    __aeabi_i2d                              0x08000491   Thumb Code    34  dflti.o(.text)
    __aeabi_ui2d                             0x080004b3   Thumb Code    26  dfltui.o(.text)
    __aeabi_f2iz                             0x080004cd   Thumb Code    50  ffixi.o(.text)
    __aeabi_d2uiz                            0x080004ff   Thumb Code    50  dfixui.o(.text)
    __aeabi_d2f                              0x08000531   Thumb Code    56  d2f.o(.text)
    __aeabi_uidiv                            0x08000569   Thumb Code     0  uidiv.o(.text)
    __aeabi_uidivmod                         0x08000569   Thumb Code    44  uidiv.o(.text)
    __aeabi_uldivmod                         0x08000595   Thumb Code    98  uldiv.o(.text)
    __aeabi_llsr                             0x080005f7   Thumb Code    32  llushr.o(.text)
    _ll_ushift_r                             0x080005f7   Thumb Code     0  llushr.o(.text)
    __I$use$fp                               0x08000617   Thumb Code     0  iusefp.o(.text)
    _float_round                             0x08000617   Thumb Code    18  fepilogue.o(.text)
    _float_epilogue                          0x08000629   Thumb Code    92  fepilogue.o(.text)
    _double_round                            0x08000685   Thumb Code    30  depilogue.o(.text)
    _double_epilogue                         0x080006a3   Thumb Code   156  depilogue.o(.text)
    __aeabi_dadd                             0x0800073f   Thumb Code   322  dadd.o(.text)
    __aeabi_dsub                             0x08000881   Thumb Code     6  dadd.o(.text)
    __aeabi_drsub                            0x08000887   Thumb Code     6  dadd.o(.text)
    __aeabi_d2ulz                            0x0800088d   Thumb Code    48  dfixul.o(.text)
    __aeabi_cdrcmple                         0x080008bd   Thumb Code    48  cdrcmple.o(.text)
    __scatterload                            0x080008ed   Thumb Code    28  init.o(.text)
    __scatterload_rt2                        0x080008ed   Thumb Code     0  init.o(.text)
    __aeabi_llsl                             0x08000911   Thumb Code    30  llshl.o(.text)
    _ll_shift_l                              0x08000911   Thumb Code     0  llshl.o(.text)
    __aeabi_lasr                             0x0800092f   Thumb Code    36  llsshr.o(.text)
    _ll_sshift_r                             0x0800092f   Thumb Code     0  llsshr.o(.text)
    BoardInit                                0x08000955   Thumb Code   130  board.o(i.BoardInit)
    BusFault_Handler                         0x080009dd   Thumb Code     2  stm32f10x_it.o(i.BusFault_Handler)
    DebugMon_Handler                         0x080009df   Thumb Code     2  stm32f10x_it.o(i.DebugMon_Handler)
    GPIO_Init                                0x080009e1   Thumb Code   162  stm32f10x_gpio.o(i.GPIO_Init)
    GPIO_PinRemapConfig                      0x08000a85   Thumb Code    82  stm32f10x_gpio.o(i.GPIO_PinRemapConfig)
    GPIO_SetBits                             0x08000add   Thumb Code     4  stm32f10x_gpio.o(i.GPIO_SetBits)
    HardFault_Handler                        0x08000ae1   Thumb Code     2  stm32f10x_it.o(i.HardFault_Handler)
    MemManage_Handler                        0x08000ae3   Thumb Code     2  stm32f10x_it.o(i.MemManage_Handler)
    NMI_Handler                              0x08000ae5   Thumb Code     2  stm32f10x_it.o(i.NMI_Handler)
    NVIC_Init                                0x08000ae9   Thumb Code    94  misc.o(i.NVIC_Init)
    NVIC_PriorityGroupConfig                 0x08000b4d   Thumb Code    10  misc.o(i.NVIC_PriorityGroupConfig)
    PendSV_Handler                           0x08000b81   Thumb Code     2  stm32f10x_it.o(i.PendSV_Handler)
    RCC_APB1PeriphClockCmd                   0x08000b85   Thumb Code    18  stm32f10x_rcc.o(i.RCC_APB1PeriphClockCmd)
    RCC_APB2PeriphClockCmd                   0x08000b9d   Thumb Code    18  stm32f10x_rcc.o(i.RCC_APB2PeriphClockCmd)
    RCC_GetClocksFreq                        0x08000bb5   Thumb Code   178  stm32f10x_rcc.o(i.RCC_GetClocksFreq)
    SPI_Cmd                                  0x08000c7d   Thumb Code    20  stm32f10x_spi.o(i.SPI_Cmd)
    SPI_Init                                 0x08000c91   Thumb Code    56  stm32f10x_spi.o(i.SPI_Init)
    SVC_Handler                              0x08000cc9   Thumb Code     2  stm32f10x_it.o(i.SVC_Handler)
    SysTick_Handler                          0x08000d9d   Thumb Code     4  main.o(i.SysTick_Handler)
    SystemInit                               0x08000da1   Thumb Code    64  system_stm32f10x.o(i.SystemInit)
    USART1_IRQHandler                        0x08000ded   Thumb Code    54  main.o(i.USART1_IRQHandler)
    USART_ClearITPendingBit                  0x08000e29   Thumb Code    12  stm32f10x_usart.o(i.USART_ClearITPendingBit)
    USART_Cmd                                0x08000e35   Thumb Code    20  stm32f10x_usart.o(i.USART_Cmd)
    USART_GetITStatus                        0x08000e49   Thumb Code    62  stm32f10x_usart.o(i.USART_GetITStatus)
    USART_ITConfig                           0x08000e87   Thumb Code    48  stm32f10x_usart.o(i.USART_ITConfig)
    USART_Init                               0x08000eb9   Thumb Code   166  stm32f10x_usart.o(i.USART_Init)
    USART_ReceiveData                        0x08000f65   Thumb Code     8  stm32f10x_usart.o(i.USART_ReceiveData)
    UsageFault_Handler                       0x08000f6d   Thumb Code     2  stm32f10x_it.o(i.UsageFault_Handler)
    __0sprintf                               0x0800145d   Thumb Code    34  printfa.o(i.__0sprintf)
    __1sprintf                               0x0800145d   Thumb Code     0  printfa.o(i.__0sprintf)
    __2sprintf                               0x0800145d   Thumb Code     0  printfa.o(i.__0sprintf)
    __c89sprintf                             0x0800145d   Thumb Code     0  printfa.o(i.__0sprintf)
    sprintf                                  0x0800145d   Thumb Code     0  printfa.o(i.__0sprintf)
    __0vsnprintf                             0x08001485   Thumb Code    46  printfa.o(i.__0vsnprintf)
    __1vsnprintf                             0x08001485   Thumb Code     0  printfa.o(i.__0vsnprintf)
    __2vsnprintf                             0x08001485   Thumb Code     0  printfa.o(i.__0vsnprintf)
    __c89vsnprintf                           0x08001485   Thumb Code     0  printfa.o(i.__0vsnprintf)
    vsnprintf                                0x08001485   Thumb Code     0  printfa.o(i.__0vsnprintf)
    __scatterload_copy                       0x080014b9   Thumb Code    14  handlers.o(i.__scatterload_copy)
    __scatterload_null                       0x080014c7   Thumb Code     2  handlers.o(i.__scatterload_null)
    __scatterload_zeroinit                   0x080014c9   Thumb Code    14  handlers.o(i.__scatterload_zeroinit)
    _shell_init                              0x080020f5   Thumb Code    42  nr_micro_shell.o(i._shell_init)
    ansi_clear_current_line                  0x08002151   Thumb Code    14  ansi.o(i.ansi_clear_current_line)
    ansi_get_char                            0x08002161   Thumb Code   236  ansi.o(i.ansi_get_char)
    ansi_init                                0x08002251   Thumb Code    22  ansi.o(i.ansi_init)
    ansi_search_char                         0x08002267   Thumb Code    32  ansi.o(i.ansi_search_char)
    ansi_show_char                           0x08002289   Thumb Code    16  ansi_port.o(i.ansi_show_char)
    ansi_show_str                            0x0800229d   Thumb Code    24  ansi_port.o(i.ansi_show_str)
    bClose                                   0x080022b5   Thumb Code    44  b_core.o(i.bClose)
    bCtl                                     0x080022e5   Thumb Code    20  b_core.o(i.bCtl)
    bDS18B20_Init                            0x080022fd   Thumb Code    24  b_drv_ds18b20.o(i.bDS18B20_Init)
    bDeviceClose                             0x08002321   Thumb Code    72  b_device.o(i.bDeviceClose)
    bDeviceCtl                               0x080023a5   Thumb Code    74  b_device.o(i.bDeviceCtl)
    bDeviceInit                              0x0800242d   Thumb Code    46  b_device.o(i.bDeviceInit)
    bDeviceOpen                              0x08002471   Thumb Code    72  b_device.o(i.bDeviceOpen)
    bDeviceRead                              0x080024f5   Thumb Code    78  b_device.o(i.bDeviceRead)
    bExec                                    0x08002581   Thumb Code    22  b_core.o(i.bExec)
    bHalDelayUs                              0x080025a1   Thumb Code    22  b_hal.o(i.bHalDelayUs)
    bHalGetSysTick                           0x080025bd   Thumb Code     6  b_hal.o(i.bHalGetSysTick)
    bHalIncSysTick                           0x080025c9   Thumb Code    10  b_hal.o(i.bHalIncSysTick)
    bHalInit                                 0x080025d9   Thumb Code     4  b_hal.o(i.bHalInit)
    bInit                                    0x080025dd   Thumb Code   232  b_core.o(i.bInit)
    bLogOut                                  0x080028e5   Thumb Code   186  b_mod_log.o(i.bLogOut)
    bLogOutput                               0x080029ad   Thumb Code    24  b_mod_log.o(i.bLogOutput)
    bOpen                                    0x080029c9   Thumb Code    48  b_core.o(i.bOpen)
    bRead                                    0x080029f9   Thumb Code    62  b_core.o(i.bRead)
    bShellInit                               0x08002a3d   Thumb Code    18  b_mod_shell.o(i.bShellInit)
    bShellParse                              0x08002a59   Thumb Code    62  b_mod_shell.o(i.bShellParse)
    main                                     0x08002aa1   Thumb Code    78  main.o(i.main)
    nr_ansi_ctrl_common_slover               0x08002af5   Thumb Code    30  ansi_port.o(i.nr_ansi_ctrl_common_slover)
    nr_ansi_in_backspace                     0x08002b15   Thumb Code    60  ansi_port.o(i.nr_ansi_in_backspace)
    nr_ansi_in_down                          0x08002b61   Thumb Code   108  ansi_port.o(i.nr_ansi_in_down)
    nr_ansi_in_enter                         0x08002be5   Thumb Code    38  ansi_port.o(i.nr_ansi_in_enter)
    nr_ansi_in_left                          0x08002c11   Thumb Code    32  ansi_port.o(i.nr_ansi_in_left)
    nr_ansi_in_newline                       0x08002c41   Thumb Code     6  ansi_port.o(i.nr_ansi_in_newline)
    nr_ansi_in_right                         0x08002c49   Thumb Code    36  ansi_port.o(i.nr_ansi_in_right)
    nr_ansi_in_tab                           0x08002c7d   Thumb Code   174  ansi_port.o(i.nr_ansi_in_tab)
    nr_ansi_in_up                            0x08002d51   Thumb Code   110  ansi_port.o(i.nr_ansi_in_up)
    shell_cmd_complete                       0x08002e65   Thumb Code    54  nr_micro_shell.o(i.shell_cmd_complete)
    shell_his_copy_queue_item                0x08002ea5   Thumb Code   124  nr_micro_shell.o(i.shell_his_copy_queue_item)
    shell_his_queue_add_cmd                  0x08002f21   Thumb Code   170  nr_micro_shell.o(i.shell_his_queue_add_cmd)
    shell_his_queue_init                     0x08002fcb   Thumb Code    16  nr_micro_shell.o(i.shell_his_queue_init)
    shell_his_queue_search_cmd               0x08002fdd   Thumb Code   134  nr_micro_shell.o(i.shell_his_queue_search_cmd)
    shell_parser                             0x08003065   Thumb Code   234  nr_micro_shell.o(i.shell_parser)
    shell_search_cmd                         0x08003191   Thumb Code    38  nr_micro_shell.o(i.shell_search_cmd)
    bHalGPIODriver                           0x0800324c   Data          20  mcu_stm32f10x_gpio.o(.constdata)
    bHalUartDriver                           0x08003260   Data           8  mcu_stm32f10x_uart.o(.constdata)
    nr_ansi_in_special_symbol                0x08003268   Data           5  ansi.o(.constdata)
    nr_ansi_in_cmd                           0x0800326d   Data          20  ansi.o(.constdata)
    nr_ansi_in_cmd_fun                       0x08003284   Data          76  ansi.o(.constdata)
    nr_ansi_in_special_symbol_fun            0x080032d0   Data          16  ansi.o(.constdata)
    __ctype_table                            0x0800335c   Data         129  ctype_o.o(.constdata)
    Region$$Table$$Base                      0x0800348c   Number         0  anon$$obj.o(Region$$Table)
    Region$$Table$$Limit                     0x080034ac   Number         0  anon$$obj.o(Region$$Table)
    b_mod_shell$$Base                        0x080034ac   Number         0  main.o(b_mod_shell)
    do__CmdTempHandler                       0x080034ac   Data           8  main.o(b_mod_shell)
    do__CmdBosHandler                        0x080034b4   Data           8  b_mod_shell.o(b_mod_shell)
    b_mod_shell$$Limit                       0x080034bc   Number         0  b_mod_shell.o(b_mod_shell)
    bos_polling$$Base                        0x080034bc   Number         0  b_core.o(bos_polling)
    polling_bCoreMonitor                     0x080034bc   Data           4  b_core.o(bos_polling)
    polling_bUtilUartDetectIdle              0x080034c0   Data           4  b_util_uart.o(bos_polling)
    bos_polling$$Limit                       0x080034c4   Number         0  b_util_uart.o(bos_polling)
    driver_init$$Base                        0x080034c4   Number         0  b_device.o(driver_init)
    init_bDriverNullInit                     0x080034c4   Data           4  b_device.o(driver_init)
    initbDS18B20_Init                        0x080034c8   Data           4  b_drv_ds18b20.o(driver_init)
    driver_init$$Limit                       0x080034cc   Number         0  b_drv_ds18b20.o(driver_init)
    driver_init_0$$Base                      0x080034cc   Number         0  b_device.o(driver_init_0)
    init0_bDriverNullInit                    0x080034cc   Data           4  b_device.o(driver_init_0)
    driver_init_0$$Limit                     0x080034d0   Number         0  b_device.o(driver_init_0)
    SystemCoreClock                          0x20000014   Data           4  system_stm32f10x.o(.data)
    AHBPrescTable                            0x20000018   Data          16  system_stm32f10x.o(.data)
    nr_shell                                 0x20000058   Data         148  nr_micro_shell.o(.data)
    bDS18B20_Driver                          0x20000160   Data          32  b_drv_ds18b20.o(.bss)
    nr_ansi                                  0x200002a0   Data         132  ansi.o(.bss)
    __initial_sp                             0x20000b28   Data           0  startup_stm32f10x_cl.o(STACK)



==============================================================================

Memory Map of the image

  Image Entry point : 0x08000151

  Load Region LR_IROM1 (Base: 0x08000000, Size: 0x000035c0, Max: 0x00040000, ABSOLUTE)

    Execution Region ER_IROM1 (Exec base: 0x08000000, Load base: 0x08000000, Size: 0x000034d0, Max: 0x00040000, ABSOLUTE)

    Exec Addr    Load Addr    Size         Type   Attr      Idx    E Section Name        Object

    0x08000000   0x08000000   0x00000150   Data   RO         3337    RESET               startup_stm32f10x_cl.o
    0x08000150   0x08000150   0x00000000   Code   RO         4382  * .ARM.Collect$$$$00000000  mc_w.l(entry.o)
    0x08000150   0x08000150   0x00000004   Code   RO         4706    .ARM.Collect$$$$00000001  mc_w.l(entry2.o)
    0x08000154   0x08000154   0x00000004   Code   RO         4709    .ARM.Collect$$$$00000004  mc_w.l(entry5.o)
    0x08000158   0x08000158   0x00000000   Code   RO         4711    .ARM.Collect$$$$00000008  mc_w.l(entry7b.o)
    0x08000158   0x08000158   0x00000000   Code   RO         4713    .ARM.Collect$$$$0000000A  mc_w.l(entry8b.o)
    0x08000158   0x08000158   0x00000008   Code   RO         4714    .ARM.Collect$$$$0000000B  mc_w.l(entry9a.o)
    0x08000160   0x08000160   0x00000004   Code   RO         4721    .ARM.Collect$$$$0000000E  mc_w.l(entry12b.o)
    0x08000164   0x08000164   0x00000000   Code   RO         4716    .ARM.Collect$$$$0000000F  mc_w.l(entry10a.o)
    0x08000164   0x08000164   0x00000000   Code   RO         4718    .ARM.Collect$$$$00000011  mc_w.l(entry11a.o)
    0x08000164   0x08000164   0x00000004   Code   RO         4707    .ARM.Collect$$$$00002712  mc_w.l(entry2.o)
    0x08000168   0x08000168   0x00000024   Code   RO         3338    .text               startup_stm32f10x_cl.o
    0x0800018c   0x0800018c   0x00000008   Code   RO         4385    .text               mc_w.l(ctype_o.o)
    0x08000194   0x08000194   0x00000024   Code   RO         4413    .text               mc_w.l(memcpya.o)
    0x080001b8   0x080001b8   0x00000024   Code   RO         4415    .text               mc_w.l(memseta.o)
    0x080001dc   0x080001dc   0x00000024   Code   RO         4417    .text               mc_w.l(strstr.o)
    0x08000200   0x08000200   0x0000000e   Code   RO         4419    .text               mc_w.l(strlen.o)
    0x0800020e   0x0800020e   0x0000001c   Code   RO         4421    .text               mc_w.l(strcmp.o)
    0x0800022a   0x0800022a   0x00000012   Code   RO         4423    .text               mc_w.l(strcpy.o)
    0x0800023c   0x0800023c   0x00000064   Code   RO         4688    .text               mf_w.l(fmul.o)
    0x080002a0   0x080002a0   0x000000e4   Code   RO         4690    .text               mf_w.l(dmul.o)
    0x08000384   0x08000384   0x000000de   Code   RO         4692    .text               mf_w.l(ddiv.o)
    0x08000462   0x08000462   0x0000002e   Code   RO         4694    .text               mf_w.l(dscalb.o)
    0x08000490   0x08000490   0x00000022   Code   RO         4696    .text               mf_w.l(dflti.o)
    0x080004b2   0x080004b2   0x0000001a   Code   RO         4698    .text               mf_w.l(dfltui.o)
    0x080004cc   0x080004cc   0x00000032   Code   RO         4700    .text               mf_w.l(ffixi.o)
    0x080004fe   0x080004fe   0x00000032   Code   RO         4702    .text               mf_w.l(dfixui.o)
    0x08000530   0x08000530   0x00000038   Code   RO         4704    .text               mf_w.l(d2f.o)
    0x08000568   0x08000568   0x0000002c   Code   RO         4723    .text               mc_w.l(uidiv.o)
    0x08000594   0x08000594   0x00000062   Code   RO         4725    .text               mc_w.l(uldiv.o)
    0x080005f6   0x080005f6   0x00000020   Code   RO         4727    .text               mc_w.l(llushr.o)
    0x08000616   0x08000616   0x00000000   Code   RO         4729    .text               mc_w.l(iusefp.o)
    0x08000616   0x08000616   0x0000006e   Code   RO         4730    .text               mf_w.l(fepilogue.o)
    0x08000684   0x08000684   0x000000ba   Code   RO         4732    .text               mf_w.l(depilogue.o)
    0x0800073e   0x0800073e   0x0000014e   Code   RO         4734    .text               mf_w.l(dadd.o)
    0x0800088c   0x0800088c   0x00000030   Code   RO         4736    .text               mf_w.l(dfixul.o)
    0x080008bc   0x080008bc   0x00000030   Code   RO         4738    .text               mf_w.l(cdrcmple.o)
    0x080008ec   0x080008ec   0x00000024   Code   RO         4740    .text               mc_w.l(init.o)
    0x08000910   0x08000910   0x0000001e   Code   RO         4742    .text               mc_w.l(llshl.o)
    0x0800092e   0x0800092e   0x00000024   Code   RO         4744    .text               mc_w.l(llsshr.o)
    0x08000952   0x08000952   0x00000002   PAD
    0x08000954   0x08000954   0x00000088   Code   RO         4360    i.BoardInit         board.o
    0x080009dc   0x080009dc   0x00000002   Code   RO          231    i.BusFault_Handler  stm32f10x_it.o
    0x080009de   0x080009de   0x00000002   Code   RO          232    i.DebugMon_Handler  stm32f10x_it.o
    0x080009e0   0x080009e0   0x000000a2   Code   RO         1426    i.GPIO_Init         stm32f10x_gpio.o
    0x08000a82   0x08000a82   0x00000002   PAD
    0x08000a84   0x08000a84   0x00000058   Code   RO         1428    i.GPIO_PinRemapConfig  stm32f10x_gpio.o
    0x08000adc   0x08000adc   0x00000004   Code   RO         1434    i.GPIO_SetBits      stm32f10x_gpio.o
    0x08000ae0   0x08000ae0   0x00000002   Code   RO          233    i.HardFault_Handler  stm32f10x_it.o
    0x08000ae2   0x08000ae2   0x00000002   Code   RO          234    i.MemManage_Handler  stm32f10x_it.o
    0x08000ae4   0x08000ae4   0x00000002   Code   RO          235    i.NMI_Handler       stm32f10x_it.o
    0x08000ae6   0x08000ae6   0x00000002   PAD
    0x08000ae8   0x08000ae8   0x00000064   Code   RO          292    i.NVIC_Init         misc.o
    0x08000b4c   0x08000b4c   0x00000014   Code   RO          293    i.NVIC_PriorityGroupConfig  misc.o
    0x08000b60   0x08000b60   0x00000020   Code   RO            1    i.NVIC_SetPriority  main.o
    0x08000b80   0x08000b80   0x00000002   Code   RO          236    i.PendSV_Handler    stm32f10x_it.o
    0x08000b82   0x08000b82   0x00000002   PAD
    0x08000b84   0x08000b84   0x00000018   Code   RO         1846    i.RCC_APB1PeriphClockCmd  stm32f10x_rcc.o
    0x08000b9c   0x08000b9c   0x00000018   Code   RO         1848    i.RCC_APB2PeriphClockCmd  stm32f10x_rcc.o
    0x08000bb4   0x08000bb4   0x000000c8   Code   RO         1856    i.RCC_GetClocksFreq  stm32f10x_rcc.o
    0x08000c7c   0x08000c7c   0x00000014   Code   RO         2383    i.SPI_Cmd           stm32f10x_spi.o
    0x08000c90   0x08000c90   0x00000038   Code   RO         2396    i.SPI_Init          stm32f10x_spi.o
    0x08000cc8   0x08000cc8   0x00000002   Code   RO          237    i.SVC_Handler       stm32f10x_it.o
    0x08000cca   0x08000cca   0x00000002   PAD
    0x08000ccc   0x08000ccc   0x000000d0   Code   RO         3306    i.SetSysClockTo72   system_stm32f10x.o
    0x08000d9c   0x08000d9c   0x00000004   Code   RO            2    i.SysTick_Handler   main.o
    0x08000da0   0x08000da0   0x0000004c   Code   RO         3308    i.SystemInit        system_stm32f10x.o
    0x08000dec   0x08000dec   0x0000003c   Code   RO            3    i.USART1_IRQHandler  main.o
    0x08000e28   0x08000e28   0x0000000c   Code   RO         3059    i.USART_ClearITPendingBit  stm32f10x_usart.o
    0x08000e34   0x08000e34   0x00000014   Code   RO         3062    i.USART_Cmd         stm32f10x_usart.o
    0x08000e48   0x08000e48   0x0000003e   Code   RO         3066    i.USART_GetITStatus  stm32f10x_usart.o
    0x08000e86   0x08000e86   0x00000030   Code   RO         3068    i.USART_ITConfig    stm32f10x_usart.o
    0x08000eb6   0x08000eb6   0x00000002   PAD
    0x08000eb8   0x08000eb8   0x000000ac   Code   RO         3069    i.USART_Init        stm32f10x_usart.o
    0x08000f64   0x08000f64   0x00000008   Code   RO         3076    i.USART_ReceiveData  stm32f10x_usart.o
    0x08000f6c   0x08000f6c   0x00000002   Code   RO          238    i.UsageFault_Handler  stm32f10x_it.o
    0x08000f6e   0x08000f6e   0x00000002   PAD
    0x08000f70   0x08000f70   0x0000007c   Code   RO         3719    i._CmdBosHandler    b_mod_shell.o
    0x08000fec   0x08000fec   0x00000078   Code   RO            4    i._CmdTempHandler   main.o
    0x08001064   0x08001064   0x0000007c   Code   RO         3940    i._GpioConfig       mcu_stm32f10x_gpio.o
    0x080010e0   0x080010e0   0x000001e4   Code   RO         4361    i._GpioInit         board.o
    0x080012c4   0x080012c4   0x00000018   Code   RO         3941    i._GpioRead         mcu_stm32f10x_gpio.o
    0x080012dc   0x080012dc   0x00000028   Code   RO         3942    i._GpioReadPin      mcu_stm32f10x_gpio.o
    0x08001304   0x08001304   0x00000014   Code   RO         3943    i._GpioWrite        mcu_stm32f10x_gpio.o
    0x08001318   0x08001318   0x00000024   Code   RO         3944    i._GpioWritePin     mcu_stm32f10x_gpio.o
    0x0800133c   0x0800133c   0x00000090   Code   RO         4362    i._SpiInit          board.o
    0x080013cc   0x080013cc   0x00000048   Code   RO         4082    i._UartReceive      mcu_stm32f10x_uart.o
    0x08001414   0x08001414   0x00000048   Code   RO         4083    i._UartSend         mcu_stm32f10x_uart.o
    0x0800145c   0x0800145c   0x00000028   Code   RO         4662    i.__0sprintf        mc_w.l(printfa.o)
    0x08001484   0x08001484   0x00000034   Code   RO         4665    i.__0vsnprintf      mc_w.l(printfa.o)
    0x080014b8   0x080014b8   0x0000000e   Code   RO         4748    i.__scatterload_copy  mc_w.l(handlers.o)
    0x080014c6   0x080014c6   0x00000002   Code   RO         4749    i.__scatterload_null  mc_w.l(handlers.o)
    0x080014c8   0x080014c8   0x0000000e   Code   RO         4750    i.__scatterload_zeroinit  mc_w.l(handlers.o)
    0x080014d6   0x080014d6   0x00000002   PAD
    0x080014d8   0x080014d8   0x00000074   Code   RO         3342    i._bCoreCreateFd    b_core.o
    0x0800154c   0x0800154c   0x00000024   Code   RO         3343    i._bCoreDeleteFd    b_core.o
    0x08001570   0x08001570   0x00000002   Code   RO         3344    i._bCoreMonitor     b_core.o
    0x08001572   0x08001572   0x00000024   Code   RO         3489    i._bDS18B20Ctl      b_drv_ds18b20.o
    0x08001596   0x08001596   0x00000002   PAD
    0x08001598   0x08001598   0x00000064   Code   RO         3490    i._bDS18B20Read     b_drv_ds18b20.o
    0x080015fc   0x080015fc   0x00000078   Code   RO         3424    i._bDriverNullInit  b_device.o
    0x08001674   0x08001674   0x0000005c   Code   RO         4105    i._bHalUpdateDelayParam  b_hal.o
    0x080016d0   0x080016d0   0x00000074   Code   RO         3491    i._bSbusReadByte    b_drv_ds18b20.o
    0x08001744   0x08001744   0x0000007c   Code   RO         3492    i._bSbusReady       b_drv_ds18b20.o
    0x080017c0   0x080017c0   0x00000054   Code   RO         3493    i._bSbusWriteByte   b_drv_ds18b20.o
    0x08001814   0x08001814   0x00000054   Code   RO         3874    i._bUtilUartDetectIdle  b_util_uart.o
    0x08001868   0x08001868   0x00000184   Code   RO         4667    i._fp_digits        mc_w.l(printfa.o)
    0x080019ec   0x080019ec   0x000006b4   Code   RO         4668    i._printf_core      mc_w.l(printfa.o)
    0x080020a0   0x080020a0   0x00000024   Code   RO         4669    i._printf_post_padding  mc_w.l(printfa.o)
    0x080020c4   0x080020c4   0x0000002e   Code   RO         4670    i._printf_pre_padding  mc_w.l(printfa.o)
    0x080020f2   0x080020f2   0x00000002   PAD
    0x080020f4   0x080020f4   0x0000003c   Code   RO         4281    i._shell_init       nr_micro_shell.o
    0x08002130   0x08002130   0x00000016   Code   RO         4671    i._snputc           mc_w.l(printfa.o)
    0x08002146   0x08002146   0x0000000a   Code   RO         4672    i._sputc            mc_w.l(printfa.o)
    0x08002150   0x08002150   0x0000000e   Code   RO         4154    i.ansi_clear_current_line  ansi.o
    0x0800215e   0x0800215e   0x00000002   PAD
    0x08002160   0x08002160   0x000000f0   Code   RO         4155    i.ansi_get_char     ansi.o
    0x08002250   0x08002250   0x00000016   Code   RO         4156    i.ansi_init         ansi.o
    0x08002266   0x08002266   0x00000020   Code   RO         4157    i.ansi_search_char  ansi.o
    0x08002286   0x08002286   0x00000002   PAD
    0x08002288   0x08002288   0x00000014   Code   RO         4197    i.ansi_show_char    ansi_port.o
    0x0800229c   0x0800229c   0x00000018   Code   RO         4198    i.ansi_show_str     ansi_port.o
    0x080022b4   0x080022b4   0x00000030   Code   RO         3345    i.bClose            b_core.o
    0x080022e4   0x080022e4   0x00000018   Code   RO         3347    i.bCtl              b_core.o
    0x080022fc   0x080022fc   0x00000024   Code   RO         3494    i.bDS18B20_Init     b_drv_ds18b20.o
    0x08002320   0x08002320   0x00000084   Code   RO         3425    i.bDeviceClose      b_device.o
    0x080023a4   0x080023a4   0x00000088   Code   RO         3426    i.bDeviceCtl        b_device.o
    0x0800242c   0x0800242c   0x00000044   Code   RO         3428    i.bDeviceInit       b_device.o
    0x08002470   0x08002470   0x00000084   Code   RO         3429    i.bDeviceOpen       b_device.o
    0x080024f4   0x080024f4   0x0000008c   Code   RO         3430    i.bDeviceRead       b_device.o
    0x08002580   0x08002580   0x00000020   Code   RO         3348    i.bExec             b_core.o
    0x080025a0   0x080025a0   0x0000001c   Code   RO         4107    i.bHalDelayUs       b_hal.o
    0x080025bc   0x080025bc   0x0000000c   Code   RO         4108    i.bHalGetSysTick    b_hal.o
    0x080025c8   0x080025c8   0x00000010   Code   RO         4109    i.bHalIncSysTick    b_hal.o
    0x080025d8   0x080025d8   0x00000004   Code   RO         4110    i.bHalInit          b_hal.o
    0x080025dc   0x080025dc   0x00000308   Code   RO         3349    i.bInit             b_core.o
    0x080028e4   0x080028e4   0x000000c8   Code   RO         3625    i.bLogOut           b_mod_log.o
    0x080029ac   0x080029ac   0x0000001c   Code   RO         3626    i.bLogOutput        b_mod_log.o
    0x080029c8   0x080029c8   0x00000030   Code   RO         3351    i.bOpen             b_core.o
    0x080029f8   0x080029f8   0x00000044   Code   RO         3352    i.bRead             b_core.o
    0x08002a3c   0x08002a3c   0x0000001c   Code   RO         3720    i.bShellInit        b_mod_shell.o
    0x08002a58   0x08002a58   0x00000048   Code   RO         3721    i.bShellParse       b_mod_shell.o
    0x08002aa0   0x08002aa0   0x00000054   Code   RO            5    i.main              main.o
    0x08002af4   0x08002af4   0x0000001e   Code   RO         4199    i.nr_ansi_ctrl_common_slover  ansi_port.o
    0x08002b12   0x08002b12   0x00000002   PAD
    0x08002b14   0x08002b14   0x0000004c   Code   RO         4200    i.nr_ansi_in_backspace  ansi_port.o
    0x08002b60   0x08002b60   0x00000084   Code   RO         4201    i.nr_ansi_in_down   ansi_port.o
    0x08002be4   0x08002be4   0x0000002c   Code   RO         4202    i.nr_ansi_in_enter  ansi_port.o
    0x08002c10   0x08002c10   0x00000030   Code   RO         4203    i.nr_ansi_in_left   ansi_port.o
    0x08002c40   0x08002c40   0x00000006   Code   RO         4204    i.nr_ansi_in_newline  ansi_port.o
    0x08002c46   0x08002c46   0x00000002   PAD
    0x08002c48   0x08002c48   0x00000034   Code   RO         4205    i.nr_ansi_in_right  ansi_port.o
    0x08002c7c   0x08002c7c   0x000000d4   Code   RO         4206    i.nr_ansi_in_tab    ansi_port.o
    0x08002d50   0x08002d50   0x00000088   Code   RO         4207    i.nr_ansi_in_up     ansi_port.o
    0x08002dd8   0x08002dd8   0x0000008c   Code   RO         4282    i.nr_shell_strtok   nr_micro_shell.o
    0x08002e64   0x08002e64   0x00000040   Code   RO         4283    i.shell_cmd_complete  nr_micro_shell.o
    0x08002ea4   0x08002ea4   0x0000007c   Code   RO         4284    i.shell_his_copy_queue_item  nr_micro_shell.o
    0x08002f20   0x08002f20   0x000000aa   Code   RO         4285    i.shell_his_queue_add_cmd  nr_micro_shell.o
    0x08002fca   0x08002fca   0x00000010   Code   RO         4286    i.shell_his_queue_init  nr_micro_shell.o
    0x08002fda   0x08002fda   0x00000002   PAD
    0x08002fdc   0x08002fdc   0x00000086   Code   RO         4287    i.shell_his_queue_search_cmd  nr_micro_shell.o
    0x08003062   0x08003062   0x00000002   PAD
    0x08003064   0x08003064   0x0000012c   Code   RO         4288    i.shell_parser      nr_micro_shell.o
    0x08003190   0x08003190   0x00000030   Code   RO         4289    i.shell_search_cmd  nr_micro_shell.o
    0x080031c0   0x080031c0   0x00000010   Data   RO            6    .constdata          main.o
    0x080031d0   0x080031d0   0x00000006   Data   RO         3355    .constdata          b_core.o
    0x080031d6   0x080031d6   0x0000005e   Data   RO         3433    .constdata          b_device.o
    0x08003234   0x08003234   0x00000006   Data   RO         3628    .constdata          b_mod_log.o
    0x0800323a   0x0800323a   0x0000000f   Data   RO         3722    .constdata          b_mod_shell.o
    0x08003249   0x08003249   0x00000003   PAD
    0x0800324c   0x0800324c   0x00000014   Data   RO         3945    .constdata          mcu_stm32f10x_gpio.o
    0x08003260   0x08003260   0x00000008   Data   RO         4084    .constdata          mcu_stm32f10x_uart.o
    0x08003268   0x08003268   0x00000078   Data   RO         4159    .constdata          ansi.o
    0x080032e0   0x080032e0   0x00000063   Data   RO         4208    .constdata          ansi_port.o
    0x08003343   0x08003343   0x00000019   Data   RO         4290    .constdata          nr_micro_shell.o
    0x0800335c   0x0800335c   0x00000081   Data   RO         4386    .constdata          mc_w.l(ctype_o.o)
    0x080033dd   0x080033dd   0x00000003   PAD
    0x080033e0   0x080033e0   0x00000004   Data   RO         4387    .constdata          mc_w.l(ctype_o.o)
    0x080033e4   0x080033e4   0x0000000d   Data   RO         3434    .conststring        b_device.o
    0x080033f1   0x080033f1   0x00000003   PAD
    0x080033f4   0x080033f4   0x00000041   Data   RO         4209    .conststring        ansi_port.o
    0x08003435   0x08003435   0x00000003   PAD
    0x08003438   0x08003438   0x00000046   Data   RO         4291    .conststring        nr_micro_shell.o
    0x0800347e   0x0800347e   0x00000002   PAD
    0x08003480   0x08003480   0x00000005   Data   RO            7    .conststrlit        main.o
    0x08003485   0x08003485   0x00000003   PAD
    0x08003488   0x08003488   0x00000004   Data   RO         3723    .conststrlit        b_mod_shell.o
    0x0800348c   0x0800348c   0x00000020   Data   RO         4746    Region$$Table       anon$$obj.o
    0x080034ac   0x080034ac   0x00000008   Data   RO            8    b_mod_shell         main.o
    0x080034b4   0x080034b4   0x00000008   Data   RO         3724    b_mod_shell         b_mod_shell.o
    0x080034bc   0x080034bc   0x00000004   Data   RO         3357    bos_polling         b_core.o
    0x080034c0   0x080034c0   0x00000004   Data   RO         3877    bos_polling         b_util_uart.o
    0x080034c4   0x080034c4   0x00000004   Data   RO         3436    driver_init         b_device.o
    0x080034c8   0x080034c8   0x00000004   Data   RO         3497    driver_init         b_drv_ds18b20.o
    0x080034cc   0x080034cc   0x00000004   Data   RO         3437    driver_init_0       b_device.o


    Execution Region RW_IRAM1 (Exec base: 0x20000000, Load base: 0x080034d0, Size: 0x00000b28, Max: 0x00010000, ABSOLUTE)

    Exec Addr    Load Addr    Size         Type   Attr      Idx    E Section Name        Object

    0x20000000   0x080034d0   0x00000014   Data   RW         1884    .data               stm32f10x_rcc.o
    0x20000014   0x080034e4   0x00000014   Data   RW         3309    .data               system_stm32f10x.o
    0x20000028   0x080034f8   0x00000001   Data   RW         3356    .data               b_core.o
    0x20000029   0x080034f9   0x00000003   PAD
    0x2000002c   0x080034fc   0x00000010   Data   RW         3435    .data               b_device.o
    0x2000003c   0x0800350c   0x00000014   Data   RW         4085    .data               mcu_stm32f10x_uart.o
    0x20000050   0x08003520   0x00000008   Data   RW         4112    .data               b_hal.o
    0x20000058   0x08003528   0x00000094   Data   RW         4292    .data               nr_micro_shell.o
    0x200000ec   0x080035bc   0x00000004   Data   RW         4293    .data               nr_micro_shell.o
    0x200000f0        -       0x00000050   Zero   RW         3354    .bss                b_core.o
    0x20000140        -       0x00000020   Zero   RW         3432    .bss                b_device.o
    0x20000160        -       0x00000020   Zero   RW         3495    .bss                b_drv_ds18b20.o
    0x20000180        -       0x00000100   Zero   RW         3627    .bss                b_mod_log.o
    0x20000280        -       0x00000020   Zero   RW         3876    .bss                b_util_uart.o
    0x200002a0        -       0x00000084   Zero   RW         4158    .bss                ansi.o
    0x20000324   0x080035c0   0x00000004   PAD
    0x20000328        -       0x00000800   Zero   RW         3335    STACK               startup_stm32f10x_cl.o


==============================================================================

Image component sizes


      Code (inc. data)   RO Data    RW Data    ZI Data      Debug   Object Name

       308          4        120          0        132       7089   ansi.o
       780        146        164          0          0      12489   ansi_port.o
      1150        584         10          1         80       6562   b_core.o
       728        352        115         16         32       7144   b_device.o
       496         30          4          0         32       7555   b_drv_ds18b20.o
       152         32          0          8          0       3147   b_hal.o
       228         18          6          0        256       3007   b_mod_log.o
       224         98         27          0          0       2503   b_mod_shell.o
        84          4          4          0         32       2302   b_util_uart.o
       764         42          0          0          0       2440   board.o
         0          0          0          0          0         32   core_cm3.o
       300         42         29          0          0     286613   main.o
       244         24         20          0          0       5913   mcu_stm32f10x_gpio.o
       144          8          8         20          0       3973   mcu_stm32f10x_uart.o
       120         16          0          0          0       1727   misc.o
      1056        108         95        152          0      10181   nr_micro_shell.o
        36          8        336          0       2048        928   startup_stm32f10x_cl.o
       254          6          0          0          0       3465   stm32f10x_gpio.o
        16          0          0          0          0       3388   stm32f10x_it.o
       248         34          0         20          0       5682   stm32f10x_rcc.o
        76          0          0          0          0       2381   stm32f10x_spi.o
       322          6          0          0          0       6128   stm32f10x_usart.o
       284         30          0         20          0       2213   system_stm32f10x.o

    ----------------------------------------------------------------------
      8040       1592        984        240       2616     386862   Object Totals
         0          0         32          0          0          0   (incl. Generated)
        26          0         14          3          4          0   (incl. Padding)

    ----------------------------------------------------------------------

      Code (inc. data)   RO Data    RW Data    ZI Data      Debug   Library Member Name

         8          4        133          0          0         68   ctype_o.o
         0          0          0          0          0          0   entry.o
         0          0          0          0          0          0   entry10a.o
         0          0          0          0          0          0   entry11a.o
         4          0          0          0          0          0   entry12b.o
         8          4          0          0          0          0   entry2.o
         4          0          0          0          0          0   entry5.o
         0          0          0          0          0          0   entry7b.o
         0          0          0          0          0          0   entry8b.o
         8          4          0          0          0          0   entry9a.o
        30          0          0          0          0          0   handlers.o
        36          8          0          0          0         68   init.o
         0          0          0          0          0          0   iusefp.o
        30          0          0          0          0         68   llshl.o
        36          0          0          0          0         68   llsshr.o
        32          0          0          0          0         68   llushr.o
        36          0          0          0          0         68   memcpya.o
        36          0          0          0          0        108   memseta.o
      2310         92          0          0          0        680   printfa.o
        28          0          0          0          0         76   strcmp.o
        18          0          0          0          0         68   strcpy.o
        14          0          0          0          0         68   strlen.o
        36          0          0          0          0         80   strstr.o
        44          0          0          0          0         80   uidiv.o
        98          0          0          0          0         92   uldiv.o
        48          0          0          0          0         68   cdrcmple.o
        56          0          0          0          0         88   d2f.o
       334          0          0          0          0        148   dadd.o
       222          0          0          0          0        100   ddiv.o
       186          0          0          0          0        176   depilogue.o
        50          0          0          0          0         76   dfixui.o
        48          0          0          0          0         68   dfixul.o
        34          0          0          0          0         76   dflti.o
        26          0          0          0          0         76   dfltui.o
       228          0          0          0          0         96   dmul.o
        46          0          0          0          0         80   dscalb.o
       110          0          0          0          0        168   fepilogue.o
        50          0          0          0          0         68   ffixi.o
       100          0          0          0          0         76   fmul.o

    ----------------------------------------------------------------------
      4360        112        136          0          0       3024   Library Totals
         6          0          3          0          0          0   (incl. Padding)

    ----------------------------------------------------------------------

      Code (inc. data)   RO Data    RW Data    ZI Data      Debug   Library Name

      2816        112        133          0          0       1660   mc_w.l
      1538          0          0          0          0       1364   mf_w.l

    ----------------------------------------------------------------------
      4360        112        136          0          0       3024   Library Totals

    ----------------------------------------------------------------------

==============================================================================


      Code (inc. data)   RO Data    RW Data    ZI Data      Debug   

     12400       1704       1120        240       2616     383486   Grand Totals
     12400       1704       1120        240       2616     383486   ELF Image Totals
     12400       1704       1120        240          0          0   ROM Totals

==============================================================================

    Total RO  Size (Code + RO Data)                13520 (  13.20kB)
    Total RW  Size (RW Data + ZI Data)              2856 (   2.79kB)
    Total ROM Size (Code + RO Data + RW Data)      13760 (  13.44kB)

==============================================================================

